:100000000C9402120C942A120C942A120C942A12A8
:100010000C942A120C942A120C942A120C942A1270
:100020000C942A120C942A120C942A120C942A1260
:100030000C942A120C942A120C942A120C942A1250
:100040000C942A120C942A120C942A120C942A1240
:100050000C942A120C942A120C942A120C943E121C
:100060000C942A120C942A120C942A120C942A1220
:100070000C942A120C942A120C942A120C942A1210
:100080000C940E180C942A120C942A120C942A1216
:100090000C942A120C942A120C942A120C942A12F0
:1000A0000C942A120C942A120C942A127223D32331
:1000B000C2246F25D627D627C028C5283E29A929BE
:1000C0003B2C3D2C3F2C442C492C492C492C492CB1
:1000D000512C512C512C512C8A278A278A278A2768
:1000E00088271B132113FD120C133C133C132713F9
:1000F0002D1333130E02111A07040C0008090D0307
:100100001B15060E0201171A041C150008090D0321
:100110000B060E00020406181A150C010307090B42
:100120000D0E0E0708090D000102131A0B0C141511
:10013000060E000102031415060708191A0B0C0D10
:10014000D5F08D14A1C881CFD9F1AF2000111020B6
:10015000705052FAA850FE07FE50A8FA5250702074
:100160000E040060FF23606163616023FF60000490
:100170000E150802070220702002070220702002DC
:1001800007022070200207023C18207020000000A7
:1001900001FFFFFF00317B030001FFFFFF010000B3
:1001A00080031FFFFFE00F010001FFFFFF010001BF
:1001B000F30F3F7EF8E1DF010078FEFF0120E1E36D
:1001C000EF0000207020103030B0B0B0B2B3B3B345
:1001D000B2000000008273F3F3C0020383E0F21365
:1001E000031332F00012F3F3F30210B2330200E013
:1001F000F1938330700001B3B2B0B3B1B1B0B0309D
:100200003010000000000101010505051500002067
:100210003C23082F3F3F3820071F3F200020300895
:1002200000203F3F3F00233338003C312307273F66
:100230001E0000150505050101010000000022084F
:100240003F300C0219240438003804380438007890
:10025000042418003D003C08003D00182424002818
:1002600034340B10010411471F7C3F0771C81C0078
:10027000000000010000030100001B083F090906FF
:10028000003F0404380018240438003C08001824F7
:10029000043800780424180B10F804FA8D8DFD8DB5
:1002A0008DFA04F800011E212F212F211E010019B3
:1002B000083F0901003D003F0038043804380018A9
:1002C000242418023F02182434280B10F038FD763D
:1002D0007C7C7C76FD38F00000000101000101000B
:1002E00000000508120E070E1233107CFEFF0100FD
:1002F00083CF0001FFFFFF00FFEFEE00FFFFFF10C5
:1003000081C700FFFFFF00FFFE7C01FFFFFF010030
:100310000700FFFFFF000700CE9F3938F3F700000A
:1003200001010001000001010101000001010001C3
:1003300001010001010001010100010000010101B2
:1003400001010000000101010000000101010001A4
:10035000003E183C7EFF00F17780F08C23FFFEE02A
:100360000081FF0FFE08FFFFFF00FFFFFF0881E78E
:100370000000003C7EFF00FF7E3C010F7FFD600F10
:100380000100FFFFFF0881E700FFFFFF007FF7F696
:10039000C0048484C48484040404040404048484A1
:1003A000C484840404000000100420845004F0F885
:1003B00098E838B0E0C0800000040404048484C4D9
:1003C0008484040404040404048484C48484040031
:1003D0000403010304000000000000000403010303
:1003E00004000000000000000F1A151208010306A7
:1003F0000F0B0C07030000000000000403010304BE
:10040000000000000000000403010304003C185039
:1004100020000001F70FFFFC08FFFFFF010001FFB4
:10042000FFFF01008E1F3938F3F7008E1F3938F3B4
:10043000F70001FFFFFF017CFEFF0100FFFE7C01D2
:10044000FB071F7EFCF1EF0000205048C8A8C849F8
:10045000090849C8A8C949010100E1F1F90901F8F1
:10046000F1E108F9F9F800F91900F9F9F88009390A
:1004700001F9F9F800F9793001000049C9A9C84823
:10048000080949C8A8C8480A0502050A00000A0563
:1004900002050A00000003070F08000F0703000011
:1004A000070F000300000F0F0F000C0E000F0F0FBF
:1004B00000070F0E0400000A0502050A00000A05E5
:1004C00002050A3E18200020000001F70FFFFC087B
:1004D000FFFFFF010001FFFFFF01008E1F3938F30E
:1004E000F7008E1F3938F3F70001FFFFFF017CFE94
:1004F000FF0100FFFE7C01FB071F7EFCF1EF000007
:1005000020002040C0E0C0400171F8C9C098B90186
:10051000F9F9F80109F909E1F0F90900197900E0A0
:10052000F1F90801197800F9F9F98109380071F930
:10053000C8C198B80171F9C8C098B90140C0E0C0FD
:10054000400201000102000E0C09010F0700070F15
:100550000F0008070003070F08000C060003070F31
:1005600008000C06000F0F0F000C0E000E0C090106
:100570000F07000E0C09010F070002010001022500
:10058000083F043F003A0018A478003E08380000F5
:1005900022252519001824240018242418003C08BA
:1005A00004001824342816082225251900182424AC
:1005B0000018242418003C080400182434282218A9
:1005C000E01090909090909090100884828281C169
:1005D000F9F9C18182828408109090909090909057
:1005E00010E01F20A5A6A5A6A5A625408000417362
:1005F0003F1F1F1F1F3F734100804025A6A5A6A5D2
:10060000A6A5201F0000000000000000000000015F
:1006100002020404040404040202010000000000B9
:10062000000000000000E4020200750506007D06DF
:100630000800750504000080DC00090093000A0032
:1006400083000600AF000A000080AF00030026010F
:100650000400B8010400A50001000080AF001600EE
:10066000AF001600AF00160000800E1000FC021252
:1006700062026A02621202FCA8000001020602067F
:1006800002060206020502000E1000FC02123A7A6F
:10069000F27A3A1202FCA8000001020602060206E3
:1006A0000206020502000E1000FC02F2CAF202F27B
:1006B000CAF202FCA80000010206020602060206B7
:1006C00002050200FFFF0001010100FF000101011E
:1006D00000FFFFFFFFFF0001010100FF000101011A
:1006E00000FFFFFF05050000000E040E000E0000D5
:1006F00000070207001F081C0018001C081C001F30
:10070000020700070080E8FCFEFC5CFCFCF8FCFC37
:10071000FCFCFEFCE0400C1F3F1F0F1F1E1F1F7F35
:10072000FFFFFFFF7F1F0C00000000000000000023
:100730000000000103010000000080C0E0C080C094
:10074000C0C0C0F0F8FCFEFCF0C08000010FBFFF8D
:10075000FFFFD3FFFFFFFFFFFFFFFFFF3910000088
:100760000001030101010100010101010301000079
:100770001213000080E8FC180848E8E0C8CCC8E084
:10078000ECC04000000C1D0F050C0C0E0E067DE6A3
:10079000FD76000C000000000000000000000000DA
:1007A00000000100000000000080C0800080808008
:1007B0008000F038FC700080000000010DBFFDC11A
:1007C0008193BB3B9D9B9D3BB8191000000000002E
:1007D000010000000000000100000100000000070F
:1007E0000E0700FFFEFF5504690200000D005504CE
:1007F000690000000D0055046900000001001704A5
:10080000AB01000001001704D5000000010017042F
:10081000D50000000100DC03810200000100DC03C0
:10082000D50000000100A4031C0100000100A40386
:10083000460000006C00A403220000006C00A4032A
:10084000220000006C00A403220000004800700396
:100850001C0100000100E4021C0100000100700303
:100860001C01000001003F031C0100000100930275
:100870001C01000001003F031C0100000100E40214
:100880008102000001006E024600000001000B0220
:100890004600000001006E024600000001002A022E
:1008A0007B030080E402F20100009000E4022200D9
:1008B00000004800E402220000004800E402B10009
:1008C00000006C00E402690000002400E40246001D
:1008D000000048003F03690000002400A4036900F1
:1008E00000002400DC030A040000FB00DC036900B4
:1008F000000024005504460000004800DD044600C6
:100900000000480075055D02000024007505220006
:10091000000048007505220000004800750522000F
:100920000000B3005504B100000024007505460026
:1009300000004800C8057500000018007D06690029
:1009400000002400C8056906008057001600570003
:10095000160057001600008029087F021C027F0045
:1009600000447D40000048545454240048545454DA
:10097000240000447D4000003844444438007C0892
:1009800004047800002C015D0152005D0152005DFD
:100990000152005D0152000000030072015200721A
:1009A00001520072015200720152000000030088DF
:1009B0000152008801520088015200880152000053
:1009C0000003009F0152009F0152009F0152009FAF
:1009D00001520000000300B8015200B8015200B8F3
:1009E000015200B801520000000300D2015200D2AF
:1009F000015200D2015200D201520000000300EE69
:100A0000015200EE015200EE015200EE01520000D0
:100A10000003000B0252000B0252000B0252000BAB
:100A200002520000000300008004083E09093E3F16
:100A300025251A1E2121123F21211E3F2525213F58
:100A40000505011E21293A3F04043F213F210010E2
:100A500021211F3F040A313F2020203F02023F3F57
:100A600002043F1E21211E3F0909061E21112E3FAF
:100A700009093622252519013F01011F20201F0FDA
:100A800010201F3F10103F3B04043B030438073184
:100A90002D23211E29251E223F200032292926121E
:100AA00021251A0C0A3F08172525191E252518018E
:100AB0003905031A25251A0629291E11087E00303A
:100AC000486850003840380030486850007E0308BD
:100AD0003E1C080308081C3E1F08FC042418003CA8
:100AE0000804001824342800283434002834340042
:100AF00000007E81BD95BD817E8010A020008040D9
:100B000040404040802020800080404040800020C5
:100B1000C000000080404000000000404040004015
:100B200080000040000000000000400000000000C5
:100B300000000000000000000000000000000000B5
:100B40000000000000000000000040000000000065
:100B50000040000080400040404000000000404055
:100B600080000000C02000804040408000802020A5
:100B7000804040404040804020A0A0FAFDEDFEDDD6
:100B8000BEFDFEF5FEFDDDFEFDEEFDFEF3ECD3E069
:100B9000E888D0C0F0FAF8ABD9F3F4F2D1FBF9AAA7
:100BA000D8F2A4FE00AAAAAAAA00FEC8F5E5D4E8D5
:100BB000D0E8D2D2E8D4E4D4E4D4E8D4E4D4E4D481
:100BC000E8D2D2E8D0E8D4E5F5C8F4D2EADAEADA35
:100BD000EADAA4F2D8AAF9FBD1F2F4F3D9ABF8FA25
:100BE000F0C0D088E8E0D3ECF3FEFDEEFDFEDDFDC5
:100BF000FEF5FEFDBEDDFEEDFDFAFF8010FF5FBFDE
:100C0000B77FBB7DBF7FAF7FBFBB7FBF77BF7FCFCE
:100C100037CB0717110B030F5F1FD59BCF2F4F8BC0
:100C2000DF9F551B4F255B575B575B574B2F13AF10
:100C3000A72B170B174B4B172B272B272B172B27C4
:100C40002B272B174B4B170B172BA7AF137F0055D9
:100C5000555555007F254F1B559FDF8B4F2FCF9B41
:100C6000D51F5F0F030B111707CB37CF7FBF77BFA0
:100C70007FBBBF7FAF7FBF7DBB7FB7BF5F05050475
:100C80000201020202020201040401000102020246
:100C90000100040300000001020200000000020243
:100CA000020002010000020000000000000200003B
:100CB0000000000000000000000000000000000034
:100CC0000000000000000000000000000002000022
:100CD0000000000002000001020002020200000009
:100CE00000020201000000030400010202020100F0
:100CF0000104040102020202020100040536102070
:100D0000380F053D0720382F2525110021393F01D7
:100D100001031C2720301C0F20380F053D07203908
:100D2000072C3927010000000021393F0101031C75
:100D3000260120190E000000040E0400203C033F91
:100D400010283E3F0120382F0120382F21211F0E6F
:100D5000003D3F09043F1824330D2A3F2000213F66
:100D60003D04030100040E040000003E20005080FA
:100D70005C9211F1010101FF00A000F8040201E101
:100D800011111111E1010204F8004000C030080601
:100D900001C1F1010101FF000000004000C0300866
:100DA0000601C1F1010101FF00000000000055AA89
:100DB00000FF000000FF002A400F183020212222EF
:100DC0002222E3000000FF007C43404040444744AF
:100DD000C7000000C744447C017C43404040444776
:100DE00044C7000000C744447C804000714844432D
:100DF000404040434478008F1121414342424242E7
:100E0000434020100F0001020142A10279444340F7
:100E10004040434478010201020142A10279444367
:100E200040404043447800020102010201020102F5
:100E300001000000000001020102010201020100A4
:100E40000000000000000001020102010201020195
:100E50000000000000000000010201020102010286
:100E600001000000005504A8000000B0005504A8CF
:100E70000000005C013F03A8005504A800DC030C3F
:100E8000067003A8000000B0007003A80000005C1A
:100E9000017003A800E402A8007003A800A403E204
:100EA00000E402E200A403E2001704E2003F03E2D0
:100EB000001704E2005504A8000000B0005504A883
:100EC0000000005C013F03A8005504A800DC030CEF
:100ED000067003A8000000B0007003A80000005CCA
:100EE000017003A800E402A8007003A800A403E2B4
:100EF00000E402E200A403E2001704E2003F03E280
:100F000000DD04E2007505CF08BA020604E402A879
:100F1000001003A8003F035F05A403560300000769
:100F2000001704A8005504A800DD04A80075055F9B
:100F300005C805560300000700490755017D06A8AE
:100F400000C8055F05DD04560300000700C805550D
:100F5000017505A80055045603000007001704A8F2
:100F600000A403A8003F03A800BA020604E402A8F4
:100F7000001003A8003F035F05A403560300000709
:100F8000001704A8005504A800DD04A80075055F3B
:100F900005C805560300000700490755017D06A84E
:100FA00000C8055F05DD04AE023F035501C805A872
:100FB000007505A80055045F050080001E3EFEFE7A
:100FC000FCF8F8FCFEFF3F1F0F0000003C3E3F3FD7
:100FD0001F0F07070FCFFFFF7C7C7E0E0000000075
:100FE0000000000000000000000000000000008081
:100FF000C0FCFEFFFEFCF0C0C080C0E0F0E00001DD
:1010000003077FFFFFFF7F1F070703070F1F0F0166
:1010100000000000000100000000000000000000CF
:101020000078F8F8F8F0E0C0C0E0E6FEFE7C7CFC5A
:10103000E00000F0F9FFFF7F3F3F7FFFFFF9F0E0A6
:10104000000000000000000000000000000101019D
:101050000100000000000000040EDEFEFFFEDE0EB8
:101060000400000000081C3E3E3F3F7FFFFFFF7F63
:101070003F3F3E3E1C080000000000000000010051
:101080000000000000000000E0FC7C7CFEFEE6E0CA
:10109000C0C0E0F0F8F8F878000000E0F0F9FFFFD9
:1010A0007F3F3F7FFFFFF9F00000000001010101D9
:1010B0000000000000000000000000E0F0E0C08040
:1010C000C0C0F0FCFEFFFEFCC08000010F1F0F0738
:1010D0000307071F7FFFFFFF7F07030100000000DA
:1010E00000000000000000010000000000000000FF
:1010F0000F1F3FFFFEFCF8F8FCFEFE3E1E00000E38
:101100007E7C7CFFFFCF0F07070F1F3F3F3E3C0059
:1011100000000000000000000000000000000000CF
:101120002070F8F8F8F8FCFEFFFEFCF8F8F8F8700C
:10113000200000000041E1F7FFFFFFF7E141000060
:10114000000000000000000000000100000000009E
:10115000000000111100001C3CFCD8B070F8EC3EFF
:101160001E0E00000000001C1E1F0D0703030707D2
:101170004F6C30380C000000000000000000000040
:101180000000000000000000111100008080FCEE53
:10119000FCF08080800000C0E00000000103037EBE
:1011A000EE7E1F0303030101070F01000000000092
:1011B000000000000000000000000000001111000D
:1011C00070F0F060C08080C0C0E46C18386000002F
:1011D000000070797F371B1D3F6FF9F0E0000000C1
:1011E00000000000000000000000000000000000FF
:1011F000000011110000000000040CCCFECC0C0417
:10120000000000000000081C1C161E1E7FE37F1E4D
:101210001E161C1C0800000000000000000000005A
:1012200000000000000000111100006038186CE49C
:10123000C0C08080C060F0F0700000000000E0F0EE
:10124000F96F3F1D1B377F79700000000000000020
:10125000000000000000000000000000111100006C
:10126000E0C00000808080F0FCEEFC808000800008
:10127000010F0701010303031F7EEE7E030301003C
:10128000000000000000000000000000000000005E
:10129000001111000000000E1E3EECF870B0D8FCEA
:1012A0003C1C000000000C38306C4F07070303079C
:1012B0000D1F1E1C000000000000000000000000C8
:1012C000000000000000111100207070D0F0F0FC50
:1012D0008EFCF0F0D0707020000000000000406034
:1012E00067FF676040000000000000000000000091
:1012F000000000000000000000000080E0F0E000BE
:101300000A3F7F3F02000000000040F0F8F00012AA
:101310007FFF7F02000000000040FCFEFC4017FF42
:10132000FFFF12000103010060FEFFFE702037FF87
:10133000FFFF772200030703000005130080E00091
:1013400000000A3F0200000000000005130040F00A
:10135000000000127F0200000000000005130040A2
:10136000FC40000017FF12000000010000061300FF
:1013700060FE2020000037FF27220000000300004D
:10138000000E0EEEE0E00080DCDFFF67737370009C
:1013900000E0E0FBBB3FE7E7E7070100C0DCDC1C47
:1013A0000001030303000000000000000101010030
:1013B000000F1F6FF4E8FCDEFFFFE7F07F1F47E040
:1013C00040C0E8FECF0F67F7FFFF9F3D10C0E2F778
:1013D000620101010301000000010000030303009A
:1013E0000000001C1C7CFCFCF8F8FC3C1C0000000D
:1013F00000000038383E1F0F0F070F1F1E1C000093
:1014000000000000000000000000000000000000DC
:101410000070F0F0FEFEFEF8F0F8F8FC7E3E0E00E4
:101420000000F0FDFF7F7F3F1F0F1F3F3F7C70706C
:1014300000000101010000000000000000000000A9
:1014400000101200040040000000808842000120CB
:1014500000000080400011000240020000000080F7
:101460000800000000010000000000000000000073
:101470000000001012060F0460C0C88C9EC7C06038
:10148000100200400080C0C806070363678F0D107C
:101490000000C06200000000010000000000000029
:1014A00000010000001012000000001070E0E0F0E9
:1014B0003008000000000000000010080E070703BD
:1014C0000706080000000000000000000000000007
:1014D0000000000000000010122060E0E0FCF8F0C6
:1014E000E0F0F078380C0000000000E07D3F3F1F86
:1014F0000F070F1F1C30200000000000000000003C
:1015000000000000000000000060FEFFFE702037B9
:10151000FFFFFF7722000307030000000080F0FCBC
:10152000FEFFFEFCF0F0F070F0F8F8F02002070F7C
:101530007FFFFFFFFFFF7F7F7A70FFFFFFFF20002D
:10154000000000010307030100000000000000008C
:10155000000000A0FEFFFEFC70F0F8F02002072F54
:10156000FFFFFFFF777FFF7F2000000003070301DD
:1015700000000000007070FEFFFE707277FFFFFF3A
:101580007700000307030070F8F8F870FCFEFFFE18
:10159000F0000070FFFFFF77FFFFFFFF7F070200F3
:1015A000000000000103070300000070F8F8F8F8DD
:1015B00070F0F0F0FCFEFFFEFCF080000070FFFF1A
:1015C000FFFF707A7F7FFFFFFFFFFF7F0F070200A3
:1015D00000000000000000000103070301000000FC
:1015E0000006130060FE2020000037FF27220000C5
:1015F000000300000012130000000060FCFEFC600D
:101600006060202020F0F020000002070737FFFF75
:10161000FF3737322020207F7F20000000000000AD
:10162000010301000000000000000000000C130096
:10163000000020FEFC202020F0200000020727FFF1
:10164000FF272220FF20000000000003010000000F
:101650000000000613002020FE6000002227FF3754
:10166000000000000300000C130020F0202060FCAC
:10167000FE2000000000207F202237FDFF2507020A
:101680000000000000000001030000000012130031
:1016900020B0F0202020606060BC66BC600030009C
:1016A0000000206F7F202020323735ED37ED3507E1
:1016B00067020000000000000000000000010301BC
:1016C00000000000000020B0F0202020606060BC1E
:1016D00066BC600060000000206F7F202020323751
:1016E00035ED37ED3507370200000000000000003F
:1016F00000000001030100000000000F0F0F0304B1
:101700000006000707070707070707070707070778
:10171000070707071106000200020002000200028C
:101720000002000200020005030101030107050594
:10173000040E1F1F0A0F0F0F0F0F050406090909DA
:10174000060E040406040F0204090606090409062D
:1017500004040F0506070807010F06090701060222
:101760000204080F060906090603040A09064C0BC1
:1017700000C430CAA4D5E968F4EAF2EAF2AAF4E9AE
:10178000E9F4E874EAF29A6498014640800084D251
:10179000C258C898A0928ADAC852C4902050B000AB
:1017A000000060108040A020A0408040909040A0A9
:1017B00020A020A040809050408020000406030418
:1017C00001070707070605070707030706070707B7
:1017D00007070707060703040606070707050607A6
:1017E00007070207070506070500020000040402B8
:1017F0000506070706070607060607020706070687
:10180000070606050204030400208040509080482B
:10181000A020A828A0409090409040A028A840F286
:1018200094004040800084D2C2D8C898A0928ADA3E
:10183000C8D2C49020F2005050505000F240A82866
:10184000A0409040909040A024A424A448809050B0
:1018500040A0000004030402050606070607060769
:101860000607060607060706070706070607070412
:101870000606070506050707070706070707070700
:101880000507000505050500070607070607060703
:1018900006060706070607060706060502040304F0
:1018A0004C0B010E2912554B0B172B272B272A17F0
:1018B0004B4B170B172B272F130D42310100006ADA
:1018C00050254F1B559FDF8A4F2FCF9BD51F5F0F92
:1018D000030B111607CB37CF7FBF77BF7FBBBF7E10
:1018E000AF7FBF7DBB7FB7BF5F2C99661B01000038
:1018F00000000000000000000000000000000000E8
:1019000000000000000000000000000000000001D6
:1019100002000202020000000002020100000003B7
:101920000400010202020100010404010202020299
:101930000201000405010000000001062912554BB8
:101940000B972B272B272B174B4B174B172BA7AF7F
:10195000137F0055555555007F254F1F5F9FDF8B27
:101960004F2FCF9FDD1B5D0F030B1117074B7F130D
:10197000AFA72B174B174B4B172BA7AB272B970B4F
:101980004B55122906010000000000000000010173
:101990000101000000000000000000000002000043
:1019A000000000000200000102000202020000002C
:1019B000000202010000000000010200000000001F
:1019C0000000000000000000000000000000000017
:1019D0000000241608C43ACAA4D5E968D4D4D4E9CE
:1019E000E8F679F5E9D6A8E914E21C0198000000B0
:1019F00000000000000000008038472897154B9732
:101A0000972F554F574F572F1697AB25535C6300B1
:101A1000100080826098E8EAD224C0000000000232
:101A20000000000000010100000101020000001C94
:101A3000200C121215292432092B0913150807004E
:101A40001E10C0243ACAA4D5E968F4EAF2EAF2AA60
:101A5000F4E9E9F4E874EAF29A64980146408000F7
:101A60000039472817156B97AF9E6F17972B2B2BB5
:101A7000964B0B374F5D2F2F5645390630002216F7
:101A80008040460198649AF2EA74A834A969F4AADD
:101A9000F2AAF2EA6AB26AF2EAF4A8E9D5A4CA3A6A
:101AA000C40070863945DE3FFE57FBF3BBD79FD39A
:101AB000BFFFFBFBBDFAFDDEECC8EBDDF9DB7FFF12
:101AC0002847388000081714092A25050A15131716
:101AD00013170D0B020B1D0F25250B050B151316E8
:101AE0000906211800000D0B008080387CE603E019
:101AF000FEF8E0008001020204040404050404046A
:101B000002010C0940A0A0A01000783F3E38806080
:101B10000000000001010101010100000910208006
:101B200000000000001104020000008820000000F6
:101B3000091000000011040000400088200000008F
:101B4000000004010080F8FC5EAFDEBC78F0C0004D
:101B5000001E7FFFAAD7AB57AF5FFFFEF8E080EF14
:101B60007FBA55AB57AEDFFFF7E34007FFFDEA57FB
:101B7000EF77FFFF7F070300000003070D06070351
:101B800001000000000D24000080F85CAEDCB8709D
:101B9000C0000000001E7FAAD7AB57AF5FFEF8E081
:101BA0000000806FBA55AB57AEDFF7E34000000787
:101BB000FDEA57EF77FF7F070300000000000305F1
:101BC00002030100000000000E1000FC020202FAF5
:101BD0002A0A020202FCA80000010206020602060E
:101BE000020602050200C61291125C122712F211BF
:101BF000BD11881153112011ED10BA108710541027
:101C00002110EE0FBB0FD714A51473144114111437
:101C1000E113B11381138D16671653162D16F515A2
:101C20002D16E1156716AB158715751551151B1582
:101C3000511509158715D714A514731441141114DF
:101C4000E113B11381136D135C134B133A13281373
:101C500019130A13FB120102040810204080FCFE35
:101C6000FFFFFFFFFFFFFFFFFFFEFCF80103070F71
:101C70000F0F0F0F0F0F0F0F07034000040001504D
:101C8000000081400005FF0150000081400006FF78
:101C900000251A0105FF01180318040001190000AE
:101CA00081400006FF0040FF0028FF005000008137
:101CB00080C0E0F0F8F8FCFCFCFEFEFEFFFFFFFF3A
:101CC000FFFFFFFFFFFFFFFFFFFFFFFFFFFFFFFE25
:101CD000FEFEFCFCF8F0C0000103070F0F1F1F1FE2
:101CE0003F3F3F7F7F7F7F7F7F7F7F7F7F7F7F7FC4
:101CF0007F7F7F7F7F7F3F3F3F1F1F0F0701FFFFDA
:101D0000FFFFFFFFFFFFFF010101010101010101D1
:101D10000910FEFDC3BBBBBBC7FFFF0101010101F1
:101D200001010101271080C060B058A85CAC54AE1E
:101D3000FA8EF7959FF5979DF7959FFDFFFD7F7DA7
:101D40003FDDDFDD3FFEFEFE0CFC18F0C0000103AE
:101D5000060D0A1D1A153A2F3877547C57745C7794
:101D6000547C5F7F5F7F5F7E5D7D5D7E3F3F3F1880
:101D70001F0C07010910FF7F87BBBBBBC7FFFF001C
:101D800001010101010101010910FFFFC7BB3BBBBC
:101D9000C7FFFF0101010100010101010910FFFF5F
:101DA000C7BBBBBB877FFF0101010101010101002E
:101DB0000910FFFFC7BBBBBBC7EFEF01010101016A
:101DC000010101010910FFFFC7BBBBBBC3FDFE0141
:101DD00001010101010101010910FFFFC7BBB8BBEF
:101DE000C7FFFF0101010101010101010000000025
:101DF00000F0FEFFFFFEFCE000000000000000001D
:101E000000008000000010387CFEFEFFFFFFFFFF97
:101E1000FFFFFFFEFEFE7C7C7C7CFEFFFFFFFE10D2
:101E200000000000001FFFFFFFFF7F0F0100000008
:101E3000000000000001030100000000000000009D
:101E40000001010000000000000000000000000090
:101E5000000000001A19000000000000F09E9EFC27
:101E6000E000000000000000000000000000000092
:101E70000010387C547CFFBBBBBBBBFF7C7C7C7CF4
:101E80003838383828D6D7FE10000000000000008F
:101E90001FF3F37F0F0100000000000000000000AE
:101EA0000100000000000000000000000000000031
:101EB0000000000000000000000000000000111100
:101EC00000001C3CFCD8B070E8C422120E000000D8
:101ED00000001C12110805030307074F6C30380C73
:101EE00000000000000000000000000000000000F2
:101EF000000000111100008080FC828CF080808046
:101F00000000C0E00000000103037E82621F0303A3
:101F1000030101070F0100000000000000000000A5
:101F2000000000000000000011110070901020401F
:101F30008080C0C0E46C1838600000000070797EBA
:101F4000371B1D2F478990E00000000000000000B3
:101F5000000000000000000000000000001111005F
:101F600000000000040CCCFECC0C040000000000BB
:101F7000000814141212127FE37F121212141408B4
:101F80000000000000000000000000000000000051
:101F90000000111100006038186CE4C0C08080405F
:101FA000201090700000000000E09089472F1D1B5A
:101FB000377E797000000000000000000000000083
:101FC0000000000000000011110000E0C0000080CF
:101FD0008080F08C82FC8080008000010F0701016E
:101FE0000303031F62827E03030100000000000060
:101FF00000000000000000000000000011110000BF
:1020000000000E1222C4C870B0D8FC3C1C000000B6
:10201000000C38306C4F07070303050811121C0031
:1020200000000000000000000000000000000000B0
:1020300000111100205050909090FC8EFC909090D8
:10204000505020000000000000406067FF676040C3
:102050000000000000000000000000000000000080
:10206000000000000000060002F0D00000000100A7
:1020700002F0D010000001010000EF240000020176
:10208000000003240000020002F0204A00010100C9
:1020900002F0205A000101050002F0D0000000010A
:1020A0000002F0D028000001010000F84400000206
:1020B00000020020000101010002002028010101AE
:1020C000050002F0D0000000010002F0D02800005E
:1020D00001010000F844000002000200200001019C
:1020E0000100020020280101010503000000040096
:1020F0000005030000F43E0000050002F0D00000DF
:1021000000010002F0D0230000010002F0D04600E0
:10211000000106000000F012000001000000F900BC
:102120000000010000000212000001020000E44073
:10213000000002020000F52C000002020000064030
:10214000000002060003D6D0000000010003E6E014
:1021500000000001010000E914000002010000F885
:10216000240000020100000834000002010000F811
:1021700040000002050002F0D0000000010002F063
:10218000D028000001010000F8440000020002F025
:1021900020140001010002F0203C000101040000B5
:1021A00000F012000001000000F900000001000032
:1021B00000021200000103000000300000050500CD
:1021C00001000500000001000100051400000100ED
:1021D0000100EC00000101000100EC14000101000D
:1021E0000000F92800010104000000E700000001E0
:1021F000000000F9000000010000000B00000001D9
:10220000020000F51600000104000000F1000000CB
:10221000010000000300000001010000F0120000B6
:102220000201000004120000020500010005000088
:102230000101000100EC14000001010000E6320081
:102240000002010000F8320000020100000C320020
:10225000000205010000E624000002000000F01268
:10226000000001000000F90000000100000002125F
:102270000000010100000C24000002020000000523
:10228000000000010000000018000001000000FB39
:1022900050000001000000F668000001D81DC41DB8
:1022A000B01D9C1D881D741D241D101DFE1CFE1CD0
:1022B000FE1CFE1CFE1CFE1CB01CFE1CD714A5142C
:1022C000731441141114E113B1138113541E541EDD
:1022D000541E541E541E541E541E541EEC1DEC1D40
:1022E000EC1DEC1DEC1DEC1DEC1DEC1DD714A51414
:1022F000731441141114E113B11381133120FC1F25
:10230000C71F921F5D1F281FF31EBE1E2011ED1058
:10231000BA10871054102110EE0FBB0FD714A5145C
:10232000731441141114E113B113811300E0F0E0B0
:10233000C080C0C0F0FCFEFFFEFCC08000010F1F8B
:102340000F070307071F7FFFFFFF7F070301000041
:10235000000000000000000000010000000000116B
:10236000180000E0C00000808080F0FCEEFC80805F
:10237000000000010F0701010303031F7EEE7E032F
:102380000301000000000000000000000000000049
:102390000000000020F0F8F8F07070F0F0FCFEFF94
:1023A000FEFCE0800000207FFFFF7F70727F7FFFD8
:1023B000FFFFFFFF3F0F07020000000000000000CA
:1023C0000001030703010000000012180020F0F0D4
:1023D000202020606060BC66BC600000000000201F
:1023E0007F7F202020323735ED37ED35070702009B
:1023F00000000000000000000000010301000000D8
:102400000000D83211241FBECFEFDAE0DEBFCDBF0F
:1024100011E0A0E0B1E0E6E1FFE602C005900D9218
:10242000A039B107D9F727E0A0E9B1E001C01D92BA
:10243000AD34B207E1F712E1C2E0D2E104C0219766
:10244000FE010E949336C130D107C9F70E949D2139
:102450000C9489370C940000CF93DF93EA0121E0BC
:102460002C83998388836A8362E070E080E090E047
:102470000E9446176B83DF91CF9108950F930FB79A
:102480000F931F9211248F939F93EF93FF93E8EF85
:10249000F2E08091000391E08D5F8D3710F08D5751
:1024A0009395809300038081890F80839181911D92
:1024B00091830281011D02838381811D838309270A
:1024C0000F70092702950093FF0235D08111009308
:1024D000FD02803989F40091FE02901B963070F065
:1024E00087E7809300088093010888E198E0809353
:1024F000600090936000FFCF9093FE028091FC02F9
:10250000815018F08093FC0259F3E1E0F3E0808100
:10251000918101968083918382819381811D911D98
:1025200082839383FF91EF919F918F911F900F91E1
:102530000FBF0F9118958FB18095807F669B886043
:102540001C9B84600895EF920F93CF93DF93CAE9A9
:10255000D1E08B81843061F46A8170E0E12C00E08D
:1025600024E43BE145E85BE1888199810E94FF1A00
:10257000249681E0CA3AD80761F7DF91CF910F9195
:10258000EF900895EF920F93CF93DF93CAE9D1E0D4
:102590008B81853061F46A8170E0E12C00E024E4F5
:1025A0003BE145E85BE1888199810E94FF1A24960E
:1025B00081E0CA3AD80761F7DF91CF910F91EF9090
:1025C0000895BF92CF92DF92EF92FF920F931F93E5
:1025D000CF93DF93D82E0AE911E0E80155E0E52E0C
:1025E000F12CEB818E2F90E08930910508F044C0EA
:1025F000FC01EF58FF4F0C94933680912803909183
:102600002903B7010E946B368823B1F16A8170E01B
:1026100020E040E35BE12CC08091280390912903E6
:10262000B7010E946B36882339F16A8170E020E09F
:102630004CE15BE11DC06A8170E020E042E05BE1BB
:1026400017C06A8170E020E046EE5AE111C06A814D
:1026500070E020E04EE75AE10BC06A8170E020E0B4
:1026600040E45AE105C06A8170E020E042ED59E1A2
:10267000888199810E94B41A24962FEFE21AF20AF7
:1026800081E0CA3AD80709F0ACCF8091C101882314
:1026900079F06091BF01062E000C770B2091C001EC
:1026A00040EA58E18091BD019091BE010E94C41A98
:1026B0008091BC01882379F06091BA01062E000C4C
:1026C000770B2091BB014EE657E18091B8019091C4
:1026D000B9010E94C41AD11056C1B12CC2EAD0E08F
:1026E000F801808191810197863AFFEF9F0724F0DE
:1026F000F80191838083F0C0F801D183C083BB20AF
:1027000019F03197808102C08091A9018430F8F4DA
:1027100080919901882351F086E090E0A0E0B0E03C
:1027200042E0C42ED12CE12CF12C07C089E090E0CE
:10273000A0E0B0E0C12CD12C7601BC01CD016C1918
:102740007D098E099F090E9446176C0D06C066E040
:1027500070E080E090E00E944617643098F06630A8
:1027600008F050C0F801638360E470E080E090E01E
:102770000E944617DC01CB014097A109B109F8017D
:102780008283AAC0F80163838091BC01882361F031
:102790006091BA01062E000C770B68517109CB01CC
:1027A000770FAA0BBB0B04C088E290E0A0E0B0E07A
:1027B0002091C101222369F0C090BF010C2C000CB4
:1027C000DD08F8E1CF0ED11C0D2C000CEE08FF083F
:1027D00005C034E0C32ED12CE12CF12CC816D9064B
:1027E000EA06FB0664F4BC01CD016C197D098E0973
:1027F0009F090E944617C60ED71EE81EF91EF80153
:10280000C2826AC0F80163838091BC01882361F0B1
:102810006091BA01062E000C770B66527109CB014C
:10282000770FAA0BBB0B04C080E390E0A0E0B0E000
:102830002091C101222369F0C090BF010C2C000C33
:10284000DD08F8E1CF0ED11C0D2C000CEE08FF08BE
:1028500006C02AEFC22EDD24DA94ED2CFD2CC8161A
:10286000D906EA06FB0664F4BC01CD016C197D09AA
:102870008E099F090E944617C60ED71EE81EF91E34
:10288000F801C2828091C101811111C062E370E040
:1028900080E090E00E944617DC01CB0188539F4FF7
:1028A000AF4FBF4F4DEB51E060E00E942C12809182
:1028B000BC01811111C062E370E080E090E00E94F1
:1028C0004617DC01CB0188539F4FAF4FBF4F48EBFA
:1028D00051E065E30E942C12B3940C5F1F4FF4E0AB
:1028E000BF12FECE8091C101882379F08091BD0195
:1028F0009091BE0101979093BE018093BD01863AED
:102900009F4FA4F41092C10111C068E270E080E012
:1029100090E00E944617672B682B692B39F44DEB2A
:1029200051E060E082EA90E00E942C128091BC01AC
:10293000882379F08091B8019091B9010197909323
:10294000B9018093B801863A9F4FECF41092BC0114
:102950001AC068E270E080E090E00E944617672BA2
:10296000682B692B81F448EB51E065E382EA90E043
:10297000DF91CF911F910F91FF90EF90DF90CF905B
:10298000BF900C942C12DF91CF911F910F91FF906B
:10299000EF90DF90CF90BF9008956F927F928F92CB
:1029A0009F92AF92BF92CF92DF92EF920F931F93BD
:1029B000CF93DF9300D000D0CDB7DEB78091230353
:1029C0009091240301968F31910528F4909324036C
:1029D0008093230304C01092240310922303809158
:1029E0009801882319F0815080939801D0901B039F
:1029F00010911C0300E020E448E060E070E088E70C
:102A000090E00E94BC1620E430E049E750E060E02E
:102A100070E089E790E00E94361619821A821B82C4
:102A20001C82CE0101965C019E012B5F3F4FFC0191
:102A30004AE0842E912C8D2D912FB4010E946B368B
:102A40008193D62E172F2E173F07A9F71FE0F50108
:102A500001915F01612F70E0E12C25E337E14AE34A
:102A600057E18BE790E00E94FF1A15501B3F79F762
:102A7000809117039091180397FD02C0292F01C080
:102A800020E04EE16EE277E187E10E94D41A809166
:102A90001E0390911F0397FD02C0292F01C020E063
:102AA00043E367E277E18EE20E94D41A80919801B5
:102AB000882309F466C010911D0380900E03909046
:102AC0000F03A0901003B09011034501BB2497FCA5
:102AD000B094AB2C8091120390911303A091140336
:102AE000B0911503CD01BB2797FDB095AB2F209179
:102AF0000301873028F4222371F0109203010BC0E8
:102B00008B3228F0211103C021E020930301209192
:102B10000301211102C023E101C02AEFC22E220FBE
:102B2000DD08C80ED11C912CE12C00E023E037E138
:102B300044E157E1B601C4010E94FF1A113130F49B
:102B400080912303909124030F97D8F0612C712C6E
:102B5000A12EB12CF2E0CF0ED11C6A147B048CF4B0
:102B6000E12C00E02BEF36E14EEF56E1B601C40157
:102B70000E94FF1A8AE0680E711C92E0890E911C77
:102B8000ECCF0F900F900F900F90DF91CF911F918E
:102B90000F91EF90DF90CF90BF90AF909F908F906C
:102BA0007F906F90089580389105D0F4603471055E
:102BB000B8F4E6E5FCE190E1969FD001A0781124FD
:102BC000A80F6770E60FF11D9491A05DBC4F4423E0
:102BD00019F08C91982B03C090958C9198239C931D
:102BE000089580910D03E0910B03F0910C0388236D
:102BF00049F0CF01029690930C0380930B038591CB
:102C000094910895CF01029690930C0380930B0347
:102C10008081918108958091050308950895A1E030
:102C2000B3E02FB7F8947D918D919C9166B52FBF3D
:102C3000A89B05C06F3F18F47F5F8F4F9F4F22E026
:102C4000660F771F881F991F2A95D1F70895E0E333
:102C5000F3E0A0E0B8E000800EBC8111012C1197D8
:102C6000A0FDFDCF0192B9F70DB408952F923F92C8
:102C70004F925F926F927F928F929F92AF92BF928C
:102C8000CF92DF92EF92FF920F931F93CF93DF9338
:102C9000EC018B017A016901C61AD70AD7FE03C07D
:102CA000D194C194D10847018C1A9D0A97FE03C0A4
:102CB0009194819491088C149D0454F49E2D8F2D31
:102CC0007901292F382F9C2F8D2FE801092F182FDC
:102CD000EC16FD0654F4902F812F8901292F382FEF
:102CE0009C2F8D2FE701E92EF82E17012C1A3D0A93
:102CF0002901401A510A57FE03C0519441945108CA
:102D0000310137FE03C08FEF681A780A7594679413
:102D10000217130714F08FEF01C081E0A82E880F6F
:102D2000BB08EC16FD06ACF041E08C149D041CF4CD
:102D3000BE01C80102C0B801CE010E94D3156418BB
:102D4000750877FE04C00A0D1B1D620C731C2196CA
:102D5000E8CFDF91CF911F910F91FF90EF90DF901F
:102D6000CF90BF90AF909F908F907F906F905F902B
:102D70004F903F902F9008958F929F92AF92BF9265
:102D8000CF92DF92EF92FF920F93CF93DF936B017D
:102D9000EC014C01840E911C5B01A20EB11CC81504
:102DA000D905D4F47601D7FE02C0E12CF12CC5017F
:102DB00021E4A216B10414F080E490E0E816F906CC
:102DC0004CF4402FB701CE010E94D3158FEFE81AC3
:102DD000F80AEDCF2196E3CFDF91CF910F91FF90CD
:102DE000EF90DF90CF90BF90AF909F908F9008951D
:102DF000CF93DF9300D000D000D0CDB7DEB7EEE0A8
:102E0000F3E080819181A281B381CD010196282FC9
:102E10009A83898384819581A681B781CD010196AA
:102E2000482F9C838B8383859485FC0165917491E5
:102E3000FB0164916250FC0185919491FC013196F3
:102E4000749172503A815C8180E090E026960FB6D2
:102E5000F894DEBF0FBECDBFDF91CF9108950F93E1
:102E60001F93CF93DF93C82FD62F042F10E0DC17CA
:102E700040F041E0B8018C2F90E00E94D315CE5F66
:102E8000F6CFDF91CF911F910F910895CF92DF92EE
:102E9000EF92FF92611571058105910549F06B0173
:102EA0007C010E94C333A70196010E945E3403C0D7
:102EB00060E070E0CB01FF90EF90DF90CF9008953D
:102EC000CF92DF92EF92FF920F931F93CF93DF93F6
:102ED0000E94F115811520E8920761F4809171003C
:102EE0008D7F8093710010929100469847981092C0
:102EF0000A038BC021E020930A03813020E8920767
:102F000051F4809108039091090390930C038093EE
:102F10000B030E94F11597FD05C020914107222364
:102F200009F43FC02091400721113BC021E02093CC
:102F30004207EC01DF77209769F481E08093430733
:102F400046983FE9C32E3FE0D32EE12CF12CCAEF87
:102F5000D0E014C08E0120E030E060E472E48FE045
:102F600090E0A90198010E945E3469017A0181E034
:102F7000C81AD108E108F10810924307E09106034E
:102F8000F09107030995811103C081E08093430705
:102F9000809142078823B9F180914307811133C0A2
:102FA00003C010924207C5CF46992DC0479A0E9490
:102FB000F115009771F09C01DE010E94B234DC0132
:102FC000CB0129E0B595A795979587952A95D1F7D7
:102FD00003C08FEF9FEFDC01109290002AE0209356
:102FE0009100D0929900C0929800809344079093EA
:102FF0004507A0934607B093470780917100826010
:103000008093710002C04798D2CFDF91CF911F917A
:103010000F91FF90EF90DF90CF9008951F920F9245
:103020000FB60F9211242F933F934F935F936F939B
:103030007F938F939F93AF93BF93EF93FF93809171
:10304000440790914507A0914607B0914707892B07
:103050008A2B8B2B81F18091430781110BC098B192
:1030600080E4892788B980914207882319F088B1C4
:10307000805888B98091440790914507A0914607F0
:10308000B0914707181619061A061B06B4F480916A
:10309000440790914507A0914607B09147070197D3
:1030A000A109B1098093440790934507A09346076F
:1030B000B093470702C00E946017FF91EF91BF9144
:1030C000AF919F918F917F916F915F914F913F91C0
:1030D0002F910F900FBE0F901F9018959C01E1E764
:1030E000F0E090819D7F908381E080930D03309389
:1030F0000C0320930B0330930903209308030C94D3
:1031000060174F925F927F928F929F92AF92BF9281
:10311000CF92DF92EF92FF920F931F93CF93DF93A3
:1031200000D000D0CDB7DEB7DC0148014115510514
:1031300009F406C2FA01F490319684914E5F5F4F14
:10314000AF2CB12C211102C0EE2061F101E010E0A2
:10315000982F977011F400E010E0982F96959695AF
:103160009695090F111D0A9DF0010B9DF00D1A9DFA
:10317000F00D112413E0712EC71003C0EE0FFF1FD6
:103180000AC08114910439F0EE9E8001EF9E100D6B
:103190001124800E911E2E9F80012F9F100D11244F
:1031A000400F511F1FEFC11208C08114910419F084
:1031B000CC24C39402C022E0C22EFD01EA0DFB1D07
:1031C0001E161F060CF0BCC1A038B1050CF0B8C12A
:1031D0009B01280F311D121613060CF0B1C160348B
:1031E00071050CF0ADC14115510509F4A9C1362F87
:1031F00037708B0177FF02C0095F1F4F93E0159571
:1032000007959A95E1F7202F77FF04C0332311F03B
:103210002FEF200FB7FF05C0002711270A1B1B0B3C
:1032200002C000E010E0E038F1051CF090E89A1BC5
:1032300001C09F2D901B622F022E000C770B2F3F99
:103240001CF4E62EE09401C0E12CF1E0E82FE770D9
:1032500009F4F0E0869586958695F80F6F0F711D3D
:103260006930710514F0F8E0F21BFE192E0D60E8CC
:103270002603A00DB11D1124A00FB11FFE9C000D4F
:10328000111D1124400F511F61E070E07B01032EDE
:1032900002C0EE0CFF1C0A94E2F773E0C71609F4B3
:1032A00007C17C15C8F081E0C81609F4B9C0E2E096
:1032B000CE1246C18FEF8E9D80018F9D100D11247F
:1032C000009510951C830B839C80BD01605D7C4F35
:1032D0002B018F2E820E2DC06AEF762EC71409F4B3
:1032E0003BC01BEFC1122CC1BD01605D7C4F4B0187
:1032F000DF2ED20E83C084918E9D60018F9DD00CF5
:103300001124DA82C98227FD05C0DB018C9180235C
:10331000C82ACC92311113C031966F5F7F4F8E2F28
:10332000841B891740F32F5F4A0D5B1DB0E84B0EDD
:10333000511C281509F404C1B201FA01F0CF27305D
:103340005CF76B01B0E8CB0ED11CD6018C918921C2
:103350007A8087298C93E0CFBD01605D7C4F4B0163
:10336000DF2ED20E2D1509F4EBC0B401FA018E2F19
:10337000841B8917F0F484918E9D80018F9D100D20
:1033800011241A83098327FD04C0DB018C91082BCB
:103390000C93332351F0273044F48B0100581F4F16
:1033A000D801CC908A818C298C9331966F5F7F4FA6
:1033B000DECF2F5F4A0D5B1DB0E88B0E911CD2CF84
:1033C00084918E9DB0018F9D700D11247A83698345
:1033D00027FD05C06095D8018C9168236C9331114D
:1033E00013C031960F5F1F4F8E2F841B891740F338
:1033F0002F5F4A0D5B1DB0E88B0E911C2D1509F453
:103400009FC08401FA01F0CF27305CF7B801605803
:103410007F4F8A818095DB01CC908C218C93E1CF0A
:10342000080D191DA05DBC4F7F2E720E271509F4E3
:1034300087C0BD01C12CD12CC91690F5F801EC0D47
:10344000FD1DE491EE9D4001EF9D900C11248094B0
:1034500090949C828B82FA01EC0DFD1DE491EE9D0F
:103460002001EF9D500C11245A82498227FD05C08E
:10347000FB018081882248284082332359F027307D
:103480004CF4FB01E058FF4F90808C8189219A8099
:1034900089298083FFEFCF1ADF0A6F5F7F4FCCCF80
:1034A0002F5F4A0D5B1D0A0D1B1DA058BF4FBECFDD
:1034B000C92ED12C2801440E551EA05DBC4F60E8DA
:1034C00070E04B018C189D08AC18BD08AA0CBB1C01
:1034D000C92E022F192F2F2FF201A401B501732E2F
:1034E000CF93DF93ED01EF96EF9622968590A5900E
:1034F000772059F08E9C4001AE9C500107302CF48F
:10350000D880B094DB20D928D99200233AF0DC90FF
:10351000A094DA20D828DD920C948F1A11961A956F
:1035200029F72A9551F01C2D03951124E60FF11D62
:10353000A40FB11DC40FD11DD9CFDF91CF9111249C
:103540000F900F900F900F90DF91CF911F910F91DF
:10355000FF90EF90DF90CF90BF90AF909F908F90B3
:103560007F905F904F900895CF92EF920F931F93AB
:103570003AEFC32EE12C00E010E00E9481181F9169
:103580000F91EF90CF900895CF92EF920F931F93EA
:1035900032E0C32EE12C00E010E00E9481181F9160
:1035A0000F91EF90CF9008950F931F93CF93DF93D8
:1035B000042FD22F90E020E0AB01BC018BE790E01C
:1035C0000E94C41AD53030F48091230390912403D3
:1035D0000F9780F0C0E010E0CD1760F4B8016C0FD9
:1035E000711D9B0140E850E08BE790E00E94361689
:1035F000CE5FF2CFDF91CF911F910F910895CF92BF
:10360000EF920F931F93F901202FCC24C3948F01C5
:103610000E9481181F910F91EF90CF9008958F9283
:103620009F92AF92BF92EF920F9380913807409193
:10363000300750913107609132077091330788232A
:1036400019F14B01BB2497FCB094AB2CC401089634
:1036500088389105C8F440913E0750913F0780910A
:10366000340790913507A0913607B0913707BD0117
:10367000992777FD9095892FE12C00E02EE53CE11C
:10368000C4010E94FF1A05C0683F7F4F14F41092D6
:1036900038070F91EF90BF90AF909F908F90089553
:1036A000F89487E78093000880930108A89588E143
:1036B0008093600088E080936000FFCF8FB1809599
:1036C000807F669B88601C9B84600895FC0110824B
:1036D0001182128213821482158216821782128638
:1036E0001186748763870895CF92DF92EF92FF92DD
:1036F0000F931F93CF93DF93EC018885882309F400
:10370000EEC08E89882311F081508E8B8E898111B5
:10371000E6C02B8D2111A9C0298D3A8DEF88F88C38
:10372000F7013296E20FF31F0491F901EE0DFF1D30
:103730008491F7013196E20FF31F14919D89292F8F
:10374000207FC22EE82F09F0E1959F70D92E09F055
:103750001195013809F487C0083008F052C08889F3
:103760000E2E000CFF0BE80FF11D87FDFA95BF012F
:10377000FF0F880B990B0E94663520E030E040E88F
:1037800052E40E94C23420E030E040E857E40E9456
:10379000F2350E942E35688379838A839B838989D9
:1037A000612F110F770BFB01E80FF11D87FDFA95D3
:1037B000BF01FF0F880B990B0E94663520E030E0B7
:1037C00040E052E40E94C23420E030E040E857E498
:1037D0000E94F2350E942E356C837D838E839F83F9
:1037E0008D85833019F486E08E8701C00E87CC204A
:1037F00009F468C0EE85D1106CC0F0E0E15BFE4FCB
:103800006BC0EC8F1D8F8E2FEE0F990BAA0BBB0B8D
:10381000DC0199278827488159816A817B81840F3F
:10382000951FA61FB71F88839983AA83BB83812F07
:10383000110F990BAA0BBB0BDC01992788274C8130
:103840005D816E817F81840F951FA61FB71F8C83BA
:103850009D83AE83BF8301500B8F83E0E80EF11C84
:10386000F88EEF8A3CC018863AC08C8D082E000C6A
:10387000990BAA0BBB0BDC0199278827488159813A
:103880006A817B81840F951FA61FB71F8883998348
:10389000AA83BB838D8D082E000C990BAA0BBB0B42
:1038A000DC01992788274C815D816E817F81840F9F
:1038B000951FA61FB71F8C839D83AE83BF832150A6
:1038C0002B8F0DC0DD2049F2EE85F0E0E95BFE4F65
:1038D00003C0F0E0E15CFE4F80818E87BECFDF91B8
:1038E000CF911F910F91FF90EF90DF90CF900895AF
:1038F000DC011B96ED91FC911C973E96859194916D
:10390000FC0184910895DC011B96ED91FC911C97BC
:103910003C9685919491FC01849108950F931F9397
:10392000CF93DF9300D000D000D0CDB7DEB78C01AD
:10393000FC0180819181A281B381CD0101969A839E
:10394000898384819581A681B781CD0101969C836D
:103950008B83C8010E94831C82508D83C8010E9402
:10396000781C7EEF780F29813A814B815C816D81D3
:1039700080E090E026960FB6F894DEBF0FBECDBF74
:10398000DF91CF911F910F9108951F93CF93DF93F4
:10399000EC01162FBA010E94661B1B8A1A8A1D872A
:1039A000188685E08C8B1B8E1A86198686E08F8799
:1039B000DF91CF911F910895AB01FC010E940F167A
:1039C00041505109E109F10928F068517C4F8F4FAE
:1039D0009F4FF6CFAB01FC010E940F1664177507CD
:1039E0008E079F07C8F30895BC0180E090E00C9417
:1039F000DC1C2F923F924F925F926F927F928F9238
:103A00009F92AF92BF92CF92DF92EF92FF920F936D
:103A10001F93CF93DF93CDB7DEB72A970FB6F894F5
:103A2000DEBF0FBECDBF382E9FE3892E92E0992EC8
:103A300026E0222EF4018585311003C0833019F46D
:103A400014C0833091F4C4010E94741BC4010E940D
:103A50008E1C29833A834B835C83F4018085882301
:103A600021F0F40186898823F9F02A94FEE18F0E73
:103A7000911C2110DFCF2A960FB6F894DEBF0FBE3F
:103A8000CDBFDF91CF911F910F91FF90EF90DF900D
:103A9000CF90BF90AF909F908F907F906F905F90EE
:103AA0004F903F902F90089589819A819C01260F15
:103AB000311D12161306CCF680389105B4F68B81B1
:103AC0009C819C01270F311D37FDCFCF803491059C
:103AD00064F6F4018585833009F0F9C08091100304
:103AE00019E0612E680E8091140309E0402E480E03
:103AF000F40180819181A281B3818D01035E1F4F0A
:103B0000C480D580E680F7806701FF24D7FCF0945D
:103B1000EF2CC4010E94781C062C000C7708601A58
:103B2000710A042C000C5508869590E0C80ED91E29
:103B30004C185D086114710409F442C0C201550CAF
:103B4000AA0BBB0BDC01992788276C017D01FF0CB8
:103B5000CC08DC2C76019C01AD016C2D7C2D8C2DCC
:103B60009C2D00E10E9470376301770CEE08FF087E
:103B70008601FF24EE2457016801DD0CAA08BA2C47
:103B80006501AF82B886C986DA8657016801EF8081
:103B9000FE2C0E2D1E2D0E949B36F22FE32F8F2F11
:103BA0009E2FA42FB52F181619061A061B0664F0AF
:103BB000B095A095909581959F4FAF4FBF4F04C092
:103BC00080E090E0A7EEB3E0141444F116146CF416
:103BD000AC01BD01415051096109710947305A4694
:103BE0006105710508F441C046C0662061F0AC0172
:103BF000BD01415051096109710947305A466105BB
:103C00007105A8F187C08B5F9946A240B109853044
:103C10009649A44EB34068F580E03AC0161464F4A7
:103C2000AC01BD01415051096109710947305A4643
:103C300061057105D0F07CC0662061F0AC01BD016A
:103C4000415051096109710947305A4661057105B2
:103C500070F07CC08B5F9946A240B10986309649CE
:103C6000A44EB34030F484E013C082E011C086E07B
:103C70000FC089E00DC0AC01BD0149505A46610931
:103C80007109413F5F4F6140710508F0BCCF81E091
:103C9000F40127858930C9F0281302C0282F15C0E8
:103CA00090E0422F50E0BC01641B750BFB01339682
:103CB000379708F059C0161617060CF45DC0872F09
:103CC000881F8827881F09F06CC0F4012787F4013A
:103CD0008085882309F4C9CE86898111C6CE80816A
:103CE0009181A281B3815D01DD24B7FCD094CD2CFC
:103CF00085014480558066807780C4010E94831CC2
:103D000090E08A0D9B1D97FDB0CE003811050CF494
:103D10004EC0ABCEAC01BD0149505A466109710994
:103D2000413F5F4F6140710508F06DCF87E0B0CF34
:103D3000AC01BD0149505A4661097109413F5F4FCD
:103D40006140710508F086CF83E0A2CFAC01BD01D0
:103D500049505A4661097109413F5F4F6140710501
:103D600008F078CF85E094CFBC01685F7F4F641B7B
:103D7000750B161617067CF4273011F02F5F01C063
:103D800020E0422F50E0BC01641B750BFB01339611
:103D9000379708F494CF485F5F4F841B950B892FAA
:103DA0008FCF222311F0215090CF27E08ECF230117
:103DB000772457FC7094672CF401438554858685DD
:103DC00090E00896880F991FFA01E80FF91F2591D6
:103DD0003491FC017097E40FF51F45915491E12C4B
:103DE00000E0B201C5010E94FF1AF401858583300D
:103DF00029F4F4018785863009F066C0F4018185D5
:103E000092851816190684F180549109928781874A
:103E1000292F9C3F61F044F1191634F13327219585
:103E20000CF43095C90190E1980F8C5E04C0F40148
:103E3000108687E193E1F40153854485E52FF42F43
:103E4000E80FF11DE80FF11D25913491E52FF42FB6
:103E5000E90FF11DE90FF11D45915491E12C00E0AE
:103E6000B201C5010E94FF1AF401828993891816D4
:103E700019060CF0FACD923071F0933011F09130B8
:103E8000D9F4F40183859485FC01B8962591349189
:103E9000FC01B09609C0F40183859485FC01BA96B3
:103EA00025913491FC01B29645915491E12C00E0AA
:103EB000B201C5010E94FF1AF401828993898054DE
:103EC0009140938B828BD1CDF4014385548590E052
:103ED0000896880F991FFA01E80FF91F2591349170
:103EE000FC017097E40FF51F45915491E12C00E01F
:103EF000B2016D5F7F4FC50148960E94FF1A7ECFC9
:103F0000CF92DF92EF920F93CF93C0914B07CC2EBD
:103F1000D12CE12C00E024E933E24AEC53E26AE0E0
:103F200070E0C601805591090E94FF1A2CE233E22D
:103F30004FE553E266E070E0C60186970E94FF1AE3
:103F40002CE233E24FE553E26EE070E0C6014497A5
:103F50000E94FF1ACF5FC0934B07CF910F91EF9054
:103F6000DF90CF90089590914C07E92FF0E09F01EA
:103F7000220F331FE20FF31FEE5EFD4F8E5E808334
:103F8000675F6183406F428380911D0381508093FE
:103F90001D039F5F9F3019F090934C0702C0109251
:103FA0004C0784E1809398010895BF92CF92DF92ED
:103FB000EF92FF920F931F93CF93DF93CDB7DEB7AE
:103FC0006E970FB6F894DEBF0FBECDBFF82E8823D4
:103FD00039F081E080934A07FB018491809349077F
:103FE00080914A0791E0980F90934A07FB01E80FF0
:103FF000F11DE4918E2F807F80939901EF70F0E0A6
:10400000EE0FFF1FEF58FE4F0190F081E02D109250
:10401000470210926502109283021092A102109240
:10402000BF021092DD02B4906F0142E0C40ED11CB9
:104030000FE312E0E12CBE1409F46CC0F6013197D5
:10404000E491E13069F040F0E23071F0E330D9F40E
:104050004CE952E263E00BC046EE5BE160E007C072
:104060004CEF52E261E003C04CEC52E262E0CE0160
:1040700001960E94C51C8EE1FE013196D801019087
:104080000D928A95E1F7F6018491E82FF0E0EE0FAA
:10409000FF1FE95AFE4F80819181D8015A969C9367
:1040A0008E93599758961C921E925797F601319607
:1040B000E4915096EC935097F6013296E491519624
:1040C000EC935197F6013396E4915696EC935697FC
:1040D000F6013496E491F801158AF6013596E491DB
:1040E000F6013696E49119961C9219971A96EC935C
:1040F0001A9753961C921E92529781E018968C93B1
:10410000C8010E94741BE394B8E0CB0ED11C025E80
:104110001F4F91CF80914907815080934907FF201D
:1041200009F474C08091480790E0FC01E259FE4F09
:10413000208160910E0170910F01620F711D27FDAA
:104140007A9570930F0160930E01FC01E559FE4FC3
:104150002081022E000C330B40910C0150910D0177
:10416000420F531F50930D0140930C0140910A01DF
:1041700050910B01240F351F30930B0120930A013E
:1041800020910801309109012130E5E23E076CF0F1
:10419000FC01EE0FFF1FEB59FE4F40815181241BA4
:1041A000350B3093090120930801209106013091CD
:1041B00007012130F7E03F076CF0FC01EE0FFF1F15
:1041C000EB59FE4F40815181241B350B3093070181
:1041D000209306012091040130910501213047E030
:1041E00034076CF0880F991FFC01E15AFE4F808163
:1041F0009181281B390B3093050120930401772707
:1042000088EE93E00E947F3660932C036E960FB683
:10421000F894DEBF0FBECDBFDF91CF911F910F91FC
:10422000FF90EF90DF90CF90BF900895DF92EF92D4
:10423000FF920F931F93CF93DF9300D000D01F9274
:10424000CDB7DEB795E0899F80011124C8018F5258
:104250009F4F0E941A34D82EC8018E529F4F0E9441
:104260001A34E82EC8018D529F4F0E941A34F82E3E
:10427000C8018C529F4F0E942234582F692F2D2D38
:104280003E2D4F2D70E080E090E00F900F900F904A
:104290000F900F90DF91CF911F910F91FF90EF90B2
:1042A000DF900895EF92FF920F931F93CF93182FF3
:1042B00088EC90E00E941A34C82F89EC90E00E94AC
:1042C0001A34111104C0C43311F4833381F164E34F
:1042D00088EC90E00E94283463E389EC90E00E942F
:1042E000283460E080ED90E00E94283401ED10E079
:1042F0008AE0E82EF12CC0E06C2FC8010E9428341F
:104300006C2FC80101960E9428346C2FC8010296B8
:104310000E942834B701C80103960E943A3482E013
:10432000E81AF108CF5F0B5F1F4FC53029F7CF9117
:104330001F910F91FF90EF900895CDB7DEB7E597ED
:10434000DEBFCDBF11E01093E0001092E2001092AA
:10435000E10080E28093D8001092D7008091650040
:10436000806880936500789483E084BD83E085BD98
:1043700010936E00E1E8F0E083E08083E0E881E004
:104380008083E3EC81E08083E2EC81E08083EAE7F4
:1043900087E0808380688083559A209A5D9A289A66
:1043A0008C9A84988AE090E00E94F41C7C9B0E9486
:1043B000501B80E00E94522181EC80937C0085B1EB
:1043C000806F85B984B1877E84B984B1876E84B9E2
:1043D0005E9A5F988AB1806D8AB9769A6E9881B339
:1043E000806F81BB899880B38D7080BB80E58CBD68
:1043F0001DBD85E090E00E94F41C5F9A85E090E08E
:104400000E94F41C5E985C98E0E4F1E084918EBD1B
:1044100000000DB407FEFDCF319601E0ED34F0074A
:10442000A9F75C9A81E880936400809165008160BF
:10443000809365000E945E1B87FF24C05C9885EA1C
:104440008EBD00000DB407FEFDCF5C9A2E982F980C
:104450002D988091640080628093640081E083BF26
:10446000889513BEFCCF2D980E945E1B84788438FB
:1044700071F00E945E1B8471843129F188EC90E018
:104480000E94F41C0E945E1B82FDEDCF38C02D9A65
:1044900088EC90E00E94F41C2F9882E090E00E944B
:1044A0001A348F3F29F06FEF82E090E00E94403491
:1044B00084EF91E00E94F41C2F9A0E945E1B847886
:1044C0008438D9F3D6CF2D9A88EC90E00E94F41C62
:1044D0002E9882E090E00E941A34882329F060E050
:1044E00082E090E00E94403484EF91E00E94F41C4E
:1044F0002E9A0E945E1B84718431D9F3BFCF2D9A0E
:1045000082E090E00E941A34882331F03E9A3F9A6C
:1045100081E08093050304C0109205033E983F9804
:104520008DE790E090930D0180930C018CE291E077
:1045300090930B0180930A0180E09BE49093090122
:104540008093080180E09EE090930701809306012C
:10455000909305018093040182E390E090930F0112
:1045600080930E0180ED90E00E941A3480934807FA
:1045700084E180932C03809164008E7F809364009B
:1045800080917A00806480937A0080917A0086FD21
:10459000FCCF00917800109179000E940F1620E066
:1045A00030E0980111270027600F711F821F931FB1
:1045B000611571058105910511F00E9411348091FA
:1045C00064008160809364008090140190901501D4
:1045D000A0901601B09017018EA29FA2A8A6B9A61E
:1045E0008090180190901901A0901A01B0901B01C1
:1045F0008AA69BA6ACA6BDA680901C0190901D012A
:10460000A0901E01B0901F018EA69FA6A8AAB9AACD
:104610008090200190902101A0902201B090230170
:104620008AAA9BAAACAABDAA8E010F5F1F4F1F8F3B
:104630000E8F9E01295F3F4F39A328A331E08FB72A
:10464000F8944091F8025091F9026091FA02709149
:10465000FB028FBF80912D03942F981B80912E0316
:10466000882329F090932F0310922E03E8CF2091F6
:104670002C03921738F49F5F921708F733BF889581
:1046800013BEDDCF91E090932E0340932D03209134
:104690002803309129032F5F3F4F30932903209344
:1046A0002803E0E3F3E081118FEF002481938193ED
:1046B000819381930394D1F780912A0380932B03F4
:1046C0000E945E1B80932A03E09197018E2F90E059
:1046D0008A30910510F00C94BA2BFC01EA5AFF4F76
:1046E0000C9493361092950110924A0710929401FF
:1046F0001092930111E01093970185E69EE00E94CD
:104700006E1810921C0310921B031092210380E07C
:104710009EE090931F0380931E0390931803809351
:1047200017032BE420931D0310922003109316030C
:1047300040E050E061E070E040930E0350930F03BF
:10474000609310037093110340E050E068E170E063
:104750004093120350931303609314037093150353
:104760002DE730E030930D0120930C012CE231E075
:1047700030930B0120930A0120E03BE430930901C0
:1047800020930801909307018093060190930501FF
:104790008093040182E390E090930F0180930E01D7
:1047A00084E180932C0320E04BE65DE063E170E060
:1047B00085E090E00E94C41A20E04DEF5CE063E1E8
:1047C00070E087E490E00E94C41A20E04BEF5BE0C9
:1047D0006EEF7FEF80E090E00E94C41A20E049EF86
:1047E0005AE062E370E080E090E00E94C41A109109
:1047F0009401812F82958695877021F0843008F08E
:1048000052C00AC020E048ED5AE066E270E083E55D
:1048100090E00E94C41A47C0812F887190E0B3E0F5
:1048200095958795BA95E1F7813049F0823019F076
:10483000A3E7FA2E02C0F5E7FF2E8DE403C0E3E7FD
:10484000FE2E8BE4012F077020E043ED5AE068E272
:1048500070E090E00E94B41A20E04EEC5AE068E26A
:1048600070E08F2D90E00E94B41A20E04BEB5AE0EC
:1048700067E270E085E590E00E94C41A2091480745
:10488000255E49E25AE068E270E08AE690E00E9424
:10489000C41A002341F00150187F102B011101C0F0
:1048A000107E10939401F0902A0300912B03009541
:1048B0000F211091940112951695177006FF20C0D4
:1048C000113091F020F01230D9F487E70EC08091BA
:1048D000480790E0019675E0880F991F7A95E1F7F7
:1048E0008760809394010CC087E580939401609168
:1048F00048076F5F6093480780ED90E00E9428347E
:1049000005FF21C0123089F0133089F011111BC04E
:104910008091480790E0019665E0880F991F6A959D
:10492000E1F78760809394010EC08FE201C08FE4AD
:10493000809394016091480761506093480780ED2F
:1049400090E00E94283402FF08C0112319F0109251
:10495000940103C086E08093970103FF05C082E0C5
:104960008093970110929501F4FE09C08091930104
:10497000803108F01CCD8F5F80939301FBC61092AD
:104980009301F8C6109247021092650210928302BA
:104990001092A1021092BF021092DD02E2E1F2E059
:1049A0002FE332E082818F70828333962E173F0788
:1049B000C9F7E2ECF1E022E132E082818F7082837C
:1049C00034962E173F07C9F78EA09FA0A8A4B9A4BC
:1049D00080929A0190929B01A0929C01B0929D01BD
:1049E0008AA49BA4ACA4BDA480929E0190929F0136
:1049F000A092A001B092A1018EA49FA4A8A8B9A8DA
:104A00008092A2019092A301A092A401B092A5016C
:104A10008AA89BA8ACA8BDA88092A6019092A701E5
:104A2000A092A801B092A9011092210300E01EE01B
:104A300010931F0300931E03109318030093170392
:104A40008BE480931D031092200381E08093160372
:104A500080E090E0A1E0B0E080930E0390930F031C
:104A6000A0931003B093110380E090E0A8E1B0E0C0
:104A70008093120390931303A0931403B093150330
:104A80001092380783E899E00E946E1880E58093C1
:104A90004B0783E0809397018DE790E090930D01A1
:104AA00080930C018CE291E090930B0180930A01BA
:104AB00080E09BE490930901809308011093070123
:104AC00000930601109305010093040182E390E036
:104AD00090930F0180930E0184E180932C038091C9
:104AE000280381700E94E11280914B078035B0F459
:104AF0008230D8F4813009F05DC08091950165E085
:104B00000E945F36E92FF0E0EE0FFF1FE15DFE4FE0
:104B10006081718181E00E94D51F47C0803509F016
:104B200049C01092C1011092BC0120E048E559E053
:104B30006EE170E08DE190E00E94C41A2091950131
:104B400030E02F5F3F4FC9016AE070E00E946B3692
:104B50008983CB016AE070E00E946B368A83C901C9
:104B600064E670E00E946B366B838E010F5F1F4F0F
:104B7000780109E510E0D7012D917D01265E49E21B
:104B80005AE06FE170E0C8010E94B41A06501109A2
:104B90000734110581F74AE16EE58AE10E942F177B
:104BA00049E26EE58AE10E942F1780914B07815000
:104BB00080934B0780911E0390911F0318161906CE
:104BC00084F52091170330911803121613064CF543
:104BD00020912003211125C030912A0320912B031D
:104BE0002095232302978F3F4FEF940711F00C94E9
:104BF000D23210921F0310921E0337FDFDC634FD02
:104C00000BC735FD18C736FD26C722FF03C088E055
:104C10008093200323FD2EC780914B07882309F43E
:104C20006DC732E1A32E32E0B32E4FE3842E42E073
:104C3000942ED50112962C9112972F70622F70E04E
:104C4000FB01E453F94FE4918C918E0F8C93FB019F
:104C5000EC53F94F6491F5019181690F61838937B4
:104C600010F4613418F0D50112962C93F50192815D
:104C7000907F79F070E06150710990E023E0C22EDE
:104C8000E12C00E010E020E044EE56E001970E94A5
:104C90008118F3E0AF0EB11C8A149B0451F6F12C7D
:104CA000E0914807F0E0E45DFE4F8081F81608F0DF
:104CB00056C004E0F09E90011124D901AE53BE4FBE
:104CC00012964C9112974F70642F70E0FB01E452E2
:104CD000F94FE491EE0F8C918E0F8C93FB01EC5207
:104CE000F94F6491660F11969C911197690F119677
:104CF0006C931197893710F012964C93613430F011
:104D0000F901EE53FE4F92819F709283F901EE53A9
:104D1000FE4F9281292F207F01F12381213009F458
:104D200081508150213009F461506150213049F4A3
:104D30009F70943020F4923028F022E003C0983025
:104D400008F020E070E003E0C02EE12C00E010E06D
:104D500044EE56E090E00E948118F394A1CF81E0E8
:104D60000E94F91C80913807882321F1809139072E
:104D700090913A07092E000CAA0BBB0BBA2FA92F52
:104D8000982F882740913007509131076091320762
:104D9000709133074A015B01881A990AAA0ABB0A73
:104DA0008092300790923107A0923207B092330779
:104DB0000E940F1B0E94C21280E00E94F91C80908A
:104DC0000E0390900F03A0901003B09011034501C3
:104DD000BB2497FCB094AB2CC40142968239910558
:104DE00008F098C040901203509013036090140391
:104DF000709015032301772457FC7094672C8091E1
:104E00001E0390911F03181619064CF540911703C5
:104E10005091180341150BEF50070CF180912803B6
:104E20009091290360912003762F7695769576955B
:104E3000272F30E0F901E252F84FC490EFEFE70F6F
:104E4000E73018F46F5F60932003609120036034B3
:104E500011F41092200341305D4F0CF0A7C48091F3
:104E6000170390911803181619060CF441C00C97FB
:104E70009093180380931703292F892F990F990B6B
:104E8000121614F4019702C0809590952C3F3CF4C3
:104E90002A3F14F5263F61F51092160329C02F3FD3
:104EA00009F034F54091190350911A03992744965B
:104EB000880F991FFA01E80FF91F25913491FC0121
:104EC0003897E40FF51F45915491E12C00E0B201B1
:104ED000C4010E94FF1A0CC0E0911903F0911A035B
:104EE000B6964591549120E0B201C4010E94B41AD3
:104EF00080911E0390911F03181619065CF02091F3
:104F0000170330911803121613060CF4A1C402C043
:104F1000109216030E94A3120E94CD1480914B0799
:104F2000811130C08091170390911803181619064B
:104F30004CF080910A03811133C086EE97E00E9405
:104F40006E182EC0EFE3F2E083EF92E0208521118E
:104F500020C07E968E179F07C9F7909149078091D0
:104F60009501992309F4BEC465E00E945F36E92FDC
:104F7000F0E0EE0FFF1FE15DFE4F6081718180E088
:104F80000E94D51F809117039091180318161906D7
:104F900084F680911E0390911F03181619064CF693
:104FA000809116038111E6C385E023C580914807EF
:104FB000811105C0809195018E3161F406C0813068
:104FC00049F4809195018C3329F485E08093970111
:104FD00011E001C010E084ED90E00E9422344C0109
:104FE00050901B0360901C0343E065E484E00E9442
:104FF0002F1740E265E484E00E942F17D0909701BC
:1050000024E0D21208C020E043EC54E068E070E0F5
:1050100085E090E00CC020E0112319F04DE054E051
:1050200002C041E553E068E070E086E090E00E9455
:10503000C41A20E049EF5AE060E370E080E090E0BD
:105040000E94C41A35E0D31659F020E04EEB55E02B
:1050500065E070E084E590E00E94C41A0CE101C0B4
:1050600003E010E020E046EA55E0B8018AE590E070
:105070000E94C41A19821A821B821C8280911B030F
:1050800090911C03DE0111967D011E01B5E02B0EEF
:10509000311CF7017E2CCF2C6AE070E00E946B3649
:1050A0008193CB012E163F06B9F72CE6A22EB12C28
:1050B000065F1F4FF70121917F01265E49E25AE00A
:1050C000B801C5010E94B41AF6E0AF1AB10824E590
:1050D000A216B10479F735E0D31232C0052D162D92
:1050E0000815190508F4840119821A821B821C8292
:1050F00020E04FE755E06BE170E082E590E00E9430
:10510000C41AE72CFC2CF701C8016AE070E00E9489
:105110006B3681938B012E163F06B1F70CE610E03B
:10512000D7012D917D01265E49E25AE065E270E0EB
:10513000C8010E94B41A065011090435110581F7FF
:1051400080914B07823D10F40E94801F20E048EDC3
:105150005AE066E270E087E190E00E94C41A809114
:105160002B03809590912A0389238870B4E0DB1289
:1051700004C009F4FFC282E03CC4811139C4FAC200
:1051800010924B0787E08093970120E049EE52E0B0
:105190006AE070E08BE090E00E94C41A08E010E042
:1051A00020E042EE52E066E170E0C8010E94C41ABD
:1051B000035F1F4F0934110599F720E049EF5AE0CA
:1051C00060E370E080E090E00E94C41A43E065E490
:1051D00084E00E942F1740E265E484E00E942F17CC
:1051E00020E04AEC52E063E070E08BE490E00E9443
:1051F000C41A20E04FEA52E066E070E08BE590E0F0
:105200000E94C41A20E047E952E061E170E08BE4BB
:1052100090E00E94C41A20E04AE752E067E170E0A3
:105220008BE590E00E94C41A20E042E652E063E27F
:1052300070E08BE490E00E94C41A20E04EE352E05C
:1052400068E270E08BE590E00E94C41A20E048ED2F
:105250005AE066E270E087E190E00E94C41A809113
:105260004B07823D10F40E94801F80912B0383FD29
:1052700081C280912A0383FF7DC2B4C38FEF8093E4
:10528000F3021092F4021092F5021092F6021092BC
:10529000F702C0901B03D0901C0310E0812F0E94E6
:1052A000162129833A834B835C836D838C819D8196
:1052B0008C159D0528F495EEE92EF12C04E005C02F
:1052C0001F5F153059F71FEF3FC0101708F5015049
:1052D000802F0E94162129833A834B835C836D8340
:1052E000622FC7010E9428346A81C70101960E947B
:1052F00028346B81C70102960E9428346C817D811D
:10530000C70103960E943A34E5E0EE1AF108DDCFBA
:10531000F5E01F9F7001112460E0C7018F529F4F7D
:105320000E94283460E0C7018E529F4F0E942834AB
:1053300060E0C7018D529F4F0E942834B601C7011B
:105340008C529F4F0E943A341093F30289E080936D
:10535000970120E048E851E067E070E084E090E0E9
:105360000E94C41A20E049EF5AE060E370E080E058
:1053700090E00E94C41A43E063E482E00E942F1789
:1053800040E263E482E00E942F1720E041E751E011
:1053900068E270E086E090E00E94C41A20E041E7F5
:1053A00051E068E270E088E290E00E94C41A20E0D8
:1053B0004DE451E06FE170E089E190E00E94C41A91
:1053C00004E010E0B12C86E0A82E8B2D0E9416215F
:1053D000298F3A8F4B8F5C8F6D8F49E25AE0B8016D
:1053E0008CE490E00E94C41A2A8D49E25AE0B80188
:1053F00082E590E00E94C41A2B8D49E25AE0B80180
:1054000088E590E00E94C41AAE8DBF8DEA2D1D92F2
:10541000EA95E9F78C8D9D8D9E012F5F3F4F6901C5
:10542000F9016AE070E00E946B368193CB0188A09D
:1054300099A0E815F905A9F7BBE7EB2EF12CD601E9
:105440002D916D01265E49E25AE0B801C7010E9424
:10545000B41AB5E0EB1AF108EDE5EE16F10479F7B0
:10546000B394075F1F4FF5E0BF12AFCF6091F30217
:105470006F3F09F405C1809191018F5F8F3118F45E
:105480008093910102C0109291018091F40209E091
:10549000609FB001112481111FC06D5F7F4F01E03B
:1054A00028E046E08BE490E00E94BC166091F30295
:1054B00019E0619FB00111246C5F7F4FABEFCA2EE2
:1054C000E12C00E010E02091F50249E25AE08CE482
:1054D00090E00E9481180AC06C5F7F4F2091F50216
:1054E00049E25AE08CE490E00E94C41A8091F402F0
:1054F0006091F302813019F529E0629FB001112417
:105500006D5F7F4F01E028E046E081E590E00E947A
:10551000BC166091F30239E0639FB00111246C5F07
:105520007F4FFBEFCF2EE12C00E010E02091F60240
:1055300049E25AE082E590E00E9481180EC049E0FD
:10554000649FB00111246C5F7F4F2091F60249E205
:105550005AE082E590E00E94C41A8091F4026091C2
:10556000F302823019F589E0689FB00111246D5F64
:105570007F4F01E028E046E087E590E00E94BC16FE
:105580006091F30299E0699FB00111246C5F7F4F35
:10559000EBEFCE2EE12C00E010E02091F70249E283
:1055A0005AE088E590E00E9481180EC0A9E06A9F49
:1055B000B00111246C5F7F4F2091F70249E25AE05D
:1055C00088E590E00E94C41A80912B038095909109
:1055D0002A0389239091F40284FF10C0292F30E020
:1055E000F901ED50FD4F4281442319F041504283AF
:1055F00005C049E1428387FF12C00DC087FF0FC07D
:10560000292F30E0F901ED50FD4F4281493118F466
:105610004F5F428304C0F901ED50FD4F128285FFB8
:1056200005C0992319F091509093F40286FF07C0AA
:105630009091F402923018F49F5F9093F40283FFEC
:1056400099C00091F302B5E00B9F80011124609195
:10565000F502C8018F529F4F0E9428346091F602D4
:10566000C8018E529F4F0E9428346091F702C801F2
:105670008D529F4F0E9428348FEF8093F3027AC09F
:1056800090912A038091900197FF52C094FF50C0DF
:105690008F5F80939001853108F459C08D33C0F13C
:1056A0008D3309F054C01092900183E884BD67BD2A
:1056B00081EF809380001092880010928A0081E030
:1056C0000E945221809171008D7F80937100109211
:1056D0000D038AEA91E090930C0380930B0390935F
:1056E00009038093080387E194E09093AB018093D2
:1056F000AA0184E690E09093AD018093AC0180E034
:1057000090E89093AF018093AE010E94601732C081
:1057100020E430E0281B3109220F83E884BD67BDF7
:1057200081EF809380001092880020938A000FC040
:10573000882369F083E884BD8FEF87BD81EF809374
:1057400080001092880010928A001092900180913F
:105750002B03809598239C7069F083E884BD8FEFBC
:1057600087BD81EF809380001092880010928A009C
:105770001092970180E00E9427168091960188235D
:1057800011F40C941E2381508093960181110C9486
:10579000142383E884BD8FEF87BD81EF8093800061
:1057A0001092880010928A000C941423C80C0C2CC0
:1057B000000CDD08711114C060912203462F062EE3
:1057C000000C550B57FF03C05195419551094430CA
:1057D00014F566E070E00E946B3601E0049708F46F
:1057E00000E08091190390911A03285F3F4FA901AF
:1057F000440F551FFC01E40FF51F25913491FA0168
:105800007097E80FF91F45915491E12CB201C60140
:105810000E94FF1A24CB01E016160CF400E0E02EE3
:1058200024E037E040E757E0B201C6010E94FF1ACA
:105830008091220387FF03C08F5F809322038091B2
:10584000220318160CF00BCB81508093220307CB58
:105850000C9790931F0380931E03892F97FD9195BA
:10586000492F50E04131510508F054CBFA01E05A7C
:10587000FF4F0C949336A6E003C0ABE001C0AEE04E
:10588000A80D99E081E012C0A4E1A80D9EE086E099
:105890000DC0282D281BA2E1A20F84E1890F985E7C
:1058A00005C0A4E1A80D88E0890F945F5091190309
:1058B00040911A03E52FF42FE90FF11DE90FF11DB7
:1058C00025913491E52FF42FE80FF11DE80FF11D1C
:1058D00045915491E12C00E0B2018A2F90E00E94A2
:1058E000FF1A18CB8F5F8093950188E280934B0756
:1058F00084EA98E00E946E1884E080939701C12C9E
:10590000D12C16E00C2D30E8C316D10409F43ACBA3
:105910008C2D81700E94E11280913807882321F13B
:105920008091390790913A07092E000CAA0BBB0B06
:10593000BA2FA92F982F882740913007509131070F
:1059400060913207709133074A015B01881A990A06
:10595000AA0ABB0A8092300790923107A0923207C0
:10596000B09233070E940F1B0E94C21280E00E9477
:10597000F91C8090120390901303A0901403B09030
:1059800015034501BB2497FCB094AB2C40900E034B
:1059900050900F036090100370901103802F612FBF
:1059A0000E945F3601E0933008F000E0E12C2BEA22
:1059B00035E14DE856E1B401C601860D971D0E9400
:1059C000FF1A0E94A3120E94CD1481E00E942716A4
:1059D00064E170E080E090E00E94DC1C0FEFC01AF0
:1059E000D00A90CF80932B030E945E1B80932A03E2
:1059F00088E080939701BECE8091120390911303AB
:105A0000A0911403B09115038D3CECEC9E07A10509
:105A1000B1050CF0E2C2F3C8809112039091130318
:105A2000A0911403B09115030097FDE2AF07B105F3
:105A30000CF4F6C2E6C880910E0390910F03A0917A
:105A40001003B0911103873606EE9007A105B1054A
:105A50000CF009C3D8C880910E0390910F03A09158
:105A60001003B0911103009716E6A107B1050CF4DD
:105A700008C3CBC880911D03882309F4CDC8809149
:105A80000A03811104C08AE499E00E946E18C09054
:105A90000E03D0900F03E0901003F0901103670104
:105AA000FF24D7FCF094EF2C809012039090130306
:105AB000A0901403B09015034501BB2497FCB0944B
:105AC000AB2C42E0682D8C2D0E94B31F80912103E6
:105AD000882309F4A1C890911D03923008F49CC852
:105AE00081508093210341E0682D8C2D0E94B31FCB
:105AF00043E0682D8C2D0E94B31F8EC8809138071B
:105B0000882309F462C08090300790903107A090FC
:105B10003207B09033074501BB2497FCB094AB2CFF
:105B2000C0903407D0903507E0903607F0903707E3
:105B30000E94F8162D873E874F87588B698B7A8B8A
:105B40008D859E85AC01460F511D94012F5F3F4FFF
:105B500024173507D4F52DE0820E911C8815990580
:105B6000A4F56701FF24D7FCF094EF2C8F8598896A
:105B7000AC01470F511D96012F5F3F4F241735078A
:105B800024F53BE0C30ED11C8C159D05F4F48091E7
:105B90003D07813009F48BC208F081C280913B0738
:105BA00090913C0790931F0380931E0387EF87BD5E
:105BB00084E0809396011092380780910A03811146
:105BC00004C086E296E00E946E1812E1E12E12E017
:105BD000F12E03EF602E02E0702E812C83E0982ED0
:105BE000D70112968C911297807F81F1CC90D12CA5
:105BF0001196AC90B12C0FE312E0F8018085882358
:105C000001F12801F9E04F0E511CD80119968D9130
:105C10009C911A9718161906A4F4C8010E948E1CAC
:105C20002B8B3C8B4D8B5E8B6F8B788F8B899C89FC
:105C3000C816D90634F0860F911DC816D9060CF483
:105C40005AC2025E1F4F60167106B9F6F3E0EF0EFE
:105C5000F11C0FE3E01602E0F00611F6809120033C
:105C600081119CC00E94F81629833A834B835C8380
:105C70006D837E8340E0E0914807F0E0E45DFE4FF5
:105C80008081481708F057C014E0419FD0011124CB
:105C9000CD018E539E4FFC013281232F207F31F1A5
:105CA00013818081113009F4815090E0BD016E5361
:105CB0007E4FFB012181113009F4215069817A81E5
:105CC000861797079CF05D81650F711D86179707F2
:105CD0006CF4822F90E06B817C818617970734F0FB
:105CE0002E81620F711D8617970714F04F5FC3CF87
:105CF000AE53BE4F3F7012963C93E12FF0E0EE0F93
:105D0000FF1FEC5DFE4F80911703909118032081D7
:105D10003181821B930B909318038093170397FF95
:105D200004C0109218031092170388E080938A0031
:105D300084E0809396010E94F81629833A834B836E
:105D40005C836D837E830FE312E0D80118968C91FB
:105D500018978823E9F056968C91811119C0F801A3
:105D600085858330A9F0C8010E948E1C2F83388757
:105D700049875A876B877C8729813A818F819885EB
:105D80004D81F901E40FF11D8E179F070CF4EDC151
:105D9000025E1F4F22E0033F1207B9F68091020115
:105DA000815080930201811105C1BFE38B2EB2E0C7
:105DB0009B2E412C512CC4010E948E1C29833A83B6
:105DC0004B835C836D837E83D40118968C911897E6
:105DD000882309F4D7C056968C9156978111D2C06A
:105DE00054968C91882309F4CDC089819A819C01B5
:105DF000260F311D121613060CF0C4C08038910511
:105E00000CF0C0C08B819C819C01270F311D37FD98
:105E1000B9C0803491050CF0B5C08091100399E0B1
:105E2000692E680E8091140329E0222E280ED401D9
:105E30000D911D912D913C9113976901FF24D7FC81
:105E4000F094EF2C1D968C91833009F45FC2C4014D
:105E50000E94831C8695082F10E00C0D1D1DF40177
:105E6000C480D580E680F7806701FF24D7FCF094DA
:105E7000EF2C8585833009F4AEC1C4010E94781CE3
:105E8000869590E0062C000C7708601A710A022CA7
:105E9000000C3308C80ED91E2C183D08611471047B
:105EA00009F49CC1C101032C000CAA0BBB0BDC0143
:105EB000992788276C017D01FF0CCC08DC2C76012A
:105EC0009C01AD016C2D7C2D8C2D9C2D00E10E9440
:105ED00070376301072C000CEE08FF088601FF24D1
:105EE000EE2457016801DD0CAA08BA2C6501AAA2AC
:105EF000BBA2CCA2DDA257016801EAA0FE2C0E2DA8
:105F00001E2D0E949B36F22FE32F8F2F9E2FA42F42
:105F1000B52F181619061A061B063CF0B095A09569
:105F2000909581959F4FAF4FBF4FF401358533302A
:105F300009F059C12785121413040CF45BC116141F
:105F400017040CF066C1843BF1E29F07A105B1057F
:105F50000CF44CC1AC01BD014D56544C61097109A2
:105F60004F3259486105710518F4213009F45EC1BA
:105F7000805E9749A740B10981329846AF4DB34042
:105F800008F4C7C10FEF401A500A1EE1810E911CA0
:105F900026E04216510409F00ECF6AE070E080E07E
:105FA00090E00E944617DC01CB010A96A11DB11DAD
:105FB00080930201809100019091010101979093DB
:105FC000010180930001892B11F00C94112680911E
:105FD000380781110C941126E5C1AC01BD014C5C60
:105FE0005C4C61097109481759076A077B0724F45B
:105FF000809122038F5F08C084179507A607B70713
:106000002CF4809122038150809322034093120349
:106010005093130360931403709315030C94FF259E
:10602000AC01BD01445353436F4F7F4F481759078D
:106030006A077B0724F4809122038F5F08C08417CE
:106040009507A607B7072CF480912203815080930F
:10605000220340931203509313036093140370932D
:1060600015030C9401268656964EA109B10980931A
:106070000E0390930F03A0931003B09311030C949D
:10608000032684539343AF4FBF4F80930E039093E7
:106090000F03A0931003B09311030C9405268230D4
:1060A000A9F0833009F082CD8AE08093210320910A
:1060B0003C0780911D0390E0820F911D8C34910567
:1060C00010F08BE490E080931D0370CD20911703B6
:1060D0003091180380913B0790913C07820F931FEA
:1060E00081304EE0940714F080E09EE09093180316
:1060F000809317035BCD8D899E89A816B9060CF491
:10610000A0CD870F911DA816B9060CF09ACDF70106
:1061100082818F708283D80119968D919C911A97F4
:106120009A951A969C938E93199797FF03C0F8013E
:1061300012861186D80153969C928E925297F20144
:106140008181811109C080911B0390911C030196EC
:1061500090931C0380931B0380910A03811176CDD9
:1061600088E396E00E946E1871CD860F911D281766
:1061700039070CF00DCE2B813C8189859A854E81A3
:106180004901840E911C881599050CF001CE870FEA
:10619000911D281739070CF0FBCD809117039091C2
:1061A00018034E97909318038093170397FF04C02A
:1061B000109218031092170380910A03811104C0F2
:1061C0008AE496E00E946E1888E080938A0084E05A
:1061D00080939601E3CD88E090E054CE80E090E09B
:1061E000A7EEB3E0A2CEF4012685A5CE223009F0B9
:1061F000B1CE1CC0161417040CF0ADC0843B41E2B4
:106200009407A105B1050CF098C0223009F095C0A3
:106210000DC0672809F4ACCE843B01E29007A105CC
:10622000B1050CF07AC0263009F077C08EE1849D6C
:10623000F001859DF00D1124E15CFD4F84898150B2
:10624000848B80819181A281B3815D01DD24B7FCC3
:10625000D094CD2C333029F0C4010E94831C869544
:1062600001C088E1F0909201F4E0FF9E80011124CA
:10627000F801EE53FE4FA80EA0828EE1849DF0013E
:10628000859DF00D1124E15CFD4F84819581A681EF
:10629000B7815D01DD24B7FCD094CD2C858583309A
:1062A00029F0C4010E94781C869501C088E0F8019D
:1062B000EE53FE4FA80EA1828EE1849DF001859DD4
:1062C000F00D1124E15CFD4F9585933011F4878525
:1062D00001C08685F801EE53FE4F806F8283938361
:1062E000F394F0929201E0914807F0E0E45DFE4FF4
:1062F0008081F81202C01092920180910A038111EC
:106300004CCE8CE596E00E946E1847CE0DE110E071
:10631000A4CD222309F48ACF35CEAC01BD014D5660
:10632000544C610971094F3259486105710508F0F3
:106330001FCE273009F01CCE79CFAC01BD014D56E0
:10634000544C610971094F32594861057105C8F40F
:106350002330B9F46BCF6728A1F0843B61E2960744
:10636000A105B105E4F0AC01BD014D56544C6109E5
:1063700071094F3259486105710518F4253009F447
:1063800055CF805E9749A740B10981329846AF4DFD
:10639000B34008F0F7CD243009F0F4CD47CF2630D4
:1063A00011F744CF64E070E080E090E00E9446176F
:1063B00080911E0390911F03813094400CF447C0DC
:1063C0008091170390911803813094400CF459C0C8
:1063D000B62E41E0641711F16417C8F162E0B616F9
:1063E00009F44FC083E0B81267C0C0900801D09094
:1063F0000901C6010D2C000CAA0BBB0B6627782FD8
:10640000892F9A2F20E032E040E050E00E945E3475
:1064100089017AE6E72E76E0F72E54C0C090080195
:10642000D0900901C6010D2C000CAA0BBB0B6627EE
:10643000782F892F9A2F20E032E040E050E00E9430
:106440005E34890136EAE32E36E0F32E3BC0C0907D
:106450000401D0900501C6010D2C000CAA0BBB0B4A
:106460006627782F892F9A2F20E032E040E050E015
:106470000E945E348901B12C88ECE82E8BE1F82E65
:1064800021C0C0900601D0900701C6010D2C000C60
:10649000AA0BBB0B6627782F892F9A2F20E032E0BA
:1064A00040E050E00E945E348901F2E0BF2EA8E88F
:1064B000EA2EA6E0FA2E06C0C12CD12C00E010E096
:1064C000E12CF12CB0923D0781E08093380780E009
:1064D00090E0A0E8B0E08093300790933107A0935C
:1064E0003207B093330763E370E080E090E00E94EE
:1064F0004617DB0199278827809334079093350747
:10650000A0933607B09337070E94C3339B0177FFF0
:1065100004C022273327261B370BC90199279395DF
:1065200090933A07809339070E94C3339B0177FF0A
:1065300004C022273327261B370BB601601B710BC3
:10654000C9010E947F369C01200F311F30933C0708
:1065500020933B07F0923F07E0923E0760910A01CB
:1065600070910B01CB01A0E0B0E0C0900C01D09085
:106570000D01E12CF12CC816D906EA06FB0664F4DD
:10658000BC01CD016C197D098E099F090E94461737
:10659000C60ED71EE81EF91ED0920101C09200015E
:1065A0000C94112690931F0380931E030C94FD25D9
:1065B000CF92DF92EF92FF92E5E2F3E0158216822E
:1065C00080E187831482138211868DE391E09183A9
:1065D00080838BE096E1909307038093060380E02D
:1065E00090E89093B7018093B60146983E9A4798F9
:1065F0003F9AE3EFF2E011821282138214828FEF4E
:10660000808366E17CE18EE093E00E94661BEEE011
:10661000F3E016861586138A80E09EE0918B808BCE
:10662000928781878BE48787128A81E0808780E068
:1066300090E0A1E0B0E080839183A283B383C12C7A
:10664000D12C88E1E82EF12CC482D582E682F78233
:1066500046EE5BE160E08FE392E00E94C51C46EEEF
:106660005BE160E08DE592E00E94C51C46EE5BE1D7
:1066700060E08BE792E00E94C51C46EE5BE160E0C3
:1066800089E992E00E94C51C46EE5BE160E087EB81
:1066900092E00E94C51C46EE5BE160E085ED92E071
:1066A0000E94C51CE0E3F7E080E090E0ACEEBFEFB5
:1066B00080839183A283B383C482D582E682F782EA
:1066C0001086148613861286118688EC9BE19787C4
:1066D00086878BE590E09093BE018093BD019093F7
:1066E000B9018093B801FF90EF90DF90CF900895AB
:1066F0008F929F92AF92BF92CF92DF92EF92FF92D2
:10670000CF93DF93EC01688179818A819B81611548
:1067100071058105910521F464E279ED8BE597E03F
:106720002DE133EF41E050E00E945E3449015A010F
:106730009B01AC01A7EAB1E40E947D346B017C01AE
:10674000ACEEB4EFA50194010E948B34DC01CB01C7
:106750008C0D9D1DAE1DBF1DB7FF03C00197A10984
:10676000B04888839983AA83BB83BC01CD019F77FE
:10677000DF91CF91FF90EF90DF90CF90BF90AF90DF
:106780009F908F9008958F929F92AF92BF92CF92D9
:10679000DF92EF92FF926091100170911101809150
:1067A000120190911301611571058105910521F484
:1067B00064E279ED8BE597E02DE133EF41E050E0C5
:1067C0000E945E3449015A019B01AC01A7EAB1E481
:1067D0000E947D346B017C01ACEEB4EFA501940105
:1067E0000E948B34DC01CB018C0D9D1DAE1DBF1DA5
:1067F000B7FF03C00197A109B0488093100190939F
:106800001101A0931201B0931301BC01CD019F7738
:10681000FF90EF90DF90CF90BF90AF909F908F90C0
:106820000895609310017093110180931201909369
:1068300013010895F999FECF92BD81BDF89A992769
:1068400080B50895A8E1B0E042E050E00C945034E7
:10685000262FF999FECF92BD81BDF89A019700B419
:10686000021639F01FBA20BD0FB6F894FA9AF99AB9
:106870000FBE08950196272F0E9429340C942834C6
:10688000262FF999FECF1FBA92BD81BD20BD0FB64C
:10689000F894FA9AF99A0FBE01960895DC01CB019B
:1068A000FC01F999FECF06C0F2BDE1BDF89A319620
:1068B00000B40D9241505040B8F70895052E97FB53
:1068C0001EF400940E94753457FD07D00E94903446
:1068D00007FC03D04EF40C947534509540953095D8
:1068E00021953F4F4F4F5F4F08959095809570953C
:1068F00061957F4F8F4F9F4F08950E94B234A59F9F
:10690000900DB49F900DA49F800D911D11240895AA
:10691000B7FF0C947D340E947D34821B930B089545
:10692000A1E21A2EAA1BBB1BFD010DC0AA1FBB1F93
:10693000EE1FFF1FA217B307E407F50720F0A21B05
:10694000B30BE40BF50B661F771F881F991F1A9472
:1069500069F760957095809590959B01AC01BD019C
:10696000CF010895A29FB001B39FC001A39F700DF6
:10697000811D1124911DB29F700D811D1124911D47
:1069800008955058BB27AA270E94D9340C94B835D3
:106990000E94AA3538F00E94B13520F039F49F3FAB
:1069A00019F426F40C94A7350EF4E095E7FB0C944B
:1069B000A135E92F0E94C93558F3BA17620773074A
:1069C0008407950720F079F4A6F50C94EB350EF4C6
:1069D000E0950B2EBA2FA02D0B01B90190010C01EF
:1069E000CA01A0011124FF27591B99F0593F50F407
:1069F000503E68F11A16F040A22F232F342F44275F
:106A0000585FF3CF469537952795A795F040539556
:106A1000C9F77EF41F16BA0B620B730B840BBAF026
:106A20009150A1F0FF0FBB1F661F771F881FC2F791
:106A30000EC0BA0F621F731F841F48F487957795A5
:106A40006795B795F7959E3F08F0B0CF9395880F5F
:106A500008F09927EE0F9795879508950E94353590
:106A60006894B1110C94EC3508950E94D13588F0EA
:106A70009F5798F0B92F9927B751B0F0E1F0660F02
:106A8000771F881F991F1AF0BA95C9F714C0B13043
:106A900091F00E94EB35B1E008950C94EB35672F2F
:106AA000782F8827B85F39F0B93FCCF38695779572
:106AB0006795B395D9F73EF490958095709561955B
:106AC0007F4F8F4F9F4F0895E89409C097FB3EF486
:106AD00090958095709561957F4F8F4F9F4F99232B
:106AE000A9F0F92F96E9BB279395F69587957795A9
:106AF0006795B795F111F8CFFAF4BB0F11F460FF69
:106B00001BC06F5F7F4F8F4F9F4F16C0882311F0C0
:106B100096E911C0772321F09EE8872F762F05C0D4
:106B2000662371F096E8862F70E060E02AF09A956F
:106B3000660F771F881FDAF7880F9695879597F964
:106B4000089597F99F6780E870E060E008959FEFEF
:106B500080EC089500240A941616170618060906F4
:106B6000089500240A9412161306140605060895C3
:106B7000092E0394000C11F4882352F0BB0F40F44B
:106B8000BF2B11F460FF04C06F5F7F4F8F4F9F4F8B
:106B9000089557FD9058440F551F59F05F3F71F00D
:106BA0004795880F97FB991F61F09F3F79F0879574
:106BB0000895121613061406551FF2CF4695F1DFFD
:106BC00008C0161617061806991FF1CF869571058D
:106BD000610508940895E894BB2766277727CB01C1
:106BE00097F908950E9405360C94B8350E94AA358D
:106BF00038F00E94B13520F0952311F00C94A135A6
:106C00000C94A73511240C94EC350E94C93570F30F
:106C1000959FC1F3950F50E0551F629FF001729F41
:106C2000BB27F00DB11D639FAA27F00DB11DAA1F50
:106C3000649F6627B00DA11D661F829F2227B00D9D
:106C4000A11D621F739FB00DA11D621F839FA00D28
:106C5000611D221F749F3327A00D611D231F849F78
:106C6000600D211D822F762F6A2F11249F575040CF
:106C70009AF0F1F088234AF0EE0FFF1FBB1F661F4A
:106C8000771F881F91505040A9F79E3F510580F013
:106C90000C94A1350C94EC355F3FE4F3983ED4F3AB
:106CA000869577956795B795F795E7959F5FC1F7B7
:106CB000FE2B880F911D9695879597F90895991B3E
:106CC00079E004C0991F961708F0961B881F7A95E3
:106CD000C9F780950895AA1BBB1B51E107C0AA1FE5
:106CE000BB1FA617B70710F0A61BB70B881F991F6D
:106CF0005A95A9F780959095BC01CD01089597FB11
:106D0000072E16F4009407D077FD09D00E946B3649
:106D100007FC05D03EF4909581959F4F089570959E
:106D200061957F4F0895EE0FFF1F0590F491E02DC0
:106D30000994689401C0E894F92FF12B12F00C9497
:106D4000CD36A0E0B0E0E7EAF6E30C943F37092E39
:106D5000059422F40E942937112392F4F0E80F26BB
:106D6000FFEFE094F09400951095B094C094D09407
:106D7000A194BF0ACF0ADF0AEF0AFF0A0F0B1F0B0D
:106D80000E94D83607FC0E942937CDB7DEB7ECE069
:106D90000C945B37689401C0E8948F929F92CF93D4
:106DA000DF930E94D836DF91CF919F908F90089506
:106DB00088249924F401E401B0E49F93AA279A154A
:106DC0008B049C04ED05FE05CF05D007A10798F4C0
:106DD000AD2FDC2FCF2FFE2FE92D982C892E982F49
:106DE000872F762F652F542F432F322F2227B8500D
:106DF00031F7BF9127C01B2EBF91BB27220F331F36
:106E0000441F551F661F771F881F991F881C991CD8
:106E1000EE1FFF1FCC1FDD1FAA1FBB1F8A149B0480
:106E2000EC05FD05CE05DF05A007B10748F08A187F
:106E30009B08EC09FD09CE09DF09A00BB10B21600D
:106E40001A94E1F62EF49401AF01BE01CD01000CBD
:106E500008956095709580959095309540955095E2
:106E600021953F4F4F4F5F4F6F4F7F4F8F4F9F4F3A
:106E700008952F923F924F925F926F927F928F92DE
:106E80009F92AF92BF92CF92DF92EF92FF920F93B9
:106E90001F93CF93DF93CDB7DEB7CA1BDB0B0FB6C3
:106EA000F894DEBF0FBECDBF09942A883988488880
:106EB0005F846E847D848C849B84AA84B984C88416
:106EC000DF80EE80FD800C811B81AA81B981CE0F0D
:106ED000D11D0FB6F894DEBF0FBECDBFED010895F2
:106EE0000F93083090F0982F872F762F652F542F0F
:106EF000432F322F22270850F4CF220F331F441F75
:106F0000551F661F771F881F991F0A95B2F70F91AB
:066F10000895F894FFCF84
:106F16007D000501000E000E004B2C017D003200A5
:106F26000100000080001401B6001902EC001E03E7
:106F36002201230040008000400040000A0F143167
:106F460001210112010301F400000000000E1604E5
:106F560005060700010203040302010007060500F7
:106F660007060504030201A11C8C1C831C7A1C0065
:106F7600001E006600000080001901000A190203C5
:106F8600047B22522229220822E721BE219D21BE0E
:106F960021742143211221E920C020972066200078
:00000001FF