:100000000C94D6110C94FE110C94FE110C94FE115C
:100010000C94FE110C94FE110C94FE110C94FE1124
:100020000C94FE110C94FE110C9410190C9482196E
:100030000C94FE110C94FE110C94FE110C94FE1104
:100040000C94FE110C943F160C94FE110C94FE11AE
:100050000C94FE110C94FE110C94FE110C94C61815
:100060000C94FE110C94FE110C94FE110C94FE11D4
:100070000C94FE110C94FE110C94FE110C94FE11C4
:100080000C94FE110C94FE110C94FE110C94FE11B4
:100090000C94FE110C94FE110C94FE110C94FE11A4
:1000A0000C94FE110C94FE110C94FE112A1F1E1FBD
:1000B0001E1F391F3B1F3D1F3F1F411F431F451F71
:1000C0004E1F591F4D414E55414C004F5054494F02
:1000D0004E5300504C415900455241534520414C2C
:1000E0004C0A484947482053434F52455321210069
:1000F00045524153452053434F52455300534554B5
:10010000204E4F54450A5343524F4C4C20535045B8
:1001100045442E004E4F544520535045454400451C
:100120004E41424C450A47414D4520415544494FB7
:100130002E00534F554E440046554E2052414E44DA
:100140004F4D4C590A47454E4552415445440A4388
:10015000484152545321004348414F5320204D4FB2
:100160004445005354414E444152440A5248595464
:10017000484D0A47414D45504C415921004E4F5280
:100180004D414C204D4F444500D5F08D14A1C88100
:10019000CFD9F1AF200004100C0F0000000C0F01AC
:1001A000061000C040000C0F030300000000803860
:1001B0000000FCFEFEFEFEFEFE7E7E7E7E7EFEFEDD
:1001C000FEFEFCF8E000FCFCFCFEFEFCFCFC00FC7F
:1001D000FEFEFEFEFE7E7E1E7E7EFEFEFEFCF8E045
:1001E0000000FCFCFCFEFEFCFCFC00001CFEFEFE15
:1001F000FEEEEEEEFEFEBC1800000000007C9090CB
:10020000888004020000000000C03008040402825C
:1002100042422222221212120A161A1222222242CA
:1002200042820204040830C0000000000000000008
:10023000000000FFFFFFFFFFFFFFFFFFFFFFFFFFCB
:10024000FFFFE7C38000FEFEFEFEFE0000FE000092
:10025000FFFFFFFFFFFFFFFCFFFFDF9F1F0F0701F7
:100260000000FEFEFEFEFE0000FE00001C3FBFBFC1
:10027000BFBDB8BDBFBF9F0F00000000001C804085
:100280003C00000000000080407FE0180402F1E024
:10029000C0FEFCF8F0E0E0E0C0E0E0E0F0F8FCFEDA
:1002A000C0E0F1020418E07F408000000000000080
:1002B0000000E0FFFFFFFFFFFFF7F7C1F7F7FFFFC9
:1002C000FFFFFFFFFF3EC1FFFFFFFF0000FF00E059
:1002D000FFFFFFFFFFFFE3070F1F3F7FFFFEFCF85D
:1002E000F0E0DFBF7FFFFF0000FF0000FEFFFFFF29
:1002F000FF7777777707070700000000007C909072
:10030000888004020000FEFFFF00FF100020F8FFBD
:10031000E7C7CF8F9D1B37FFFFFF371B9D8FCFC7D1
:10032000E7FFF8200010FF00FFFFFE0000000000C4
:100330000000C3E7E7E7E7E7E7E7E7E7E7E7E7E73F
:10034000E7E3C3810000C7C7C7E7E7C0C0C700C372
:10035000E7E7E7E7E7E7E3E0E0E0E0E0E0C18307C5
:100360000707C7C7C7E2E5C0C0C7000083C7EFEFF4
:10037000EFEFEFEFEFEFCF8700000000001C8040B1
:100380003C000000000000030508131C60800367A8
:10039000870F2F6E6E8F27754175A7CF6E6E2F0F4B
:1003A00087670380601C130805C3C00000C0C0003D
:1003B00000000FFFFFFFFFFFFFF7F7F7F7F7FFFF63
:1003C000FFFF7F3F0E00EFEFEFEFEF0F0FEF000F9C
:1003D000FFFFFFFFFFF7F7C1F7F7FFFFFFFF7F1EEC
:1003E0000000EFEFEFEFEF0F0FEF0000FFFFFFFF59
:1003F000FD7D7DFDFFFFFFFF00000000007C909071
:1004000088800402000000000000000000018284D7
:1004100083008040404040402020202020109090C9
:1004200053A4DAE1F8F8F8F810E1E7DF5CB15F6EA9
:10043000000000FFFFFFFFFFFF7F7F1F7F7FFFFFA9
:10044000FFFFFEFCF8E01FFFFFFFFF0000FF0000C2
:10045000FFFFFFFFFFFF3F7FFFFFFDF9F1E0C080DF
:100460000000FFFFFFFFFF0000FF0000337B7B79F0
:10047000F8F8F8F839CBF3FBF06000000000003E1C
:10048000000000000000000000C0F8F6EFFFFF1FB2
:10049000FFFFFEFDFDFAFA3A3A1A1D0D0D7D7EFEB4
:1004A000FFFFFFFFE79F7FFFFFFE02F4F1F5F1F58D
:1004B00000003E7F7F7F7F7F7F7F7F7C7F7F7F7F8E
:1004C0007F3F3F1F0F037C7F7F7F7F00007F003EC9
:1004D0007F7F7F7F7F7F3E00000103070F1F3F7FED
:1004E0007F7E7D7B772F5F00007F00000000000093
:1004F0003F6F553A130703010000000000003F045E
:1005000008000000000000407C7F7F7F7F1F617E2D
:100510007F7F7F7F7F7F7F7E7E78784060787E7F61
:100520007F7F7F7F7F7F7E79671F7E017F7F7F7FD9
:10053000484F4C44204120464F52203320534543DE
:100540004F4E445321003258003158004F46460068
:100550004F4E005354415455533A200043203230FB
:10056000313920323032300A534849594F554741CA
:100570004E414900312E302E30005343414E20462B
:100580004F520A47414D45204D414E55414C210A9D
:100590000A42495249424952494245415400404069
:1005A000FFFFFF0707E7E7676767676767E7E70733
:1005B00007FFFF9F9FFFFF8787FFFF676707079F73
:1005C0009F07077F7F9F9F7F7FE7E70707FFFF0763
:1005D00007E7E7676767676767E7E70707FFFFFF03
:1005E000FFFFFF00007F7F6060606060607F7F00D2
:1005F00000FFFF1919818179799F9F1818FEFE79F4
:10060000799898000081816060E7E76666FFFF00E7
:10061000007F7F6060606060607F7F0000FFFFFFA1
:10062000FFFFFF06066666060666660606FEFE66AF
:100630006667670606E1E11818E1E19E9E1F1F1834
:100640001861611E1E67671E1E9F9F989887871EF0
:100650001E06061E1EE6E6FEFEE6E69E9EFFFFFF67
:10066000FFFFFF06061E1E60606666989879796631
:10067000669E9E6060070766667F7F6161F8F8E6A8
:10068000E6606098988686181881817979FFFF98CE
:100690009806061E1E61616767F9F99F9FFFFFFFBD
:1006A000FFFFFF18189E9E06067878FFFF86866675
:1006B0006601019E9E80806666E0E09E9E1F1F1977
:1006C0001966661F1F67677E7E87871E1E9F9F9F16
:1006D0009F9E9E1E1EE6E60606F9F99F9FFFFFFFFE
:1006E000FFFFFF60607F7F7878787861617F7F6649
:1006F00066E6E61919FFFF98987F7F6161F8F8E6D2
:10070000E678789E9E868618187F7F0606E7E76162
:1007100061E7E706061F1F060681818787FFFFFF47
:10072000FFFFFF0000FEFE060606060606FEFE00B0
:1007300000FFFF060687879999E0E09E9E1F1F191C
:10074000196666070767671E1E7878000067676688
:1007500066676760601E1E060619199F9FFFFFFFF0
:10076000FFFFFFE0E0E7E7E6E6E6E6E6E6E7E7E0EC
:10077000E0FFFFE0E0E7E7E1E1FFFFE1E1F8F8E6B5
:10078000E6F8F8FEFEE6E6F8F8E6E6F8F8F8F8FE31
:10079000FEF8F8E6E6E0E0E6E6F8F8FFFFFFFFFF28
:1007A0005049434B2041204D4F44452100600DA04E
:1007B0000CE80B400B980A000A7009E8086808F07A
:1007C0000780071607B0065006F405A0054C050083
:1007D00005B80474043404F803C0038B03580328D9
:1007E00003FA02D002A60280025C023A021A02FC5C
:1007F00001E001C501AC0194017D01680153014094
:10080000012E011D010D01FE00F000E200D600CA1C
:1008100000BE00B400AA00A00097008F0087007FF0
:1008200000780071006B0065005F005A00550050B1
:10083000004B00470043003F003C003800350032C9
:10084000002F002D002A0028002500230021001F72
:10085000001E001C00080B00020202010009040037
:10086000000102020000052400100105240101011D
:100870000424020605240600010705810310004038
:1008800009040100020A00000007050202400000FE
:10089000070583024000000403090412010002EF6F
:1008A000020140412336000001010203014172644C
:1008B00075696E6F204C4C430041726475626F79AC
:1008C00000544F54414C0A47524541540A474F4F38
:1008D000440A4D4953530A4D415820434F4D424F0E
:1008E00000594F55204E45454420505241435449EC
:1008F00043452E2E2E0041204E455720484947485B
:100900002053434F524521004E4F54204241442032
:10091000415420414C4C210004080C1E3F3F040868
:100920003F3F1E0C00FCFEFEFEFEFEFEFEFEFEFE37
:10093000FC000F1F1F1F1F1F1F1F1F1F1F0F0D104A
:1009400000FCFEFE06066666068EFEFEFC000F1F1D
:100950001F18181B1B181C1F1F0F0D1000FCFEFE7C
:10096000060666660606FEFEFC000F1F1F18181F0F
:100970001F18181F1F0F0D1000E0E0E0E4EEFEFE50
:10098000FCF8F0E0C000010101091D1F1F0F070363
:1009900001000D1000C0E0F0F8FCFEFEEEE4E0E027
:1009A000E000000103070F1F1F1D090101010D10C9
:1009B00000E0F0E0C0FEFEFEFEC0E0F0E00000015E
:1009C00003070F1F1F0F070301000D1000C0E0F009
:1009D000F8FCFEFEFCF8F0E0C000010301001F1F60
:1009E0001F1F0001030104083E09093E3F25251A87
:1009F0001E2121123F21211E3F2525213F050501F2
:100A00001E21293A3F04043F213F21001021211FCC
:100A10003F040A313F2020203F02023F3F02043FB3
:100A20001E21211E3F0909061E21112E3F090936EC
:100A300022252519013F01011F20201F0F10201F13
:100A40003F10103F3B04043B03043807312D2321A2
:100A50001E29251E223F2000322929261221251A6F
:100A60000C0A3F08172525191E25251801390503ED
:100A70001A25251A0629291E00220000002F000031
:100A80000020000020202020002D0507000C182544
:100A9000303C47515A626A70767A7D7F7F7F7D7ADB
:100AA00076706A625A51473C3025180C48415244CE
:100AB000004D454449554D00484947482053434F50
:100AC00052453A0A004541535900248018802400B9
:100AD0001800FE90609060FE288020104880201052
:100AE000FE4410208044102480FEFFFF24801880E4
:100AF00024001800FE90609060FE2880401028803E
:100B00004010FE2410408024104480FEFFFF20800F
:100B10000804FE10402424FEFFFF20800804FE107D
:100B200000400008200820FEFFFF200008002008E9
:100B300010080000800840080000FE10088008002F
:100B40000010000010000010001080FEFFFF444461
:100B50008888FEFFFF2008280840044404FEFFFFA9
:100B60002000080010000808400004008000040471
:100B7000FE20884414FE20000800100008084000F1
:100B8000040080000404FEFFFF100840000800205D
:100B9000000800100008004000FE10201008FE10A1
:100BA00040200010004000FE10002000100004044F
:100BB000FEFFFF80084000080020000800800008B9
:100BC000004000FE80208008FE8040200080004021
:100BD00000FE8000200080000404FEFFFF20008053
:100BE0000020088008FE1000400010044004FE2091
:100BF000800804FE10402424FEFFFF200080002017
:100C0000088008FE1000400010044004FE20800808
:100C100004FE1000400008200820FEFFFF200810FE
:100C20000040048000FE20084004FE200810084018
:100C3000048004FE44448888FEFFFF200810004022
:100C4000048000FE20084004FE20081000400480BC
:100C500000FE20084444FEFFFF104020001000402A
:100C600000FE10201008FE1040200010004000FE82
:100C70001000200010000404FEFFFF8040200080D0
:100C8000004000FE80208008FE8040200080004060
:100C900000FE8000200080000404FEFFFF241824D2
:100CA00018FE90609060FE28804010FE2424FEFF15
:100CB000FF24182418FE90609060FE28804010FEEB
:100CC00028804010FEFFFF20800804FE104008042A
:100CD000FE20800804FE10402424FEFFFF20800830
:100CE00004FE10400804FE20800804FE10004000AE
:100CF00008200820FEFFFF20084004FE20084004D2
:100D0000FE20084004FE20084848FEFFFF2008405F
:100D100004FE20084004FE20084004FE200844444D
:100D2000FEFFFF10201040FE10201008FE102010C3
:100D300040FE10201004FEFFFF80208040FE802037
:100D40008008FE80208040FE80208004FEFFFFCAD5
:100D50000AEC0A0E0B1A0B2A0B4E0B550B600B8973
:100D60000BB30BDD0BFB0B1D0C3B0C590C7B0C9DD3
:100D70000CB10CC70CDD0CF70C0D0D230D390D61FA
:100D80000D5F0D5D0D5B0D5D0D590D570D550D572B
:100D90000D530D510D4F0D510D4F0D570D550D5755
:100DA0000D530D5D0D5B0D5D0D590D6D0D6B0D69D9
:100DB0000D670D650D630D710D6F0D710D6F0D6577
:100DC0000D630D690D670D7D0D7B0D790D770D752B
:100DD0000D730D710D6F0D710D6F0D750D730D7917
:100DE0000D770D167F0D0EAB0D0EC70D410E0000D9
:100DF00001010203040504050203010100000012C1
:100E00007FC77F7FBB0000001EC1C77F7F7F0000C0
:100E1000001000C77F7F7F0000000000007F7F7F01
:100E2000000000127FC27F7FBB0000000EC1007F68
:100E30007F7F0000001000C77F7F7F000000000060
:100E4000007F7F7F000000127FC77F7FBB00000014
:100E50000EC1007F7F7F0000001000C27F7F7F00F7
:100E600000000000007F7F7F0000001000C77F7F30
:100E70007F000000027F007F7FBB0000001EC1C218
:100E80007F7F7F0000000000007F7F7F0000001256
:100E90007FC77F7FBB0000000EC1007F7F7F000007
:100EA000000000007F7F7F0000000000007F7F7F48
:100EB000000000127FC77F7FBB0000000EC1007FD3
:100EC0007F7F0000001000C27F7F7F0000000000D5
:100ED000007F7F7F000000127FC77F7FBB00000084
:100EE0000EC1007F7F7F0000000000007F7F7F0039
:100EF00000000000007F7F7F000000127FC77F7F1F
:100F0000BB0000001EC1C77F7F7F000000027F0082
:100F10007F7FBB0000000EC1007F7F7F00000012BA
:100F20007FC77F7FBB0000000EC1007F7F7F000076
:100F3000001000C27F7F7F0000000000007F7F7FE5
:100F4000000000127FC77F7FBB0000000EC1007F42
:100F50007F7F0000001000C77F7F7F000000B0008F
:100F6000017F7F7F000000127FC77F7FBB000000F2
:100F70000EC1007F7F7F0000001000C27F7F7F00D6
:100F800000000000007F7F7F0000001000C77F7F0F
:100F90007F000000027F007F7FBB0000001EC1C2F7
:100FA0007F7F7F0000000000007F7F7F0000001235
:100FB0007FC77F7FBB0000000EC1007F7F7F0000E6
:100FC000000000007F7F7F0000000000007F7F7F27
:100FD000000000127FC77F7FBB0000000EC1007FB2
:100FE0007F7F0000001000C27F7F7F0000000000B4
:100FF000007F7F7F000000127FC77F7FBB00000063
:101000001EC1C77F7F7F0000000000007F7F7F0040
:1010100000000000007F7F7F000000127FC77F7FFD
:10102000BB0000000EC1007F7F7F000000127FC761
:101030007F7FBB0000001EC1C77F7F7F00000012C2
:101040007FC77F7FBB0000001EC1C77F7F7F00007E
:10105000001000C77FB07F0000000000007F7F7F8E
:10106000E000C1127FC27F7FBB0000000EC1007F85
:101070007F7FE000C41000C77FB07FE000C40000A5
:10108000007FB07F010300127FC7B57FBB0EC10098
:101090000EC1007F7F7F0000001000C27FB27F0082
:1010A00000000000007F7F7FE000C11000C77F7F4D
:1010B0007F000000027F007F7FBBE000C41EC1C232
:1010C0007FB27FE000C40000007FB27F000000120A
:1010D0007FC77F7FBB0000000EC1007F7F7F0000C5
:1010E000000000007FAF7F0000000000007F7F7FD6
:1010F000E000C1127FC77F7FBB0000000EC1007FF0
:101100007F7FE000C41000C27FAF7FE000C400001A
:10111000007FAF7F020300127FC7B47FBB0EC10008
:101120000EC1007F7F7F0000000000007FB07F00C5
:1011300000000000007F7F7FE000C1127FC77F7F3B
:10114000BB0000001EC1C77F7F7FE000C4027F009C
:101150007FB0BBE000C40EC1007FB07F0000001272
:101160007FC77F7FBB0000000EC1007F7F7F000034
:10117000001000C27FB07F0000000000007F7F7F72
:10118000E000C1127FC77F7FBB0000000EC1007F5F
:101190007F7FE000C41000C77FB07FE000C4B000D4
:1011A000017FB07F000000127FC77F7FBB0000007F
:1011B0000EC1007F7F7F0000001000C27FB27F0061
:1011C00000000000007F7F7FE000C11000C77F7F2C
:1011D0007F000000027F007F7FBB0000001EC1C2B5
:1011E0007FB27F0000000000007F7F7FE000C1121F
:1011F0007FC77F7FBB0000000EC1007F7F7F0000A4
:10120000000000007FB47F0000000000007F7F7FAF
:10121000E000C1127FC77F7FBB0000000EC1007FCE
:101220007F7FE000C41000C27FB47FE000C40000F4
:10123000007FB47F010300127FC7B77FBB0EC100E0
:101240001EC1C77F7F7FA000070000007FB57F0021
:1012500000000000007F7F7FA20307127FC7B7B5A1
:10126000BB0EC1000EC1007F7F7FA00007127FC7A9
:101270007FB5BB0000001EC1C77F7F7F000000124A
:101280007FC7BA7FBB0000001EC1C77F7F7F000001
:10129000001000C7B4A47F0000000000007F7F7F23
:1012A000E000C1127FC2B47FBB0000000EC100B5D8
:1012B0007F7FE000C41000C7B7A47FE000C4000037
:1012C00000B9A47F000000127FC77F7FBB00000031
:1012D0000EC1007F7F7F0000001000C2B7A67F0014
:1012E0000000000000B57F7FE000C11000C7B47FA0
:1012F0007F000000027F00B57FBBE000C41EC1C2BA
:101300007FA67FE000C40000007FA67F00000012DF
:101310007FC7B57FBB0000000EC100B47F7F000017
:1013200000000000B2A37F000000000000B47F7F37
:10133000E000C1127FC77F7FBB0EC1000EC1007FDE
:101340007F7FE000C41000C2B4A37FEEC1C40000E0
:10135000007FA37F000000127FC77F7FBB000000DB
:101360000EC100B47F7F0EC1000000007FA47F008B
:1013700000000000007F7F7FE000C1127FC7B47FC4
:10138000BB0EC1001EC1C77F7F7FEEC3C4027F00BA
:10139000B2A4BBEEC3C40EC100B4A47F000000120F
:1013A0007FC7B07FBB0000000EC100B27F7F00008E
:1013B000001000C2B4A47F000000000000B57F7FD1
:1013C000E000C1127FC7B77FBB0000000EC100BAAA
:1013D0007F7FEEC1C41000C77FA47FE000C4B000CF
:1013E00001B2A47F000000127FC7B97FBB000000DC
:1013F0000EC100B57F7F0EC1001000C27FA67F0026
:1014000000000000007F7F7FE000C11000C7B97FAF
:101410007F000000027F00B77FBB0000001EC1C23A
:10142000B5A67F000000000000B47F7FEEC1C112AE
:101430007FC77F7FBB0000000EC1007F7F7F000061
:10144000000000007FA87F0000000000007F7F7F79
:10145000E000C1127FC7B07FBB0000000EC1007F5B
:101460007F7FE000C41000C2B2A87FE000C400008B
:10147000007FA87F0EC500127FC7B57FBB000000AC
:101480001EC1C77F7F7FAEC407000000B2A97F00E6
:1014900000000000007F7F7FAEC307127FC7B9A99D
:1014A000BB0000000EC1007F7F7FAEC207127FC766
:1014B000B7A9BB0000001EC1C77F7F7F00000012DC
:1014C0007FC7BA7FBB0000001EC1C77F7F7F0000BF
:1014D000001000C7B4A47F0000000000007F7F7FE1
:1014E000E000C1127FC2B47FBB0000000EC100B596
:1014F0007F7FE000C41000C7B7A47FE000C40000F5
:1015000000B9A47F000000127FC77F7FBB000000EE
:101510000EC1007F7F7F0000001000C2B7A67F00D1
:101520000000000000B57F7FE000C11000C7B47F5D
:101530007F000000027F00B57FBBE000C41EC1C277
:101540007FA67FE000C40000007FA67F000000129D
:101550007FC7B57FBB0000000EC100B47F7F0000D5
:1015600000000000B2A37F000000000000B47F7FF5
:10157000E000C1127FC77F7FBB0EC1000EC1007F9C
:101580007F7FE000C41000C2B4A37FEEC1C400009E
:10159000007FA37F000000127FC77F7FBB00000099
:1015A0000EC100B47F7F0EC1000000007FA47F0049
:1015B00000000000007F7F7FE000C1127FC7B47F82
:1015C000BB0EC1001EC1C77F7F7FEEC3C4027F0078
:1015D000B2A4BBEEC3C40EC100B4A47F00000012CD
:1015E0007FC77F7FBB0000000EC1007F7F7F0000B0
:1015F000001000C27FA47F0000000000007F7F7FFA
:10160000E000C1127FC77F7FBB0000000EC100B5A4
:101610007F7FE000C41000C7B7A47FE000C4B00023
:1016200001B9A47F000000127FC7BA7FBB00000091
:101630000EC100B57F7F0EC1001000C27FA67F00E3
:1016400000000000007F7F7FE000C11000C7B47F72
:101650007F000000027F00B57FBB0000001EC1C2FA
:10166000B7A67F000000000000B97F7FE000C11234
:101670007FC7BA7FBB0000000EC1007F7F7F0000E4
:10168000000000007FA87F0000000000007F7F7F37
:10169000E000C1127FC7B97FBB0000000EC1007F10
:1016A0007F7FE000C41000C2B7A87FE000C4000044
:1016B000007FA87F000000127FC7B57FBB0000003D
:1016C0001EC1C77F7F7FA202070000007FA97F02A3
:1016D00002000000007F7F7FA20307127FC77FA95F
:1016E000BB0203000EC1007F7F7FA20407127FC7E9
:1016F0007FA9BB0EC5001EC1C77F7F7F0E050012EC
:101700007FC1B27FBB0E05001EC101B47F7F0E05F5
:1017100000100001B5A47F0E0500100001B77F7F07
:10172000EE05C1100001B47F7F0000001000017FB2
:101730007F7FE000C4127F01B0A4BBE000C41EC1E3
:1017400001B2A47F0202001000C77F7F7F0000006B
:10175000000000B07F7F000000000000B4A67F0200
:1017600002000000007F7F7FE000C1000000B07F2A
:101770007F000000000000B57F7FE202C4027F000E
:101780007FA6BBE000C40EC100B4A67F000000121B
:101790007FC1B57FBB0000001EC101B47F7F0EC1B9
:1017A000001000017FA37F000000100001B47F7FC4
:1017B000EEC1C11000017F7F7F0000001000017F9B
:1017C0007F7FE000C4127F01B4A3BBEEC1C41EC181
:1017D000017FA37F0000001000C77F7F7F00000013
:1017E000000000B47F7F0EC1000000007FA47F00D6
:1017F00000000000007F7F7FE000C1000000B47F98
:101800007F0EC1000000007F7F7FE000C4027F00E8
:101810007FA4BBEEC3C4027F00B4A4BB00000012CF
:101820007FC17FB7BBE000C1120201B47FB70EC118
:10183000001202017FA47F0000001202017F7F7F5F
:10184000E000C1120201B47F7F0EC1001202017FCD
:101850007F7FE000C4127F017FA4BBE000C41EC1F3
:1018600001B4A47F0EC1001000C77F7F7F0000007D
:101870000000007F7F7F0EC300000000B4A67F0041
:1018800000000000007F7F7FE000C1000000B47F07
:101890007F0EC1000000007F7F7F000000027F00FC
:1018A0007FA6BB0000000EC100B47F7F0EC10012F6
:1018B0007FC17FB7BBE000C11202017F7FB700008C
:1018C00000120201B4A87F0EC1001202017F7F7FC7
:1018D000E000C11202017F7F7F0EC300100001B43F
:1018E0007F7FE000C4127F017FA8BBE000C41EC15F
:1018F00001B4A87F0EC1001202C77FB7B7E000C1D4
:10190000020200B47F7FAEC1070202007FA97F0000
:1019100000000202007F7F7F0EC3001202C1B4B735
:10192000B7E000C11202017F7F7FA0000712020111
:10193000B4A97F0EC100B202057F7F7F00000012B4
:101940007FC1B07FBB0000001EC101B27F7F0000DD
:1019500000100001B4A47F000000100001B57F7FDB
:10196000E000C1100001B77F7F000000100001BA45
:101970007F7FEEC1C4127F017FA4BBE000C41EC103
:1019800001B2A47F0000001000C7B97F7F000000F3
:10199000000000B57F7F0EC1000000007FA67F0021
:1019A00000000000007F7F7FE000C1000000B97FE1
:1019B0007F000000000000B77F7FE000C4027F00CE
:1019C000B5A6BBE000C40EC100B4A67F00000012A3
:1019D0007FC1B57FBB0000001EC101B47F7F0EC177
:1019E000001000017FA37F000000100001B47F7F82
:1019F000EEC1C11000017F7F7F0000001000017F59
:101A00007F7FE000C4127F01B4A3BBEEC1C41EC13E
:101A1000017FA37F0000001000C77F7F7F000000D0
:101A2000000000B47F7F0EC1000000007FA47F0093
:101A300000000000007F7F7FE000C1000000B47F55
:101A40007F0EC1000000007F7F7FE000C4027F00A6
:101A50007FA4BBEEC3C4027F00B4A4BB000000128D
:101A60007FC17FB7BBE000C1120201B47FB70EC1D6
:101A7000001202017FA47F0000001202017F7F7F1D
:101A8000E000C1120201B47F7F0EC1001202017F8B
:101A90007F7FE000C4127F017FA4BBE000C41EC1B1
:101AA00001B4A47F0EC1001000C77F7F7F0000003B
:101AB0000000007F7F7F0EC300000000B4A67F00FF
:101AC00000000000007F7F7FE000C1000000B47FC5
:101AD0007F0EC1000000007F7F7F000000027F00BA
:101AE0007FA6BB0000000EC100B47F7F0EC10012B4
:101AF0007FC17FB7BBE000C11202017F7FB700004A
:101B000000120201B4A87F0EC1001202017F7F7F84
:101B1000E000C11202017F7F7F0EC300100001B4FC
:101B20007F7FE000C4127F017FA8BBE000C41EC11C
:101B300001B4A87F0EC1001202C77FB7B7E000C191
:101B4000020200B47F7FAEC1070202007FA97F00BE
:101B500000000202007F7F7F0EC300127FC7B4B770
:101B6000BBE000C1027F007F7FBBA00007027F00B7
:101B7000B4A9BB0EC100027F007F7FBB5049434B1D
:101B8000204120444946464943554C54592100447C
:101B90004F494E475F495400000000000006EC0D1D
:101BA000E90DE60DE30D0D1000FC0202FAFA9A9A17
:101BB000FA720202FC000F101017171414171310FA
:101BC000100F0D1000FC0202FAFA9A9AFAFA0202B9
:101BD000FC000F101017171010171710100F0D1012
:101BE00000E02020242E32060C1830E0C000010155
:101BF00001091D13180C060301000D1000C0603010
:101C0000988C06068C983060C000010301001F10FC
:101C1000101F000103010D1000E0B020407E020201
:101C20007E4020B0E000000103060C18180C0603EB
:101C300001000D1000C0E030180C06322E242020C8
:101C4000E000000103060C18131D090101014348BF
:101C50004152474520434F4D504C45544500434861
:101C600041524745204445504C4554454400474562
:101C70005420524541445900535441525421004D7F
:101C800049535300474F4F440047524541540020A9
:101C9000434D42002B28000000000000000000001F
:101CA00000008040402020202040408000000000B4
:101CB0000000000000000000000000000000000024
:101CC0000000000000804020108844221108080411
:101CD0000404C2820404E4C9020418245CB878F045
:101CE000E0C000000000000000000000F00C020155
:101CF000C03806010040C0C0C0E0F0F8FCFFFFFFA4
:101D00008FFF0703B67EFCF9F0E1021D2BC7000030
:101D1000606060606060600003040810A748408451
:101D20000C0C1F7FEFC7E5E5C5A7A7DFFFEE261D5B
:101D30008E4FA7E3F47F0608110E0000000000009C
:101D40000000000000000001070F1E3D3A756850BA
:101D500031132747474B9B9DA84C0F0E07070301E4
:101D6000000000000000000000000000002820002B
:101D70000000E0180402823DF9F0FFFE7DF9F9F958
:101D8000F1F9F9F97DFEFFF0F93D82020418E00057
:101D9000000000C0C0000080E0D01FF80601047FF2
:101DA000FFFCF8D1D3E3E6BF3FBFE6E3D3D1F8FCB5
:101DB000FF7F040106F81FD0E083030F0F03031F0A
:101DC0007FBF007F8200000000808989DDC9C88054
:101DD0008080C8C9DD89898000000000827F00BF43
:101DE0007F1F00000000000000000102030C102013
:101DF0004E31070F0E1D19191919191D0E0F073134
:101E00004E20100C0302010000000000000000231F
:101E100020000000E0180402824121111109090983
:101E20000909090909090909111121418202041846
:101E3000E000000080E0D01FF80601003CF8F0FF51
:101E4000FE7CF8F8F8F0F8F8F87CFEFFF0F83C00BB
:101E50000106F81FD0E0801F7FBF007F8200047F53
:101E6000FFFCF8D1D3E3E6BF3FBFE6E3D3D1F8FCF4
:101E7000FF7F0400827F00BF7F1F0000000102037C
:101E80000C10204E30050D0D1D1C1E1E1E1C1D0DA0
:101E90000D05304E20100C0302010000000D100053
:101EA00000C000002828C600C62829069C6C7F7C3C
:101EB0007C7C787870C00000000000C000282800FA
:101EC00083008300292E8C747F7C7C7C787970C1A0
:101ED0000000001818F7DBADAE73FD73AFAFDFFF86
:101EE000FFFFFFDFAFAF73FD73AEAEDCF03F7BF102
:101EF000FBE6C5865797979795959797975786C509
:101F0000E6FBFB7B3F8080808101C3434786868E52
:101F10008E8E8E86864743C30181808080D7ABAD8D
:101F200076F9FEF977AFAFDFFFFFDFAFAF77F9FEEE
:101F3000F976AEACD03F7BF1FBC48304971717173B
:101F40001515171717970483C4FBFB7B3F80808010
:101F50008103C7474E8D8D9D9D9D9D8D8D4E47C79D
:101F600003818080800A08FBF7F7F7F7F7F7F7F7A8
:101F7000FBF9E0D2A2A2A2A2D2E0F929100000004F
:101F8000C0F8FCFEFDF36FFFFFFFFFFEFDFAFAF461
:101F9000F4F4F4F4FAFAFDFEFFFFFFFF6FF3FDFE29
:101FA000FCF8C000000080F0FEFFFFFFFF3FC3FC15
:101FB000FFFFFFFFFFFFFFF080000080C0E7F7FF9B
:101FC000FFFFFFFFFFFCC33FFFFFFFFFFEF0802D81
:101FD0003800000000E018040282C1FEFEFDF9F1A5
:101FE000F97D3911F1E1D191091419101121214123
:101FF00041818101010102020418E000000018384B
:1020000078F8FBFCFEDFDF5F7F7FF8FF6320F0ECFA
:10201000777F3F1F870000000000000000000000E5
:1020200001020000608000FF0000000002E7DFB74F
:1020300073F1F8F8FC747ABFDEE6F0F0FEB070F0F1
:10204000F0FFF0F0000000000000000000000000C1
:1020500000FC0302FFF8E00000001F7FFF0000FE0D
:10206000000000FFFD7DF1E1E1E5E5FDFEFFDFDFC2
:10207000FFFCFCE0E0E0E4F4FCFCFC000000FF00FE
:1020800000FF7F1F0000000000000107186080FCB7
:1020900003060C1E1F3F3F7F7F7FFFDFDFFF7F7F39
:1020A0007F3F3F1F1E0E0603FC80601807010000E3
:1020B00000000000000080C0A070F0F0F9F8F8F80F
:1020C000F8F0ECD4A4A8484848484848A8A4D4EC60
:1020D000F0F8F8F8F8F9F0F070A0C0800000000007
:1020E0000406070707070605070707070707070787
:1020F0000707070707070707070707070707070770
:102100000707070705060707070706043238000018
:1021100000000000000000E018040282C1FEFEFD85
:10212000F9F1F97D3911F1E1D19109141910112159
:10213000214141818101010102020418E0000000F7
:102140000000000000183878F8FBFCFEDFDF5F7F3E
:102150007FF8FF6320F0EC777F3F1F8700000000CF
:102160000000000000000001020418608000FF0071
:10217000000000000000000002E7DFB773F1F8F88C
:10218000FC740A0F0E0600000E000000000F000095
:1021900000000F00000000000000000000FC03022F
:1021A000FFF8E0000000000080C0801F7FFF0000FB
:1021B000FE00000000000000000000000000000021
:1021C000000000000000000000000000000000FF10
:1021D0000000FF7F1F00F0F8D8D8DBDB27000000ED
:1021E0000107186080FC00000000000000000000F3
:1021F0000000000000000000000000000000FC8063
:102200006018070100000000070FAA8AAA8AA5D05B
:10221000E08040A070F0F0F9F0F0F0F0F0E0D0A035
:10222000A0404040404040A0A0D0E0F0F0F0F0F0EE
:10223000F9F0F070A0C08000000000000707070759
:102240000707070706010605070707070707070728
:10225000070707070707070707070707070707070E
:102260000707070705060707070706042D380000BC
:102270000000E018040282C1FEFEFDF9F1F97D398B
:1022800011F1E1D1910914191011212141418181EC
:1022900001010102020418E0000000183878F8FB80
:1022A000FCFEDFDF5F7F7FF8FF6320F0EC777F3F8E
:1022B0001F87000000000000000000000001020471
:1022C00018608000FF0000000002E7DFB773F1F83C
:1022D000F8FC747ABFDEE6F0F0FED0D0D0F0FFF06C
:1022E000F0F0D0DFD0F0F0E0E0C000000000FC0330
:1022F00002FFF8E00000001F7FFF0000FE0000006A
:10230000FF7D3E70E0E0E6667D7F7F5F5F7F7F7DE3
:1023100060E0E0E6767E7DFF000000FF0000FF7FCA
:102320001F0000000000000107186080FC03070E7A
:102330001F1F3F3F404040C0C0C0C04040403F3FE3
:102340001F1F0F0703FC806018070100000000003A
:1023500000000080C0A070F0F0F9F8F8F8F8F0EC98
:10236000D4A4A8484848484848A8A4D4ECF0F8F8B1
:10237000F8F8F9F0F070A0C0800000000004060733
:1023800007070706050707070707070707070707E0
:1023900007070707070707070707070707070707CD
:1023A00007050607070707060400333311241FBE7D
:1023B000CFEFDAE0DEBFCDBF12E0A0E0B1E0ECE9A4
:1023C000FDE602C005900D92A438B107D9F729E0C7
:1023D000A4E8B2E001C01D92AC3DB207E1F711E103
:1023E000C6EDD1E104C02197FE010E94A035C53D94
:1023F000D107C9F70E94E2310C94CC360C9400004E
:1024000081E08093CA095C9886EA8EBD00000DB415
:1024100007FEFDCF5C9A089582E090E008958FB7A3
:10242000F8944091AA025091AB026091AC02709175
:10243000AD028FBF8091D509942F981B8091D6094A
:10244000882331F09093D7091092D60980E008953F
:102450002091D409921740F49F5F9217A0F491E065
:1024600093BF889513BE089581E08093D609409369
:10247000D5098091D0099091D10901969093D10905
:102480008093D00981E008950E942A2F84E00E9461
:102490001F2F811103C084E090E0089582E090E056
:1024A000089587E491E00C94E82E8FE391E00C947A
:1024B000E82E87E391E00C94E82EEF920F931F93A0
:1024C0000E94863182E0E82E00E010E020E04EE934
:1024D00055E060E070E080E090E00E94632FE3EC64
:1024E000F9E081E48583848384E0868317828AE728
:1024F00095E00E94512F84E795E00E94512F8CE5D2
:1025000095E00E94362F1F910F91EF900C94932E1F
:10251000EF920F931F93CF93DF930E942A2F80E4B3
:102520000E941F2F882319F00E94A32E1CC080E256
:102530000E941F2F882319F00E94742C14C088E079
:102540000E941F2F882379F080912C09813041F05F
:1025500008F44BC0823009F045C084E090E047C0E9
:1025600083E090E044C082E0E82E00E010E020E04C
:102570004EEA51E060E070E080E090E00E94632F5E
:102580008091D0099091D1098F719927892B51F4AD
:1025900080918402882319F01092840203C082E0A3
:1025A00080938402C09184020C2E000CDD0B61E24A
:1025B00070E06C1B7D0B20E040EA51E084E590E088
:1025C0000E94B11FBE016E5F7F4F20E046E951E0DF
:1025D0008BE790E00E94B11F8FE199E00E94E22119
:1025E0000E94932E82E090E002C085E090E0DF91AF
:1025F000CF911F910F91EF9008956BEA79E084E1FC
:1026000090E00E94F3226FEA79E088E190E00E9476
:10261000F32263EB79E08CE190E00E94F32267EB18
:1026200079E080E290E00E94F3226BEB79E084E2B3
:1026300090E00E94F3226FEB79E088E290E00C9446
:10264000F322EF92FF920F931F93CF93DF9300D06B
:1026500000D0CDB7DEB763E371E080E190E00E9487
:10266000192319821A821B821C82BE016F5F7F4F61
:1026700084E190E00E94192319821A821B821C8235
:10268000BE016F5F7F4F88E190E00E94192319829D
:102690001A821B821C82BE016F5F7F4F8CE190E02B
:1026A0000E94192303EF11E086EFE82E81E0F82E57
:1026B00019821A821B821C82F80181918F01BE014E
:1026C0006F5F7F4F90E00E941923E016F10681F7BB
:1026D0000F900F900F900F90DF91CF911F910F915E
:1026E000FF90EF9008950F931F93CF93DF9300D047
:1026F00000D0CDB7DEB781EC80937C0085B1806FD0
:1027000085B984B1877E84B984B1876E84B95E9AB5
:102710005F988AB1806D8AB9769A6E9881B3806F1E
:1027200081BB899880B38D7080BB80E58CBD81E0D2
:102730008DBD85E090E00E94CB225F9A85E090E01D
:102740000E94CB225E985C98E9E8F1E086E991E08E
:1027500024912EBD00000DB407FEFDCF31968E17DB
:102760009F07B1F75C9A81E88093640080916500CF
:102770008160809365000E94932E0E94D022803851
:10278000B1F42E9880916400806280936400FFCF42
:102790002D980E94D0228478843871F00E94D02233
:1027A0008471843129F188EC90E00E94CB220E9450
:1027B000D02282FDEDCF38C02D9A88EC90E00E94A7
:1027C000CB222F9882E090E00E9413358F3F29F0B2
:1027D0006FEF82E090E00E941B3584EF91E00E9451
:1027E000CB222F9A0E94D02284788438D9F3D6CF76
:1027F0002D9A88EC90E00E94CB222E9882E090E007
:102800000E941335882329F060E082E090E00E9466
:102810001B3584EF91E00E94CB222E9A0E94D02299
:1028200084718431D9F3BFCF2D9A82E090E00E9469
:102830001335882319F03E9A3F9A02C03E983F987C
:10284000809164008E7F8093640080917A00806420
:1028500080937A0080917A0086FDFCCF0091780009
:10286000109179000E94A11820E030E09801112712
:102870000027600F711F821F931F20916400216049
:1028800020936400611571058105910511F00E9486
:102890000A3582E390E00E94CB220E94D02281116F
:1028A000F8CF8FE08093D40980913101909132016B
:1028B0008734910569F4279A83E884BD81E085BD5A
:1028C00080916E008E7F80936E0080E887BD38C057
:1028D0008834910569F4509A83E284BD81E085BD16
:1028E00080E888BD80916E008E7F80936E0028C046
:1028F0008839910569F43E9A81E88093900089E0D7
:10290000809391001092990080E88093980018C0FD
:102910008F3C9105A9F487B1806C87B91092BF00F4
:102920001092C2001092C3008FEF8093D10082E416
:102930008093C00081EC8093C10080E88093D00038
:1029400081E090E09093A5028093A4021092800011
:1029500089E08093810081E08093890084EF8093F7
:102960008800BE016F5F7F4F80E190E00E94F322FC
:10297000FC0140815181628173818091330190918A
:102980003401A0913501B0913601481759076A0703
:102990007B0719F00E94211302C00E94FD120F90C4
:1029A0000F900F900F90DF91CF911F910F9108958D
:1029B000EF92FF920F93CF937C01C62F01E02DE0A1
:1029C00030E04EE150E069E070E08EE190E00E947E
:1029D000822B29E030E043E250E06DE070E08FE1CF
:1029E00090E00E94822BE3ECF9E084E1858384830C
:1029F00081E086834C2F440F440F4C0F4A5F2AE03E
:102A000060E070E081E190E00E94202C00E029E08D
:102A100030E042E250E069E070E08FE190E00E9437
:102A2000822BC701CF910F91FF90EF900C94362F1E
:102A30000E942A2F80E10E941F2F882319F00E94F4
:102A4000A32E36C080E80E941F2F882319F00E9411
:102A5000742C2EC088E00E941F2F882321F18091C2
:102A60002C09882319F0813061F038C069E37BE1DB
:102A700080E090E00E940A351092360910923509E4
:102A80000FC00E94BC34611571058105910511F0DC
:102A90000E940A3581E090E09093360980933509D1
:102AA00086E090E0089584E00E941F2F811119C0F4
:102AB00040E161E070E089E599E00E94EC1D89E564
:102AC00099E00E9460208FE199E00E94E2216CE091
:102AD00080EA97E00E94D8140E94932E85E090E04F
:102AE000089582E090E008950E942A2F80E10E94DC
:102AF0001F2F882319F00E94A32E47C080E80E9450
:102B00001F2F882319F00E94742C3FC088E00E9478
:102B10001F2F8823A9F190912C09913031F160F099
:102B2000923099F58091850290918602019690935A
:102B300086028093850229C08091870281110CC092
:102B400087B187B91092C00010929609109295092A
:102B500081E08093870219C087B1806C87B982E4D5
:102B60008093C0001092870210C080919A09823031
:102B700019F490939A0909C08F5F80939A0905C050
:102B800084E00E941F2F81116AC08091850290917C
:102B900086020097D1F0873C910558F0109286028A
:102BA000109285020E9421130E94FD120E9486311C
:102BB0000CC02091D30923FF55C02091D20923FDD9
:102BC00051C0109286021092850240E161E070E0EF
:102BD00089E599E00E94EC1D89E599E00E9460205A
:102BE0008FE199E00E94E22180912C098130F9F077
:102BF00040F0823079F565E180E395E00E94D814D9
:102C000029C080918702811108C06AE083E595E0C0
:102C10000E94D81480E595E007C06BE083E595E05D
:102C20000E94D8148CE495E00E94362F13C0809146
:102C30009A096AE0813039F483E595E00E94D8145E
:102C400089E495E0F1CF83E595E00E94D81486E40D
:102C500095E0EACF0E94932E83E090E0089582E011
:102C600090E008950196909386028093850240E15A
:102C700067E070E089E599E00E94EC1DA6CF2F92F5
:102C80002FB62F93BF93AF930F921F9220919F0265
:102C90000090A102020E0092A1022091A0021090C9
:102CA000A202121E1092A202B12DB7FDB095BB0F69
:102CB000A0919E02B058BA02110CA12D209195024C
:102CC00000909702020E00929702209196021090B7
:102CD0009802121E10929802212D220F2121B091EC
:102CE000940227FDB195AB0F20919A0200909C02AF
:102CF000020E00929C0220919B0210909D02121ED7
:102D000010929D02B091990217FCB195AB0FB1E002
:102D10000090A4021090A502000C111C17FC0B26B9
:102D200016FC0B260092A4021092A502B091A302F9
:102D300017FCB195AB0FB0910001AB0FA093CF0082
:102D4000B0917601A0917501119761F0B093760171
:102D5000A09375011F900F90AF91BF912F912FBE3F
:102D60002F901895B0917801A0917701B0937601DA
:102D7000A093750178943F934F935F936F937F93E4
:102D80008F939F93EF93FF9311240E94C11BFF9198
:102D9000EF919F918F917F916F915F914F913F91B3
:102DA0001F900F90AF91BF912F912FBE2F9018952C
:102DB0004091B1025091B2022091AF023091B00225
:102DC00042175307B4F49091E8009570E1F39091A5
:102DD000E80092FD19C08093F1008091B1029091BA
:102DE000B20201968F739927892B19F48EEF809385
:102DF000E8008091B1029091B20201969093B202E4
:102E00008093B10281E0089580E00895DF92EF920F
:102E1000FF920F931F93CF93DF93D82E8A017B01EC
:102E2000E40EF51EEB01CE15DF0571F0D7FE03C0F1
:102E3000FE01849101C088810E94D81621968111DB
:102E4000F2CF8FEF9FEF01C0C801DF91CF911F91AB
:102E50000F91FF90EF90DF900895615030F0209136
:102E6000F100FC0120830196F8CF289884E6809336
:102E7000C2020895CF92DF92EF92FF920F931F93B9
:102E8000CF93DF936C017A018B01C0E0D0E0CE15C7
:102E9000DF0581F0D8016D918D01D601ED91FC9196
:102EA0000190F081E02DC6010995892B11F0219642
:102EB000EECF7E01C701DF91CF911F910F91FF905F
:102EC000EF90DF90CF900895CF93DF931F92CDB70F
:102ED000DEB76983DC01ED91FC910280F381E02D86
:102EE00041E050E0BE016F5F7F4F09950F90DF9189
:102EF000CF91089583E08093E9008091F2008823C8
:102F000019F08AE38093E8000895FC018485958593
:102F100097FD0BC09FB7F89482E08093E900809101
:102F2000F2009FBF90E0019608959FB7F89482E069
:102F30008093E9008091F2009FBF90E008950E9485
:102F4000C7360F931F93CF93DF931F92CDB7DEB792
:102F500082E0898342E450E065E578E080E80E9401
:102F600006170E94452EDC0112960D911C911397B5
:102F70000115110589F0D801ED91FC910280F381D2
:102F8000E02DBE016F5F7F4FC801099597FD04C01A
:102F9000F80100851185ECCF89810F90DF91CF91E9
:102FA0001F910F9108958F929F92AF92BF92CF92EF
:102FB000DF92EF92FF920F931F93CF93DF936C01F9
:102FC0007B018A0180915A01882309F45CC08091B9
:102FD000C302882309F457C08091A90280FF05C06D
:102FE0008091E00082608093E000E801B12C8AEFDC
:102FF000A82E93E0892E2AE3922E209711F4BB206D
:10300000D9F10E94342E81110AC0AA94AA20D9F1C4
:1030100061E070E080E090E00E94592EEECF282F12
:1030200030E0C217D3070CF48C2F9FB7F89480922E
:10303000E9002091E80025FF1DC0282F30E0C21BC9
:10304000D30BF701815020F041914093F100FACF6A
:10305000E20EF31EBB2019F09092E8000AC08091A6
:10306000E80085FD07C09092E800BB24B394209748
:1030700009F0B12C9FBFC1CF5D9884E68093B40264
:103080001016110644F081E090E0F60193838283EC
:1030900080E090E001C0C801DF91CF911F910F91B6
:1030A000FF90EF90DF90CF90BF90AF909F908F9068
:1030B00008950E94342E90E008950F931F93CF93AC
:1030C000DF931F92CDB7DEB78C01FC018485958517
:1030D00097FF0EC0CE0101960E94062E019719F4AB
:1030E000898190E002C08FEF9FEFF8019587848778
:1030F000F801848595850F90DF91CF911F910F91F5
:103100000895CF93DF931F92CDB7DEB7FC0184857E
:10311000958597FD05C02FEF3FEF358724870BC0BE
:10312000CE0101960E94062E019719F4898190E044
:1031300002C08FEF9FEF0F90DF91CF9108950C9415
:103140003E363FB7F8948091B6029091B702A091B5
:10315000B802B091B90226B5A89B05C02F3F19F05F
:103160000196A11DB11D3FBFBA2FA92F982F882707
:10317000820F911DA11DB11DBC01CD0142E0660F62
:10318000771F881F991F4A95D1F708951F920F92B4
:103190000FB60F9211242F933F938F939F93AF936A
:1031A000BF938091AA029091AB02A091AC02B09122
:1031B000AD023091B50223E0230F2D3720F40196A4
:1031C000A11DB11D05C026E8230F0296A11DB11D4A
:1031D0002093B5028093AA029093AB02A093AC0215
:1031E000B093AD028091B6029091B702A091B8025F
:1031F000B091B9020196A11DB11D8093B6029093C2
:10320000B702A093B802B093B902BF91AF919F915A
:103210008F913F912F910F900FBE0F901F90189597
:103220001F920F920FB60F9211248F939F9380914C
:10323000E1009091E100937F9093E10083FF0FC044
:103240001092E90091E09093EB001092EC0092E371
:103250009093ED001092C30298E09093F00082FFEB
:1032600020C093E09093E9009091F200992319F027
:103270009AE39093E8009091B402992339F09091E9
:10328000B40291509093B402992389F19091C202B3
:10329000992339F09091C20291509093C2029923E0
:1032A00041F184FF10C08091E2008E7E81608093A6
:1032B000E2008091E1008F7E8093E1008091A9027D
:1032C0008E7E806111C080FF16C08091E2008E7EEC
:1032D00080618093E2008091E1008E7E8093E10026
:1032E0008091A9028E7E81608093A90204C05D9ABC
:1032F000CDCF289AD6CF9F918F910F900FBE0F9070
:103300001F9018951F920F920FB60F921124CF9213
:10331000DF92EF92FF920F931F932F933F934F9360
:103320005F936F937F938F939F93AF93BF93EF932D
:10333000FF93CF93DF93CDB7DEB76C97DEBFCDBFE2
:103340001092E9008091E80083FFFBC168E0CE01A4
:1033500045960E942D1782EF8093E8008D8987FFA4
:1033600005C09091E80090FFFCCF03C09EEF9093C2
:10337000E800982F907609F0C6C09E894F89588D35
:103380002F89F88C91110CC0803829F48091A80203
:103390008093F10002C01092F1001092F10045C13B
:1033A000913051F4811141C14130510509F03DC1C5
:1033B0008091A8028D7F0BC0933061F4811135C1DB
:1033C0004130510509F031C18091A802826080939B
:1033D000A8022BC1953049F48091E80080FFFCCF12
:1033E000822F80688093E30020C1963009F05EC090
:1033F0000B8D1C8D22E01092E9001092B202109207
:10340000B102F21232C01092B0021092AF020E94CA
:10341000A11799E0BE016F5F7F4FDB01E92F1D927D
:10342000EA95E9F79983FA8291E09E8390EA98877A
:103430009AEF99872091B1023091B202275F3F4FF6
:103440003C832B838D831092E9001092B20210927C
:10345000B1021093B0020093AF0249E050E080E067
:103460000E9406170E94A117E0C01093B0020093BB
:10347000AF020E94452EDC0112960D911C9113970C
:103480000115110509F4BBC0D801ED91FC91048030
:10349000F581E02DBE016B5E7F4FC8010995009755
:1034A00009F0C7C0F80100851185EACF973009F40B
:1034B00045C1983021F481E08093F100B6C0993085
:1034C00009F0B3C0837009F039C1EAE8F1E081E0A6
:1034D00031E096E32081211109C08EE78093EA0054
:1034E0001092EA008F898093C3029FC08093E90005
:1034F0003093EB0021912093EC009093ED008F5FCF
:10350000873041F7EACF8B8D9C8D1092E9001092A5
:10351000B2021092B1029093B0028093AF02898DF3
:10352000811153C08E899D89913A49F4813209F005
:1035300005C147E050E063E571E080E0BBC0913237
:1035400009F0FCC0833269F48F89988DA0E0B0E067
:1035500080934F0190935001A0935101B093520179
:1035600064C0803269F48091E80082FFFCCF67E09C
:1035700083E591E00E942D178BEF8093E80055C002
:10358000823209F052C08F8980935A01EEEFFFE733
:10359000859194918B3F9C4D19F0E0E0F8E002C0DA
:1035A000EEEFFAE08091530190915401A091550102
:1035B000B0915601803B9440A105B10509F09EC031
:1035C00080915A0180FF79C099C00E94452EFC016C
:1035D000028113810115110509F4B0C0D801ED91E4
:1035E000FC910190F081E02DBE016B5E7F4FC80120
:1035F000099581111AC0F80100851185EBCFF1E022
:10360000FF1609F44EC0F3E0FF1298C08F8988239B
:1036100009F44AC0823089F440E867E089EB98E019
:103620000E94AD31882309F489C08EEF8093E800B1
:1036300088C018161906CCF381C0813029F440E8FF
:103640006BE08DEA98E0ECCF833009F077C00E9400
:10365000452EDC011296ED90FC9013978E010F5FC2
:103660001F4F6801E114F10479F0D701ED91FC914D
:103670000680F781E02DB801C7010995080F111DDB
:10368000F701E084F184EECFD8011C92F60101909D
:103690000020E9F73197BF016C197D0940E0C601B0
:1036A000BFCF6BE978E002C067E978E0FB014491A5
:1036B00050E080E80E940617B8CFEE3F2AE0F207FC
:1036C00051F0808191818737A7E79A0721F0909385
:1036D000FF0A8093FE0A87E797E7918380838091B2
:1036E00060008093B3029BE088E10FB6F894A89540
:1036F000809360000FBE9093600097CF808191818E
:103700008737974709F091CFA8958091600088612D
:10371000809360008091B30280936000EE3FBAE036
:10372000FB0739F08091FE0A9091FF0A9183808314
:103730007CCF1092FF0A1092FE0A77CF81E280932D
:10374000EB006C960FB6F894DEBF0FBECDBFDF91D5
:10375000CF91FF91EF91BF91AF919F918F917F9109
:103760006F915F914F913F912F911F910F91FF901A
:10377000EF90DF90CF900F900FBE0F901F90189595
:1037800008952F923F924F925F926F927F928F9205
:103790009F92AF92BF92CF92DF92EF92FF920F93E0
:1037A0001F93CF93DF9380914703882309F4D5C1FA
:1037B000F8948091AE02882311F07894CEC181E014
:1037C0008093AE02789480914D0390914E030196C0
:1037D00090934E0380934D038091C90281110CC0D8
:1037E0008091C802811108C080914F03882321F085
:1037F000815080934F03AFC19091C502992389F006
:103800008091CA02811103C091509093C5028F5FCD
:103810008093CA029091C40289139DC11092CA027A
:103820009AC104E912E0CBECD2E028E8E22E22E0D3
:10383000F22E712C36EE832E3FEB932EAA24A39406
:10384000B12C44E2242E54E1352ED7016C90119610
:103850005C904090CA02842D90E0BDEE6B1207C0D0
:10386000252D30E08217930709F0F8C003C0892B9B
:1038700009F045C0D7011296EC91E7FF09C02882F4
:10388000D8012C92B3E07B1203C03882D8013C925D
:10389000EF77EF3709F48EC08F8182FF1E828A8511
:1038A00082FF1986F0E0B0E3EE0FFF1FE355F84FFB
:1038B0006B1619F020E5621205C0859194919B83E7
:1038C0008A8378C0259134913C872B8783E07816D2
:1038D00009F470C0CE840C2C000CDD0840E050E0F0
:1038E000C501B4010E945B352C0D3D1DD801129617
:1038F0003C932E931197662009F462C0AFC0B0E2EA
:103900006B16A1F0ECEE6E1671F1F0E16F1230C0A3
:1039100023E0721609F4E2C02B853C852519310994
:103920002C31310588F42CE130E00EC0B3E07B1679
:1039300009F4D4C02B853C85250D311D2136EDE0E1
:103940003E0710F020E63DE03C872B87CE840C2C10
:10395000000CDD0840E050E0C501B4010E945B3579
:103960002C0D3D1D99C05410AFC0F8011082ACC0A1
:10397000F0E56F1631F020E6621619F080EA681261
:1039800019C0852D807F19F4888185198883852D3C
:103990008F7031F49881852D82958F70890F88837F
:1039A0008881813214F080E202C087FD80E0888344
:1039B000D8018C93611052C0B3E07B1609F48EC01D
:1039C000E2E0E41518F44A944A94FACF41100FC08B
:1039D0002B853C8540E050E0C501B4010E945B3579
:1039E0008E85082E000C990B280F391F55C05520C5
:1039F00009F46AC0CE840C2C000CDD08B1E0752DF2
:103A00004B1201C072957F702B853C858DEA97E043
:103A100060E0FC01459154912417350720F46F5F55
:103A200002966335B1F7E72FF0E0E60FF11DE033C2
:103A3000F10514F0EFE2F0E0EE0FFF1FE355F84F51
:103A40002591349140E050E0C501B4010E945B35FE
:103A50002C0D3D1DF8013283218336C0862D8F7DCC
:103A6000803401F5F3E07F16C9F14E84042C000C7C
:103A70005508CB84DC84CE0105960E947A1F9601FE
:103A8000280F311D87FD3A9540E050E0C501B40193
:103A90000E945B35240D351DD80112963C932E9360
:103AA000119712C0B0E76B120FC0D880CE010896F4
:103AB0000E947A1F8D0D181624F481321CF080E2CA
:103AC00001C080E0F80180832F96F3E0EF0EF11C37
:103AD0000B5F1F4F739424E07212B7CE8091CA021D
:103AE0008F5F8093CA029091C402891302C0109222
:103AF000CA028091CA0281112EC08091C9028F5FD3
:103B0000803419F08093C90212C01092C9028091CA
:103B1000C8028F5F8093C80290914703891738F0DD
:103B20001092C80280914C038F5F80934C03809168
:103B3000C6028F3F29F08093C8028FEF8093C602A0
:103B40008091C7028F3F29F08093C9028FEF809345
:103B5000C7020E94261E1092AE02DF91CF911F91E4
:103B60000F91FF90EF90DF90CF90BF90AF909F901C
:103B70008F907F906F905F904F903F902F9008951F
:103B8000FC0122813381620F731F75836483089562
:103B9000DC011496ED91FC9115979F012F5F3F4F2B
:103BA00015963C932E931497849108950895089543
:103BB00080E090E00895469FF001479FF00D1124AA
:103BC000DC0114962D913C9115972E1B3F0B1596F9
:103BD0003C932E9314970895CF93DF93FC01DC015F
:103BE000DF962D913C911197261B370B11963C9334
:103BF0002E93121613067CF086AD8F5F86AFC4AD90
:103C0000D5ADCE0FDF1F9EA9891301C016AE240FBC
:103C1000311D2D933C93DF91CF9108950895E5E3F5
:103C2000F9E086E090E097A386A38DE090E091A76D
:103C300080A7109296091092950980E190E09093E8
:103C400099098093980910929709089580914A03E1
:103C500090914B03E091C802F0E0E95FFC4F408196
:103C60002091C90230E050E4459F200D311D112400
:103C700049E0429FB001439F700D112420914803F9
:103C800030914903620F731FDC01ED91FC910680B6
:103C9000F781E02D099580914A0390914B03DC0157
:103CA000ED91FC910480F581E02D0995982F929576
:103CB000907F90938802807F80938B0280914A034B
:103CC00090914B03DC01ED91FC910480F581E02D96
:103CD00009958093890280914A0390914B03DC01FE
:103CE000ED91FC910480F581E02D099580938C0283
:103CF00080914A0390914B03DC01ED91FC9104808B
:103D0000F581E02D0995982F9295907F90938E02E2
:103D100090E024E0959587952A95E1F780939102AC
:103D200080914A0390914B03DC01ED91FC9104805A
:103D3000F581E02D099580938F0280914A0390913F
:103D40004B03DC01ED91FC910480F581E02D099598
:103D50008093920280914A0390914B03DC01ED9194
:103D6000FC910480F581E02D099580938A02809171
:103D70004A0390914B03DC01ED91FC910480F581A5
:103D8000E02D099580938D0280914A0390914B0319
:103D9000DC01ED91FC910480F581E02D0995809383
:103DA000900280918802803E59F480918902982F78
:103DB00092959F70906E909388028F708093890285
:103DC00080918B02803E59F480918C02982F9295BD
:103DD0009F70906E90938B028F7080938C02809175
:103DE0008E02803E59F480918F02982F92959F7099
:103DF000906E90938E028F7080938F0280919202CA
:103E000087FF02C020E001C02FE786FF02C090E8D4
:103E100001C090E0922B90939302982F9F73909300
:103E2000920220919102422F50E0FA013197EC303A
:103E3000F105D0F4EA5AFF4F0C94A03520FF03C0DF
:103E40009064909392028091920282958093920264
:103E500080E708C083FF05C087708295807F8093CC
:103E6000920280EA80939102ABECB2E0E8E8F2E0E3
:103E700022C080ECF7CF80EBF5CF80EDF3CF80EF61
:103E8000F1CF87EEEFCF89EEEDCF83FF02C09AEE40
:103E900001C09BEE90939102877008C084FF02C01E
:103EA0009DEE01C09CEE909391028F7080939202E0
:103EB000DBCF8EEED7CF8081982F9F7B903141F062
:103EC000903231F09FE1980F923010F0803A59F41F
:103ED0008181882321F01D968C931D9704C01D9627
:103EE0008C911D97818333961F9652E0E439F50734
:103EF00011F70895CF93DF93EC018A8183708230AC
:103F000099F08330B1F09981813049F0E92FEF7158
:103F1000F0E0E457F54F849195FF0FC003C0892F5F
:103F2000880F880F819509C0898185FD05C080E8CB
:103F300004C00E94613401C08FE79881292F2F703F
:103F400092959F703981930F9983382F3203C00166
:103F5000112426E0959587952A95E1F7DF91CF9179
:103F60000895EF920F931F933AEFE32E00E010E0D5
:103F70000E94632F1F910F91EF900895EF920F937E
:103F80001F93CF93DF93FC0196816A3031F48581D2
:103F900084836185960F96833DC0262FEF0184812F
:103FA00061E0690F2B3340F4203398F4213299F00B
:103FB0002E32F9F426E210C02B3530F4213438F4D7
:103FC0002F33B9F428E208C02F35C9F012C02154AC
:103FD00003C0265101C025E23F81062E000C770B5D
:103FE000082E000C990B313061F446EE59E00E9426
:103FF000B11F88858C5F9C81890F8C830BC027E261
:10400000EBCF3BEFE32E00E010E046EE59E00E94DC
:10401000632FEFCF81E090E0DF91CF911F910F915F
:10402000EF900895CF92DF92EF920F931F93CF936B
:10403000DF936C01FC0182858031A1F138F484307A
:1040400071F08830A9F5CAE5D9E01EC0803469F165
:10405000803841F0803261F5C2E9D9E005C0CEE395
:10406000D9E012C0CAECD9E0F6016481758120E084
:10407000AE0182819381DF91CF911F910F91EF90DB
:10408000DF90CF900C94B11FF60164817581EE240E
:10409000E39404E219E020E0AE01828193810E9462
:1040A000632FE2CFCEEAD9E0DFCFC6E7D9E0DCCF9D
:1040B000DF91CF911F910F91EF90DF90CF900895F6
:1040C000CF93DF93EC01ECADFDADEE0FFF1FE80FDA
:1040D000F91F468157814115510589F0878D6C8103
:1040E0007D81680F711D87FD7A95368D8A819B8150
:1040F00020E0830F911D37FD9A950E94B11F8CAD72
:104100009DADFC01EE0FFF1FEC0FFD1F428953898F
:1041100041155105F1F09C01235031096C817D81DD
:104120008A819B81A3A5E2A56A0F711DA7FD7A95DF
:104130002330310528F42EAD620F711D20E001C03F
:104140002EAD8E0F911DE7FD9A95DF91CF910C94C6
:10415000B11FDF91CF9108958F929F92AF92BF923E
:10416000CF92DF92EF92FF920F931F93CF93DF9343
:104170000E942A2F88E00E941F2F811114C140E164
:1041800061E070E089E599E00E94EC1D89E599E025
:104190000E9460208CE38093C8098093C7098FE058
:1041A0008093C90981EC98E00E94362FF090430972
:1041B000D091440900914509109146092F2D3D2FBA
:1041C000A801C0E0EAE08E2E912CA12CB12C2A305F
:1041D00031054105510540F0CA01B901A50194011D
:1041E0000E945B35CF5FF3CF8C2F880F880FC80FED
:1041F00088E78C1B8093C8098093C7098FE0809360
:10420000C9094AE06F2D7D2FC8010E942B2B009118
:10421000390910913A09980140E050E0C0E07AE095
:10422000C72ED12CE12CF12C2A3031054105510546
:1042300040F0CA01B901A70196010E945B35CF5F2A
:10424000F3CF8C2F880F880FC80F88E78C1B8093C3
:10425000C8098093C70987E18093C909C8010E94F2
:104260007C2B00913B0910913C09980140E050E003
:10427000C0E06AE0C62ED12CE12CF12C2A303105A9
:104280004105510540F0CA01B901A70196010E94FC
:104290005B35CF5FF3CF8C2F880F880FC80F88E76F
:1042A0008C1B8093C8098093C7098FE18093C9094B
:1042B000C8010E947C2B00913D0910913E09980194
:1042C00040E050E0C0E09AE0C92ED12CE12CF12C66
:1042D0002A3031054105510540F0CA01B901A70155
:1042E00096010E945B35CF5FF3CF8C2F880F880F2C
:1042F000C80F88E78C1B8093C8098093C70987E2A1
:104300008093C909C8010E947C2B0091410910913A
:104310004209980140E050E0C0E08AE0C82ED12C6C
:10432000E12CF12C2A3031054105510540F0CA013C
:10433000B901A70196010E945B35CF5FF3CF8C2FA7
:10434000880F880FC80F88E78C1B8093C80980935B
:10435000C7098FE28093C909C8010E947C2B809114
:104360009509909196098130910559F030F00297A6
:1043700069F464E181EE98E007C06FE088E099E0BD
:1043800003C061E186EF98E00E94D8142CE246E475
:104390006DE070E089E390E00E94202C0E94932E53
:1043A00087E090E002C085E090E0DF91CF911F911F
:1043B0000F91FF90EF90DF90CF90BF90AF909F90C4
:1043C0008F900895FF920F931F93CF93DF93EC018B
:1043D0008E818F8399859A878B5F8093C80980939C
:1043E000C7099093C909F12C8C85F81680F526E051
:1043F000F29E80011124EC89FD89E00FF11F82817A
:1044000093810E94362F8E859F858130910579F4A6
:104410008C899D89FC01E00FF11F808134E0839F2E
:10442000800D1124865F9F81890F8F8305C0892BA2
:1044300019F48A85885F8A879A858F818B5F80933C
:10444000C8098093C7099093C909F394CDCF6B85B0
:10445000062E000C770B6F5F7F4F888520E04EE1C2
:1044600059E0082E000C990B0E94B11F8E859F8584
:10447000019739F58D856B85062E000C770B6F5FE4
:104480007F4FEC89FD8996E0899FE00DF11D112495
:10449000208130E02F5F3F4F45E0429FC001439FA6
:1044A000900D1124388520E048E159E0830F911DDB
:1044B00037FD9A95DF91CF911F910F91FF900C944A
:1044C000B11F8E8183508F83698562506A872C85E6
:1044D000220F220F220F2C5F062E000C770B46E4D2
:1044E000082E000C990B0E94202CAA89BB891496D7
:1044F0008D919C911597892B09F447C08E8183502B
:104500008F839C856A8528E0929F600D11246A5FE5
:104510006A8711963C91119714969C911497E92FF4
:104520001596FC9121E04E2F491B431730F444911E
:104530004A3009F42F5F3196F6CF220F220F220F57
:104540002C5F062E000C770B46E4082E000C990B0E
:104550000E94202C9E819F832C85898538E0239F93
:10456000800D11248A5F8A879093C8099093C709A8
:104570008093C909EA89FB8984819581DF91CF9174
:104580001F910F91FF900C94362FDF91CF911F91C7
:104590000F91FF900895BC0180E090E00C94592E9B
:1045A0008FB18095807F669B88601C9B8460089596
:1045B00080389105B8F460347105A0F490E121E0F1
:1045C00061FD24E060FD220F62FD2295687F969FC9
:1045D000D0011124A80FAF59BC4F8C91822B40FF02
:1045E00082278C930895CF92DF92EF92FF920F93E0
:1045F0001F93CF93DF93EB017B0124E0E20EF11CCC
:104600008B016C01C61AD70AC601800F911F0E9448
:104610001335F80181938F01EE15FF05A9F7CE013F
:10462000DF91CF911F910F91FF90EF90DF90CF908E
:104630000895AF92BF92DF92EF92FF920F931F9374
:10464000CF93DF93EC017B018B015C0184E0A80E2A
:10465000B11CF801D1908F01CE010E941335D816FC
:1046600021F06D2DCE010E941B352196CA15DB0568
:1046700081F7C701DF91CF911F910F91FF90EF90CC
:10468000DF90BF90AF900895CF92DF92EF92FF92AC
:104690000F931F93009143091091440920914509FC
:1046A000309146098091350990913609E09137099A
:1046B000F0913809AC01440F551F840F951FBC01C0
:1046C0006E0F7F1F660F771F660F771FDB01A555E3
:1046D000B64FCD90DD90ED90FC901397C016D106AB
:1046E000E206F30680F40D931D932D933C931397EC
:1046F000BD0180519E4FE80FF91F808190E00E941C
:10470000192381E001C080E026E030E030935C09AD
:1047100020935B092DE030E030935E0920935D0922
:10472000109296091092950920E130E03093990992
:104730002093980910929709882319F081E090E05E
:104740000EC08091350990913609892B61F48091D2
:10475000470990914809039731F482E090E09093E3
:104760009609809395091F910F91FF90EF90DF902C
:10477000CF9008952F923F924F925F926F927F92C7
:104780008F929F92AF92BF92CF92DF92EF92FF9261
:104790000F931F93CF93DF930E942A2FF894809159
:1047A0004D0390914E039093A4098093A3098091A7
:1047B0004F038093A00978942091A3093091A40914
:1047C0008091A109622F681B60939E0970E080911F
:1047D000A5099091A609860F971F9093A60980932B
:1047E000A5092093A1093093A20980914D09082EB3
:1047F000000C990B861B970B97FF02C080E090E09E
:1048000080934D0980914E09882399F0082E000C61
:10481000990B861B970B97FF02C080E090E0809376
:104820004E09811106C083E090E090939609809331
:10483000950940919B0989E599E00E94EC1DEAEBFE
:10484000F2E08081882311F081508083319622E04C
:10485000E23CF207B1F7C0915103D091520392E0CC
:10486000492E512C66246394712C33E0A32EB12C75
:1048700044E0C42ED12C55E0852E912C6AE0362ED2
:10488000209709F426C160919E0970E0EC81FD81BA
:104890000280F381E02D40919A09CE01049609959A
:1048A0008A859B852091A3093091A409821B930BD3
:1048B0008B3F2FEF92072CF4D0924A09C0924909FE
:1048C0001CC08F3F2FEF92072CF4B0924A09A092A0
:1048D000490913C0833091052CF470924A09609203
:1048E00049090BC007972CF450924A094092490994
:1048F00004C010924A091092490900914909109187
:104900004A09E0903F09F09040090430110540F455
:104910000230110508F074C00130110581F1B3C0F7
:104920000430110509F0AFC080914F098550809384
:104930004F0980913D0990913E09019690933E095F
:1049400080933D0980919B0990E2E916F10448F0BB
:10495000982F990F990F90934E09909296098092F3
:1049600095091092400910923F09880F80934D09D4
:10497000D0924C09C0924B09DD86CC8684C02E842F
:10498000822D0E941F2F882309F47DC080914F093A
:104990008E5F80934F098091390990913A09019671
:1049A00090933A09809339092FEFE21AF20AF092B4
:1049B0004009E0923F098091430990914409A091F8
:1049C0004509B09146098C509E4FAF4FBF4F809321
:1049D000430990934409A0934509B09346098091F7
:1049E0009B09880F80934D0910934C0900934B0944
:1049F0001D870C87E0E0269409F441C0EF5FFBCFF0
:104A00002E84822D0E941F2F8823E9F180914F0967
:104A10008F5F80934F0980913B0990913C090196EB
:104A200090933C0980933B098FEFE81AF80AF092C3
:104A30004009E0923F098091430990914409A09177
:104A40004509B091460988539F4FAF4FBF4F8093A0
:104A5000430990934409A0934509B0934609809176
:104A60009B09880F80934D0910934C0900934B09C3
:104A70001D870C87E0E0269411F0EF5FFCCFF0E09B
:104A8000E654FD4F308220913F09309140092115B5
:104A9000310579F0C9018F719927892B51F48091E3
:104AA0009B09880F880F80934E09D0929609C09277
:104AB000950980914109909142098217930728F442
:104AC000019690934209809341090990D881C02DA5
:104AD000D7CE80914F09843224F083E280934F092E
:104AE0002AC0181644F1809147099091480901970E
:104AF00011F510926F001092940210929902109288
:104B00009E021092A3021092470310924D0988E072
:104B100091E0909352098093510985E090E0909341
:104B200096098093950982E090E0909348098093DC
:104B3000470910924F0989E599E00E946020C091D1
:104B40004F0901E010E0D0E021960C171D074CF44E
:104B500041E06BE070E0C8010E94D8220F5F1F4F58
:104B6000F4CF2EE04EE260E070E080E090E00E9442
:104B7000202C24E042E065E070E08EE290E00E94AC
:104B8000202C01E02CE030E044E250E061E070E0F5
:104B900084E290E00E94822B8091BF02811103C0C9
:104BA00042E35CE102C042E959E0EE24E39404E907
:104BB00019E020E060E070E081E390E00E94632F64
:104BC0008091BE02811103C046E15CE102C04EEA61
:104BD00059E0EE24E39400EB19E020E060E070E09F
:104BE0008EE390E00E94632F8091C102811103C087
:104BF0004AEF5BE102C04AEC59E0EE24E3940CEC8E
:104C000019E020E060E070E08BE490E00E94632F08
:104C10008091C002811103C04EED5BE102C046E706
:104C200059E0EE24E39408E719E020E060E070E04A
:104C300088E590E00E94632F8091BD02811103C03E
:104C400042EC5BE102C04AE559E0EE24E39404E261
:104C500019E020E060E070E085E690E00E94632FBC
:104C60008091BC02811103C046EA5BE102C04EE3C1
:104C700059E0EE24E39404E219E020E060E070E003
:104C800082E790E00E94632F80913F099091400954
:104C9000009771F02AE52093C8092093C70928E2FC
:104CA0002093C9090E947C2B8FE89CE10E94362F3B
:104CB00080914709909148098230910509F46AC0B2
:104CC0008430910509F48EC0019709F0BFC080912E
:104CD0004D09882301F18AE58093C8098093C709AB
:104CE00088E18093C90980914B0990914C098430E7
:104CF000910540F48230910550F4019761F489E800
:104D00009CE107C0049739F48FE79CE102C084E876
:104D10009CE10E94362FC0915103D09152032097FD
:104D200081F08C859D85892B41F4EC81FD8101907A
:104D3000F081E02DCE01049609950990D881C02D0F
:104D4000EECF2091A5093091A60980919F09482FA7
:104D500050E02417350708F079C090919B09891B12
:104D600090E08217930758F48BE48093C8098093EE
:104D7000C70980E28093C90988E79CE165C081E4A6
:104D80008093C8098093C70980E28093C9098EE6A1
:104D90009CE15AC08091510990915209009739F4D1
:104DA00083E090E0909348098093470905C00197FC
:104DB0009093520980935109809151099091520921
:104DC00062E470E00E948C35829708F43FC082E371
:104DD0008093C8098093C70980E28093C9098EE552
:104DE0009CE132C08091510990915209009799F449
:104DF00085E090E0909348098093470910926F00F6
:104E0000109294021092990210929E021092A302A4
:104E10001092470305C0019790935209809351095E
:104E2000809151099091520962E470E00E948C35A2
:104E3000829760F082E38093C8098093C70980E27B
:104E40008093C9098EE49CE10E94362FF0904309BB
:104E50000091440910914509D09146092F2D302F1A
:104E6000412F5D2FC0E08AE0882E912CA12CB12C1F
:104E70002A3031054105510540F0CA01B901A501AB
:104E800094010E945B35CF5FF3CF8DE195E0C99F20
:104E9000801911248093C8098093C70982E0809308
:104EA000C9094AE06F2D702F812F9D2F0E942B2B57
:104EB0000E94932EC0915103D0915203209729F163
:104EC000088119818C859D85892B11F4E801F6CF25
:104ED000CE010E949331E0915303F0915403309737
:104EE00021F0D383C283F983E883D0935403C09322
:104EF00053038091510390915203C817D90731F79A
:104F00000093510310935203E1CF809135099091A2
:104F10003609892BB9F483E599E0892B09F440C05F
:104F200089EA99E0892BE1F1809153039091540330
:104F3000892B09F456C069EA79E083E599E00E947B
:104F4000C92A2CC08091A7099091A80920914C03EF
:104F500030E082179307E0F401969093A8098093BC
:104F6000A7098091790190917A01059690937A0131
:104F70008093790180917701909178018054910913
:104F800090937801809377019093760180937501D7
:104F900089EA99E0009721F00E94062A813009F5FC
:104FA0002091570930915809F901319685919491D2
:104FB000F9014591549120915009241708F03EC001
:104FC000FC01E20FF11DE20FF11D85919491FC01AE
:104FD0008591949190935409809353092F5F209366
:104FE000500980914709909148090197C1F4809137
:104FF000510390915203892B91F410924D0988E04E
:1050000091E0909352098093510984E090E090934D
:105010009609809395099093480980934709809158
:105020004709909148098530910529F0039719F0B7
:1050300081E090E007C087E090E004C08FEF8093AC
:105040004F03CFCFDF91CF911F910F91FF90EF9042
:10505000DF90CF90BF90AF909F908F907F906F9098
:105060005F904F903F902F9008951F93CF93DF93C1
:105070000E942A2F80E10E941F2F882319F00E948E
:10508000A32EE3C080E80E941F2F882319F00E94FE
:10509000742CDBC088E00E941F2F882309F4D0C045
:1050A00082E390E090937A018093790180E892E026
:1050B00090937801809377019093760180937501A6
:1050C0001092A4091092A3091092A2091092A109AA
:1050D00010929E091092A6091092A5091092A80993
:1050E0001092A70983E280934F0910923C09109215
:1050F0003B0910923A091092390910923E09109218
:105100003D091092400910923F09109242091092F5
:1051100041091092430910924409109245091092D6
:10512000460984E090E090934A09809349091092DF
:105130005203109251031092540310925303109291
:105140005409109253091092480910924709C7EB6D
:10515000D7E010E0CE010E949331CE010F961111DD
:1051600003C09B838A8307C09E012F503109398376
:1051700028831731B1F7D0935403C09353031F5FB3
:10518000EC01183139F7EAEBF2E082EC92E011928F
:105190008E179F07E1F78FE89BE190935609809364
:1051A0005509EDE9FBE1E491EE0FEE0FE0939B0969
:1051B0002E2F30E088EB9BE0B9010E948C35609384
:1051C0009C0980919A098E9F802D112480939D09BE
:1051D000EE0FEE0FEE0FE0939F098E2F90E090936D
:1051E000AA098093A90982E090E090935C098093DA
:1051F0005B0981E190E090935E0980935D0983E013
:1052000090E09093960980939509309399092093A3
:1052100098091092970980912C09813051F030F053
:10522000823009F042C082E090E005C080E090E06A
:1052300002C081E090E00E94E42C81E090E03AC05E
:1052400084E00E941F2F811133C040E161E070E0D3
:1052500089E599E00E94EC1D89E599E00E946020B3
:105260008FE199E00E94E221809135099091360901
:1052700020912C09FC01EE0FFF1FE80FF91FE20F30
:10528000F11DEE0FFF1FEE0FFF1FE555F64F60817A
:105290007181828193814AE00E942B2B62E18CE72D
:1052A0009BE10E94D8140E94932E86E090E002C0F9
:1052B00085E090E0DF91CF911F9108958DE691E018
:1052C0000C94E82E9C01240F311D1216130674F560
:1052D000803891055CF597FF02C080E090E02138AE
:1052E000310514F020E830E0281BAB01477055274A
:1052F00031E001C0330F4A95EAF777FF02C0695FDA
:105300007F4F43E0759567954A95E1F77695762F3F
:10531000662777956795860F971FFC01EF59FC4F1D
:10532000215020F08081832B8193FACF0895EF9252
:10533000FF920F931F93CF93C82F7B01CC2309F4C7
:105340005CC0C3FF04C0C77F28E085E61DC0C2FF64
:1053500004C0CB7F24E082E717C0C7FF04C0CF772B
:1053600020E88BE411C0C4FF04C0CF7E20E18EE3AF
:105370000BC0C5FF04C0CF7D20E281E305C0C6FF9E
:105380003EC0CF7B20E488E5009153031091540385
:10539000D7014D915C916091A3097091A409FA0124
:1053A000E61BF70B90919A099E9FB0019F9F700D8D
:1053B000112490E0F8019783868371876087538773
:1053C00042871586148626878081918190935403A5
:1053D00080935303C8010E949331E0915103F091EF
:1053E0005203D801ED93FC93309711F0138302839D
:1053F0001093520300935103A1CF80E001C081E0DC
:10540000CF911F910F91FF90EF9008952F923F92AF
:105410004F925F926F927F928F929F92AF92BF92C4
:10542000CF92DF92EF92FF920F931F93CF93DF9370
:1054300000D000D0CDB7DEB79C838B8326E0C22E90
:10544000D12CE12CF12C01E010E03AE0832E912CDC
:10545000A12CB12C42E0442E512C612C712C809156
:10546000530390915403892B09F47BC00E94BC34F0
:10547000A70196010E9429356E5FC80102C0880FFE
:10548000991F6A95E2F79A83898339800E94BC3418
:10549000A50194010E942935672B682B692B71F4B3
:1054A0000E94BC34A70196010E9429356E5FC80195
:1054B00001C0880F6A95EAF73980382A90E53916D5
:1054C00079F0931538F0ECE03E1651F0F0E33F121E
:1054D00013C006C080EA381619F090EC39120CC0DF
:1054E0000E94BC34A70196010E9429356E5F302EC0
:1054F00001C0330C6A95EAF7809137099091380919
:105500008130910529F0029771F492E0292E0DC0A7
:105510000E94BC34A30192010E942935262E220C40
:105520002394239402C084E0282EE0915303F09149
:10553000540380819181892BA1F06B817C81832D23
:105540000E94972920919B0926952695EB81FC8145
:1055500080819181229E800D911D112491838083F1
:105560007ECF82E00F900F900F900F90DF91CF9140
:105570001F910F91FF90EF90DF90CF90BF90AF9071
:105580009F908F907F906F905F904F903F902F9063
:105590000895EF92FF920F931F93CF93DF938C01A7
:1055A0007B01D8018D919C91FC0124912F3F09F43E
:1055B00048C0AC014F5F5F4F2491FA0130E0C0E07A
:1055C0002E3F59F0CF5F222329F0622F6170360FF2
:1055D0002695F9CF24913196F3CFE0915303F091C2
:1055E000540321E0231738F40190F081E02D309727
:1055F00051F12F5FF7CFD8014D935C93FC0184915B
:10560000D0E08E3F71F2B7010E94972980919B09EB
:10561000F4E08F9FC0011124BE010E948C35D70198
:105620008D919C911197680F791F6D937C93D80190
:10563000ED91FC911197CF0101968D939C938491EC
:10564000E0CF81E001C082E0DF91CF911F910F9107
:10565000FF90EF9008958F929F92AF92BF920F9319
:105660001F93CF93DF93CDB7DEB7A1970FB6F89412
:10567000DEBF0FBECDBF19A2423008F44AE08E0152
:105680000F5D1F4F842E912CA12CB12CA5019401EC
:105690000E945B35E62FB901CA0101501109EA30B9
:1056A00014F4E05D01C0E95CD801EC93232B242BBA
:1056B000252B61F70115110571F0F801019000200B
:1056C000E9F73197AF01401B510BB80183EC99E02A
:1056D0000E943A1702C080E090E0A1960FB6F894BD
:1056E000DEBF0FBECDBFDF91CF911F910F91BF9055
:1056F000AF909F908F900895BC0180E090E04AE0C9
:105700000C942B2B2F923F924F925F926F927F922D
:105710008F929F92AF92BF92CF92DF92EF92FF92C1
:105720000F931F93CF93DF9300D01F92CDB7DEB7B7
:105730009B838A837B016A0109838901061B170BFE
:1057400017FF03C011950195110946018A819B81BC
:10575000881A990A97FE03C0919481949108801643
:1057600091065CF49C2D8D2D6901292F382F9A818B
:105770008B81FB82EA82E92EF82E8A819B81C816F2
:10578000D9065CF49E2D8F2D7901292F382F9A810F
:105790008B81DB82CA82C92ED82E16018A819B8119
:1057A000281A390A29014E185F0857FE03C0519480
:1057B00041945108310137FE03C09FEF691A790AFD
:1057C00075946794E216F30614F08FEF01C081E040
:1057D000A82E880FBB088A819B81C816D906D4F0F1
:1057E0004981801691061CF4BC01C70103C0B701B2
:1057F0008A819B810E94D8226418750877FE04C0B4
:10580000EA0CFB1C620C731C8A819B8101969B83B2
:105810008A83E1CF0F900F900F90DF91CF911F916E
:105820000F91FF90EF90DF90CF90BF90AF909F903F
:105830008F907F906F905F904F903F902F90089542
:105840009F92AF92BF92CF92DF92EF92FF920F930F
:105850001F93CF93DF938C01EB01942EF22E6034D3
:10586000710510F40E9462295E01AF0CB11CB501F4
:10587000615071096034710520F4492DC8010E94FE
:105880006229D7FF02C0C0E0D0E07E01650181E45B
:10589000A816B1041CF080E4C82ED12CEC14FD0431
:1058A0004CF441E0B701C8010E94D8228FEFE81AFA
:1058B000F80AECCF090D111D01501109CC15DD05B9
:1058C0003CF441E0BE01C8010E94D8222196F6CFE7
:1058D000DF91CF911F910F91FF90EF90DF90CF90CC
:1058E000BF90AF909F90089580912C098150809334
:1058F0002C0960912D0970912E0940913309509126
:1059000034098F3FA9F520912B099FEF920F9093B7
:105910002C0961307105F9F490E030E02150310933
:10592000692F70E0621773079CF4FA0166E0969F96
:10593000E00DF11D1124808164E0869F800D11240B
:10594000865F60912709860F809327099F5FE8CFC4
:105950008091280926C0672B31F580912509809315
:1059600027098091280928E0929F800D112419C0F1
:105970006130710589F4FA0166E0869FE00DF11D42
:10598000112490819E5F8091270925E0929F8019C4
:1059900011248093270907C0672B29F480912A09D5
:1059A000885080932A0980912C0966E0869F400DDB
:1059B000511D11245093320940933109E0912F0970
:1059C000F091300987830895CF939093380980939D
:1059D000370910925009E0913709F0913809EE0F1C
:1059E000FF1F71968091550990915609E80FF91F94
:1059F000859194919093580980935709FC013196B1
:105A000085919491FC0185919491FC0185919491EB
:105A100090935409809353098091350990913609E8
:105A2000892BE9F483E599E0892B31F480915009C1
:105A30008F5F8093500919C089EA99E0892BB1F3EF
:105A40008091530390915403892B79F069EA79E0AE
:105A500083E599E00E94C92A813039F4E7CF89EAC9
:105A600099E0009711F00E94062A80919F09809387
:105A70004F03E0915509F09156093F968591949115
:105A800010926F009093B4078093B30710926F0049
:105A900010924E0310924D0310924C0321EB37E00D
:105AA00030934B0320934A03E091B107F091B20782
:105AB0009093B6078093B5070480F581E02DC90166
:105AC0000995833599F580914A0390914B03DC0148
:105AD000ED91FC910680F781E02D64E070E009957E
:105AE00080914A0390914B03DC01ED91FC9104807D
:105AF000F581E02D09951092480380934903809128
:105B00004A0390914B03DC01ED91FC910480F581F7
:105B1000E02D09952091480330914903282B2A5FF5
:105B20003F4F309349032093480306C081E090E043
:105B3000909349038093480380914A0390914B03CB
:105B40006091480370914903DC01ED91FC9106805E
:105B5000F781E02D099580914A0390914B03DC0178
:105B6000ED91FC910480F581E02D09958093470328
:105B7000813408F041C020914803309149032F5FE0
:105B80003F4FA901480F511D5093490340934803CB
:105B9000C0E080914703C81790F480914A03909128
:105BA0004B03DC01ED91FC910480F581E02D09951A
:105BB000EC2FF0E0E95FFC4F8083CF5FEACF8CE30E
:105BC000EBECF2E0DF011D928A95E9F71092CA0230
:105BD0001092C9021092C8028FEF8093C70280937F
:105BE000C6021092C50286E08093C4020E94261E5F
:105BF00082E080936F0002C01092470381E090E042
:105C00009093480980934709CF9108952091C3024A
:105C1000211103C08FEF9FEF08955FB7F89422E042
:105C20002093E9002091F20030E01216130614F4DC
:105C300021E030E0422FFC0184E6415038F0289802
:105C40008093C2029091F1009193F7CF2115310515
:105C500021F08091F200882319F05FBFC9010895F7
:105C60008BE68093E800F9CF2FB7F89483E0809318
:105C7000E9009091E800892F807295FF04C090910F
:105C8000F20080E4891B2FBF089580915903811190
:105C90000DC082E08093550384E0809356031092F8
:105CA00058031092570381E08093590385E593E0F0
:105CB00008958F929F92AF92BF92CF92DF92EF9210
:105CC000FF926B017C010E94A1184B015C01C11481
:105CD000D104E104F104F1F00E94A118DC01CB0130
:105CE00088199909AA09BB09883E9340A105B10505
:105CF00070F321E0C21AD108E108F10888EE880E9D
:105D000083E0981EA11CB11CC114D104E104F1046C
:105D100019F7DDCFFF90EF90DF90CF90BF90AF905D
:105D20009F908F900895E1E6F3E081E0A0E0B8E075
:105D300000800EBC8111012C1197A0FDFDCF0192B6
:105D4000B9F70DB4089590912B0980912C098F5FBC
:105D500080932C09981309C010922C098091250971
:105D600080932709809128091CC080912D0990916A
:105D70002E098130910581F4E0913109F0913209C9
:105D8000808134E0839F800D1124865F90912709E4
:105D9000890F8093270907C0892B29F480912A094C
:105DA000885F80932A0920912C0980913309909172
:105DB000340936E0239F800D911D11249093320900
:105DC00080933109E0912F09F091300927830895DC
:105DD000CF93FC01009789F19093300980932F09AC
:105DE000848180932B098081918190932E098093E7
:105DF0002D098281809325098093260980932709A4
:105E00008381809328098093290980932A098581B9
:105E10009681009791F09093340980933309909381
:105E200032098093310910922C09C78180912C0985
:105E3000C81719F00E94A32EF9CFCF910895209191
:105E4000D309282329F49091D209982381E009F4F9
:105E500080E00895CF93DF93CDECD9E08D818E83E0
:105E60000E94D0228D83DF91CF9108950F931F93CD
:105E7000CF93DF938C01C0E0D0E0F801EC0FFD1F61
:105E80006491662341F083EC99E00E94BE1F892B48
:105E900011F02196F2CFCE01DF91CF911F910F919A
:105EA0000895CF93DF930E94362FEC0142E050E03B
:105EB00060E872E083EC99E00E943A178C0F9D1F16
:105EC000DF91CF9108954F925F926F927F928F9260
:105ED0009F92AF92BF92CF92DF92EF92FF920F9379
:105EE0001F93CF93DF9300D000D0CDB7DEB7DC0196
:105EF000CB015A0148017E2D4115510509F4F1C12C
:105F0000FA01649131965491F2E0AF0EB11CC62EA5
:105F1000D12C2223F9F0E1E0F0E0352F377011F4B5
:105F2000E0E0F0E0352F369536953695E30FF11D1C
:105F3000EC9D8001ED9D100DFC9D100D1124733022
:105F400011F4000F111F209FF001219FF00D11246B
:105F5000AE0EBF1E7F3F31F48114910411F071E049
:105F600001C072E0FD01EC0DFD1D1E161F060CF0B8
:105F7000B8C1A038B1050CF0B4C19C01250F311D8A
:105F8000121613060CF0ADC1803491050CF0A9C1B6
:105F9000A114B10409F4A5C1382F37708C0197FF03
:105FA00002C0095F1F4F23E0159507952A95E1F779
:105FB000202F97FF04C0332311F02FEF200FB7FFDE
:105FC00005C0002711270A1B1B0B02C000E010E0D0
:105FD000E038F1051CF090E89A1B01C0962F901B49
:105FE000E22E022E000CFF082F3F1CF47E2C709432
:105FF00001C0712CF1E0852F877009F4F0E056950F
:1060000056955695F50FEF0EF11C49E0E416F10494
:1060100014F0F8E0F21BF719270D50E82503A00D46
:10602000B11D1124A00FB11F679D000D111D11247A
:10603000A501400F511FAA24A394B12C032E02C026
:10604000AA0CBB1C0A94E2F7733009F402C1C0F435
:10605000713009F4B6C0723009F043C18FEF8A9DE8
:1060600080018B9D100D1124009510951C830B83CE
:106070009C80BD016F597C4F2B018F2E820E2AC050
:106080007A3FD9F17B3F09F02CC1BD016F597C4F9C
:106090004B01FF2EF20E83C084918A9D70018B9D6F
:1060A000F00C1124FA82E98227FD05C0DB018C91F6
:1060B0008023E82AEC92311113C031966F5F7F4F35
:1060C0008E2F841B891740F32F5F4C0D5D1DB0E8A8
:1060D0004B0E511C281509F404C1B201FA01F0CF8E
:1060E00027305CF77B01B0E8EB0EF11CD7018C91F7
:1060F00089217A8087298C93E0CFBD016F597C4F2D
:106100004B01FF2EF20E2F1509F4EBC0B401FA017A
:106110008E2F841B8917F0F484918A9D80018B9DBA
:10612000100D11241A83098327FD04C0DB018C9113
:10613000082B0C93332351F0273044F48B01005883
:106140001F4FD801EC908A818E298C9331966F5F16
:106150007F4FDECF2F5F4C0D5D1DB0E88B0E911C85
:10616000D2CF84918A9DB0018B9D700D11247A83CA
:10617000698327FD05C06095D8018C9168236C93D5
:10618000311113C031960F5F1F4F8E2F841B89175B
:1061900040F32F5F4C0D5D1DB0E88B0E911C2F1549
:1061A00009F49FC08401FA01F0CF27305CF7B801F1
:1061B00060587F4F8A818095DB01EC908E218C9313
:1061C000E1CF080D191DAF59BC4F7F2E720E271558
:1061D00009F487C0BD01E12CF12CE91690F5F80116
:1061E000EE0DFF1DE491EA9D4001EB9D900C112402
:1061F000809490949C828B82FA01EE0DFF1DE491B5
:10620000EA9D2001EB9D500C11245A82498227FD02
:1062100005C0FB018081882248284082332359F041
:1062200027304CF4FB01E058FF4F90808C8189218E
:106230009A8089298083FFEFEF1AFF0A6F5F7F4FF3
:10624000CCCF2F5F4C0D5D1D0C0D1D1DA058BF4FF9
:10625000BECFE92EF12C2801440E551EAF59BC4F7C
:1062600060E870E04B018E189F08CE18DF08CC0C58
:10627000DD1C792E022F1E2D2F2FF201A401B60155
:10628000632ECF93DF93ED01EF96EF9622968590E4
:10629000C590662059F08A9C4001CA9C6001073075
:1062A0002CF4E880D094ED20E928E99200233AF01C
:1062B000EC90C094EC20E828ED920C94603111969B
:1062C0001A9529F72A9551F0172D03951124E60FF9
:1062D000F11DA40FB11DC40FD11DD9CFDF91CF91F6
:1062E00011240F900F900F900F90DF91CF911F917D
:1062F0000F91FF90EF90DF90CF90BF90AF909F9065
:106300008F907F906F905F904F90089581E0E1E6CD
:10631000F3E081118FEF0024819381938193819326
:106320000394D1F70895CF93DF93FC01A081B1814D
:10633000109731F08281938113969C938E931297DC
:10634000C281D381209711F0B983A8831182108272
:1063500013821282DF91CF910895DF92EF92FF9224
:106360000F931F93CF93DF93D82EF92EE42E062F91
:1063700010E0C8010196880F0E94D81683E00E94A1
:10638000D816CD2DDF2D0C0F1D1FC017D10789F09A
:10639000E7FE03C0FE01849101C088810E94D816E7
:1063A000F82E80E00E94D8168F2121968111EDCF22
:1063B00001C081E0DF91CF911F910F91FF90EF908D
:1063C000DF900895CF93DF93CDB7DEB7A4970FB6D4
:1063D000F894DEBF0FBECDBF789484B5826084BDD3
:1063E00084B5816084BD85B5826085BD85B58160D9
:1063F00085BD80916E00816080936E001092810057
:106400008091810082608093810080918100816011
:1064100080938100809180008160809380008091D2
:1064200091008260809391008091910081608093BF
:106430009100809190008160809390008091C100D4
:1064400084608093C1008091C10082608093C1000C
:106450008091C10081608093C1008091C300816000
:106460008093C3008091C00082608093C0008091BF
:10647000C20081608093C20080917A008460809322
:106480007A0080917A00826080937A0080917A000D
:10649000816080937A0080917A00806880937A008E
:1064A0008FEF9FEF90936E0780936D071092C3025A
:1064B0001092A8021092A9028091D7008160809367
:1064C000D70080EA8093D80089B5806189BD89B5FD
:1064D000826089BD09B400FEFDCF61E070E080E01C
:1064E00090E00E94592E8091D8008F7C806180932B
:1064F000D8008091E000807F8093E0008091E100EF
:106500008E7E8093E1008DE08093E200559A209A80
:1065100088EE91E09E8B8D8B8CED91E0988F8F8B28
:1065200080ED91E09A8F898F84EC91E09C8F8B8F26
:1065300088EB91E09E8F8D8F8CEA91E098A38F8FEE
:1065400080EA91E09AA389A384E991E09CA38BA3BC
:106550001C821B821A821982CE0145969E838D83EE
:106560009E01295E3F4F38872F832E5F3F4F3A872A
:1065700029872E5F3F4F3C872B872E5F3F4F3E87FB
:106580002D872E5F3F4F388B2F872E5F3F4F3A8BE3
:10659000298B2E5F3F4F3C8B2B8B0E947313EB811B
:1065A000FC813296EE0FFF1F81E090E08C0F9D1F63
:1065B000E80FF91F80819181DC01ED91FC91019040
:1065C000F081E02D0995882351F389819A812B81EF
:1065D0003C8182179307B9F0FC013296EE0FFF1F42
:1065E00081E090E08C0F9D1FE80FF91F8081918161
:1065F000DC01ED91FC910280F381E02D0995898108
:106600009A819C838B83EB81FC813296EE0FFF1F76
:1066100081E090E08C0F9D1FE80FF91F8081918130
:10662000DC01ED91FC910680F781E02D09959A83BC
:1066300089832B813C818217930709F4B0CFF9013C
:106640003296EE0FFF1F81E090E08C0F9D1FE80F48
:10665000F91F80819181DC01ED91FC910480F5812D
:10666000E02D09959CCF109264071092630788EE85
:1066700093E0A0E0B0E08093650790936607A09355
:106680006707B093680780E392E090936207809376
:1066900061078FEF9FEF90936E0780936D0782E401
:1066A00092E09093B2078093B1071092B6071092D0
:1066B000B5071092B4071092B307E7EBF7E08AE54D
:1066C00092E0958384831782168211861086138642
:1066D0001286158614861686118210821382128203
:1066E0003F9629E0EF31F20761F78EE792E0909351
:1066F000CE098093CD091092D2091092D30980E17E
:106700008093D4091092D1091092D0091092D60921
:106710001092C6091092C50982E792E09093C409CD
:106720008093C30988E08093CC0981E08093CB09F2
:106730001092C8091092C9091092C7098093CA091A
:106740002AE632E030935A09209359099CE0E6EF9B
:10675000F1E0AFE5B9E001900D929A95E1F79CE088
:10676000E2E0F2E0ABE6B9E001900D929A95E1F734
:106770009CE0EEE0F2E0A7E7B9E001900D929A9577
:10678000E1F79CE0EAE1F2E0A3E8B9E001900D92C4
:106790009A95E1F796E0E6E2F2E0AFE8B9E0019021
:1067A0000D929A95E1F710925C0910925B09109294
:1067B0005E0910925D091092960910929509109247
:1067C0009709109299091092980980939A0988E183
:1067D000EBEAF9E0DF011D928A95E9F782E692E0A3
:1067E0009093200980931F091092270910922A097B
:1067F0001092260910922909109225091092280951
:1068000010922B0910922C0910922E0910922D092A
:106810001092300910922F0910923209109231090A
:10682000109234091092330908958F929F92AF927B
:10683000BF92CF92DF92EF92FF92CF93DF93EC0162
:10684000688179818A819B81611571058105910536
:1068500021F464E279ED8BE597E02DE133EF41E03F
:1068600050E00E94293549015A019B01AC01A7EA79
:10687000B1E40E9448356B017C01ACEEB4EFA50198
:1068800094010E945635DC01CB018C0D9D1DAE1D7F
:10689000BF1DB7FF03C00197A109B0488883998342
:1068A000AA83BB839F77DF91CF91FF90EF90DF901A
:1068B000CF90BF90AF909F908F9008950E94153415
:1068C00008958BE791E00E9415340895A0E0B0E0B0
:1068D00080937B0190937C01A0937D01B0937E0116
:1068E00008958F929F92AF92BF92CF92DF92EF92D4
:1068F000FF92CF93DF93EC01688179818A819B813C
:10690000611571058105910521F464E279ED8BE54E
:1069100097E02DE133EF41E050E00E942935490135
:106920005A019B01AC01A7EAB1E40E9448356B0112
:106930007C01ACEEB4EFA50194010E945635DC0158
:10694000CB018C0D9D1DAE1DBF1DB7FF03C0019770
:10695000A109B04888839983AA83BB83BC01CD0178
:106960009F77DF91CF91FF90EF90DF90CF90BF9016
:10697000AF909F908F9008958F929F92AF92BF9209
:10698000CF92DF92EF92FF9260917F017091800130
:1069900080918101909182016115710581059105B8
:1069A00021F464E279ED8BE597E02DE133EF41E0EE
:1069B00050E00E94293549015A019B01AC01A7EA28
:1069C000B1E40E9448356B017C01ACEEB4EFA50147
:1069D00094010E945635DC01CB018C0D9D1DAE1D2E
:1069E000BF1DB7FF03C00197A109B04880937F0185
:1069F00090938001A0938101B0938201BC01CD01ED
:106A00009F77FF90EF90DF90CF90BF90AF909F90D7
:106A10008F90089560937F0170938001809381012E
:106A2000909382010895F999FECF92BD81BDF89AA5
:106A3000992780B50895262FF999FECF1FBA92BDE8
:106A400081BD20BD0FB6F894FA9AF99A0FBE01964F
:106A50000895052E97FB1EF400940E94403557FDC3
:106A600007D00E945B3507FC03D04EF40C944035F0
:106A700050954095309521953F4F4F4F5F4F08956A
:106A800090958095709561957F4F8F4F9F4F08959A
:106A90000E947D35A59F900DB49F900DA49F800D01
:106AA000911D11240895B7FF0C9448350E94483574
:106AB000821B930B0895A1E21A2EAA1BBB1BFD019A
:106AC0000DC0AA1FBB1FEE1FFF1FA217B307E407CD
:106AD000F50720F0A21BB30BE40BF50B661F771F25
:106AE000881F991F1A9469F7609570958095909505
:106AF0009B01AC01BD01CF010895A29FB001B39FDE
:106B0000C001A39F700D811D1124911DB29F700DB6
:106B1000811D1124911D0895AA1BBB1B51E107C0C3
:106B2000AA1FBB1FA617B70710F0A61BB70B881F1D
:106B3000991F5A95A9F780959095BC01CD010895AC
:106B4000EE0FFF1F0590F491E02D09940F931F9312
:106B5000CF93DF938230910510F482E090E0E091D2
:106B6000DA09F091DB0920E030E0A0E0B0E03097F6
:106B700019F1408151810281138148175907C8F0EA
:106B80008417950769F4109731F012960C931297B9
:106B900013961C9327C00093DA091093DB0922C0D7
:106BA0002115310519F04217530718F49A01BD0158
:106BB000EF01DF01F801DBCF21153105F9F0281BCA
:106BC000390B2430310580F48A819B816115710570
:106BD00021F0FB019383828304C09093DB098093AF
:106BE000DA09FE01329644C0FE01E20FF31F8193E1
:106BF000919322503109398328833AC02091D809D2
:106C00003091D909232B41F42091850130918601DF
:106C10003093D9092093D8092091830130918401C0
:106C20002115310541F42DB73EB7409187015091B0
:106C30008801241B350BE091D809F091D909E2179E
:106C4000F307A0F42E1B3F0B2817390778F0AC018F
:106C50004E5F5F4F2417350748F04E0F5F1F50936C
:106C6000D9094093D8098193919302C0E0E0F0E004
:106C7000CF01DF91CF911F910F910895CF93DF93B3
:106C8000009709F481C0FC01329713821282A0910F
:106C9000DA09B091DB09109781F420813181820FEC
:106CA000931F2091D8093091D9092817390751F538
:106CB000F093D909E093D80967C0ED0120E030E0F6
:106CC000CE17DF0740F44A815B819E0141155105D3
:106CD000F1F0EA01F5CFD383C28340815181840F63
:106CE000951FC817D90759F488819981840F951F7A
:106CF0000296918380838A819B819383828321156D
:106D0000310529F4F093DB09E093DA093DC0E9018C
:106D1000FB83EA8349915991C40FD51FEC17FD07F6
:106D200061F480819181840F951F0296E901998316
:106D30008883828193819B838A83E0E0F0E01296CE
:106D40008D919C911397009719F0FD01DC01F7CF0D
:106D50008D919C9111979D012E5F3F4F820F931F44
:106D60002091D8093091D9092817390769F430974B
:106D700029F41092DB091092DA0902C01382128200
:106D8000B093D909A093D809DF91CF91089581E0FC
:0C6D900090E0F8940C94CC36F894FFCFFF
:106D9C00800400D30000000700CB0000000600C4F4
:106DAC00000000051232011F010A161401FD000C2F
:106DBC0017F000D8000B197D0163010B1E57013829
:106DCC0001CF00FECABABA01000939030101000063
:106DDC00003C0F0313010000003C0F02250100FFD3
:106DEC00FFFFFF00E1000000000000040CC50AB822
:106DFC000A060CB10AB80A040CAC0AB80A00003C2A
:106E0C000F035B01008002800232000100000001D0
:106E1C000000000000DC09200000C180810000009F
:106E2C00000000000F1244230F1EAC2000000000D5
:106E3C000F125E29D61D3528000000000F125112CA
:106E4C00D61D1815000000000F125D12001244121E
:106E5C00000000000F125512D61D74150000000022
:106E6C000F1259120F1E8812000000000F12D61DAF
:106E7C00D61DBA23000000000F127313D61D0C127E
:106E8C0014181C2024286C220C21CF1F7B1F7B1F65
:106E9C007B1F651FD31E9D1E0F1E6D1D941C0000B5
:106EAC00FB000000002000200020121F0B14190A08
:106EBC0003000300FEF802020202020200000000BE
:106ECC006417D31759187A17851781185D180000A5
:106EDC000000C01B9F18C81DC01D000000009F179C
:106EEC009F179F179F17000000001220DB1D00004A
:106EFC000000E2210E1E000000006020EC1D0000CE
:106F0C000000BE1F3A17D81DD71D00000000D61D6B
:046F1C000D0A00005A
:00000001FF