:100000000C94CE090C94F6090C94F6090C94F6099C
:100010000C94F6090C94F6090C94F6090C94F60964
:100020000C94F6090C94F6090C94E01B0C94521CE9
:100030000C94F6090C94F6090C94F6090C94F60944
:100040000C94F6090C94F6090C94F6090C94F60934
:100050000C94F6090C94F6090C94F6090C94CA1E3B
:100060000C94F6090C94F6090C94F6090C94F60914
:100070000C94F6090C94F6090C94F6090C94F60904
:100080000C943D140C94F6090C94F6090C94F609A2
:100090000C94F6090C94F6090C94F6090C94F609E4
:1000A0000C94F6090C94F6090C94F6092B127912AB
:1000B0008712A312BF12CD12B1129512E912F712D4
:1000C000DB12D5F08D14A1C881CFD9F1AF2000008B
:1000D0000000000000000000000000000000000020
:1000E00000000000000000F000B000FC7F9C5EFA01
:1000F0007F9A5EF000B000000000000000000000E9
:1001000000000000000000000000000000000000EF
:1001100000000000000000000000000000000000DF
:1001200000000000000000F000B000F87F985EFDC5
:100130007F9D5EF000B000000000000000000000A5
:100140000000000000000000000000000000003E71
:10015000006F6666006F6E00536F756E643A0053F1
:100160007461727400627920406A616D65736868B9
:100170006F776172640043415441434F4D425320B5
:100180004F46205448452044414D4E454400456E5D
:10019000746572696E6720666C6F6F720000000094
:1001A00000C0070000F00F0000F81F0000FC3F0037
:1001B00002FE3F0001FE7F9001FE7FE003FE7FC054
:1001C00007FE7F8009FC7F8000FC3F4000F81F0095
:1001D00000F00F0000E0030000000000000000003D
:1001E0000000000000F000F000F801F801FC03FC42
:1001F00003FC07DC07FC073C07FC173C16F80778F4
:1002000004F02FF02CE00FE00F001E001E8018807D
:10021000180022002200000000000000001C1C004A
:100220000000000000000000000006060F0E1F1C6A
:100230007E78FCF4FEE8FC90F860F080E00080003E
:1002400000000000000000000000000000000000AE
:1002500000000000000000000C0C1E1C3E387C70EA
:10026000F8E0F0C0E080C080C080C7C7FFFFFFFF9C
:10027000FFF8FFFFFFE0FFFCFE00FC0000000000B5
:10028000000000000000000000000000000000006E
:100290000000000000000000000003030F0F1F1FFC
:1002A0003F3F7F7FFFFFFFFFFFFFFFFFFFFFFFFFDE
:1002B000FFFEFFF0FE60F040E000C00080000000A4
:1002C000000000000000000000000000000000002E
:1002D000000000000000000000000000000001011C
:1002E0000F010F010F000F000F000F000F000F0094
:1002F0000F000F000F000F000F000F000E000C1C6E
:100300001B0000000000000000003838FCF8FCE092
:10031000F880E0008000FFFEFFFCFEC0FC00F0F073
:10032000F8F0F800F0C0E000C0000000000000009D
:1003300000000000000000000000000000000000BD
:1003400000000000000003030F0FFFFEFFFCFFFF93
:10035000FFFFFFFFFFF8FFFFFFFFFFFCFFFFFF1F97
:10036000FF001F000000000000000000000000006F
:10037000000008081C183C183C183C183C183C1C91
:100380003E3E7F3F7F7FFF7FFF7FFFFFFFFFFF7FBF
:10039000FF3FFF1FFF1FFF0FFF0EFF00FE00F000DB
:1003A000F000E000E000C000C0000000000000001D
:1003B000000000000000000000000000000000003D
:1003C000000000000100010007000700070007000F
:1003D00007000700070007000700070007000700E5
:1003E000077CCEB69AB6CE7C007CE6C68EC6E67C8E
:1003F0000046494E414C2053434F52453A000000BD
:100400000000DC0FDC0F78004800F07F007FF881EF
:100410007880FC1FFC1EFC277C27FC0F540FFC0F70
:100420006C0FFC277C27FC1FFC1EF8817880F07F76
:10043000007F78004800DC0FDC0F000000000000A7
:100440000000B007B007F0089008E03F003EF0431E
:10045000F040F83FF83DF84FF84EF81FA81EF81F7F
:10046000D81EF84FF84EF83FF83DF043F040E03F1B
:10047000003EF0089008B007B00700000000000040
:10048000000080070000C0030000E0030000C00778
:100490000000C0010000F00F8000E0070000E0074E
:1004A0000000F00F8000C0010000C0070000E00362
:1004B0000000C003000080070000000000000000F2
:1004C000000040010000C0030000C00700008007DA
:1004D000000080030000E01F0001C00F0000C00FFB
:1004E0000000E01F00018003000080070000C0073B
:1004F0000000C003000040010000000000000000F8
:100500000000000E000C000F000980078003F807B0
:10051000F803FCFF0477FE3F5626FE3FF636FE3F0B
:10052000F636FE3F5636FC7F0437F803F8038001A9
:1005300080011C1E1C0CF67FF66D00000000000000
:10054000000000000000000C000C800F800BF00782
:10055000F003F87F0836FC3FAC24FC3FEC35FC3F51
:10056000EC35FC3FAC34F8FF0876F003F0030003F1
:100570000003383C3818ECFFECDB00000000000002
:100580000000003F003F007F0041007F005D007FD2
:10059000005DFC7F7C41FE7F6E3FFE3F0E00FE1F34
:1005A0000E1BFEFF6EFBFCFF7CFB801F0011801FFB
:1005B0000004FC1FFC15000E0004000E00000000EB
:1005C0000000003F003F007F0041007F005D007F92
:1005D000005DF8FFF8C1FCFFDCBFFC3F1C00FC3FE6
:1005E0001C36FC7FDC76F87FF876001F0002001FC7
:1005F0000008F83FF82B001C0008001C00004B49C5
:100600004C4C533A00000000000000000000600065
:100610006000F000D000F000D080FF80DFC07F409D
:1006200075C07F4075C07F4075807F807F00FC0073
:10063000D400FC00D400FC00D40078007800000056
:100640000000000000000000000C000C003C9C308A
:100650009CFCFF846FFCFFFC8DFCFF5CEFFCFF5CEF
:10066000EDFCFF7CEDFCFF5CEDFCFF5CEDFCFF5C5A
:10067000EDFCFFDCEDFCFF5CEFFCE3FCE378607875
:1006800060000000000000000000000000C03FC04B
:100690002F807E805E007C005C00FC00BC20FF2080
:1006A000BFF0FFF0B9F0FFF0B920FF20BF00FC0061
:1006B000BC007C005C807E805EC03FC02F000000DC
:1006C000000000000000000000F07FF07FF8FF183D
:1006D000C2F8FFE8BAF8FFF8BAF8FFF8BAF8FFF87E
:1006E000A0F8FFF8ACF8FFF8ACF8FFF8A0F8FFF8B6
:1006F000BAF8FFF8BAF8FFE8BAF8FF18C2F07FF0CE
:100700007F000000004C4F4F543A004B696C6C6501
:1007100064206279206120737069646572206F6E55
:10072000206C6576656C004B696C6C656420627941
:10073000206120626174206F6E206C6576656C00AC
:100740004B696C6C65642062792061206B6E69670F
:100750006874206F6E206C6576656C004B696C6CFC
:1007600065642062792061206D616765206F6E206D
:100770006C6576656C00596F752065736361706593
:1007800064207468652063617461636F6D627321B6
:100790000047414D45204F564552003101070000AA
:1007A0000015008D010700000007003C0307001939
:1007B000020700380207005A020700800007005AAB
:1007C000021D007E0007005A0207003802070028B9
:1007D000020700190207007D000E008D01070028A6
:1007E00001070020010700F8000700EF0007007D67
:1007F000000700AC0007009B000700930007008E75
:100800000007008B00070087000700840007007DB9
:10081000000700810007000080466F756E6420614C
:100820006E20616E6369656E74207363726F6C6CA9
:1008300000466F756E642061206A6577656C20657F
:100840006E637275737465642063726F776E0046B1
:100850006F756E6420736F6D6520676F6C642063C5
:100860006F696E73004472616E6B206120706F74EB
:10087000696F6E206F66206865616C696E670095B0
:10088000010700000015008D010700000007001699
:100890000407007F00070000000E0077010700003A
:1008A000001D0046010700400107003B0107000052
:1008B000004700E7000700E4000700000015009F64
:1008C0000007009D00070000008800880007000066
:1008D0008051010700000015008D0107000000078E
:1008E000004B0107003601070046010700690107B8
:1008F000009E0107007F000700850107002802070E
:10090000006D020700FC020700E0020700FD01077E
:1009100000190207003C030700E7000700810207F7
:10092000006D020E002D050E00DA040E001C0107FA
:100930000087030700600307003C030700870307E5
:1009400000AD020E00C60207000C010E00E0020717
:1009500000C602070096020E0081020700AD0207E2
:1009600000C6020700E0020700E10007001B0307C2
:10097000004802070019020700F1010700D9010E23
:1009800000F10107000B020700AD020700D10007CC
:100990000048020700380207001902070028020E6B
:1009A000000B020700E5010700D90107000080E005
:1009B00002070000001500E203070000000700DA4C
:1009C000041500B4000700D901070000000700F17A
:1009D000010E0080000700F101070000000E005A20
:1009E000020700E400070000001500C10007000036
:1009F000000E00E501070000000700AC0007000042
:100A0000001500910007000080100107000000158C
:100A1000008D01070000000700D9010700FD010754
:100A2000000B020E0028020E0038020700480207E1
:100A3000006D020700810232006D021500480207B6
:100A40000038020700B00107007E010700690107B6
:100A5000004B0107003601070031010700020107C2
:100A600000F8000700F2000700E9000700E40007B3
:100A700000D8000700BD000700AB0007009D00077D
:100A8000009600070094000700920007008E000700
:100A9000008B0007008A0007008900070088000714
:100AA0000087000700860007008500070084000714
:100AB00000830007008200070081000E008100070C
:100AC00000800007007E0007007D0007007D000712
:100AD000000000400090003200008000000000F89C
:100AE0007FF87FFCFF4CC2FCFF54BAFCFF5CBAFCF1
:100AF000FF5CBAFCFF5CA0FCFF5CACFCFF5CACFCE8
:100B0000FF5CA0FCFF5CBAFCFF5CBAFCFF54BAFCC3
:100B1000FF4CC2F87FF87F000000000000000000DA
:100B200000000000000000F007F007F047F047F079
:100B300087B086F007B006FCFFB4F6FCFFB4F6F011
:100B400007B006F087B086F047F047F007F00700DF
:100B50000000000000000000000000000000000095
:100B60000000000000000000380038007C0044381D
:100B7000FE38BAF8FFE8BDFCFF0CBCFCFF0CBCF86B
:100B8000FFE8BD38FE38BA007C0044003800380069
:100B900000000000000000000000000000000060F5
:100BA000006000E00FE00DF03FF03DF17FF17DFBD4
:100BB000FFFBFDFFFFFEFDFFFFFEFDFFFFFEFDFF54
:100BC000FFFEFDFBFFFBFDF17FF17DF03FF03DE01F
:100BD0000FE00D6000600000000000002000000039
:100BE0007000000070000000F80000C0FFC03F006F
:100BF000F9000900F9000900F9000900F9000900ED
:100C0000F9000900F90009C0FFC03F00F80000002A
:100C10007000000070000000200000040000000EC2
:100C20000000000E0000001F000000FF03FC039FF7
:100C30000090009F0090009F0090009F0090009FF8
:100C40000090009F009000FF03FC031F0000000EB7
:100C50000000000E0000000400000001000200047B
:100C60000008001000200040008000000100020089
:100C70000400080010002000400080010204081059
:100C80002040800F00080F0004080C0F0002050828
:100C90000A0D0F00020406080A0C0E0F00010304DF
:100CA0000608090B0C0E0F00010204050608090ACC
:100CB0000C0D0E0F0001020304050608090A0B0CB7
:100CC0000D0E0F000102030405060708090A0B0CAC
:100CD0000D0E0F0F000001020304050607080809A6
:100CE0000A0B0C0D0E0F0F00000102030404050691
:100CF000070808090A0B0C0C0D0E0F0F000001026B
:100D0000020304050506070808090A0A0B0C0D0D65
:100D10000E0F0F0000010202030404050606070877
:100D200008090A0A0B0C0C0D0E0E0F0F0000010132
:100D3000020303040405060607080809090A0B0B49
:100D40000C0C0D0E0E0F0F00000101020203040433
:100D50000505060607080809090A0A0B0C0C0D0D03
:100D60000E0E0F0F0000010102020303040405052B
:100D7000060607080809090A0A0B0B0C0C0D0D0ED4
:100D80000E0F0F0000010102020303040405050613
:100D9000060707080809090A0A0B0B0C0C0D0D0EB3
:100DA0000E0F0F0F7E053204140302006000FE04D4
:100DB0001E051403020160007E0414070A020000ED
:100DC0005001FE030A07050100003200FFFFFFFF8C
:100DD000FFD1FFFFF9FFF9FFC1EBC1FFD3C1E5FF71
:100DE000CDF7D9FFCBD5EBFFFFF9FFFFFFE3DDFF29
:100DF000FFDDE3FFEBF7EBFFF7E3F7FFDFEFFFFFCD
:100E0000F7F7F7FFFFDFFFFFCFF7F9FFC3DDE1FFE4
:100E1000DBC1DFFFCDD5D3FFDDD5EBFFE1EFC7FFB2
:100E2000D1D5E5FFC3D5E5FFCDF5F9FFC3D5E1FF8A
:100E3000D3D5E1FFFFEBFFFFDFEBFFFFF7EBDDFFBC
:100E4000EBEBEBFFDDEBF7FFFDD5F9FFE3DDD3FFC8
:100E5000C3F5C1FFC3D5E9FFE3DDDDFFC1DDE3FF7E
:100E6000C3D5D5FFC3F5F5FFE3DDC5FFC1F7C1FF6E
:100E7000DDC1DDFFEFDDE1FFC1F7C9FFC1DFDFFF4E
:100E8000C1FBC1FFC1FDC3FFE3DDE3FFC1F5F3FF1C
:100E9000E3CDC1FFC3F5C9FFDBD5EDFFFDC1FDFF0C
:100EA000E1DFC1FFE1DFE1FFC1EFC1FFC9F7C9FF2A
:100EB000F9C7F9FFCDD5D9FFFFC1DDFFF9F7CFFFA6
:100EC000FFDDC1FFFBFDFBFFDFDFDFFFFFFDFBFF02
:100ED000E7DBC3FFC1DBE7FFE7DBDBFFE7DBC1FFEE
:100EE000E7CBD3FFC3EDFBFFB7ABC7FFC1F7CFFF26
:100EF000FFE5DFFFBFCBFFFFC1F7CBFFFFE1DFFF68
:100F0000C3F7C3FFC3FBC7FFE7DBE7FF83DBE7FFF5
:100F1000E7DB83FFC3F7FBFFD7D3EBFFE1DBDFFFAB
:100F2000E3DFC3FFC3DFE3FFC3EFC3FFCBF7CBFFB9
:100F3000F3AFC3FFDBCBD3FFF7C1DDFFFFC1FFFF83
:100F4000DDC1F7FFFBFDFBFFE3EDE3FF080B000254
:100F50000202010009040000010202000005240051
:100F600010010524010101042402060524060001E4
:100F70000705810310004009040100020A00000077
:100F80000705020240000007058302400000040339
:100F9000090412010002EF020140412336800001E2
:100FA0000102030141726475696E6F204C4C43006D
:100FB00041726475626F79000103070F1F3F7FFF65
:100FC000FFFEFCF8F0E0C08005002B802B00558070
:100FD000552B002B2B552B555540554080416261B8
:100FE0006E646F6E20616C6C20686F70652079652F
:100FF0002077686F20656E7465722100466F756E8C
:101000006420612063686573742066756C6C206F62
:101010006620747265617375726521002001070096
:1010200000001500E9000700000007005601150048
:101030000000320085011D00000040000B02150079
:1010400000003200870324000000400087032B00CB
:1010500000004000B20332000080000006000C00D7
:10106000120019001F0025002B00310038003E003F
:1010700044004A00500056005C00610067006D00AB
:10108000730078007E00830088008E009300980033
:101090009D00A200A700AB00B000B500B900BD00E4
:1010A000C100C500C900CD00D100D400D800DB00CC
:1010B000DE00E100E400E700EA00EC00EE00F100F1
:1010C000F300F400F600F800F900FB00FC00FD005E
:1010D000FE00FE00FF00FF00FF00FF00FF00FF001A
:1010E000FF00FE00FE00FD00FC00FB00F900F80020
:1010F000F600F400F300F100EE00EC00EA00E70077
:10110000E400E100DE00DB00D800D400D100CD0017
:10111000C900C500C100BD00B900B500B000AB00FA
:10112000A700A2009D00980093008E008800830015
:101130007E00780073006D00670061005C0056005F
:1011400050004A0044003E00380031002B002500CA
:101150001F00190012000C0006000000FAFFF4FF47
:10116000EEFFE7FFE1FFDBFFD5FFCFFFC8FFC2FFC8
:10117000BCFFB6FFB0FFAAFFA4FF9FFF99FF93FF3C
:101180008DFF88FF82FF7DFF78FF72FF6DFF68FF94
:1011900063FF5EFF59FF55FF50FF4BFF47FF43FFC3
:1011A0003FFF3BFF37FF33FF2FFF2CFF28FF25FFBB
:1011B00022FF1FFF1CFF19FF16FF14FF12FF0FFF76
:1011C0000DFF0CFF0AFF08FF07FF05FF04FF03FFE9
:1011D00002FF02FF01FF01FF01FF01FF01FF01FF0D
:1011E00001FF02FF02FF03FF04FF05FF07FF08FFE7
:1011F0000AFF0CFF0DFF0FFF12FF14FF16FF19FF70
:101200001CFF1FFF22FF25FF28FF2CFF2FFF33FFAE
:1012100037FF3BFF3FFF43FF47FF4BFF50FF55FFAB
:1012200059FF5EFF63FF68FF6DFF72FF78FF7DFF70
:1012300082FF88FF8DFF93FF99FF9FFFA4FFAAFF06
:10124000B0FFB6FFBCFFC2FFC8FFCFFFD5FFDBFF7B
:10125000E1FFE7FFEEFFF4FFFAFFCE010700000019
:1012600015008D0107000000070016040700910417
:101270000700B2030700DA0407002D051500DA04A1
:10128000070091040700E0020700960207005A02D7
:101290000700F10107001902070000000700CE0156
:1012A00007007C000E005C0107007D000E0020019D
:1012B00007007D000E00EF000700D5000700CA0000
:1012C000070000000700C1000700B9000700B300D5
:1012D0000700A90007007D0007007E0007009300BB
:1012E00007007E0007000000070089000700850056
:1012F000070082000700800007007E0007007D00D5
:1013000007000080B001070000001500C8000700BA
:1013100000000700B203070060030700E0020700B7
:10132000960207004802070019020700FD010700A6
:1013300050040700CE010700B9010700A70107000C
:10134000500407007E010700630107004001070009
:101350002D05070010010700090107000201070021
:10136000F8000700DA040700CA000700BB00070006
:10137000B30007009104070096000700D80007009B
:1013800000001D009602070000002B002802070045
:1013900000002400FB000E000080C43611241FBE94
:1013A000CFEFDAE0DEBFCDBF11E0A0E0B1E0E0E4D6
:1013B000FFE602C005900D92AE32B107D9F72AE0E0
:1013C000AEE2B1E001C01D92A332B207E1F719E02D
:1013D000CEECD9E004C02197FE010E948437CD3CB9
:1013E000D107C9F70E9446260C949E370C94000042
:1013F0002F923F924F925F926F927F928F929F9225
:10140000AF92BF92CF92DF92EF92FF920F931F9312
:10141000CF93DF93CDB7DEB765970FB6F894DEBFF5
:101420000FBECDBF2C01322F330F8E2D90E09D8348
:101430008C83822F90E0019702C095958795EA945E
:10144000E2F7889FF001899FF00DF00D1124CF0184
:101450008D57934F9F838E83862F880F880B262F5F
:1014600021952823E32FF0E0CF01860F911D67FD22
:101470009A958138910524F010E8161B1D8B01C048
:101480003D8B942F9195842F880F880B8923E40F2F
:10149000F11D47FDFA95E134F10514F030E4341BF9
:1014A00067FD60E0D12CEE27FF27EC19FD09FA87D4
:1014B000E98747FD40E0942F987310E1919F600108
:1014C0001124DC86CB8690E0E12CF12CA12CB12CF0
:1014D0001C8A1B8AC12CD12C621B6D875D89652FEC
:1014E00070E0FB013297FF87EE87841B888B632FA8
:1014F00070E0FB013297FA8BE98BAD85A20F1D8955
:10150000211708F0E8C00A2E000CBB0BFD01EF5AB2
:10151000FB4F808151E05887801708F018868017AC
:1015200008F0AAC0E22FF0E06E857F85E617F70786
:101530005CF0992309F4CFC036016A207B2060E07B
:1015400070E0212C312C47C00C8002C0F595E79546
:101550000A94E2F76E817F81E60FF71FE491F0E0D5
:101560009923F1F0CF01880F991F880F991FF2017D
:10157000E80FF91F659174911B01FC013296E40D8F
:10158000F51D6591749189859A8568277927CA2008
:10159000DB20C101862397233601682A792A1BC0E4
:1015A000CF01880F991F880F991FF201E80FF91FCB
:1015B000C590D490DC8ACB8AFC013296E40DF51DEF
:1015C000E590F49069857A85E626F72636016E2047
:1015D0007F20B7011601542F57708B859C85A80F6B
:1015E000B91FA352BB4F9C91E52FF0E0E558F34F94
:1015F0008491B42E1B82A12C812C912CF0E0E889DF
:10160000EB0DE31790F5F11101C0812CF0E0C988D2
:10161000DA88EC15FD059CF50C8002C0F595E79580
:101620000A94E2F7CE80DF80EC0DFD1DE491F0E03E
:10163000EE0FFF1FE55AF34FC590D490F301EC2154
:10164000FD2111E01A83EF2B09F41A8211E0EB89D6
:10165000FC89EC21FD21EF2B09F410E0CE20DF20E6
:10166000E1E0CD2879F4E0E00DC09C9357017B01C7
:10167000CB88DC883C8A2B8A2F5F98853ECF1A82E4
:10168000E0E010E0992021F0AA2059F0982B0CC03E
:10169000CB80C11006C0811004C0112329F0EE23B5
:1016A00019F0F82FF0959F23B3945F5F583011F035
:1016B000880F0AC09C938FE3D82EDB1414F0A05837
:1016C000BF4F9C9181E050E0FA81FB838A2CAE2EC3
:1016D000F92D912E94CF65960FB6F894DEBF0FBE0C
:1016E000CDBFDF91CF911F910F91FF90EF90DF90D1
:1016F000CF90BF90AF909F908F907F906F905F90B2
:101700004F903F902F900895E82FF0E090E2699F6E
:10171000E00DF11D1124F595E795E15DFD4F80FF8A
:1017200007C080818F7090E1499FA001112403C000
:101730008081807F4F70482B40830895803220F451
:10174000683110F40C94840B0895803298F4683159
:1017500088F4282F30E080E2689F200D311D11248D
:10176000F901F595E795E15DFD4F808120FD8295BA
:101770008F7008958DE008959F92AF92BF92CF929F
:10178000DF92EF92FF920F931F93CF93DF93F82E88
:10179000E62E142FC1E00C2F000F0F5FD0E0DE2CDF
:1017A000DC1ACF2CCC1AAE2CAC0E9F2C9C0EBD2E6E
:1017B000BC0C6D2D8B2D0E94A50B8117E1F06A2DBD
:1017C0008B2D0E94A50B1817B1F0BD2EBD0C6B2DF3
:1017D0008C2D0E94A50B181771F06B2D892D0E947E
:1017E000A50B181741F0DF5FD013E1CFCF5FC032F8
:1017F00091F68FEF01C08C2FDF91CF911F910F9148
:10180000FF90EF90DF90CF90BF90AF909F900895A2
:10181000282F30E080E2689F200D311D1124F9014E
:10182000F595E795E15DFD4F808120FD82958F70F4
:1018300008950E94A50B91E08D3008F490E0892F67
:1018400008952F923F924F925F926F927F928F9264
:101850009F92AF92BF92CF92DF92EF92FF920F933F
:101860001F93CF93DF937C016B018A01E90197FFFE
:1018700002C081509F4F892E992E990C9908C8015A
:1018800017FF02C081509F4F292E392E330C330889
:101890008214930409F46BC08214930464F4540119
:1018A0008FEFA81AB80ABA2CAA24AE18BF0844248D
:1018B0004394512C08C0982D88275701A81AB90ABB
:1018C00044244A94542CBE016C197D09CB01770F36
:1018D000AA0BBB0B6627782F892F9A2F98012E19F8
:1018E0003F0937FF03C0319521953109032E000CC4
:1018F000440B550B0E940C37211580E83807410531
:1019000051054CF4213080E838078FEF480758071D
:101910003CF0390109C066246A94EFE77E2E04C0CA
:101920006624639470E8772E9301D5010E948A376C
:1019300020E031E040E050E00E940C375601A20E5A
:10194000B31E840C951C240C351CC501B7FE02C0C7
:1019500081509F4FA60CB71C692F882D0E94190C2F
:10196000811182C0840C951C2814390471F7C601BA
:10197000D7FE02C081509F4FA92EB92EBB0CBB08C9
:10198000CE01D7FF02C081509F4F692E792E770C70
:101990007708A614B70409F465C0A614B70464F464
:1019A00025018FEF481A580A542C44244C185D081E
:1019B00088248394912C08C09A2D88272601481AE0
:1019C000590A88248A94982CB8016E197F09CB0192
:1019D000770FAA0BBB0B6627782F892F9A2FCC196C
:1019E000DD09D7FF03C0D195C195D1099E01DD0F57
:1019F000440B550B0E940C37211580E83807410530
:101A000051054CF4213080E838078FEF480758071C
:101A10002CF0E90105C0CFEFDFE702C0C1E0D0E85C
:101A20009E01D2010E948A3720E031E040E050E080
:101A30000E940C37E20EF31EA80CB91C680C791C2E
:101A4000C701F7FE02C081509F4FEC0EFD1E6A2DAC
:101A5000892F0E94190C811107C0A80CB91C6A14A7
:101A60007B0471F781E001C080E0DF91CF911F918D
:101A70000F91FF90EF90DF90CF90BF90AF909F902D
:101A80008F907F906F905F904F903F902F90089530
:101A900090912302981731F0809323021092220232
:101AA000109221020895DC01605284E0689FB00129
:101AB00011246453724FFB01849184278C933196D7
:101AC000E491E4271196EC931197FB013296E4918F
:101AD000E4271296EC931297FB013396E4914E277C
:101AE00013964C930895FF920F931F93CF93DF9318
:101AF00031E0211101C030E0F32EF194C42FD0E089
:101B000020E8629FC00DD11D1124C352DB4FFC01A0
:101B100064918F010F5F1F4F662339F04F2DCE0167
:101B20000E94530D2496F801F3CFDF91CF911F91BE
:101B30000F91FF90089580910101909102019C0105
:101B40003695322F222737952795822793279C0198
:101B5000232F3327269582279327382F2227822762
:101B6000932790930201809301010895FC01408125
:101B70005181FB0120813181F901E05CF1094E17AF
:101B80005F07BCF020543F4F2417350794F0FC0149
:101B900042815381FB01828193819C01205C310948
:101BA0004217530734F020583E4F81E02417350781
:101BB0000CF480E008950F931F93CF93DF93E4E03C
:101BC000F2E02581211123C0DC0112960D911C91B8
:101BD0001397CD91DC91B9E0893A9B0719F48FEF07
:101BE00086830DC04DED58E020E08417950711F471
:101BF000268305C02F5F485F5F4F2831B1F78FEF15
:101C00008583D183C08313830283648307C037969F
:101C1000C2E0E032FC07A9F6E0E0F0E081E0EF2B63
:101C200009F480E0DF91CF911F910F910895FC019D
:101C30002091A9093091AA0980819181281B390B33
:101C400037FF03C0319521953109932F2091AB09BE
:101C50003091AC0942815381241B350B37FF03C0FF
:101C6000319521953109892F931708F4832F089511
:101C70000F931F93CF93DF93EC01162F042F642F44
:101C8000812F0E94A50B893088F5602F8E810E94DC
:101C9000A50B893058F56F81812F0E94A50B8930E3
:101CA00028F5EDEDF8E02DE939E0412F012E000C8B
:101CB000550B602F002E000C770BEC17FD0771F011
:101CC00084818770843051F0868190E08417950775
:101CD00029F4878190E08617970741F038962E17F0
:101CE0003F0759F71E830F8381E001C080E0DF9139
:101CF000CF911F910F910895FC01848187708430EA
:101D000039F0FAE08F9FC00111248C55924F08954D
:101D100080E090E00895CF93DF93CDEDD8E09C81F3
:101D200097709430D1F4688379834A835B8387709A
:101D30008C83CB0177FF02C081509F4F9E83CA01E5
:101D400057FF02C081509F4F9F83CE010E947C0E9F
:101D50000296FC0184918D8305C02896F9E0CD3967
:101D6000DF07E9F6DF91CF910895CF93DF932091BC
:101D70008201EEE2F1E040E050E0942F421758F08B
:101D8000209182012C3008F05BC081E0820F8093AB
:101D90008201922F83C0EA0136814F5F5F4F3796F1
:101DA000831758F72C3000F531E0320F3093820161
:101DB00037E0422F50E0349FD001359FB00D112401
:101DC000A25DBE4F41505109349FF001359FF00D87
:101DD0001124E25DFE4F432F01900D924A95E1F7E9
:101DE0002150921730F329C0992321F030E0219738
:101DF00067E003C080E090E057C0432F50E04C17ED
:101E00005D07BCF4649FD001659FB00D1124A25DF5
:101E1000BE4F4F5F5F4F649FF001659FF00D11242F
:101E2000E25DFE4F462F01900D924A95E1F73F5F2C
:101E3000E4CF91509C3091F503C09C3079F5A0CF50
:101E4000422F50E04150510997E0949FF001959F37
:101E5000F00D1124E25DFE4F9681981758F630E0A0
:101E600067E0832F90E084179507B4F4689FD00152
:101E7000699FB00D1124A25DBE4F0196689FF001CD
:101E8000699FF00D1124E25DFE4F862F01900D92A7
:101E90008A95E1F73F5FE5CF9FEF920F27E0929F92
:101EA000C0011124825D9E4FDF91CF910895CF92A2
:101EB000DF92EF92FF920F93CF93DF93213408F0DC
:101EC0005CC0CE2CC42FD62F213218F032E0E32E86
:101ED00007C0422F50E0413151053CF0EE24E3941D
:101EE0004C2F6D2F0E94F80948C0233010F0E12CD0
:101EF000F7CF862F062E000C990B223051F59C014E
:101F00002F5A3B4F7901F9018081801778F4C62E52
:101F1000D12C6C2F70E040E0C6010E94A01661E059
:101F20006C0F70E040E0C6010E94A016F7018181AD
:101F3000801718F5DF5FED2EF12C6C2F70E040E07C
:101F4000C7010E94A01661E06C0F70E040E0C7017D
:101F50000BC0FC01EF5AFB4F8081801770F46C2F8F
:101F600070E040E08D2F90E0DF91CF910F91FF90D6
:101F7000EF90DF90CF900C94A016DF91CF910F914E
:101F8000FF90EF90DF90CF9008958F929F92AF9245
:101F9000BF92CF92DF92EF92FF920F931F93CF9356
:101FA000DF937901E3E8F1E0208131818C01021BAC
:101FB000130B82819381EB01C81BD90BA581B681DC
:101FC000C780D08498010E948A37872E982EA92E28
:101FD000BB24A7FCBA949E01D6010E948A37BB2776
:101FE00097FDBA95A92F982F872F881A990AD7019C
:101FF0008D929C92A781B0850580F681E02D980195
:102000000E948A37C72ED82EE92EFF24E7FCFA94C7
:102010009E01DF010E948A37BB2797FDBA95A92F41
:10202000982F872FB601680F791FFA01718360839B
:10203000DF91CF911F910F91FF90EF90DF90CF90A4
:10204000BF90AF909F908F900895CF92DF92EF92C4
:10205000FF920F931F93CF93DF9300D000D0CDB7A3
:10206000DEB77A0169019E012D5F3F4FAE014F5FE0
:102070005F4F0E94C50F0B811C8100321105ACF12E
:10208000A981BA81B7FF0AC088279927801B910BC5
:10209000880F991FA817B9074CF427C0109731F083
:1020A000C801880F991F8A179B07FCF021E430E0D4
:1020B0000E9492379801012E000C440B550B0E9490
:1020C0000C37F7013183208380E890E2B8010E9449
:1020D0007037F60171836083F70180819181805CA4
:1020E0009F4F9183808381E001C080E00F900F902B
:1020F0000F900F90DF91CF911F910F91FF90EF9074
:10210000DF90CF900895AF92BF92CF92DF92EF927F
:10211000FF920F931F93CF93DF9300D000D0CDB7E2
:10212000DEB75C01CB01BA01122F9E012D5F3F4F3C
:10213000AE014F5F5F4F0E942510882309F453C002
:102140008B819C81189F6001199FD00C1124D7FEB0
:1021500003C02FE7C20ED11CCC0CCD2CCC1CDD084B
:1021600049815A8157FD05C0403851052CF49A0128
:1021700005C020E030E002C02FE730E0F901EF5267
:10218000FC4FF080013059F020F0033049F4F81A88
:1021900007C02C2D220F382F321BF30E01C0FC1864
:1021A000042F0C19402F002E000C550B96013327DD
:1021B000319521953109220F331F421753079CF0A7
:1021C00011E0180F812F0E94B50EFC01892B59F0E8
:1021D0008281B182A0820383F482C58216838E7FBE
:1021E000E0FA81F982830F900F900F900F90DF91AA
:1021F000CF911F910F91FF90EF90DF90CF90BF9004
:10220000AF9008955F926F927F928F929F92AF925C
:10221000BF92CF92DF92EF92FF920F931F93CF93D3
:10222000DF93E82EF62E0E94A50BE82FCF2DD0E0ED
:102230000E2D10E040918C0150918D018091900104
:10224000D801A81BB10960918E0170918F01809116
:1022500091019E01281B31094A9FC0014B9F900D9F
:102260005A9F900D1124629F5001639FB00C729F82
:10227000B00C11248A199B0981159E4F0CF4C6C11C
:10228000A69F5001A79FB00CB69FB00C1124429F8F
:10229000C001439F900D529F900D11248A0D9B1DEC
:1022A00081159E4F0CF4B2C18E2F90E0FC01329745
:1022B000EB30F10508F4CBC08091D00387FDA6C1B7
:1022C0006F2D8E2D0E94190C882309F49FC1B02E0A
:1022D000AA24DC2FCC27450193943E0173946F2DE3
:1022E0008FEF8E0D0E94190CD82E6F2D81E08E0D70
:1022F0000E94190C182F6FEF6F0D8E2D0E94190C74
:10230000582E61E06F0D8E2D0E94190CF82ED11001
:1023100026C080918301909184018A159B05FCF46D
:10232000F11009C0EE24E39480918501909186011B
:10233000861597050CF0E12C511008C001E0809142
:10234000850190918601C817D9070CF000E0CC24D4
:10235000C3949301A501BE01C5010E94D01FF110D5
:1023600025C0809185019091860168167906F4F464
:10237000111109C0EE24E3948091830190918401AE
:10238000881599050CF0E12CD11008C001E080916E
:10239000830190918401A816B9060CF000E0C12CCD
:1023A0009301A401B301C5010E94D01F111126C0E1
:1023B000809183019091840188169906FCF4511054
:1023C00009C0EE24E3948091850190918601C8179D
:1023D000D9070CF0E12CF11008C001E080918501D3
:1023E00090918601861597050CF000E0CC24C394EB
:1023F0009E01A401B301C4010E94D01F511006C167
:1024000080918501909186018C179D070CF0FEC08C
:10241000D11009C0EE24E39480918301909184014E
:10242000A816B9060CF0E12C111108C001E080914A
:10243000830190918401881599050CF000E0C12C6E
:102440009E01A501BE01C4010E94D01FDFC0EA5A4F
:10245000FF4F0C9484378091240282FD05C0EFEC7D
:10246000AE2EE0E0BE2E04C07FE0A72E71E0B72EB6
:102470006F2D8FEF8E0D0E94190C882349F05C2F71
:10248000442740585F4F702F66276C5D7F4F0FC009
:102490006F2D81E08E0D0E94190C882369F05C2F4E
:1024A000442740585F4F702F662765527F4FE12CBD
:1024B00001E02BE4C501A8C06FEF6F0D8E2D0E94C7
:1024C000190C882329F05C2F44274C5D5F4F0CC00A
:1024D00061E06F0D8E2D0E94190C882309F496C0BF
:1024E0005C2F442745525F4F702F662760587F4FFF
:1024F000DECF5C2F442740585F4F702F662760580F
:102500007F4FE12C03E020E68BE19CE07DC05C2F57
:10251000442740585F4F702F662760587F4FE12C4B
:1025200000E020E68BED9BE06FC05C2F4427405815
:102530005F4F702F662760587F4FE12C00E020E549
:102540008BE99BE061C05C2F442740585F4F702FA0
:10255000662760587F4FE12C00E020E48BE59BE08C
:1025600053C05C2F442740585F4F702F6627605838
:102570007F4FE12C00E020E485E496E045C05C2F2D
:10258000442740585F4F702F662760587F4FE12CDB
:1025900000E020E485E096E037C05C2F44274058F7
:1025A0005F4F702F662760587F4FE12C00E020E4DA
:1025B00085E896E029C05C2F442740585F4F702F74
:1025C000662760587F4FE12C00E020E58BE19BE01F
:1025D0001BC05C2F442740585F4F702F6627605800
:1025E0007F4FE12C00E02BE485EC96E00DC05C2FE2
:1025F000442740585F4F702F662760587F4FE12C6B
:1026000000E02BE48BED9AE00E948310DF91CF91E4
:102610001F910F91FF90EF90DF90CF90BF90AF9000
:102620009F908F907F906F905F900895E0E4F0E02E
:10263000E81BF109FF27EE0FFF1FE65AFF4E8591B9
:1026400094910895CF930E94981683FF02C0C0E131
:1026500001C0C0E00E94981682FDC0620E949816D8
:1026600087FDC4600E94981684FDC8600E94981679
:1026700085FDC1600E94981686FDC2608C2FCF91A7
:102680000895CF92DF92EF92FF920F931F93CF9313
:10269000DF936C017A018B01C0E0D0E0CE15DF053D
:1026A00081F0D8016D918D01D601ED91FC910190E1
:1026B000F081E02DC6010995892B11F02196EECF0E
:1026C0007E01C701DF91CF911F910F91FF90EF9095
:1026D000DF90CF9008958091B603E091B403F0911C
:1026E000B503882349F0CF0102969093B5038093F8
:1026F000B403859194910895CF0102969093B50308
:102700008093B403808191810895CF92DF92EF92FC
:10271000FF920F931F93CF93DF930E946B1381154A
:1027200020E8920761F4809171008D7F80937100A1
:1027300010929100469847981092B3038BC021E005
:102740002093B303813020E8920751F48091B103C4
:102750009091B2039093B5038093B4030E946B13DE
:1027600097FD05C02091B003222309F43FC02091BA
:10277000AF0321113BC021E02093B703EC01DF77C9
:10278000209769F481E08093B80346983FE9C32E0F
:102790003FE0D32EE12CF12CCAEFD0E014C08E0123
:1027A00020E030E060E472E48FE090E0A90198015D
:1027B0000E940C3769017A0181E0C81AD108E1084A
:1027C000F1081092B803E091B809F091B9090995A0
:1027D000811103C081E08093B8038091B7038823FF
:1027E000B9F18091B803811133C003C01092B703CF
:1027F000C5CF46992DC0479A0E946B13009771F080
:102800009C01DE010E944D37DC01CB0129E0B5952A
:10281000A795979587952A95D1F703C08FEF9FEFDE
:10282000DC01109290002AE020939100D092990050
:10283000C09298008093B9039093BA03A093BB030E
:10284000B093BC038091710082608093710002C0DC
:102850004798D2CFDF91CF911F910F91FF90EF90CA
:10286000DF90CF90089580912002089508950895F3
:1028700080E090E008950E9499371F920F920FB662
:102880000F9211242F933F934F935F936F937F93F6
:102890008F939F93AF93BF93EF93FF938091B9036F
:1028A0009091BA03A091BB03B091BC03892B8A2BF2
:1028B0008B2B81F18091B80381110BC098B180E41A
:1028C000892788B98091B703882319F088B1805887
:1028D00088B98091B9039091BA03A091BB03B091DC
:1028E000BC03181619061A061B06B4F48091B90326
:1028F0009091BA03A091BB03B091BC030197A109C9
:10290000B1098093B9039093BA03A093BB03B0932A
:10291000BC0302C00E948513FF91EF91BF91AF915C
:102920009F918F917F916F915F914F913F912F91E7
:102930000F900FBE0F901F9018959C01E1E7F0E0FB
:1029400090819D7F908381E08093B6033093B5039F
:102950002093B4033093B2032093B1030C948513F6
:102960004F925F926F927F928F929F92AF92BF929F
:10297000CF92DF92EF92FF920F931F93CF93DF934B
:1029800000D000D0CDB7DEB7DC0139012C2DA02E50
:10299000B12CC5018A0F9B1F181619060CF0AEC189
:1029A000A038B1050CF0AAC1FB01EE0DF11D1E16F9
:1029B0001F060CF0A3C1603471050CF09FC14115D6
:1029C000510509F49BC1362F3770F32EFB0177FDBB
:1029D000379633E0F595E7953A95E1F73E2F77FF87
:1029E00004C0FF2011F03FEF3E0FB7FF05C0EE27F8
:1029F000FF27EA1BFB0B02C0E0E0F0E08038910506
:102A00001CF090E89A1B01C0902F9E1B632F032E91
:102A1000000C770B3F3F1CF4162F109501C010E0FF
:102A2000DD24D3948E2D877009F4D12CE694E6949E
:102A3000E694ED0C6E0D711D693071051CF088E097
:102A4000E82EE31AE11A310F60E83603A00DB11D3C
:102A50001124AE0FBF1F019FE00DF11D11244E0F79
:102A60005F1F61E070E04B010F2C02C0880C991CC5
:102A70000A94E2F7233009F4FFC0B8F4213009F4D6
:102A8000B3C0223009F03AC18FEF889D8001899D43
:102A9000100D1124009510951A8309832A81FD01D8
:102AA000E352FB4F2F01E30E29C02A3FD1F12B3F08
:102AB00009F024C1FD01E352FB4F6F01E30E82C018
:102AC0008491889D6001899DD00C1124DC82CB8289
:102AD00037FD05C0DB018C918023C82ACC92F11010
:102AE00013C031966F5F7F4F8E2F841B891740F381
:102AF0003F5F4A0D5B1DB0E84B0E511C3E1509F4BB
:102B0000FDC0B201FA01F0CF37305CF76B01B0E8DD
:102B1000CB0ED11CD6018C9182237C8087298C938B
:102B2000E0CFFD01E352FB4F6F01E30E3E1509F4C8
:102B3000E5C08601FA018E2F841B8917F0F4849179
:102B4000889DB001899D700D11247C836B8337FDB6
:102B500004C0D8018C91682B6C93FF2051F0373062
:102B600044F4B80160587F4FDB012C918C81822B9B
:102B70008C9331960F5F1F4FDECF3F5F4A0D5B1D79
:102B8000B0E8CB0ED11CD2CF8491889D8001899D65
:102B9000100D11241C830B8337FD05C00095DB014C
:102BA0008C9108230C93F11013C031966F5F7F4F07
:102BB0008E2F841B891740F33F5F4A0D5B1DB0E8E1
:102BC000CB0ED11C3E1509F499C0B601FA01F0CF25
:102BD00037305CF78B0100581F4F8C818095D801EE
:102BE0002C9182238C93E1CFB3016E0F7F1FA352F0
:102BF000BB4FE30E3E1509F481C08D01C12CD12CD1
:102C0000C91690F5FB01EC0DFD1DE491E89D300126
:102C1000E99D700C1124609470947A826982FA01A3
:102C2000EC0DFD1DE491E89D2001E99D500C11245F
:102C30005C824B8237FD05C0F801808168224628FE
:102C40004082FF2059F037304CF4F801E058FF4F34
:102C500020818A8182232C81822B8083FFEFCF1AEF
:102C6000DF0A0F5F1F4FCCCF3F5F4A0D5B1D6A0D20
:102C70007B1DA058BF4FBECFC92ED12CE40FF51F2E
:102C8000A352BB4F00E810E00C191D09AC18BD0899
:102C9000A501440F551F792F2E2D792ECF93DF9349
:102CA000ED01EF96EF962296A590C590FF2059F082
:102CB000A89C5001C89C600137302CF4E880D09467
:102CC000ED20EB28E99233233AF0EC90C094EC200D
:102CD000EA28ED920C946D1611967A9529F72A95AB
:102CE00051F0772D33951124E40FF11DA00FB11D84
:102CF000C00FD11DD9CFDF91CF9111240F900F902C
:102D00000F900F90DF91CF911F910F91FF90EF9057
:102D1000DF90CF90BF90AF909F908F907F906F90FB
:102D20005F904F900895BC0180E090E00C94901E5D
:102D30008FB18095807F669B88601C9B846008951E
:102D400080389105B8F460347105A0F490E121E079
:102D500061FD24E060FD220F62FD2295687F969F51
:102D6000D0011124A80FA352BB4F8C91822B40FF9E
:102D700082278C930895672F892F0E94A50B91E0DD
:102D8000893008F490E0892F0895EF92FF920F9315
:102D90001F93CF93DF9320919901269530E0211561
:102DA000310559F05091BE01569551F05091E30113
:102DB000569551F4CFEDD1E005C0C5E9D1E002C090
:102DC000CAEBD1E02097C1F4E091BE01E695F0E0B6
:102DD000E217F3071CF4CAEBD1E002C0C5E9D1E069
:102DE000E091E301E695F0E02C81269530E0E217D2
:102DF000F30714F4CFEDD1E0998388837B836A8352
:102E00008C8140FB80F98C837E0185E2E80EF11C09
:102E10008E010B5F1F4FE016F106D9F00E949B0D4B
:102E20008F718051F80180830E949B0D8F718051BA
:102E3000F80181830E949B0D8F718051F80182837C
:102E40000E949B0D8F718951F80183830C5F1F4F86
:102E5000E2CF8C8181708C628C83DF91CF911F9146
:102E60000F91FF90EF9008952F923F924F925F92B3
:102E70006F927F928F929F92AF92BF92CF92DF928A
:102E8000EF92FF920F931F93CF93DF93CDB7DEB7EF
:102E90002C970FB6F894DEBF0FBECDBF982E6C876F
:102EA000742E822E0B831E2D55245A94580E21E029
:102EB000280F2983C82ED12C462E4A94862F8F5F47
:102EC0008A83A62EB12C2B81222339F0112329F0DD
:102ED00040E0612F822F0E949E0B88E0871530F022
:102EE000881508F0D8C09FEF9B830DC0781448F078
:102EF00022242A94072D10E006501109EC84E80CD6
:102F000075C02FEF2B83882D90E01C0126E0221A3C
:102F10003108092D070D0E949B0DB1010E945C37FD
:102F200023E0F22EF80E8B8181508B83882309F4E5
:102F3000B2C01C851F0D612F852D0E94080C8823AF
:102F400051F3612F802F0E94080C882321F3EE2477
:102F5000EA94E10E6E2D852D0E94080C8823D9F28B
:102F60006E2D802F0E94080C8823A9F2662463949A
:102F7000610E662D852D0E94080C882361F2662D56
:102F8000802F0E94080C882331F20E949B0D272D70
:102F900030E0B901625071090E945C379981980F45
:102FA0009B83092D1601220E331E802F90E082157F
:102FB00093053CF44DE0612F802F0E949E0B0F5F24
:102FC000F4CF2FEF280D2F19E12E0B81472D662D01
:102FD000892D0E9434178F2C76CF292D2F0D2B830E
:102FE000642D822F0E94080C81110CC00E949B0D41
:102FF000B8010E945C3793E0F92EF80E2A94211054
:10300000ECCF49C06E2D8B810E94080C882371F390
:103010006B806A94642D862D0E94080C882331F3FE
:103020006E2D862D0E94080C882301F36B8063941B
:10303000642D862D0E94080C8823C1F26E2D862DEA
:103040000E94080C882391F20E949B0D282D30E0ED
:10305000B901625071090E945C371A81180F0C8502
:103060001501220E331E802F90E0821593053CF44B
:103070004DE0602F8B810E949E0B0F5FF4CF4FEFCE
:10308000470D4F19E12E0B81282D6C85862D0E944E
:1030900034177F2C18CF1B8681E09C85923008F472
:1030A00080E02B8580FB24F92B8781E0891508F0CF
:1030B00080E09B8580FB97F99B87E92CF12C872D7D
:1030C00090E09E838D836C01CE0CDF1C81E09EE13D
:1030D000C916D1040CF080E02B8580FB25F92B87E5
:1030E0008C85082F10E0882D90E098878F835C01F5
:1030F000A00EB11E81E096E1A916B1040CF080E0AB
:103100002B8580FB26F92B878C858250898344246C
:103110004A94490C682F842D0E94080C692C670C76
:10312000882331F06981862D0E94080C811146C1E7
:103130003C843A949EEF990D9A83632D892F0E94C7
:10314000080C5C84580C882331F0652D8A810E941C
:10315000080C811137C121E0260D2C83632D822FAD
:103160000E94080C882341F06C856F5F680D862DE6
:103170000E94080C81112AC181E0850D8B83682F84
:10318000842D0E94080C882331F06B81862D0E94CB
:10319000080C81111FC16981842D0E94080C8111C6
:1031A00007C0632D8A810E94080C882309F416C188
:1031B0006981862D0E94080C811107C0632D8C81C6
:1031C0000E94080C882309F40EC16B81862D0E9491
:1031D000080C811107C0652D8C810E94080C882382
:1031E00009F406C16B81842D0E94080C811107C06F
:1031F000652D8A810E94080C882309F4FEC0632D86
:10320000892D0E94080C882349F0632D8FEF860DCD
:103210000E94080C22242394811101C0212C6C856A
:10322000862D0E94080C882349F06FEF650D862DCE
:103230000E94080C91E09987811101C01986652DC3
:10324000892D0E94080C882349F0652D8FEF860D8B
:103250000E94080C21E02A87811101C01A866C8522
:10326000842D0E94080C882341F06FEF650D842D9A
:103270000E94080C91E0811101C090E0211005C06E
:103280008B858F7E8F7D8F778B872985211105C058
:103290008B858F7E8F7D8F7B8B872A85211105C043
:1032A0008B858F7D8F7B8F778B87911105C09B8559
:1032B0009F7E9F7B9F779B87EC14FD040CF046C09C
:1032C0002E2C632D8E2D0E94080C811103C02B859E
:1032D00021602B87652D822D0E94080C811103C06F
:1032E0008B8584608B879C85923030F06981822D3C
:1032F0000E94080C811186C026E1A216B10434F4A4
:103300006B81822D0E94080C811180C08FEFE81A1A
:10331000F80AD2CFF02E602F842D0E94080C811164
:1033200003C09B8598609B876F2D862D0E94080C9B
:10333000811103C02B8522602B8781E0891550F015
:103340009EE1C916D1046CF00F5F1F4F0A151B05D3
:103350000CF30EC06F2D8A810E94080C81115AC097
:10336000EFCF6F2D8C810E94080C811157C0ECCFDC
:103370002B8525FB112710F926FB002700F927FBD9
:10338000FF24F0F824FF4EC00E949B0D64E670E01D
:103390000E945C37449708F045C000E010E08D8142
:1033A0009E81081719070CF08FC040E0632D892D0E
:1033B000800F0E949E0B0F5F1F4FF1CF8B858F7E7A
:1033C0008B87B6CE9B859F779B87C5CE2B852F7D20
:1033D0002B87D2CE8B858F7B8B87DDCE9B859F7E87
:1033E0009F779B87E5CE2B852F7E2F7D2B87EDCE7C
:1033F0008B858F7B8F7D8B87F5CE9B859F7B9F7782
:103400009B87FDCE2B852F7E2B8776CF8B858F7B61
:103410008B877CCF9B859F779B8792CF2B852F7D3A
:103420002B8792CFFF2059F00E949B0D64E670E03D
:103430000E945C37449718F400E010E003C00023BA
:10344000D1F00EC08F81988508171907ECF56C85AF
:10345000600F40E0842D0E949E0B0F5F1F4FF2CF44
:103460000E949B0D64E670E00E945C37449718F45C
:1034700000E010E003C0112339F10EC08D819E8160
:10348000081719070CF540E0652D892D800F0E9463
:103490009E0B0F5F1F4FF2CF0E949B0D64E670E002
:1034A0000E945C37449780F400E010E08F8198859B
:1034B000081719074CF46C85600F40E0862D0E94B8
:1034C0009E0B0F5F1F4FF2CF781037C096E0971515
:1034D000A0F52C852F5F298393944DE0622F892DD1
:1034E0000E949E0B6A946A944DE06981862D0E9429
:1034F0009E0B5A945A944DE0652D862D0E949E0B8A
:103500004DE0652D892D2C960FB6F894DEBF0FBEC9
:10351000CDBFDF91CF911F910F91FF90EF90DF9082
:10352000CF90BF90AF909F908F907F906F905F9063
:103530004F903F902F900C949E0B2C960FB6F894C2
:10354000DEBF0FBECDBFDF91CF911F910F91FF90D6
:10355000EF90DF90CF90BF90AF909F908F907F9033
:103560006F905F904F903F902F9008950F931F930F
:10357000CF93DF93182F062FD0E06FEF600F0E94DC
:10358000190C882319F0D1E0C1E001C0C0E0602F20
:1035900081E0810F0E94190C882311F0D260CF5F67
:1035A00061E0600F812F0E94190C882311F0D46014
:1035B000CF5F602F8FEF810F0E94190C882311F0CD
:1035C000D860CF5F8D2F9C2FDF91CF911F910F91EE
:1035D0000895FC018485958597FD0BC09FB7F894ED
:1035E00082E08093E9008091F2009FBF90E0019615
:1035F00008959FB7F89482E08093E9008091F200EB
:103600009FBF90E008954091C9035091CA03209153
:10361000C7033091C80342175307B4F49091E800F0
:103620009570E1F39091E80092FD19C08093F1004C
:103630008091C9039091CA0301968F739927892BB2
:1036400019F48EEF8093E8008091C9039091CA032A
:1036500001969093CA038093C90381E0089580E0A6
:103660000895DF92EF92FF920F931F93CF93DF9312
:10367000D82E8A017B01E40EF51EEB01CE15DF0585
:1036800071F0D7FE03C0FE01849101C088810E94C1
:10369000031B21968111F2CF8FEF9FEF01C0C8016C
:1036A000DF91CF911F910F91FF90EF90DF900895E0
:1036B000615030F02091F100FC0120830196F8CF99
:1036C000289884E68093CE0308953FB7F8948091BC
:1036D000C3039091C403A091C503B091C60326B55E
:1036E000A89B05C02F3F19F00196A11DB11D3FBF3A
:1036F000BA2FA92F982F8827820F911DA11DB11DC8
:10370000BC01CD0142E0660F771F881F991F4A95C3
:10371000D1F708950F931F93CF93DF931F92CDB7E7
:10372000DEB78C01FC018485958597FF0EC0CE0124
:1037300001960E945024019719F4898190E002C0FB
:103740008FEF9FEFF80195878487F8018485958531
:103750000F90DF91CF911F910F9108950F931F93B9
:10376000CF93DF931F92CDB7DEB782E0898342E427
:1037700050E06CE47FE080E80E94311B0E949C24B2
:10378000DC0112960D911C9113970115110589F01A
:10379000D801ED91FC910280F381E02DBE016F5FB5
:1037A0007F4FC801099597FD04C0F8010085118578
:1037B000ECCF89810F90DF91CF911F910F910895E8
:1037C0001F920F920FB60F9211248F939F938091A7
:1037D000E1009091E100937F9093E10083FF0FC09F
:1037E0001092E90091E09093EB001092EC0092E3CC
:1037F0009093ED001092CF0398E09093F00082FF39
:1038000020C093E09093E9009091F200992319F081
:103810009AE39093E8009091CC03992339F090912A
:10382000CC0391509093CC03992389F19091CE03CE
:10383000992339F09091CE0391509093CE03992320
:1038400041F184FF10C08091E2008E7E8160809300
:10385000E2008091E1008F7E8093E1008091CD03B2
:103860008E7E806111C080FF16C08091E2008E7E46
:1038700080618093E2008091E1008E7E8093E10080
:103880008091CD038E7E81608093CD0304C05D9ACC
:10389000CDCF289AD6CF9F918F910F900FBE0F90CA
:1038A0001F9018951F920F920FB60F921124CF926E
:1038B000DF92EF92FF920F931F932F933F934F93BB
:1038C0005F936F937F938F939F93AF93BF93EF9388
:1038D000FF93CF93DF93CDB7DEB76C97DEBFCDBF3D
:1038E0001092E9008091E80083FFFBC168E0CE01FF
:1038F00045960E94581B82EF8093E8008D8987FFD0
:1039000005C09091E80090FFFCCF03C09EEF90931C
:10391000E800982F907609F0C6C09E894F89588D8F
:103920002F89F88C91110CC0803829F48091C10343
:103930008093F10002C01092F1001092F10045C195
:10394000913051F4811141C14130510509F03DC11F
:103950008091C1038D7F0BC0933061F4811135C11B
:103960004130510509F031C18091C10382608093DB
:10397000C1032BC1953049F48091E80080FFFCCF52
:10398000822F80688093E30020C1963009F05EC0EA
:103990000B8D1C8D22E01092E9001092CA03109248
:1039A000C903F21232C01092C8031092C7030E94DA
:1039B000AE1B99E0BE016F5F7F4FDB01E92F1D92C7
:1039C000EA95E9F79983FA8291E09E8390EA9887D5
:1039D0009AEF99872091C9033091CA03275F3F4F1F
:1039E0003C832B838D831092E9001092CA031092BE
:1039F000C9031093C8030093C70349E050E080E077
:103A00000E94311B0E94AE1BE0C01093C8030093BC
:103A1000C7030E949C24DC0112960D911C91139700
:103A20000115110509F4BBC0D801ED91FC9104808A
:103A3000F581E02DBE016B5E7F4FC80109950097AF
:103A400009F0C7C0F80100851185EACF973009F465
:103A500045C1983021F481E08093F100B6C09930DF
:103A600009F0B3C0837009F039C1E0E1F1E081E011
:103A700031E096E32081211109C08EE78093EA00AE
:103A80001092EA008F898093CF039FC08093E90052
:103A90003093EB0021912093EC009093ED008F5F29
:103AA000873041F7EACF8B8D9C8D1092E900109200
:103AB000CA031092C9039093C8038093C703898DEA
:103AC000811153C08E899D89913A49F4813209F060
:103AD00005C147E050E067E071E080E0BBC0913293
:103AE00009F0FCC0833269F48F89988DA0E0B0E0C2
:103AF0008093030190930401A0930501B093060104
:103B000064C0803269F48091E80082FFFCCF67E0F6
:103B100087E091E00E94581B8BEF8093E80055C02E
:103B2000823209F052C08F8980930E01EEEFFFE7D9
:103B3000859194918B3F9C4D19F0E0E0F8E002C034
:103B4000EEEFFAE08091070190910801A091090140
:103B5000B0910A01803B9440A105B10509F09EC0D7
:103B600080910E0180FF79C099C00E949C24FC01C5
:103B7000028113810115110509F4B0C0D801ED913E
:103B8000FC910190F081E02DBE016B5E7F4FC8017A
:103B9000099581111AC0F80100851185EBCFF1E07C
:103BA000FF1609F44EC0F3E0FF1298C08F898823F6
:103BB00009F44AC0823089F440E867E080EB9FE076
:103BC0000E948F36882309F489C08EEF8093E80025
:103BD00088C018161906CCF381C0813029F440E85A
:103BE0006BE084EA9FE0ECCF833009F077C00E945D
:103BF0009C24DC011296ED90FC9013978E010F5FD0
:103C00001F4F6801E114F10479F0D701ED91FC91A7
:103C10000680F781E02DB801C7010995080F111D35
:103C2000F701E084F184EECFD8011C92F6010190F7
:103C30000020E9F73197BF016C197D0940E0C6010A
:103C4000BFCF62E97FE002C06EE87FE0FB014491F4
:103C500050E080E80E94311BB8CFEE3F2AE0F20727
:103C600051F0808191818737A7E79A0721F09093DF
:103C7000FF0A8093FE0A87E797E79183808380910C
:103C800060008093CB039BE088E10FB6F894A89581
:103C9000809360000FBE9093600097CF80819181E8
:103CA0008737974709F091CFA89580916000886188
:103CB000809360008091CB0380936000EE3FBAE078
:103CC000FB0739F08091FE0A9091FF0A918380836F
:103CD0007CCF1092FF0A1092FE0A77CF81E2809388
:103CE000EB006C960FB6F894DEBF0FBECDBFDF9130
:103CF000CF91FF91EF91BF91AF919F918F917F9164
:103D00006F915F914F913F912F911F910F91FF9074
:103D1000EF90DF90CF900F900FBE0F901F901895EF
:103D20008F929F92AF92BF92CF92DF92EF92FF92CB
:103D30006B017C010E94651B4B015C01C114D10425
:103D4000E104F104F1F00E94651BDC01CB0188194C
:103D50009909AA09BB09883E9340A105B10570F3F2
:103D600021E0C21AD108E108F10888EE880E83E04C
:103D7000981EA11CB11CC114D104E104F10419F76F
:103D8000DDCFFF90EF90DF90CF90BF90AF909F90EE
:103D90008F9008951F920F920FB60F9211242F93B8
:103DA0003F938F939F93AF93BF938091BD03909167
:103DB000BE03A091BF03B091C0033091C20323E0C2
:103DC000230F2D3720F40196A11DB11D05C026E853
:103DD000230F0296A11DB11D2093C2038093BD0342
:103DE0009093BE03A093BF03B093C0038091C3031D
:103DF0009091C403A091C503B091C6030196A11D83
:103E0000B11D8093C3039093C403A093C503B093E3
:103E1000C603BF91AF919F918F913F912F910F90CA
:103E20000FBE0F901F9018952FB7F89483E08093E2
:103E3000E9009091E800892F807295FF04C090916D
:103E4000F20080E4891B2FBF0895CF93DF931F9268
:103E5000CDB7DEB76983DC01ED91FC910280F3817F
:103E6000E02D41E050E0BE016F5F7F4F09950F905C
:103E7000DF91CF91089583E08093E9008091F20073
:103E8000882319F08AE38093E80008950E94141FA4
:103E900090E008958F929F92AF92BF92CF92DF925F
:103EA000EF92FF920F931F93CF93DF936C017B01EF
:103EB0008A0180910E01882309F45CC08091CF03B0
:103EC000882309F457C08091CD0380FF05C08091FD
:103ED000E00082608093E000E801B12C8AEFA82E18
:103EE00093E0892E2AE3922E209711F4BB20D9F17A
:103EF0000E94141F81110AC0AA94AA20D9F161E07E
:103F000070E080E090E00E94901EEECF282F30E01D
:103F1000C217D3070CF48C2F9FB7F8948092E90056
:103F20002091E80025FF1DC0282F30E0C21BD30BD5
:103F3000F701815020F041914093F100FACFE20E59
:103F4000F31EBB2019F09092E8000AC08091E800AF
:103F500085FD07C09092E800BB24B394209709F038
:103F6000B12C9FBFC1CF5D9884E68093CC0310161F
:103F7000110644F081E090E0F6019383828380E0B3
:103F800090E001C0C801DF91CF911F910F91FF9088
:103F9000EF90DF90CF90BF90AF909F908F9008955B
:103FA0002F923F924F925F926F927F928F929F9249
:103FB000AF92BF92CF92DF92EF92FF920F931F9337
:103FC000CF93DF93CDB7DEB7A7970FB6F894DEBFD8
:103FD0000FBECDBF5A014901EE8EC8A29E012B5FD4
:103FE0003F4FAE01495F5F4F0E94C50F9E012F5F9B
:103FF0003F4FAE014D5F5F4FB401C5010E94C50F39
:104000002B813C8137FF0BC089819A8191958195E5
:104010009109880F991F281739070CF428C4EF81DC
:10402000F8858D819E811E161F063CF4AC01440F5D
:10403000551F4E175F070CF41AC469817A818032CC
:10404000910564F5603271050CF411C400E210E0D2
:104050007801E81AF90A5B01A81AB90AC70196950E
:10406000982F882797958795B5010E9470376D879F
:104070002E1B3F0B2E9DC0012F9D900D3E9D900D40
:104080001124B5010E947037E60FF71FF887EF8300
:104090001E830D8320E8288B00E030C0603271055C
:1040A00054F5A0E2EA2EF12C5701A61AB70A4C01EA
:1040B000861A970A40E8B5014603C001479F900D54
:1040C0001124B4010E9470376058688BE21BF30B17
:1040D000EA9DC001EB9D900DFA9D900D1124B40155
:1040E0000E947037260F371F3C832B83FA82E982A8
:1040F0001D861E8E03C070E8788B1D86AF81B88543
:10410000AD80BE808B809C80E980FA8021E430E025
:104110000E94923795010B2C000C440B550B0E940A
:104120000C37290180E4480E511C21E430E0D40111
:104130000E94923797010F2C000C440B550B0E94E4
:104140000C3719019FE3290E311C421453040CF063
:104150008EC3121413040CF08AC3A0E84A1651044B
:104160000CF085C320E830E2C901B5010E94703728
:104170007C876B87C901B7010E9470373B0157FEEE
:1041800030C00027112704191509E889AE2FB0E0C7
:10419000FD85AF1BB109410184189508092C000C5D
:1041A000AA08BB0898010E948A37A50194010E94C1
:1041B0000C373D85320F3D87D3016B857C85A61B6F
:1041C000B70B98010E948A37A50194010E940C3711
:1041D0008B859C85820F931F9C878B8700E0412CE9
:1041E000512CD101A419B509B88FAF8BCD01B7FD02
:1041F00001966C01D594C794EB85FC85E615F7050F
:1042000044F493012E1B3F0B3D8F2C8F31E03C8BF0
:1042100008C06B857C85661977097D8F6C8F7FEF71
:104220007C8B4B8E80E82816310414F4298A02C056
:104230009FE7998BD201AF5ABB4FBF87AE87F20180
:10424000EF52FC4FFB8BEA8B8B849C847201398983
:10425000232F30E03FA32EA36C89062E000C770B92
:104260007BA36AA3F7FC0DC0AE85BF858C9190E05F
:104270008815990534F4B8A1BB2309F4F3C221E0F1
:1042800005C0F8A1FF2309F4ABC020E0C70181708D
:104290009927B1E08B278170EA89FB89108122235D
:1042A00009F4A1C0002319F04E145F0451F0FE8DF3
:1042B000FF2319F02E143F0421F0811104C09FEF59
:1042C00003C090E001C095E5882D21E48216910499
:1042D0000CF080E4612F680F312F381B39875701AC
:1042E000BB2463170CF454C067FD52C030340CF08B
:1042F0004FC037FD02C0E32F01C0E0E0603414F48A
:10430000862F01C08FE34E2F4873950123523B4FF8
:10431000D90150E1459FA00DB11D1124482F4873CC
:1043200070E1479F200D311D1124E770F0E0E0544B
:10433000F04FA217B30779F424918770E82FF0E0CB
:10434000E854F04FE491E2232E2F20958C912823FE
:10435000E923E22B1CC0E4915E2F50954C9145233C
:10436000E923E42BEC93A058BF4F2A173B0711F029
:104370009C93F9CF8770E82FF0E0E854F04FE49178
:104380004E2F4095D9018C918423E923E82BEC939F
:1043900070E040E0C5010E94A016B9856B2F70E067
:1043A00040E0C5010E94A016EE85FF858081811145
:1043B00005C08091D0038F5F8093D003FFEF8F16ED
:1043C000910441F03CF0EFEFAE85BF85EC93F1E056
:1043D000F9871AC0AE85BF858C92B1E0B98714C049
:1043E000EA89FB891081EB8D8E2F90E08E159F0559
:1043F00019F4EF5FEB8F07C02EA13FA1E216F30681
:1044000014F4E98A56C019862E143F0409F451C0E9
:104410006C8D7D8DC61AD70A5401198E1D8A8AA10A
:104420009BA1880D991D470199249FEF980F910F2B
:104430009CA3181BD7FE29C0AAA1BBA1AA0EBB1E14
:10444000EF89F88DCE0EDF1EF985F11108C07D8948
:104450008C89780F7D8B998D981B998FEBCFD7FE28
:10446000F6CF21E2A216B10494F76CA13D89630F47
:1044700070E040E0C4010E94A016698D610F70E0F9
:1044800040E0C4010E94A016E2CF5FEFE51AF50AF2
:104490006E857F856F5F7F4F7F876E878A899B8957
:1044A00001969B8B8A8B90E8E916F10411F0450187
:1044B000D9CEAB8DB989AB1709F4D9C1EB85FC8591
:1044C00034970CF4D4C1F4E06F1671040CF4CFC12E
:1044D00028893D85231709F4CAC1E8ECFFE054910F
:1044E0005A8B49EC842E4FE0942E622F70E079A312
:1044F00068A3832F90E09A878987681B790B7BA339
:104500006AA3D301EB85FC85AE1BBF0BBDA3ACA397
:104510003989232F30E03FA32EA35A89552309F46C
:10452000A6C151505A8BF401F490319644913196C2
:104530002491F4E08F0E911CF4013197F4913D85A4
:10454000231758F358895F1540F3F316D8F4F21681
:10455000B1F1AF2DB0E009851A850A1B1B0B6F2F37
:1045600070E0641B7109069FC001079F900D169FA4
:10457000900D1124622F70E06A1B7B0B0E94703734
:10458000460FF32E68896217E8F42F15D1F030E05A
:1045900008A119A1021B130B642F70E06F1B710996
:1045A000069FC001079F900D169F900D11246F2D3F
:1045B00070E0621B730B0E947037F60F02C0FD841F
:1045C00001C028898F2D90E0A985BA858A1B9B0B95
:1045D0009695982F8827979587956AA17BA10E9429
:1045E0007037162F822F90E029853A85821B930B16
:1045F0009695982F8827979587956AA17BA10E9409
:104600007037562F212F30E0AF89B88D0E94923736
:10461000DC01CB0107E0B595A795979587950A959D
:10462000D1F75201A80EB91E252F30E0AF89B88D01
:104630000E949237DC01CB0127E0B595A7959795AD
:1046400087952A95D1F73201680E791E6A147B048A
:104650000CF463CF6CA17DA1169FC001179F900D34
:104660001124880F892F881F990BAB85BC858A0F71
:104670009B1F569F9001579F300D1124220F232F0F
:10468000221F330B2A0F3B1FF29F7001F39FF00C88
:10469000112466E0F594E7946A95E1F7E0E2F0E032
:1046A000E21BF30BEE0EFF1E489F8001499F100D89
:1046B000112476E0159507957A95E1F720E230E030
:1046C000281B390B020F131F17FF1AC0F7FC25CF49
:1046D000950126193709209FC001219F900D309F19
:1046E000900D1124B701601B710B0E947037A60E4C
:1046F000B71E00E010E030E4E316F1044CF420C0F3
:1047000050E4E516F104E4F0003411050CF005CF97
:104710004FE350E04E195F09950126193709429F72
:10472000C001439F900D529F900D1124B8016E1946
:104730007F090E947037660E771E9FE3E92EF12CE9
:104740006B8DC62ED12CAC14BD04C4F46A147B044A
:10475000B1F0A6014A195B099701201B310B429F5A
:10476000C001439F900D529F900D1124B3016A190F
:104770007B090E947037060F171F01C065011301E6
:104780002C183D08510137FE03C07FEFA71AB70A66
:10479000B594A7940E151F0544F4C701801B910B17
:1047A0009E8B8D8B91E0998B07C0D801AE19BF0904
:1047B000BE8BAD8BBFEFB98BF601EF52FC4FFA8F7A
:1047C000E98F2989022E000C330B3F8F2E8F6C143A
:1047D0007D040CF4A2CE6EA17FA16C157D050CF4B6
:1047E0009CCEA98DBA8DED91BA8FA98FEE879601D7
:1047F00033273D8F2C8F60EE600F6E0F70E040E02E
:10480000C9010E94A0166D897E89A61AB70A1C8A62
:104810008E8D9F8D800F911F80527E85780F7E87B1
:10482000B7FE1CC0AE8DBF8D0A0F1B1FA20CB31CA0
:10483000B7FE09C06E85BC896B0F70E040E08C8DBF
:104840009D8D0E94A0166C147D0429F08C89998995
:10485000890F8C8BE5CFE016F106C1F7EFEFCE1A8A
:10486000DE0AB5CFAA89BB891C9180E01BCDA79633
:104870000FB6F894DEBF0FBECDBFDF91CF911F9171
:104880000F91FF90EF90DF90CF90BF90AF909F90EF
:104890008F907F906F905F904F903F902F900895F2
:1048A0002091CF03211103C08FEF9FEF08955FB7D1
:1048B000F89422E02093E9002091F20030E01216F3
:1048C000130614F421E030E0422FFC0184E641504D
:1048D00038F028988093CE039091F1009193F7CF10
:1048E0002115310521F08091F200882319F05FBF76
:1048F000C90108958BE68093E800F9CFCF93DF9349
:104900001F92CDB7DEB7FC018485958597FD05C064
:104910002FEF3FEF358724870BC0CE0101960E9411
:104920005024019719F4898190E002C08FEF9FEF26
:104930000F90DF91CF9108958091D50481110DC022
:1049400082E08093D10484E08093D2041092D40456
:104950001092D30481E08093D50481ED94E0089512
:10496000CF93C82F8091B309863018F486E08093E6
:10497000B30988E08093B4098091B609C81738F06C
:1049800084E093E10E949D141092B60909C08AE563
:1049900092E10E949D148091B6098C1B8093B60908
:1049A000CF910895AF92BF92CF92DF92EF92FF9294
:1049B0000F931F93CF93DF930091A9091091AA0938
:1049C0008091AD090E9416132CE3AC01249FC00115
:1049D000259F900D112497FF02C081509F4F892F72
:1049E000990F990B080F191FE091AD09F0E0EE0F38
:1049F000FF1FE65AFF4E859194912CE3289FE0011A
:104A0000299FD00D1124D7FF02C0C150DF4FCD2FF9
:104A1000DD0FDD0B8091AB099091AC09C80FD91F58
:104A2000C80117FF02C081509F4FD92E7E01D7FFCA
:104A300003C05FEFE50EF11C6F2D8D2D0E94A50BBD
:104A40008A3061F08C3031F58DED9FE090939F09B5
:104A500080939E098AE580939D091CC04BE06F2DD1
:104A60008D2D0E949E0B41E0BE01C8010E94C5161B
:104A70008CE190E10E949D148CEF9FE090939F0940
:104A800080939E098AE580939D098091A5098F5F97
:104A90008093A5090091AB091091AC09580180E3FE
:104AA000A81AB108E090A909F090AA096701E0E30B
:104AB000CE1AD108B501C6010E94BB16C82F8111BC
:104AC00036C0F0E3EF0EF11CB501C7010E94BB1622
:104AD000C82F81112CC0005D1F4FB801C7010E9473
:104AE000BB16C82F811123C0B801C6010E94BB1696
:104AF000C82F81111CC00DED18E08DE9E82E89E06A
:104B0000F82EF80184818770843061F069EA79E0D9
:104B1000C8010E94B60D882329F0C1E0012B39F4A9
:104B2000C0E005C0085F1F4FE016F10651F78C2F5B
:104B3000DF91CF911F910F91FF90EF90DF90CF9079
:104B4000BF90AF900895CF92DF92EF92FF920F93B4
:104B50001F93CF93DF9300D000D01F92CDB7DEB765
:104B6000042F10E020E8629F000D111D1124035254
:104B70001B4F009791F44FEF60E3C8010F900F9027
:104B80000F900F900F90DF91CF911F910F91FF9099
:104B9000EF90DF90CF900C94530DFE0131966F0192
:104BA000E12CF12C2AE030E0B9010E945C37805DF5
:104BB0008193CB014FEFE41AF40A45E0E416F104C7
:104BC00011F0009789F7EC0CFD1CCE14DF0451F0B6
:104BD0004FEFF70162917F01C8010E94530D0C5FF6
:104BE0001F4FF3CF0F900F900F900F900F90DF910A
:104BF000CF911F910F91FF90EF90DF90CF9008958C
:104C000080E0EDEDF4E081118FEF0024819381933A
:104C1000819381930394D1F70895CF93DF939C01FF
:104C2000EB0150E2459FC001112464E670E00E9450
:104C30007037D90180E090E0FE01E80FF91FE491A0
:104C4000ED93019688309105B9F7685F88E096EC9E
:104C5000861731F0F901E80FF11D90838F5FF8CFCF
:104C60005EEF41E0460F862F90E0F901E80FF91F53
:104C7000683218F45083642FF4CF5EEF5083F9014B
:104C8000E40FF11D1082DF91CF910895CF93DF9350
:104C9000CDB7DEB760970FB6F894DEBF0FBECDBFBD
:104CA000789484B5826084BD84B5816084BD85B507
:104CB000826085BD85B5816085BD80916E00816013
:104CC00080936E00109281008091810082608093B9
:104CD00081008091810081608093810080918000BB
:104CE0008160809380008091910082608093910028
:104CF000809191008160809391008091900081600B
:104D0000809390008091C10084608093C100809165
:104D1000C10082608093C1008091C1008160809356
:104D2000C1008091C30081608093C3008091C00066
:104D300082608093C0008091C20081608093C20035
:104D400080917A00846080937A0080917A008260FA
:104D500080937A0080917A00816080937A008091BC
:104D60007A00806880937A001092CF031092C1037A
:104D70001092CD038091D70081608093D70080EAA4
:104D80008093D80089B5806189BD89B5826089BD6D
:104D900009B400FEFDCF61E070E080E090E00E9489
:104DA000901E8091D8008F7C80618093D800809184
:104DB000E000807F8093E0008091E1008E7E809310
:104DC000E1008DE08093E200559A209A81EC809377
:104DD0007C0085B1806F85B984B1877E84B984B148
:104DE000876E84B95E9A5F988AB1806D8AB9769A27
:104DF0006E9881B3806F81BB899880B38D7080BBC2
:104E000080E58CBD81E08DBD85E090E00E94931629
:104E10005F9A85E090E00E9493165E985C98E2ECC1
:104E2000F0E08FEC90E024912EBD00000DB407FE61
:104E3000FDCF31968E179F07B1F75C9A81E880937A
:104E40006400809165008160809365000E949816DF
:104E500087FF24C05C9885EA8EBD00000DB407FE74
:104E6000FDCF5C9A2E982F982D98809164008062D7
:104E70008093640081E083BF889513BEFCCF2D989A
:104E80000E9498168478843871F00E949816847174
:104E9000843129F188EC90E00E9493160E949816C4
:104EA00082FDEDCF38C02D9A88EC90E00E949316D9
:104EB0002F9882E090E00E94F6368F3F29F06FEF46
:104EC00082E090E00E94FE3684EF91E00E9493160B
:104ED0002F9A0E94981684788438D9F3D6CF2D9AC9
:104EE00088EC90E00E9493162E9882E090E00E9459
:104EF000F636882329F060E082E090E00E94FE36DA
:104F000084EF91E00E9493162E9A0E949816847165
:104F10008431D9F3BFCF2D9A81E28093C1091092D9
:104F20002102809199018170809399018091BE0145
:104F300081708093BE018091E30181708093E301D1
:104F400010920902109210021092170210921E0283
:104F5000EDEDF8E08481887F8460848338962DE9C4
:104F600039E02E173F07B1F72FB7F8948091BD03B2
:104F70009091BE03A091BF03B091C0032FBF809357
:104F80002B0290932C02A0932D02B0932E028FB788
:104F9000F8944091BD035091BE036091BF0370919E
:104FA000C0038FBF8091290290912A02840F951F20
:104FB00020912B0230912C02821B930B90932A029A
:104FC0008093290240932B0250932C0260932D0270
:104FD00070932E028FB7F8944091BD035091BE0399
:104FE0006091BF037091C0038FBF8091C209342FBD
:104FF000381B832F9091C309992331F03093C40952
:105000001092C3090C94B5339091C109391758F423
:105010008F5F891710F00C94B53341E043BF88953A
:1050200013BE0C94B53381E08093C3094093C20949
:105030008091BD099091BE0901969093BE0980931D
:10504000BD0958E1652E712C2091290230912A0268
:1050500080912302223231050CF4D4C690912402AF
:105060009F5F90932402813009F423C608F43AC666
:10507000823021F0833009F49AC6BAC680919D0926
:10508000882349F0815080939D09811104C01092BA
:105090009F0910929E090E942213E82E81709E2D76
:1050A0009270E4FE08C0982E9194992379F0992487
:1050B0009394981A0BC0811102C0F12C02C04AEFE0
:1050C000F42E992329F096E0F90E02C0F12C01C0CC
:1050D000912C8091B509882321F081508093B509E6
:1050E00052C0E5FE50C08091B709843108F44BC02E
:1050F00088E08093B50986E08093B3090091A909FF
:105100001091AA098091AD09805E0E94161397FD47
:1051100003969595879595958795080F191F40914A
:10512000AD09E0E2E40FF0E0EE0FFF1FE65AFF4E9C
:105130008591949197FD039695958795959587957B
:105140002091AB093091AC09820F931FE4E0F2E0AB
:1051500020E232E05581511109C02FEF26832583CB
:105160001183008393838283448304C037962E1770
:105170003F0781F78091B70984518093B7098BE984
:1051800097E00E949D148091B2098F1514F48F5FEF
:1051900003C0F8161CF481508093B2090091B20943
:1051A000902F95958091AD09890F8093AD09E2FA12
:1051B000882480F8E3FC8A94E0912602F09127028B
:1051C0003196F0932702E0932602802F880F080F74
:1051D000AEE09A9E000D1124802F811002C099200C
:1051E000B1F0EE0F9E2F990F990FE90FF0E0EE0F3F
:1051F000FF1FE65AFF4E2591349137FF02C0215818
:105200003F4F220F232F221F330B122F01C010E01C
:105210009091B309992379F091509093B3090E942A
:105220009B0D837099270197180F0E949B0D8F711A
:1052300099274097800F90919201981734F49A5FC4
:1052400090939201891754F407C089173CF4965043
:1052500090939201981714F4809392018091930196
:10526000811734F48D5F80939301181754F407C0AD
:1052700018173CF4835080939301811714F4109312
:1052800093018091AD090E9416136C018091AD09C4
:10529000E82FF0E0EE0FFF1FE65AFF4EA590B49006
:1052A000805C0E9416137C01E091AD09E05CF0E0A7
:1052B000EE0FFF1FE65AFF4E05911491E82D880C62
:1052C000FF0BAE9EC001AF9E900DBE9E900D1124AF
:1052D000B3010E9470378091B0099091B1099B0190
:1052E000280F391FA92C990CBB08CE9EC001CF9E58
:1052F000900DDE9E900D1124B3010E9470378091B5
:10530000AE099091AF09FB01E80FF91FEA9CC001BB
:10531000EB9C900DFA9C900D1124B3010E94703704
:10532000E60FF71FF093AF09E093AE090A9DC001A5
:105330000B9D900D1A9D900D1124B3010E947037A2
:105340008B01020F131F1093B1090093B00917FFCF
:1053500002C00D5F1F4F1595079515950795F7FD31
:1053600033967F01F594E794F594E7948091A90929
:105370009091AA098E0D9F1D9093AA098093A90967
:105380008091AB099091AC09800F911F9093AC096B
:105390008093AB090E94D224882381F18091AB09CC
:1053A0009091AC09801B910B9093AC098093AB0951
:1053B0000E94D224882311F18091A9099091AA0911
:1053C0008E199F099093AA098093A9098091AB092E
:1053D0009091AC09800F911F9093AC098093AB0919
:1053E0000E94D224882351F08091AB099091AC099E
:1053F000801B910B9093AC098093AB092091AE096F
:105400003091AF0947E0429FC001439F900D1124A6
:1054100097FD079623E0959587952A95E1F7909358
:10542000AF098093AE092091B0093091B10947E0EE
:10543000429FC001439F900D112497FD079603E002
:10544000959587950A95E1F79093B1098093B009F6
:105450008091B709843638F49091B509911103C051
:105460008F5F8093B7098091B409882319F0815028
:105470008093B4098091A9099091AA0997FF02C06D
:1054800081509F4FF92E0091AB091091AC0917FF85
:1054900002C001501F4FE12E612F8F2D0E94A50BDE
:1054A000863009F441C018F48530F9F06CC08730BB
:1054B00009F452C0883009F066C040E0612F8F2D9A
:1054C0000E949E0B8CE190E10E949D1489E198E07E
:1054D00090939F0980939E098AE580939D0980910E
:1054E000A7098F5F8093A7094EC08091B6098436C3
:1054F00008F049C08C3410F084E601C0875E8093C8
:10550000B60940E06E2D8F2D0E949E0B8CE190E13C
:105510000E949D1485E698E090939F0980939E09D0
:105520008AE580939D092FC040E0612F8F2D0E9456
:105530009E0B8CE190E10E949D148FE498E0909383
:105540009F0980939E098AE580939D098091A8090F
:105550008F5F8093A80917C040E0612F8F2D0E94B4
:105560009E0B8CE190E10E949D1481E398E0909362
:105570009F0980939E098AE580939D098091A609E1
:105580008F5F8093A609B4E0EB2EB2E0FB2E15E00E
:10559000212E312CF7018581882309F43EC18150E9
:1055A000858384810E94161397FD03962C015594E0
:1055B000479455944794D7011496EC91F0E0EE0F80
:1055C000FF1FE65AFF4E8590949097FE03C0B3E00C
:1055D0008B0E911C9594879495948794F701A080E5
:1055E000B180A40CB51CB182A082C280D380C80C4B
:1055F000D91CD382C28206810F3F39F0F8E00F9F99
:10560000800111240352174F02C009EA19E0B601C4
:10561000C5010E94BB16882309F449C0B7FE03C028
:105620002FEFA20EB11C1B2DD7FE03C03FEFC30E00
:10563000D11CAD2C6D2D8B2D0E94A50B893091F5C1
:1056400040E06D2D8B2D0E949E0BDA861986C98451
:10565000DA8440E8C40ED11C1C871B860B851C8590
:1056600000581F4F41E0B601C8010E94C5160E94B4
:105670009B0DB1010E945C378130910559F020F0FB
:10568000029769F446E007C0A601B80183E00E94D2
:105690008B0E05C045E06A2D8B2D0E949E0B81ED7F
:1056A00098E002C08FE798E00E949D14A6C059E0E0
:1056B000093A150709F070C00DED18E0D8011496ED
:1056C0008C911497E82FE770E430E9F02D913C912C
:1056D0001197A90140565109A416B506A4F0205A05
:1056E0003F4F2A153B057CF012962D913C91139764
:1056F000A90140565109C416D5062CF0205A3F4F37
:105700002C153D0544F4085F1F4FEDE9F9E0E01763
:10571000F107A1F682C00115110509F47EC0D80178
:1057200015969C9115979B30B8F4F0E0E056F64F33
:1057300091819F5F9183887F846014968C9381ED23
:1057400098E00E949D14F8016281738141E080819C
:1057500091810E94C51651C09A50D80115969C930C
:105760008FE798E00E949D14F8018481877C88610E
:10577000D82E8483C8010E947C0E0696FC01849179
:105780008295880F880F807C9D2D9F73D92ED82AF3
:10579000D8011496DC9231C08091A9099091AA0990
:1057A0009C0120563109A216B306BCF1805A9F4FC6
:1057B0008A159B0594F18091AB099091AC099C01ED
:1057C00020563109C216D30644F1805A9F4F8C15DA
:1057D0009D051CF1C8010E947C0E009771F0FC0130
:1057E000349684910E94B0248091B609811105C03D
:1057F000F801848187708093A009D70112966D917A
:105800007C911397681979098D919C9140E08419D6
:1058100095090E94C516F7011582F7E0EF0EF11CFD
:1058200020E232E02E153F0509F0B4CEA5E9B1E043
:1058300090E81FE714968C9114978695AD014B5D07
:105840005F4F8823E1F1FD0135964E175F0789F11F
:105850008081803861F123812D5F23833281682F1D
:10586000082E000C770B630F711D37FD7A95615878
:105870007F4F6F3F710560F46181022E000C330B86
:10588000260F311D67FD3A9521386FEF360714F466
:1058900090830DC0203831051CF0128213821183D1
:1058A0002281820F808321818381820F81833496BC
:1058B000CCCF14968C911497825014968C93DA0165
:1058C0004450524009F0B6CF0DED18E0D8011496BF
:1058D0008C911497982F9770943009F4B9C1982F30
:1058E000929596959695937069F0209124022F7069
:1058F00009F0AEC19D5F9295990F990F907C8F73BF
:10590000892BA4C1982F969596959695977091306E
:1059100041F150F0923009F494C1933009F098C1EC
:10592000877C8860D80192C12091AB093091AC0985
:105930004091A9095091AA09F8016281738180817F
:1059400091810E94210C882309F482C189E09AE0A8
:105950000E949D14D80114968C911497877C8860BE
:1059600075C1F801F780E6806F2D8E2D0E94190C0D
:10597000811130C12E2D30E03E832D83522E4424E0
:1059800030E8430E511C4F2D50E058874F83342E82
:10599000222450E8250E311CC8010E947C0E03967B
:1059A000FC01849190E0EE24FF24E81AF90AD80162
:1059B000AD90BC9092012A193B092E153F0534F099
:1059C0004C01281739071CF4490101C04701F801AF
:1059D000C280D38091012C193D092E153F052CF072
:1059E0007C01281739070CF47901A80CB91CD801DF
:1059F0001196BC92AE92CE0CDF1C1396DC92CE9226
:105A0000129769EA79E0C8010E94B60D882309F46B
:105A10003EC0C8010E947C0EFC013796E491E11162
:105A200028C0FC01349684910E94B0248091B6096C
:105A3000811105C0F801848187708093A009D80185
:105A400014968C911497877C8061D82E14968C9331
:105A5000C8010E947C0E0596FC0184918295880FF6
:105A6000880F807C9D2D9F73D92ED82AD80114963B
:105A7000DC92F80180819181881999099183808352
:105A8000828193818E199F0993838283A3C04A14D4
:105A90005B0409F09FC02C143D0409F09BC0E0900A
:105AA000A909F090AA09F7FE03C0FFEFEF0EF11C61
:105AB000EF2CFF0CFF082D813E81E21AF30A1E1421
:105AC0001F041CF4EE24E394F12CF7FE03C0EE2433
:105AD000EA94FE2CBE2CC090AB09D090AC09D7FE46
:105AE00003C03FEFC30ED11CCD2CDD0CDD084F8170
:105AF0005885C41AD50A1C141D041CF4CC24C39464
:105B0000D12CD7FE03C0CC24CA94DC2CAC2C0E9430
:105B10009B0D982EC8010E947C0E0796FC01849173
:105B2000882331F0C8010E94170E833008F427C67D
:105B3000B11009C0FFE3F91588F4B92CB094BB1C6F
:105B4000BB24BB1C10C0A1100EC02FE3291548F4C4
:105B5000A92CA094AA1CAA24AA1C05C0BB24BA94F0
:105B600002C0AA24AA94D80117964C9117974A0DFF
:105B700016966C916B0DC8010E94380E81112AC0D7
:105B8000F80166816B0D4781C8010E94380E8111B2
:105B900021C0D80117964C9117974A0D16966C9113
:105BA000C8010E94380E811115C0F80147814A0DC5
:105BB00066816B19C8010E94380E81110BC0D80193
:105BC00017964C9117974A1916966C916B0DC80150
:105BD0000E94380EC8010E94170E882341F0682FDA
:105BE00070E080E190E00E947037F62E02C0E0E1A4
:105BF000FE2EC8010E947C0E0796FC01849188232A
:105C000039F10E949B0D99276F2D70E08617970739
:105C1000F8F4E090AB09F090AC09C090A909D090DD
:105C2000AA09D8011296AD90BC9013978D909C90C4
:105C30009701A601B501C4010E94210C882341F0FF
:105C4000A3C5877C8860F801848302C014968C9376
:105C5000085F1F4FEDE9F9E0E017F10709F036CED4
:105C60008091AB099091AC0997FF02C081509F4F82
:105C7000692F8091A9099091AA0997FF02C08150CC
:105C80009F4F892F0E94A50B843061F48091000101
:105C90008A3011F484E004C08F5F8093000181E0BA
:105CA0000E94480D8091B6098111A2C084E00C9435
:105CB0008C3680912102909122028E31910528F438
:105CC000019690932202809321028091210290916B
:105CD00022024E9709F08CC00E942213882309F4F7
:105CE000B1C586C00E949B0D0E94221383FF06C08F
:105CF0008091280283FD02C00C945D360E9422131D
:105D000082FF06C08091280282FD02C00C94663694
:105D10000E942213807309F445C080912802807389
:105D200009F040C08091210281110C946F36B1E0DE
:105D3000B093000184E08093A0091092A50910920D
:105D4000A8091092A6091092A7091092A109109211
:105D5000A2091092A3091092A40980E891E09093FF
:105D6000AA098093A9099093AC098093AB0980E2BA
:105D70008093AD0984E68093B7091092B40910921C
:105D8000B3091092B5091092AF091092AE091092A2
:105D9000B1091092B0091092B2098093B60981E05E
:105DA0000E94480D0E9422138093280221C08091F6
:105DB0002102909122028E31910528F40196909350
:105DC00022028093210280912102909122024E971B
:105DD00009F096C70E942213807309F491C780913D
:105DE0002102909122020196909322028093210237
:105DF0008091290290912A02819790932A028093A0
:105E0000290222C9823009F46DC0A0F48823C9F0A8
:105E1000813009F09BC40E94002621E04EE163E03E
:105E20008EE891E00E94730D809100014AE563E0E5
:105E300090E049C4833009F415C3843009F446C4A2
:105E400085C40E94002621E042E162E086E791E0FD
:105E50000E94730D21E040E267E085E691E00E9438
:105E6000730D21E048E164E08FE591E00E94730D3D
:105E700021E048E165E088E591E00E94730D8091A2
:105E8000200221E044E365E0882319F085E591E0F4
:105E900002C081E591E00E94730D609121026C5F68
:105EA00021E040E18FE491E00E94730D8091240293
:105EB00082FF05C03FE0C32E31E0D32E04C02FEC9B
:105EC000C22E20E0D22EE12C0FEF29E04AE060E064
:105ED000C6010E94570F29E04AE06EE6C6010E9403
:105EE000570F34C4E090A909F090AA09F0928401F8
:105EF000E0928301C090AB09D090AC09D0928601AA
:105F0000C09285011091AD091093870180912502FF
:105F10008F5F80932502EDEDF4E081E825E59AEAB4
:105F2000815039F4EDEDF6E081E835E59FEF2AEA9E
:105F300006C020831182928313823496F1CF815060
:105F400031F030839183228393833496F8CF10927B
:105F5000D003109282018091920100919301005E22
:105F6000E1E5F4E0A1EDB3E091EDA92E94E0B92EC6
:105F700021E48202B001112420E030E0082E000C60
:105F8000990B281B390BAE16BF0641F01192AB01DD
:105F9000420F531F402F450F4D93F3CFC701F7FE1C
:105FA00002C081509F4F90939001C601D7FE02C05E
:105FB00081509F4F90939101012F0195802F0E9456
:105FC00016134C019093890180938801E02FF0E033
:105FD000EE0FFF1FE65AFF4EA590B490B0928B01D2
:105FE000A0928A0100E2011B802F0E941613909359
:105FF0008D0180938C01E02FF0E0EE0FFF1FE65A39
:10600000FF4E8591949190938F0180938E01812F03
:106010000E941613E12FF0E0EE0FFF1FE65AFF4E2D
:106020002591349147E0489FB001499F700D11249C
:106030006E0D7F1D429FC001439F900D11248C0D5A
:106040009D1D18EF190F08EF070F07FD00E017FD62
:1060500010E001310CF000E119300CF018E01814D8
:10606000190434F470E1D72ED00EFF24F39406C047
:10607000DD24DA94D00E015FFF24FA94B7FE06C047
:1060800060E1E62EE10ECC24C39406C0EE24EA942F
:10609000E10E115FCC24CA9497FE03C091948194C1
:1060A0009108B7FE03C0B194A194B1088A149B046F
:1060B000A4F4E11611F0B02E05C05DEDC52E58E038
:1060C000D52E16C0DB1431F0612F8B2D0E940211EA
:1060D000BF0CF8CF1C0DEDCF0F0DD01671F3B12E04
:1060E000EB14D1F36B2D802F0E940211BC0CF8CF62
:1060F000D60114968C91982F9770943091F1982F27
:106100009695969596959770933029F4209125024F
:106110002170E22E01C0E12C8770823011F09130A5
:1061200041F48091240283FD04C040E2A42EB12CEE
:1061300002C0A12CB12CC6010E947C0EFC01399634
:10614000049131972491FC0185919491F60142814B
:10615000538160817181AA0CBB1C8A0D9B1D0E941A
:106160008310F8E0CF0ED11C2DE939E02C153D0548
:1061700009F0BECF04E0C02E02E0D02E80E2A82EAF
:1061800082E0B82ED60115968C9115978823A9F038
:1061900012964D915C9113976D917C911197169683
:1061A0008C918F3F19F48DED91E002C08DE991E063
:1061B000E12C02E020E20E948310B7E0CB0ED11C5C
:1061C000AC14BD04F9F605E911E0F8018481869567
:1061D000E9F0628173819E012F5F3F4FAE014D5FF9
:1061E0005F4F808191810E942510882379F08981F9
:1061F0000E94B50EFC01892B49F082818160828367
:106200008B81838389818683118300830B5D1F4F7C
:10621000F2E004301F07C9F6712C17E0612E80915F
:106220008201781608F097C0679CC0011124FC0118
:10623000E25DFE4F228120FD10C0DC01A05DBE4F5B
:10624000EC90E1FAEE24E0F8068125814481638137
:10625000808191810E94570F7CC08681282E312C2D
:10626000A3800A2C000CBB080190F081E02D910165
:10627000220F331F3E832D83C501B7FE02C080E08D
:1062800090E0DC01AF52BC4F8C91548050FA552401
:1062900050F8AF014B5D5F4F58874F837F0155E04A
:1062A000E50EF11C682F880F770B788B6F878F8135
:1062B00098858E159F0509F44CC0D7012C91203884
:1062C00009F443C04D815E8124036001259FD00CF9
:1062D0001124CD2CDD0CDD08CA0CDB1C11962C9191
:1062E00024038001259F100D1124012F110F110B84
:1062F0006F857889060F171F7FE7C716D10428F529
:106300000F33110510F5F601EF5AFB4F808190E035
:1063100028163906D4F0452DB801C6010E94A016F2
:10632000882483948C0C912C452DB801C4010E94C3
:10633000A0160F5F10E0452DB801C4010E94A01601
:10634000452DB801C6010E94A01684E0E80EF11C9C
:10635000AECF739464CF8091920187FD8D5F859558
:106360008595082E000C990BAC014A5A5F4F20917D
:106370009301022E000C330B6BE270E0621B730B77
:10638000E091B509EE23E9F08BEAE89FE12D1124B5
:10639000E6958E2F90E0EFEFF2E00491E0E0F3E07D
:1063A000E490681B790B61507109DA01A81BB90BE5
:1063B000CD01E3E0CE2E20E030E041E053E0019754
:1063C00012C0EDE1F2E00491EEE1F2E0E4906DE262
:1063D00070E0621B730B53E0C52E20E030E04FE10C
:1063E00052E0885A9F4F0E94B0144091B60969EE5E
:1063F00073E08DE598E00E940D264091B70961EEAB
:1064000073E08DED97E00E940D268091B409811113
:106410000DC080919E0990919F09009709F496C143
:1064200020E040E060E00E94730D90C1EEEDF4E0EA
:10643000AEE5B8E080818E7F81938C918F778D93CC
:1064400025E0EC35F207B1F7EDEDF4E01082DF0165
:10645000A158BF4F1C92E058FF4F38E0ED3DF307C5
:10646000A9F7D7CF0E94002621E04EE260E081E943
:1064700097E00E94730D8091A009823011F178F4A9
:106480008823C9F08130B1F521E048E061E08CE576
:1064900097E00E94730D8091000140E727C0833090
:1064A000D9F0843039F521E04CE061E086E797E0EF
:1064B0000E94730D1FC021E044E061E080E497E09A
:1064C00010C021E04AE061E087E297E00E94730D8E
:1064D000809100014EE60AC021E044E061E08BE0DB
:1064E00097E00E94730D8091000144E761E090E025
:1064F0000E94A32521E044E162E085E097E00E944C
:10650000730DE12C0FEF29E045E160E085EC96E0AA
:106510000E94570F8091A50942E164E090E00E943B
:10652000A32529E046E260E085E896E00E94570F47
:106530008091A60942E166E090E00E94A32529E04F
:1065400045E16EE185E496E00E94570F8091A7092E
:1065500040E364E090E00E94A32529E046E26EE17A
:1065600085E096E00E94570F8091A80940E366E01D
:1065700090E00E94A3258091240283FD03C000E2E5
:1065800010E002C000E010E021E044E562E08EEFA0
:1065900095E00E94730D6801CC0CDD1CE12C0FEF1F
:1065A00029E045E162E4C60182589A4F0E94570FE4
:1065B0008091A10944E564E090E00E94A32529E0D0
:1065C00046E262E4C60182509B4F0E94570F8091C1
:1065D000A20944E566E090E00E94A325EE24E3943E
:1065E00029E045E160E6C60182589B4F0E94570FA3
:1065F0008091A30942E764E090E00E94A325E12C8A
:1066000029E046E260E6C60182509C4F0E94570F87
:106610008091A40942E766E090E00E94A3252091C2
:10662000000130E02150310944E1429FC001439F05
:10663000900D11242091A009243011F48C509E4F0C
:10664000E091A5090091A6097091A7096091A80998
:106650005091A1094091A2093091A3092091A40968
:10666000AAE00A9F80011124BFE0EB9F000D111DDD
:106670001124E8E07E9F000D111D1124F4E06F9FAE
:10668000000D111D11246AE0569F000D111D1124EB
:106690007AE0479F000D111D1124A5E03A9F000DDF
:1066A000111D1124B4E02B9F000D111D1124080FA2
:1066B000191F21E044E167E081EF93E00E94730D30
:1066C00048E467E0C8010E94A32540C080912102F0
:1066D00090912202892B31F481E090E09093220284
:1066E000809321020FEF10E02091210230912202CD
:1066F000C90196958795909322028093210220FFED
:1067000008C0EEE68E27EFE19E2790932202809349
:1067100021028091210290912202BC01660F672F15
:10672000661F770B719577278F7740E090E00E9486
:10673000A0168091210290912202019721F483E01A
:106740000E94480D03C00150110971F6EDEDF4E00F
:1067500020E080E098E000800EBC2111012C019720
:1067600080FDFDCF0192B9F70DB480E090E0892B58
:1067700011F40C94C7270E9400000C94C727BE2C6C
:10678000B194AC2CA194D4C9C818D908D7FE03C0C1
:10679000FFEFCF0ED11C2D2DEA18FB08F7FE03C02A
:1067A0003FEFE30EF11C8F2D211109C087FF02C0BE
:1067B00060EC26C0882309F44BCA60E421C0811133
:1067C00006C027FF02C060E81BC060E019C02813A4
:1067D00006C0121614F460E213C060EA11C09927D3
:1067E00081950CF49095422F022E000C550B481702
:1067F000590709F02DCA121614F460EE01C060E6C4
:10680000C8010E94DB0D882309F422CA8FEA99E0AF
:106810000E949D14F8018481877C8061F82E848316
:10682000C8010E947C0E0596FC0184918295880F18
:10683000880F807C9F2D9F73F92EF82AD80114961B
:10684000FC9206CA80919901817080939901809190
:10685000BE0181708093BE018091E30181708093BD
:10686000E301109209021092100210921702109286
:106870001E02EDEDF8E08481887F84608483389681
:106880002DE939E02E173F07B1F700E010E0E12CC9
:10689000F12C4DE0602F8E2D0E949E0B4FEFE41ADD
:1068A000F40A50E2E516F10461F00115110589F3CF
:1068B0003FE1E316F10469F30731110551F340E0BC
:1068C000E9CF0F5F1F4F0831110509F7E12C00E0F8
:1068D00026E14EE161E081E00E943417C12CD12C09
:1068E00010E0FF24F394E12C00E0B12C90E0B0160E
:1068F000B9F091111CC0A12C9B2C9F0C6E2D6A0D20
:10690000892D0E94A50BA394A01621F08823B1F332
:1069100091E004C091E0811101C090E0B394E7CF11
:10692000911105C0101718F4102FDE2CCF2C0F5F1B
:10693000083111F09923C9F2E39467E1E612D4CF4C
:10694000F3947FE1F712CFCF173098F102E0E12EF8
:10695000F12C82E0E81AF10852E0552E5D0C62E05D
:10696000862E8C0C8D2D810F7DEFB72EB80E1C0D51
:106970001350802F90E08E159F050CF0AFCF902E16
:106980009C0C4DE0652D892D0E949E0BA02EAD0C18
:106990004DE06A2D882D0E949E0B4DE06B2D892DB8
:1069A0000E949E0B4DE06A2D812F0E949E0B0F5F6F
:1069B000E0CF40E4E42E1FEF0E949B0D082F0F71E3
:1069C0000E949B0DB3010E945C37F82E682F802F28
:1069D0000E94A50B81110EC06F2D802F0E94B61A48
:1069E000913041F442E06F2D802F0E94BC0B843027
:1069F00008F042C1115011F0E110DECF1FEF38E175
:106A0000E32E0E949B0D082F0F710E949B0DB30176
:106A10000E945C37F82E682F802F0E94A50B8111F1
:106A20001BC0FE861D866D857E8560587F4F802F3A
:106A300090E0982F882720E831E040E851E0805826
:106A40009F4F0E94210C811107C06F2D802F0E9443
:106A5000B61A992309F418C1115011F0E110D1CFE1
:106A60001FEF0FEF0E949B0D8F71F82E0E949B0D60
:106A7000B3010E945C37E82E682F8F2D0E94A50B72
:106A8000811132C06E2D8F2D0E94B61A81FB4427D2
:106A900040F982FB332730F983FB222720F992301B
:106AA00019F5982F917080FF03C0442331F00EC078
:106AB000442319F0332331F009C0332319F0222382
:106AC00099F004C0222381F0992371F049E06E2DE2
:106AD0008F2D0E94BC0B843038F049E06E2D8F2D35
:106AE0000E949E0B01501FEF115011F00111BACFFF
:106AF00043E061E081E00E94840B44E065E18DE1C8
:106B00000E94840B80910001813029F44CE062E006
:106B100082E00E94840BA8E0AA2E0FEF1FEFB5E0E1
:106B2000EB2EF12C0E949B0D8F71D82E0E949B0D95
:106B3000B3010E945C37C82E0E949B0DB7010E94D2
:106B40005C378230910561F018F4019791F005C02F
:106B50008330910541F0049749F0F5E0BF2E0BC05A
:106B6000EAE0BE2E08C077E0B72E05C068E0B62E7A
:106B700002C056E0B52E6C2D8D2D0E94A50B811103
:106B80001CC06C2D8D2D0E94B61A9130B1F44B2D86
:106B90006C2D8D2D0E94BC0B843078F043E06C2D61
:106BA0008D2D0E94BC0B873040F044E06C2D8D2D64
:106BB0000E94BC0B873008F077C00150110911F01A
:106BC000A110B0CF00E810E0F12CE12C6F2D8E2D3C
:106BD0000E94A50B813091F40E949B0D6E2D70E0F8
:106BE000762F662760587F4FA80183700E948B0E16
:106BF00040E06F2D8E2D0E949E0B04C0E39490E226
:106C0000E912E4CFF3941395A8E1FA12DECF80E8FD
:106C100091E09093AA098093A9099093AC0980937D
:106C2000AB0980E28093AD0984E68093B7091092A6
:106C3000B4091092B3091092B5091092AF091092DD
:106C4000AE091092B1091092B0091092B2092FB793
:106C5000F8948091BD039091BE03A091BF03B091C1
:106C6000C0032FBF80932B0290932C02A0932D0280
:106C7000B0932E0282E050C042E06F2D802F0E9420
:106C80009E0BEA941FEFB6CE41E06F2D802F0E943D
:106C9000BC0B843008F4E0CE41E06F2D802F0E94C1
:106CA0009E0BEA941FEFD8CE4B2D6C2D8D2D0E949C
:106CB0009E0BAA940FEF10E080CF81E0909121020B
:106CC000911180E0809321020C947E2E81E09091BE
:106CD0002102911180E0809321020C94882E813052
:106CE00009F060C890912002911105C03E9A3F9A28
:106CF0008093200257C8109220023E983F9852C8B5
:106D000080912102909122024F9709F071C80E9450
:106D1000221381116DC880E00E94480D69C8DF927E
:106D2000EF92FF920F931F93CF93DF93D82EF92EFC
:106D3000E42E062F10E0C8010196880F0E94031B65
:106D400083E00E94031BCD2DDF2D0C0F1D1FC017EC
:106D5000D10789F0E7FE03C0FE01849101C088815C
:106D60000E94031BF82E80E00E94031B8F212196B6
:106D70008111EDCF01C081E0DF91CF911F910F9183
:106D8000FF90EF90DF900895E5ECF9E01382128216
:106D900088EE93E0A0E0B0E084839583A683B78378
:106DA0008AE191E0918380838FEF9FEF95878487BD
:106DB000EAEBF9E08CE291E0918380831582168200
:106DC00080E1878314821382118683E394E1909398
:106DD000B9098093B80980E090E89093220A8093E3
:106DE000210A46983E9A47983F9A0895F999FECF0E
:106DF00092BD81BDF89A992780B50895262FF999FB
:106E0000FECF1FBA92BD81BD20BD0FB6F894FA9A8D
:106E1000F99A0FBE01960895052E97FB1EF4009473
:106E20000E94233757FD07D00E942B3707FC03D061
:106E30004EF40C94233750954095309521953F4F53
:106E40004F4F5F4F089590958095709561957F4F56
:106E50008F4F9F4F0895A1E21A2EAA1BBB1BFD0165
:106E60000DC0AA1FBB1FEE1FFF1FA217B307E40729
:106E7000F50720F0A21BB30BE40BF50B661F771F81
:106E8000881F991F1A9469F7609570958095909561
:106E90009B01AC01BD01CF010895A29FB001B39F3A
:106EA000C001A39F700D811D1124911DB29F700D13
:106EB000811D1124911D0895AA1BBB1B51E107C020
:106EC000AA1FBB1FA617B70710F0A61BB70B881F7A
:106ED000991F5A95A9F780959095BC01CD01089509
:106EE00097FB072E16F4009407D077FD09D00E9477
:106EF0005C3707FC05D03EF4909581959F4F08952F
:106F0000709561957F4F0895EE0FFF1F0590F491E6
:106F1000E02D09940E944D37332312F48A1B9B0BFA
:106F20000C9494370E944D37B7FF0895821B930B42
:106F3000089581E090E0F8940C949E37F894FFCF88
:106F4000010100FFFFFFFF00E10000000000000062
:106F5000C1808100000000000000251F4A1F461F5D
:0E6F60003B1FE91A7E248A1B00000000361435
:00000001FF