:100000000C944A080C9472080C9472080C947208B0
:100010000C9472080C9472080C9472080C94720878
:100020000C9472080C9472080C94CA170C943C1827
:100030000C9472080C9472080C9472080C94720858
:100040000C9472080C9445130C9472080C9472086A
:100050000C9472080C9472080C9472080C9421236E
:100060000C9472080C9472080C9472080C94720828
:100070000C9472080C9472080C9472080C94720818
:100080000C9456140C9472080C9472080C94720818
:100090000C9472080C9472080C9472080C947208F8
:1000A0000C9472080C9472080C947208DD1AE01A11
:1000B000CF1AD31AD71A011B011B011BE41AE81A25
:1000C000EC1AF21AF61A011BFC1A781B7D1B821B14
:1000D0008C1B961BE01BE01BE01BA01BAA1BB41B88
:1000E000BE1BCB1BE01BD31B05A84CCDB2D44EB915
:1000F0003836A9020C50B9918688083CA6AAAA2ACB
:10010000BE000000803F00000000003E5B4F5B3EF1
:100110003E6B4F6B3E1C3E7C3E1C183C7E3C181CCC
:10012000577D571C1C5E7F5E1C00183C1800FFE7C3
:10013000C3E7FF0018241800FFE7DBE7FF30483A69
:10014000060E2629792926407F050507407F0525CB
:100150003F5A3CE73C5A7F3E1C1C08081C1C3E7F53
:1001600014227F22145F5F005F5F06097F017F001A
:100170006689956A606060606094A2FFA29408043A
:100180007E040810207E201008082A1C08081C2A5B
:1001900008081E101010100C1E0C1E0C30383E38B3
:1001A00030060E3E0E06000000000000005F00005A
:1001B0000007000700147F147F14242A7F2A1223CB
:1001C0001308646236495620500008070300001CDB
:1001D0002241000041221C002A1C7F1C2A08083EE4
:1001E00008080080703000080808080800006060F7
:1001F0000020100804023E5149453E00427F400065
:1002000072494949462141494D331814127F10273C
:10021000454545393C4A494931412111090736498B
:10022000494936464949291E00001400000040345F
:100230000000000814224114141414140041221464
:100240000802015909063E415D594E7C1211127C8B
:100250007F494949363E414141227F4141413E7FEC
:10026000494949417F090909013E414151737F08CC
:1002700008087F00417F41002040413F017F081472
:1002800022417F404040407F021C027F7F040810D3
:100290007F3E4141413E7F090909063E4151215EB1
:1002A0007F09192946264949493203017F01033F45
:1002B0004040403F1F2040201F3F4038403F6314D4
:1002C00008146303047804036159494D43007F41D6
:1002D00041410204081020004141417F0402010213
:1002E0000440404040400003070800205454784038
:1002F0007F284444383844444428384444287F38CC
:100300005454541800087E090218A4A49C787F084D
:1003100004047800447D40002040403D007F1028C8
:10032000440000417F40007C047804787C08040489
:10033000783844444438FC1824241818242418FC21
:100340007C08040408485454542404043F44243CC6
:100350004040207C1C2040201C3C4030403C442835
:100360001028444C9090907C4464544C44000836CF
:10037000410000007700000041360800020102043D
:10038000023C2623263C1EA1A161123A4040207A5D
:1003900038545455592155557941215454784121A7
:1003A0005554784020545579400C1E5272123955DC
:1003B00055555939545454593955545458000045D9
:1003C0007C410002457D420001457C40F029242902
:1003D000F0F0282528F07C545545002054547C54D6
:1003E0007C0A097F49324949493232484848323209
:1003F0004A4848303A4141217A3A42402078009DAB
:10040000A0A07D39444444393D4040403D3C24FF58
:100410002424487E4943662B2FFC2F2BFF0929F605
:1004200020C0887E090320545479410000447D4156
:100430003048484A32384040227A007A0A0A727DAF
:100440000D19317D2629292F2826292929263048CA
:100450004D4020380808080808080808382F10C838
:10046000ACBA2F102834FA00007B000008142A14BC
:100470002222142A14089500220095AA005500AAE9
:10048000AA55AA55AA000000FF00101010FF001482
:100490001414FF001010FF00FF1010F010F01414DF
:1004A00014FC001414F700FF0000FF00FF1414F404
:1004B00004FC141417101F10101F101F1414141F05
:1004C00000101010F0000000001F101010101F107E
:1004D000101010F010000000FF101010101010107D
:1004E0001010FF10000000FF140000FF00FF0000CC
:1004F0001F10170000FC04F414141710171414F440
:1005000004F40000FF00F714141414141414F7007A
:10051000F7141414171410101F101F141414F414CB
:100520001010F010F000001F101F0000001F14003A
:100530000000FC140000F010F01010FF10FF141465
:1005400014FF141010101F00000000F010FFFFFF38
:10055000FFFFF0F0F0F0F0FFFFFF0000000000FFF1
:10056000FF0F0F0F0F0F38444438447C2A2A3E14E3
:100570007E02020606027E027E026355494163380E
:1005800044443C04407E201E2006027E020299A5BF
:10059000E7A5991C2A492A1C4C7201724C304A4D1D
:1005A0004D303048784830BC625A463D3E49494952
:1005B000007E0101017E2A2A2A2A2A44445F4444FB
:1005C00040514A444040444A51400000FF0103E08A
:1005D00080FF000008086B6B083612362436060FC1
:1005E000090F06000018180000001010003040FF2E
:1005F0000101001F01011E00191D1712003C3C3CA7
:100600003C000000000006011501260137014A01E7
:100610005D01720188019F01B801D201EE010B0258
:100620002A024B026E029302BA02E40210033F0355
:100630007003A403DC03170455049704DD042705A5
:100640007505C80520067D06E0064907B8072D0890
:10065000A9082D09B9094D0AEA0A900B400CFA0CB9
:10066000C00D910E6F0F5A1053115B1272139A1432
:10067000D41520178018F519801B231DDE1EB42009
:10068000A622B524E4263429A72B402E0031EA33D4
:100690000037453ABC3D68414C456B49C84D6852EE
:1006A0004F57805C006210111213151617181A1C90
:1006B0001D1F21232527292C2E3134373A3E414551
:1006C000494E52575C62686E757B838B939CA5AFD5
:1006D000B9C4D0DCE9F790480064800019904A0062
:1006E00064800019904C0064800019904D00648073
:1006F0000019904F00C880F09037007880000A9071
:1007000036008C800014903500A080001E903400CC
:10071000B4800028903300C8800032903200DC8022
:10072000003C903100F08000469030000480F09052
:1007300043000A904F000A904C000A80F0901491F8
:100740001301F48081F01083AC696DAD8210001349
:100750006C69EDAD022000232CE9ED2D022020066E
:10076000D8D25A5AC4101082AD6D69AC83102002E1
:10077000ADED696C130020022DEDE92C230010C4AF
:100780005A5AD2D806204E4557205245434F52441C
:100790000053434F524500594F5552000000E0F0BE
:1007A000F83C9C9C9C9C9C800000C060606060E069
:1007B000C08000E0E0E0406060E0E0C06060E0E059
:1007C000C00080C0E0E06060E0C08000E0F0F83C85
:1007D0001C1C1C3CF8F0E00060E0E0E00000E0E001
:1007E000E06080C0E0E06060E0C08000E0E0E0C089
:1007F000E0E000000000070F1F3C3B3B3B3F3F1F7A
:10080000001C3E3F3333133F3F3F003F3F3F00005C
:10081000003F3F3F00003F3F3F000F1F3F3636364F
:1008200037370700070F1F3C3838383C1F0F0700C9
:1008300000031F3F3E3E3F1F03000F1F3F3636366B
:10084000373707003F3F3F00000000000000FCFC7E
:10085000FC8C8CCCFCF8780080C0E0E06060E0C0EC
:10086000800000C060606060E0C0800080C0E0E0A8
:10087000E0E0C0FEFEFE0020E0E0E00000E0E0E09E
:10088000600000381C1C9CFCFC78000000003F3F0E
:100890003F03071F3E3E38200F1F3F36363637379F
:1008A00007001C3E3F3333133F3F3F000F1F3F31D4
:1008B0003030183F3F3F000000C3CFFFFC7F1F03D5
:1008C00000000000383B3B390000000090064EE479
:1008D000C0881899E0F8FC1C1CFCF8F00F1F3F388A
:1008E000383F1F07383838FCFCFC00000000003F90
:1008F0003F3F000000381C1C9CFCF878383C3E3B15
:100900003B393838001CDCDCDCFC783800383939FD
:10091000393F1F0E00C0F07CFCFCFC000F0F0D0CDB
:100920003F3F3F0CFCFCFCFCDCDC9C0039383838D9
:10093000383F1F0FE0F0F8BCDCDCDC800F1F3F39D4
:10094000393F1F0F1C1C1C9CDCFC7C1C00303E3FF4
:100950003F03000070F8FC8C8CFCF8700E1F3F31D8
:10096000313F1F0EF0F8FC9C9CFCF8E0003939394F
:100970003D1F1F074F424E2D593031205645522002
:10098000302E333100C0C6CFDFFFFB73037CFEFF88
:10099000C7E3FF7F3E00FFFFFF1B1B1B030003039A
:1009A000FFFFFF03030000000000000000808080C4
:1009B0008000000000000000000000000080E0F067
:1009C00058AC56AB55AB5500FF01010102020408BB
:1009D00010608000003FFFAA55AA55AA55AA55A845
:1009E0005FAC5CAC5CAC5CAC5C0CCF3C0000000170
:1009F00003060D1A152A252A252A2522151209046F
:100A00000201000000FFFF57AB57AB57AB57AB03DA
:100A1000FF808080000000000000000000FFFF5504
:100A2000AA55AA55AA55AA00FF0000000101020418
:100A30000830C000001F7FD5AA55AA55AA55AA5450
:100A4000AF56AE56AE56AE562E86671E000000005C
:100A50000103060D0A151215121512110A090402D6
:100A600001000000000000000000008080C0C0C045
:100A7000C0808080000000000000000000C0F0780E
:100A8000AC56AB55AA55AA00FF00000001010204B4
:100A90000830C00000FFFF55AA55AA55AA55AA0064
:100AA000FFFEAE56AE56AE56AE5607FE001F1715E9
:100AB00012151215121512101F17121512151215F4
:100AC0001215101F000000000000700100C0000C93
:100AD00000CAA77C0A42F55508534248195EF551F1
:100AE00012003000000027450040941C0014F31948
:100AF0000504F11104200400000441100400040066
:100B000000104208015E14450F40F0010059555590
:100B10001351555D0D8C927C085755550D5E5555FA
:100B20000D51520C015E55550F5655550F00A00042
:100B30000000A4000000C2280080A22800806208F3
:100B40000040500D0000E318009C92241F5F555D8B
:100B50000D9C1445115F1425075F5555115F511405
:100B6000015E54551D1F41101F40F4450010042123
:100B7000071F41181D1F0441105EF0041F9C100444
:100B80001F5E54450F5F9214035ED4451F5F92347D
:100B90001B5655550D41F005011F0421071F420842
:100BA000011FE4410F1743181D07C1090151564D9C
:100BB0001100F0450000F0010040F4010080100C2D
:100BC0000010044110080B00020202010009040099
:100BD00000010202000005240010010524010101AA
:100BE00004240206052406000107058103100040C5
:100BF00009040100020A000000070502024000008B
:100C0000070583024000000403090441726475690A
:100C10006E6F204C4C430041726475626F79001214
:100C20000100020000004041233680000101020360
:100C30000112010002EF0201404123368000010150
:100C40000203010000000200090F0000030401007C
:100C50000C00000000000000000000000000000088
:100C6000000000000000240027002A002D003000B2
:100C7000D5F08D14A1C881CFD9F1AF200014021393
:100C800002120215020702080204010C010601000B
:100C9000040802011040804010204080408008027B
:100CA00004018040201002011080102040402000EC
:100CB000000000250028002B002E00310004040451
:100CC00004040304050202020204030202020206F3
:100CD0000606060606040402020204040301544840
:100CE00045204D4954204C4943454E53452E005212
:100CF000454C454153454420554E444552005448C7
:100D000049532050524F4752414D204953005052B1
:100D10004F4752454D4D4544204259204F424F4E7A
:100D20004F00444543454D42455220323031360054
:100D30002D20484F4C4C4F57205345454B45522092
:100D40002D00435245444954005245434F524400FC
:100D500053544152542047414D45003C7EFFFFFF14
:100D60007E3CFD8181FDFDFDFEC0C0FEFD8D8DFD43
:100D7000FDFDFEC6C6FEDDDDDDDDFDFDEEEEEEEECB
:100D8000300D0000220D0E0D0000FE0CEF0CDE0CED
:100D9000504C41592054494D45202000504C415958
:100DA00020434F554E5420005D20005B00424553C8
:100DB000542031302053434F524553004F46460094
:100DC0004F4E00534F554E442000500DC30D490D5A
:100DD000420D53434F5245004C4153540000000014
:100DE0000000000080C0E0F070787800F8FC06F3A6
:100DF000F9FDFDFDF9F204F80060408000000000FC
:100E00000000000000000000E0D8D6CBD4EAE4EAFD
:100E1000F5F2F5F2F9F7F6ECEDEBEBEBE9F4FAF9B4
:100E2000F8FA797A7B7C6000000000000000000086
:100E30000707073FC70703AB53FBFBFBFDFD8181A2
:100E4000FDFDFDFEC0C0FEFEFEFEFF1F0000000017
:100E5000000000000000C0201028488404A556AC03
:100E600059AA5DB757B76FAF69A828E86EAF57B7F3
:100E700057AB54AA56EA42E2160C0408F0000304E9
:100E80000404050203010FF920202522252A352A12
:100E900035EA203FF52A352A25222520F03F00009B
:100EA0000101010100F0F8FCFEFE9E1E1E1E1E3C0C
:100EB00000000000008080C0C0C0C0C0C080000032
:100EC0000000008080C0C0C0C0C0C080000000FF23
:100ED000FFFFFFFF000080C0C0C0C0C0C000008096
:100EE00080C0C0C0C0C0C080000000C0C0C0C0C0C2
:100EF00080C0C0C000E1C3C7878F8F9FFFFEFEFC8C
:100F0000F800007CFFFFFFFFBB39393F3F3FBF3E8A
:100F1000007CFFFFFFFFBB39393F3F3FBF3E00FF73
:100F2000FFFFFFFF187EFFFFFFFFE783007CFFFF4F
:100F3000FFFFBB39393F3F3FBF3E00FFFFFFFFFFD1
:100F40000703030300030707070707070703030156
:100F50000000000001030307070707070707030056
:100F6000000001030307070707070707030000073F
:100F70000707070700000107070707070704010322
:100F80000307070707070707030000070707070707
:100F90000000000000FEFEFEFEFE8080808080805B
:100FA00080FEFEFEFEFE000000008080C0C0C0C0CB
:100FB000C0C08080000000FFFFFFFFFF0000FFFFB8
:100FC000FFFFFF000000008080C0C0C0C0C0C08024
:100FD000800000C0C0C0C0C0C0000000C0C0C0C011
:100FE000C0800000C0C0C0C0C0FFFFFFFFFF0F0FE8
:100FF0000F0F0F0F0FFFFFFFFFFF00007CFFFFFF32
:10100000FFC78383C7FFFFFFFF7C00FFFFFFFFFFDA
:101010000000FFFFFFFFFF00007CFFFFFFFFC78313
:1010200083C7FFFFFFFF7C000F7FFFFFFFF0F0FF94
:10103000FF1F1FFFFFFFF0F0FFFF7F0700070707FD
:10104000070700000000000000070707070700006F
:101050000001030307070707070703030100000751
:10106000070707070000070707070700000001033D
:10107000030707070707070303010000000007072E
:101080000707070703000007070707070703000014
:101090000000172611241FBECFEFDAE0DEBFCDBF60
:1010A00027E0A0E5B1E001C01D92AA38B207E1F740
:1010B00011E0A0E0B1E0EAE9F9E502C005900D9287
:1010C000A035B107D9F718E0CAE4D8E004C02197E9
:1010D000FE010E946826C934D107C9F70E94AD23DA
:1010E0000C94CB2C0C94000088E78093C0020895E8
:1010F0001092D702E4E6F0E0808188608083E5E624
:10110000F0E080818860808308956038710518F56B
:101110004034510500F5A42FA695A695A695B0E0FC
:1011200047705527B695BA2FAA27B795A7956A0F86
:101130007B1FFC01E60FF71F81E090E001C0880FE4
:101140004A95EAF7222319F09489892B03C08095E8
:1011500094898923848B08952F923F924F925F92B6
:101160006F927F928F929F92AF92BF92CF92DF92B7
:10117000EF92FF920F931F93CF93DF93CDB7DEB71C
:1011800062970FB6F894DEBF0FBECDBF6A3091F400
:10119000FC01E85EFB4F408132972081318156E0AF
:1011A000459F200D311D11243183208332971182F8
:1011B0001082FFC020EE260F203408F0FAC09A8B70
:1011C000898B885E9B4F99878887DC018C91E989A0
:1011D000FA89E55EFB4F30813A83E989FA89E65E58
:1011E000FB4F30813B83E989FA89EA5EFB4F4080FF
:1011F000518049895A894C5E5B4F5E834D83DA0189
:101200000D911C91003811050CF0A4C0B0E44B16F0
:1012100051040CF09FC0282E312C9801E5E08E9FE0
:10122000200D311D112437FD95C09201F6E08F9FEE
:10123000200D311D112437FD8DC031E039833A81F5
:101240004B81341301C0198254E0659FF0011124D1
:10125000EB5BF54FC590D590E590F490813039F077
:10126000380136E0A82FB0E0BF87AE8738C036E03F
:10127000832E520196E0992EC0FC05C0398133239C
:1012800049F02A8101C02B81A501B80189899A8979
:101290000E948508F694E794D794C7949A944FEFE8
:1012A000A41AB40A9110E8CF8A940F5F1F4F8110DF
:1012B000E0CF50C0C0FC1CC0598151111CC0F69435
:1012C000E794D794C7948C8181508C83020D131DB1
:1012D0008111F0CF3150620C731C3323D9F182019C
:1012E00056E05C83C301820D931D9D878C87E2CFFE
:1012F0009B819F8302C0AA81AF834301EE85FF8556
:10130000E00FF11FFB87EA874C855D858416950603
:10131000B4F6580117FF12C0A12CB12C0FC0A816AB
:10132000B906A4F42F81A501B40189899A89388B63
:101330000E948508FFEFAF1ABF0A38898A859B850E
:101340008134910564F380E490E0E9CF2FEF821AB5
:10135000920ADACFA885B9852C91422F50E0ED8111
:10136000FE8180819181F6E02F9F800D911D1124D7
:10137000AD81BE818D939C93E989FA89E75EFB4F2D
:1013800020812223B1F06AEF64039001659F300D44
:10139000112420583F4F281739075CF4A989BA89CE
:1013A000ED91FC9111970190F081E02D6AE0CD0163
:1013B000099581E090E062960FB6F894DEBF0FBE0B
:1013C000CDBFDF91CF911F910F91FF90EF90DF90F4
:1013D000CF90BF90AF909F908F907F906F905F90D5
:1013E0004F903F902F9008952F923F924F925F928F
:1013F0006F927F928F929F92AF92BF92CF92DF9225
:10140000EF92FF920F931F93CF93DF93CDB7DEB789
:101410002A970FB6F894DEBF0FBECDBF6A3091F4A5
:10142000FC01E85EFB4F408132972081318158E01A
:10143000459F200D311D1124318320833297118265
:101440001082C1C06D3009F4BEC09A878987885E5A
:101450009B4F9C838B83DC012C90E985FA85EA5EA7
:10146000FB4F60807180E985FA85EC5EFB4FFA8363
:10147000E9830081118100381105D4F0AB81BC8172
:101480002C91422F50E0E981FA8180819181F6E030
:101490002F9F800D911D1124A981BA818D939C935A
:1014A000E985FA85E75EFB4F208121115EC08BC084
:1014B000B0E46B16710414F7C801E5E02E9E800DB0
:1014C000911D112418161906CCF6422C512CC3017B
:1014D000F8E02F9E800D911D11241816190674F640
:1014E00055E0659F900111243F832E83E12CF12C60
:1014F00085E0E816F10441F0EE81FF81EE0DFF1D5D
:10150000EA5FFE4F349001C0312C630138E0932D27
:1015100091709D834801882D801B8215B0F456017F
:101520008A2D8C19821568F42D81A501B401898555
:101530009A8538870E948508AFEFAA1ABA0A3885BB
:10154000EFCFBFEF8B1A9B0AE6CF36943150C40C15
:10155000D51C3111DCCFEFEFEE1AFE0A040D151D7C
:10156000F6E0EF16F10421F689CF6AEF64039001EB
:10157000659F300D112420583F4F281739071CF55F
:10158000A985BA85ED91FC9111970190F081E02D2C
:101590006AE0CD012A960FB6F894DEBF0FBECDBF2C
:1015A000DF91CF911F910F91FF90EF90DF90CF903F
:1015B000BF90AF909F908F907F906F905F904F9073
:1015C0003F902F9009942A960FB6F894DEBF0FBE75
:1015D000CDBFDF91CF911F910F91FF90EF90DF90E2
:1015E000CF90BF90AF909F908F907F906F905F90C3
:1015F0004F903F902F900895AF92BF92CF92DF927D
:10160000EF92FF920F931F93CF93DF938C01B62E2F
:101610006A01FA01C181D0E08081C81BD1090E9412
:10162000942B63E070E00E9454267C01BB2031F0D3
:1016300088E090E09C012E193F097901F601818133
:1016400090E0829765E070E00E9454265B010E9462
:10165000942BF701EC1BFD0B9F01F7FF04C0222721
:1016600033272E1B3F0B61E170E0621B730B95016A
:10167000B7FE04C0222733272A193B09621B730BCC
:101680000E9454269C0128503109CE15DF0514F420
:101690002E0F3F1FB7FE02C02A193B09F6018181B8
:1016A000280F311D2833310534F4203131052CF455
:1016B00020E130E002C028E330E0822F8E19F801EB
:1016C00080832183DF91CF911F910F91FF90EF9045
:1016D000DF90CF90BF90AF9008958091B4029FEFBC
:1016E000980F9093B40287FF1EC00E94942B092E7E
:1016F000000CAA0BBB0B9C01AD0130584F4F5F4F44
:10170000A091B202B091B3020E94502CDC01CB0137
:1017100026E1B595A795979587952A95D1F780935A
:10172000B40281E0089580E00895AF92BF92CF9215
:10173000DF92EF920F93CF93DF936C015B01EA018D
:101740004A3051055CF0CA016AE070E00E945426FC
:10175000AB01B501C6010A970E94950BCE016AE064
:1017600070E00E945426AC0184E0440F551F8A9516
:10177000E1F74C52574FEE24E39400E128E0B50125
:10178000C6010E94461DDF91CF910F91EF90DF902F
:10179000CF90BF90AF9008958F929F92AF92BF92DB
:1017A000CF92DF92EF920F93CF93DF930E94371D7A
:1017B0002091C00288E790E0821B910968E270E006
:1017C0000E9454264B0185EAC82E89E0D82E9CE160
:1017D000A92EB12CC0E0D0E081E090E0C815D90579
:1017E00011F080E090E02091B502289FB001299F80
:1017F000700D1124645F7F4FEE24E39400E228E132
:10180000A601C5010E94461D219688E1A80EB11CC3
:1018100080E6C80ED11CC330D105F1F608E020E205
:1018200045E859E06CE270E084E490E00E94461DD7
:1018300080E190E09093F4068093F3068AE390E0D1
:101840009093F6068093F50664E779E08FED92E0D9
:10185000DF91CF910F91EF90DF90CF90BF90AF903D
:101860009F908F900C94791ACF92DF92EF92FF9213
:101870008091C00281508093C00290E00F9763E096
:1018800070E00E9454268AE3C82E8AEAD82E83EE9E
:10189000E82E8EEEF82E04C0F694E794D794C79401
:1018A0006A95D2F781E0C822DD24EE24FF248C2D36
:1018B00081708093B5026FEF70E08AE00E94511B47
:1018C0006FEF70E08BE00E94511B8FE7C89EC02C29
:1018D00011246FEF70E06C19710989E00E94511BAF
:1018E00081E09091C002911180E0FF90EF90DF9035
:1018F000CF9008952F923F924F925F926F927F9276
:101900008F929F92AF92BF92CF92DF92EF92FF920F
:101910000F931F93CF93DF93CDB7DEB72D970FB6FD
:10192000F894DEBF0FBECDBF0E94371D8091B0027C
:101930009091B102813D23E092072CF081FB22249B
:1019400020F8312C02C0212C312C6091AE02709114
:10195000AF02C101860F971F9B838A836091AC02FF
:101960007091AD023101660E771EE12CF12C42E13F
:10197000442E512C877099279D838C839195819556
:101980009109DC01A770BB27B987A8878827992709
:1019900086199709FC01E770FF27FF83EE83CF01CB
:1019A0009195819591099C01277033273B872A8760
:1019B0008091AB02F701E80FF11DCF01089660E9B5
:1019C00070E00E9454265C016C0123E0D594C7941A
:1019D0002A95E1F74C0137E083229924E770FF272D
:1019E000E453F74F249129838601000F111FF8015A
:1019F000E957FD4F208130E08114910419F4C601AC
:101A0000419606C087E08816910489F4C601439682
:101A1000B2010E945426FC01EE0FFF1FE957FD4F53
:101A20008081A901481B51094F5F5F4F02C041E00F
:101A300050E0AA81BB812A0F3B1F37FF0CC0F80181
:101A4000E957FD4F218130E08114910409F04CC029
:101A5000C60141964FC01416150614F041E050E03F
:101A6000241735070CF4A901F901E41BF50BFD87D8
:101A7000EC87BF01C7010E94B01E4981088401C0E4
:101A800046950A94EAF789810C8001C0880F0A9470
:101A9000EAF7482BF701ED50FD4F28E030E08C8548
:101AA0009D85281B390BAC85BD851A161B063CF697
:101AB000AC85BD8518974CF48FEF90E0022E02C0E4
:101AC000959587950A94E2F701C08FEF8423908162
:101AD000892B8083E058FF4F8C859D8508979D87D3
:101AE0008C87285F3F4FDFCFB7E08B16910491F4CE
:101AF000C6014396B2010E945426FC01EE0FFF1F5F
:101B0000E957FD4F818190E0821B930BAC014F5F41
:101B10005F4F02C041E050E080E490E06C01C21AE7
:101B2000D30AC618D708D7FE1FC0F501EE0FFF1F56
:101B3000E959FE4F4081442309F457C08181449FF5
:101B4000A001112416E0559547951A95E1F7480F25
:101B5000511D87FD5A95420D531D21E0B7018FEDB0
:101B600092E00E94850841C01416150614F041E069
:101B700050E08A01C416D5060CF4860160E470E0DA
:101B80006C197D09402FC7010E94B01EC01AD10AEE
:101B900089810E8001C086950A94EAF719810A842A
:101BA00001C0110F0A94EAF7182BD701AD58B94FAD
:101BB00088E090E08C199D091C141D040CF0B5CF31
:101BC0002FEFE8E0CE16D1042CF4082E01C0220F2E
:101BD0000A94EAF721233C91232B2C93A058B109B6
:101BE000F8E0CF1AD1080896E7CF2FEFE21AF20AF1
:101BF00030E8E316F10409F0DBCEE0916601F0E095
:101C0000EE0FFF1FE957FD4F818120916501409143
:101C10006401608170E09091630191111FC0E82F11
:101C2000F0E02403C001112497FD0796A3E09595E9
:101C30008795AA95E1F78E0F9F1F0897860D971D30
:101C4000AA81BB816A0F7B1F681779070CF4BC015E
:101C5000693371052CF068E370E002C0660D771DF2
:101C600080916201469550E0B4E08B9F400D511D7C
:101C70001124E3E0440F551FEA95E1F74A5B584F02
:101C800080916101EE24E39408E028E090E00E9456
:101C9000461D809160018823C9F08695863018F42E
:101CA00090E0069702C080E090E01092F406109257
:101CB000F3069093F6068093F5066091B202709158
:101CC000B30280E090E04AE00E94E41F80915F014F
:101CD000882319F1C0905D01D0905E01E8E1CE1635
:101CE000D10424F4F0E1CF1AD10803C058E0C52E86
:101CF000D12C00E020E140E4B60180E290E00E94B7
:101D0000681FEE24E39400E120E44CE458E0B601BF
:101D100080E290E00E94461DAFC08091630188235D
:101D200009F4AAC0A0905D01B0905E0180ED91E041
:101D30006C01CA18DB081C141D0414F4C12CD12C2E
:101D400000E020E148E5B60184E190E00E94681FD0
:101D5000EE24E39400E128E54CE957E0B60184E184
:101D600090E00E94461D21ECA21621E0B20634F05C
:101D7000750130E9E31A31E0F30A03C040E3E42ED1
:101D8000F12C80915C0190E09C012E5F3F4F220F6F
:101D9000220F220F33E0880F991F3A95E1F7B70120
:101DA000681B790B00E048E48CE190E00E94681F1A
:101DB0004091B2025091B302B7018AE590E00E94CF
:101DC000950B0EE110E01093F4060093F306C701A3
:101DD00003969093F6068093F50667E977E08FED1A
:101DE00092E00E94791A1093F4060093F306C7015B
:101DF00009969093F6068093F50661E977E08FEDFA
:101E000092E00E94791A80915C018823A9F1809167
:101E1000B0029091B10268E070E00E9454260497ED
:101E20005CF582E290E09093F4068093F30686E0FE
:101E3000E81AF108F092F606E092F50666E877E017
:101E40008FED92E02D960FB6F894DEBF0FBECDBF9A
:101E5000DF91CF911F910F91FF90EF90DF90CF9086
:101E6000BF90AF909F908F907F906F905F904F90BA
:101E70003F902F900C94791A2D960FB6F894DEBFF0
:101E80000FBECDBFDF91CF911F910F91FF90EF90CB
:101E9000DF90CF90BF90AF909F908F907F906F908A
:101EA0005F904F903F902F900895CF93DF9381E004
:101EB00080935F011092630188E790E090935E0148
:101EC00080935D011092B3021092B20210926001F1
:101ED0001092AB021092B1021092B0021092B402B2
:101EE000109258011092570180E280935B0180E0CC
:101EF00090E030E228E2FC01E957FD4F3083218376
:101F0000029682319105B9F7C0E0D0E00E946D0BD6
:101F1000AE0149565D4F682FCE0187569D4F0E94F6
:101F2000FC0A2296C231D10589F7E7E6F1E010827A
:101F3000329682E0E738F807D1F71092610181E02C
:101F40008093660180936201109264011092650192
:101F500060E086ED96E0DF91CF910C940B1FCF925D
:101F6000DF92EF92FF920F931F93CF93DF938091B5
:101F70005F01811104C080916301882369F0809121
:101F80005D0190915E01019790935E0180935D01E8
:101F9000892B11F410925F0110915F01111111C092
:101FA0008091B0029091B102029620916301821B50
:101FB000910960E074E00E9454269093B1028093EE
:101FC000B002E090B002F090B10280EDE81683E03C
:101FD000F80629F462E08DE397E00E940B1FB70139
:101FE000FF0C880B990B0E942C272BED3FE049E456
:101FF00050E40E94F72720E030E040E05BE30E94DD
:10200000F7270E94EF2620E030E040E05FE30E94E7
:10201000F7279B01AC0160E070E080E09FE30E9445
:1020200082266B017C0180915B01682F70E080E06B
:1020300090E00E942C279B01AC01C701B6010E94D1
:10204000F7270E94F4266B017C019B0170935A01D3
:1020500060935901CB018095909597FD01969595D8
:1020600087959093AF028093AE02C60137FD01962B
:10207000959587959093AD028093AC028091630112
:10208000882399F08091FC068C70282F30E0909185
:10209000FB06892F90E08095909582239323892BCE
:1020A00009F48EC00E94550F8BC08091640181118C
:1020B00087C0111109C09091FC0695FB882780F913
:1020C00096FF08C081117CC081E08093620101E02D
:1020D00010E00CC0882309F473C010926201809153
:1020E0006101882309F46CC00FEF1FEF2091660196
:1020F00030E0C901800F911F429662E170E00E94BA
:102100005426AC01DC01AA0FBB1FA957BD4F119685
:102110008C911197220F331FF901E957FD4F9181DF
:10212000692F70E0AC91282F30E0E0812E1B31093F
:102130006A1B7109261737070CF4B9016C0D7D1D58
:1021400068307105ECF1981B90936501409366012E
:1021500088E08093640180916101080F111D0933AB
:1021600011052CF10091AB0206950695069510E03D
:102170000E946D0B282FC801419662E170E00E9419
:102180005426AC01440F551F49575D4FC801880FB5
:10219000991F622F89579D4F0E94FC0A8091B202BD
:1021A0009091B30201969093B3028093B202809112
:1021B0005F01811105C063E08FE297E00E940B1F71
:1021C000809164018823E9F08150809364018091BB
:1021D0006201880F90916101890F9FEF980F9933E9
:1021E00018F4909361010DC0825080936101809139
:1021F000AB0290E0019660E970E00E945426809363
:10220000AB022091AC023091AD02E7E6F1E000E0D4
:1022100010E0C80187709927892B79F4D80173E001
:10222000B595A7957A95E1F7AA0FBB1FA957BD4FA2
:1022300011968C91E901C80FD11D8081882399F0F6
:102240008F5F80834181889FC001112466E095954E
:1022500087956A95E1F7840F911D47FD9A95C817F8
:10226000D9070CF410820F5F1F4F32960039110509
:1022700081F680915F01811132C00E94942B6091A0
:10228000B0027091B10256E0759567955A95E1F7E5
:102290006F5F7F4F0E945426892B09F50E94942B73
:1022A000B8010E945426DC01AA0FBB1FA959BE4FDA
:1022B0002C91211114C021E02C9397FD0796FC016D
:1022C00033E0F595E7953A95E1F7EE0FFF1FE957F3
:1022D000FD4F9091AE028081890F11968C93809171
:1022E0005F018111A8C08091B0029091B102892B49
:1022F00009F0A1C0809157019091580101969093E7
:1023000058018093570120915B012F3F19F02F5FF7
:1023100020935B01E0916601F0E0EE0FFF1FE957AB
:10232000FD4F218130E04081241B310924303105EB
:102330000CF081C021E020936301982F8827990F2A
:10234000092E000CAA0BBB0B2091B2023091B302F4
:1023500030937D0720937C07EAE7F7E0CAE0D0E0FE
:10236000AE0141505109729162916217730708F4EE
:1023700086C090C080916407909165070E943D1FC0
:102380006091600770916107809162079091630787
:102390000E944C1FE6E6F7E04BEE54E420E030E00C
:1023A00061917191D9011396A69FC001A79F900DCD
:1023B000B69F900D1124480F591F2F5F3F4F2A30B1
:1023C000310571F7C0906007D0906107E090620717
:1023D000F09063072EE02C9DC0012D9D900D1124DF
:1023E0006091640770916507EDE0E69F9001E79FBB
:1023F000300D1124820F931F6FE06E9D90016F9D31
:10240000300D1124820F931F840F951F0E943D1FD2
:1024100082E08093B60281E0C11180E080935C018C
:1024200080EE91E090935E0180935D0161E088EF22
:1024300096E00E940B1F20916101809163019091B1
:102440006001203330F020915F01211102C0882308
:1024500021F0992339F0915003C0903218F49F5F16
:1024600090936001882309F474C081E020915D019C
:1024700030915E01232B09F46CC080E06AC04930C2
:10248000510531F0738362834115510509F45EC033
:10249000EA0166CFCA30D10539F0FE01EE0FFF1F09
:1024A000EA59F84F31832083209164073091650702
:1024B0002F5F3F4F3093650720936407409160077B
:1024C000509161076091620770916307840F951FB7
:1024D000A61FB71F8093600790936107A0936207C0
:1024E000B09363078091B602813061F480E093E09D
:1024F0009093FF068093FE066FE472E48EE491E011
:102500000E944C1FCE018E579E4F880F991F9093AB
:10251000FF068093FE068C01045013407E01C12CFF
:10252000D12C9AE0E916F10409F424CFF601E00F6A
:10253000F11FEA59F84F808191810E943D1F9FEF62
:10254000E91AF90A82E0C80ED11CEBCFC0E0D0E056
:10255000A4CFDF91CF911F910F91FF90EF90DF906B
:10256000CF9008958FB12CB193B130E02095309584
:1025700020743327A90123E0559547952A95E1F763
:10258000292F30E0209530952071332735952795F8
:1025900035952795242B8095807F822B0895CF92A7
:1025A000DF92EF92FF920F931F93CF93E82FF0E00B
:1025B000E452F34FC491E62FF0E0603330F4EA5573
:1025C000F94FE4910E2F10E006C0EE0FFF1FEA5501
:1025D000FA4F059114916801E12CF12C60E074E24E
:1025E00084EF90E0A70196010E94312CBA01A90165
:1025F00041505109610971094115510581E0680790
:10260000710580F060E970ED83E090E0A70196012C
:102610000E94312CBA01A901415051096109710987
:1026200083E001C081E0C130C9F0C33031F5909141
:102630009100987F892B809391005093990040934B
:102640009800109356010093550181E08093540146
:10265000809171008260809371000FC09091810021
:10266000987F892B80938100509389004093880044
:1026700080916F00826080936F00CF911F910F91C6
:10268000FF90EF90DF90CF9008951F920F920FB6BA
:102690000F9211242F933F938F939F93AF93BF93E8
:1026A000EF93FF9380918407882309F44DC08091B4
:1026B000800790918107A0918207B0918307892BB1
:1026C0008A2B8B2B51F18091DB02E091DC02F0919F
:1026D000DD02908189278083809180079091810716
:1026E000A0918207B0918307181619061A061B06D7
:1026F000A4F58091800790918107A0918207B09105
:1027000083070197A109B1098093800790938107FE
:10271000A0938207B093830720C010928407809112
:102720006F008D7F80936F009091DB02E091DC025F
:10273000F091DD028081282F30E0892F90E0809594
:1027400090958223932308C08091DB02E091DC0204
:10275000F091DD02908189278083FF91EF91BF91F5
:10276000AF919F918F913F912F910F900FBE0F903E
:102770001F901895E82FF0E0E452F34FE491E13018
:1027800019F0E33069F0089580916F008D7F809398
:102790006F009091DB02E091DC02F091DD0208C055
:1027A000109254019091D802E091D902F091DA028E
:1027B0008081282F30E0892F90E0809590958223AA
:1027C000932380830895E091D302F091D402BF0156
:1027D0006F5F7F4F7093D4026093D3024491942F24
:1027E000907F842F8F70903819F40E94BA13EBCF2A
:1027F000903981F43296F093D402E093D302FB0136
:1028000064919091DE028917F0F667FDDCCF0E949B
:10281000CF12D9CF903E49F48091D5029091D60243
:102820009093D4028093D302CECF903F19F41092AC
:10283000D202089597FDC7CF3296F093D402E09369
:10284000D302FB01249130E0342BA0915501B091CB
:1028500056010E94852C6C507E4F8F4F9F4F28EE63
:1028600033E040E050E00E94632C2093500130930D
:102870005101409352015093530180915001909126
:102880005101A0915201B0915301892B8A2B8B2BBE
:1028900061F481E090E0A0E0B0E08093500190937B
:1028A0005101A0935201B093530108951F920F92CA
:1028B0000FB60F9211242F933F934F935F936F9313
:1028C0007F938F939F93AF93BF93EF93FF938091E9
:1028D0005401882349F08091D802E091D902F09107
:1028E000DA029081892780838091D202882329F19E
:1028F0008091500190915101A0915201B0915301EA
:10290000892B8A2B8B2BC9F080915001909151011A
:10291000A0915201B09153010197A109B10980938F
:10292000500190935101A0935201B0935301892B10
:102930008A2B8B2B11F40E94E313FF91EF91BF912F
:10294000AF919F918F917F916F915F914F913F9147
:102950002F910F900FBE0F901F901895E4E6F0E0B6
:102960008081877F8083E5E6F0E08081877F8083B8
:1029700081E08093D70208950F931F93CF938091A6
:102980007E078111A8C080915F079FEF980F9093F9
:102990005F07811109C00E94942B64E670E00E94D9
:1029A00054268A5680935F073091B8029091B702FF
:1029B000332341F090FF06C080915E0721E0281B81
:1029C00020935E078FEF890F8093B70291110DC09E
:1029D00081E083278093B8020E94942B64EB70E01F
:1029E0000E945426845C8093B7028091FC06807814
:1029F000282F30E09091FB06892F90E080959095EC
:102A000082239323892B71F080917B07882311F017
:102A1000815001C083E080937B070E948C2381E07A
:102A200080937F078091FC068071282F30E0909181
:102A3000FB06892F90E08095909582239323892B24
:102A400079F080917B07833021F08F5F80937B0743
:102A500002C010927B070E948C2381E080937F0745
:102A60008091FC068C70282F30E09091FB06892F16
:102A700090E08095909582239323892B09F441C09F
:102A800080917B07813089F054F481111FC06091DF
:102A9000D70282E090E00E94232CC1E018C082306F
:102AA00081F0833099F482E00DC0C0917A07C82785
:102AB00019F00E94AE1402C00E947808C0937A07F1
:102AC00003C081E080937E070E946B23C0E081E019
:102AD00080937F0717C08091FC068C70282F30E010
:102AE0009091FB06892F90E0809590958223932307
:102AF000892B39F010927E070E946B2381E080932E
:102B00007F07C0E00E94942B8C010E94FC22012EC2
:102B1000000C220B330B6027712782279327611546
:102B200071058105910511F00E94F72B8C2FCF9133
:102B30001F910F9108950F931F93CF93DF931092DE
:102B40007E0781E080937F07C091D702CC2319F0E4
:102B50000E94AE1402C00E947808C0937A071092B7
:102B60007B078091B60281117EC080E093E0909354
:102B7000FF068093FE060E942720EC010E9427207A
:102B8000A0E0B0E0DC0199278827AE0160E070E0AA
:102B9000842B952BA62BB72B8F349244AE44B14097
:102BA00019F0E6E6F7E04AC0C3E0D0E00BEE14E42B
:102BB0000E9427209C01C29FC001C39F900DD29FFD
:102BC000900D1124080F191F2196C031D10581F7EE
:102BD0000E9427208017910721F784E093E09093CB
:102BE000FF068093FE06C6E6D7E00E942720899361
:102BF000999337E0CA37D307C1F70E9427209093F3
:102C00006507809364070E942720EC010E9427201B
:102C1000A0E0B0E0DC0199278827AE0160E070E019
:102C2000842B952BA62BB72B80936007909361077D
:102C3000A0936207B093630782E013C011921192D0
:102C400087E0EA37F807D1F710926507109264071A
:102C5000109260071092610710926207109263074A
:102C600081E08093B6020E94942B64E670E00E949B
:102C700054268A5680935F0781E080935E07109206
:102C8000B8020E94942B64EB70E00E945426845C8E
:102C90008093B702DF91CF911F910F910895CF9349
:102CA000DF931F92CDB7DEB76983DC01ED91FC9114
:102CB0000280F381E02D41E050E0BE016F5F7F4F65
:102CC00009950F90DF91CF91089583E08093E900FB
:102CD0008091F200882319F08AE38093E800089538
:102CE000FC018485958597FD0BC09FB7F89482E021
:102CF0008093E9008091F2009FBF90E001960895D3
:102D00009FB7F89482E08093E9008091F2009FBF22
:102D100090E008954091BE025091BF022091BC0204
:102D20003091BD0242175307B4F49091E8009570BA
:102D3000E1F39091E80092FD19C08093F100809139
:102D4000BE029091BF0201968F739927892B19F4C7
:102D50008EEF8093E8008091BE029091BF020196B1
:102D60009093BF028093BE0281E0089580E00895B1
:102D7000CF92DF92EF92FF920F931F93CF93DF9347
:102D80001F92CDB7DEB7182F062FE42E862F880F9F
:102D90008E5F99830E948A1683E00E948A16F12E24
:102DA000C12E9981D92E8C2D8F19801798F4F60198
:102DB000E7FE02C0849101C080810E948A16182F0C
:102DC00080E00E948A168123FFEFCF1ADF0A81116B
:102DD000EACF01C081E00F90DF91CF911F910F9159
:102DE000FF90EF90DF90CF900895DF92EF92FF92E7
:102DF0000F931F93CF93DF93D82E8A017B01E40EAC
:102E0000F51EEB01CE15DF0571F0D7FE03C0FE0104
:102E1000849101C088810E948A1621968111F2CF87
:102E20008FEF9FEF01C0C801DF91CF911F910F91EC
:102E3000FF90EF90DF900895615030F02091F10005
:102E4000FC0120830196F8CF289884E68093D00275
:102E50000895CF92DF92EF92FF920F931F93CF933B
:102E6000DF936C017A018B01C0E0D0E0CE15DF0565
:102E700089F0D8016D918D01D601ED91FC91019001
:102E8000F081E02DC6010995892B11F47E0102C065
:102E90002196ECCFC701DF91CF911F910F91FF9049
:102EA000EF90DF90CF9008950F931F93CF93DF9310
:102EB0001F92CDB7DEB78C01FC018485958597FF05
:102EC0000EC0CE0101960E945420019719F4298169
:102ED00030E002C02FEF3FEFF80135872487F8017B
:102EE000848595850F90DF91CF911F910F91089563
:102EF000CF93DF931F92CDB7DEB7FC018485958514
:102F000097FD05C02FEF3FEF358724870BC0CE011B
:102F100001960E945420019719F4898190E002C023
:102F20008FEF9FEF0F90DF91CF9108950E94AD2812
:102F30000F931F93CF93DF931F92CDB7DEB782E03D
:102F4000898342E450E065EC7BE080E80E94F5165E
:102F50000E947E20DC0112960D911C9113970115A1
:102F6000110569F0D801ED91FC910280F381E02D0B
:102F7000BE016F5F7F4FC801099597FF07C0898128
:102F80000F90DF91CF911F910F910895F801008567
:102F90001185E5CF1F920F920FB60F9211248F93D8
:102FA0009F938091E1009091E100937F9093E100E5
:102FB00083FF0FC01092E90091E09093EB00109214
:102FC000EC0092E39093ED001092D10298E0909380
:102FD000F00082FF20C093E09093E9009091F2000E
:102FE000992319F09AE39093E8009091CE029923E7
:102FF00039F09091CE0291509093CE02992389F1AD
:103000009091D002992339F09091D00291509093F1
:10301000D002992341F184FF10C08091E2008E7E9E
:1030200081608093E2008091E1008F7E8093E100D7
:103030008091CF028E7E806111C080FF16C080918A
:10304000E2008E7E80618093E2008091E1008E7EBE
:103050008093E1008091CF028E7E81608093CF02C9
:1030600004C05D9ACDCF289AD6CF9F918F910F90B3
:103070000FBE0F901F9018951F920F920FB60F92D0
:103080001124CF92DF92EF92FF920F931F932F9311
:103090003F934F935F936F937F938F939F93AF93E0
:1030A000BF93EF93FF93CF93DF93CDB7DEB76C97CA
:1030B000DEBFCDBF1092E9008091E80083FFFAC126
:1030C00068E0CE0145960E941C1782EF8093E800CD
:1030D0008D8987FF05C09091E80090FFFCCF03C069
:1030E0009EEF9093E800982F907609F0C6C09E89D5
:1030F0002F89188D91110CC0803829F48091BA0263
:103100008093F10002C01092F1001092F10047C1CB
:10311000422F50E0512B913051F4811140C1413088
:10312000510509F03CC18091BA028D7F0BC09330EC
:1031300061F4811134C14130510509F030C18091F1
:10314000BA0282608093BA022AC1953041F480911C
:10315000E80080FFFCCF20682093E30020C1963078
:1031600009F05FC0EB8CFC8C1092E9001092BF025A
:103170001092BE02123091F51092BD021092BC0264
:103180000E94981799E0BE016F5F7F4FDB01E92F26
:103190001D92EA95E9F799831A8391E09E8390EA5C
:1031A00098879AEF99872091BE023091BF02275FDE
:1031B0003F4F3C832B838D831092E9001092BF0216
:1031C0001092BE02F092BD02E092BC0249E050E0D3
:1031D00080E00E94F5160E949817E1C0F092BD02AF
:1031E000E092BC020E947E20DC011296ED90FC90E1
:1031F0001397E114F10409F4C0C0D701ED91FC91DB
:103200000480F581E02DBE016B5E7F4FC7010995FB
:10321000009719F00CF0C3C0C6C0F701E084F18438
:10322000E8CF973009F4BFC0983021F481E0809353
:10323000F100B5C0993009F0B2C0837009F0B3C095
:10324000E5E1F1E081E021E036E39081992361F04E
:103250008093E9002093EB0091919093EC003093E0
:10326000ED008F5F873089F78EE78093EA00109238
:10327000EA008F898093D10292C08B8D9C8D109231
:10328000E9001092BF021092BE029093BD0280939B
:10329000BC02898D811156C08E899D89913A59F45D
:1032A000813209F080C047E050E064E071E080E0E6
:1032B0000E94F51674C0913209F075C0833289F40A
:1032C000888D90E0982F88272F89822BA0E0B0E08E
:1032D0008093000190930101A0930201B093030138
:1032E0005EC0803269F48091E80082FFFCCF67E025
:1032F00084E091E00E941C178BEF8093E80006C0E9
:10330000823209F04CC08F8980930B018091B90201
:10331000882319F0EEEFFAE002C0E0E0F8E08091D7
:10332000040190910501A0910601B0910701803B35
:103330009440A105B10509F088C080910B0180FF80
:10334000A0C083C00E947E20DC0112960D911C91CA
:1033500013970115110539F1D801ED91FC910190F8
:10336000F081E02DBE016B5E7F4FC8010995811190
:1033700016C0F80100851185ECCF1130C1F0133073
:1033800091F48F89882309F455C08230E9F440E82C
:1033900067E087E19CE00E94B816882321F08EEF59
:1033A0008093E80087C081E28093EB0083C08B8D1F
:1033B0009C8D089711F41093BB028091BB02811180
:1033C00036C06FE17CE038C0813029F440E86BE022
:1033D0008BE09CE0E0CF833031F70E947E20DC015F
:1033E0001296ED90FC9013978E010F5F1F4F6801AE
:1033F000E114F10479F0D701ED91FC910680F78199
:10340000E02DB801C7010995080F111DF701E084EF
:10341000F184EECFD8011C92F60101900020E9F76B
:103420003197BF016C197D0940E0C601B4CF61E35B
:103430007CE002C067E07CE06115710509F4B3CF60
:10344000FB01449150E080E833CF0FB6F894A89583
:1034500080916000886180936000109260000FBED0
:10346000A895EE3F2AE0F20739F08091FE0A90918C
:10347000FF0A9183808393CF1092FF0A1092FE0A75
:103480008ECFEE3F8AE0F80731F0808191819093F2
:10349000FF0A8093FE0A87E797E7918380839BE08A
:1034A00088E10FB6F894A895809360000FBE9093C2
:1034B000600075CF6C960FB6F894DEBF0FBECDBF1F
:1034C000DF91CF91FF91EF91BF91AF919F918F913C
:1034D0007F916F915F914F913F912F911F910F912C
:1034E000FF90EF90DF90CF900F900FBE0F901F9046
:1034F0001895EF92FF920F931F93CF93DF938C0158
:103500007B01C0E0D0E0F701EC0FFD1F6491662362
:1035100061F0D801ED91FC910190F081E02DC8019E
:103520000995892B11F02196EECFCE01DF91CF9135
:103530001F910F91FF90EF9008956115710579F03B
:10354000FB0101900020E9F73197AF01461B570BB3
:10355000DC01ED91FC910280F381E02D099480E083
:1035600090E00895362F90E0FC01ED5BF34F44911D
:10357000FC01E057F34F2491FC01E354F34F849195
:10358000882309F451C04423E1F150E0FA01319756
:10359000EF30F105B0F5EA5AFF4F0C946826909190
:1035A00080009F7707C0909180009F7D03C090911D
:1035B0008000977F9093800024C094B59F7702C0CD
:1035C00094B59F7D94BD1DC0909190009F7707C0DA
:1035D000909190009F7D03C090919000977F909371
:1035E00090000FC09091C0009F7703C09091C000E1
:1035F0009F7D9093C00005C09091C200977F9093EB
:10360000C200E82FF0E0EE0FFF1FE155F34FA59148
:10361000B4918FB7F894EC91311103C020952E230B
:1036200001C02E2B2C938FBF0895CF93DF9390E092
:10363000FC01E057F34F2491FC01E354F34F8491D4
:10364000882361F190E0880F991FFC01EE59F34F38
:10365000C591D491FC01E155F34FA591B49161114D
:1036600009C09FB7F8948881209582238883EC91C4
:103670002E230BC0623061F49FB7F8943881822FFB
:10368000809583238883EC912E2B2C939FBF06C0BB
:103690008FB7F894E8812E2B28838FBFDF91CF91CD
:1036A00008951F93CF93DF93182FEB0161E00E94E1
:1036B000151B209711F460E004C0CF3FD10539F409
:1036C00061E0812FDF91CF911F910C94B21AE12F0D
:1036D000F0E0ED5BF34FE4914E2F50E0FA013197AB
:1036E000EF30F10508F06CC0EB59FF4F0C946826E1
:1036F00084B5806884BDC7BD68C084B5806284BD60
:10370000C8BD63C080918000806880938000D093A2
:103710008900C093880059C08091800080628093A6
:103720008000D0938B00C0938A004FC080918000AE
:10373000886080938000D0938D00C0938C0045C03A
:1037400080919000806880939000D0939900C093FE
:1037500098003BC080919000806280939000D0934D
:103760009B00C0939A0031C0809190008860809344
:103770009000D0939D00C0939C0027C08091C00012
:1037800080688093C0008091C0008F7B8093C000D0
:10379000C093CF001AC08091C00080628093C000A7
:1037A000C093D00012C08091C20088608093C20094
:1037B0008091C2008B7F8093C200C093D20005C06D
:1037C000C038D1050CF07CCF76CFDF91CF911F911F
:1037D00008958F929F92AF92BF92CF92DF92EF9215
:1037E000FF926B017C010E94FC224B015C01C11421
:1037F000D104E104F104F1F00E94FC22DC01CB01D0
:1038000088199909AA09BB09883E9340A105B10509
:1038100070F321E0C21AD108E108F10888EE880EA1
:1038200083E0981EA11CB11CC114D104E104F10471
:1038300019F7DDCFFF90EF90DF90CF90BF90AF9062
:103840009F908F900895682FF999FECF8091FE0682
:103850009091FF069C012F5F3F4F3093FF0620930E
:10386000FE060C94232C8F929F92AF92BF92CF9220
:10387000DF92EF92FF920F931F93CF93DF935C0140
:103880006B018A0180910B01882309F45EC080914D
:10389000D102882309F459C08091CF0280FF05C06E
:1038A0008091E00082608093E000E8018AEFF82ECA
:1038B00093E0E92E2FE3822E3AE3932E209709F42A
:1038C0003DC08FB7F894E092E9009091E80095FF31
:1038D00006C09091F200282D291B922F01C090E084
:1038E0008FBF91110AC0FA94FF2079F161E070E076
:1038F00080E090E00E94E91BE1CF292F30E0C21761
:10390000D3070CF49C2F8FB7F894E092E900209134
:10391000E80025FF11C0292F30E0C21BD30BF601B0
:10392000915020F041914093F100FACFC20ED31E86
:103930009091E80095FF13C08FBFC0CF5D9884E6DB
:103940008093CE021016110644F081E090E0F5015C
:103950009383828380E090E005C0C80103C0909209
:10396000E800EACFDF91CF911F910F91FF90EF9088
:10397000DF90CF90BF90AF909F908F900895CF939E
:10398000DF939091DE02923009F46EC0C82F292F88
:1039900030E0F901E452F34FD491F901E45FF84FBC
:1039A00080839F5F9093DE0261E00E94151BD130FF
:1039B00019F0D33039F158C0109280001092810074
:1039C0008091810088608093810080918100816076
:1039D000809381008C2F90E0FC01E354F34FE4913D
:1039E000F0E0EE0FFF1FE155F34F25913491309336
:1039F000DD022093DC02FC01E057F34F84918093B9
:103A0000DB0232C0109290001092910080919100E0
:103A100088608093910080919100816080939100F3
:103A20008C2F90E0FC01E354F34FE491F0E0EE0FB3
:103A3000FF1FE155F34F259134913093DA02209323
:103A4000D902FC01E057F34F84918093D802809112
:103A5000DE02882321F06CE380E00E94CF1280E038
:103A6000DF91CF910C94BA13DF91CF91089520E0AC
:103A700083EF92E0B22FB111BFEFFC010024B193AC
:103A8000B193B193B1930394D1F708952F923F92DC
:103A90004F925F926F927F928F929F92AF92BF925E
:103AA000CF92DF92EF92FF920F931F93CF93DF930A
:103AB000CDB7DEB728970FB6F894DEBF0FBECDBFE7
:103AC000222E312C9C01220D331D37FD30C1803850
:103AD00091050CF02CC19B01200F311D37FD27C132
:103AE000603471050CF023C1DB0177FF04C0AA2705
:103AF000BB27A61BB70BA770BB279B0177FF02C094
:103B0000295F3F4F13E0359527951A95E1F777FF29
:103B100008C02150310968E070E05B01AA1ABB0AB5
:103B2000D501E02FE695E695E695CE2ED12C0770CF
:103B300019F00FEFC01AD00AB9017695762F6627D3
:103B400077956795680F791F5601A20EB31EBC8248
:103B5000AB82412C512CF8E0CF2ED12C86010A1BD0
:103B60001B0B1A830983AB80BC802A153B0509F423
:103B7000DEC02830310509F4DAC02F3F1FEF3107CE
:103B80000CF4CAC03B01E0E86E0E711C8B010D58AD
:103B90001C4F1E830D834C0100E010E0021513053D
:103BA0000CF0BAC0E0E88E16910409F4B5C097FC99
:103BB000A8C02F3FFFEF3F0709F4B5C0F801E40D9F
:103BC000F51DCD80DE80C618D708AA24A394E40F83
:103BD000F51FEA1013C0E491C60ED71EF0E05F0196
:103BE0000A2E02C0AA0CBB1C0A94E2F7B886AF8268
:103BF000F601B080EF81F885EB292BC0E11017C0EA
:103C0000E491C60ED71EF0E00A2E02C0EE0FFF1F91
:103C10000A94E2F75F01A094B094B886AF82F601EF
:103C2000A080B12CEF81F885AE22BF2213C0E491B1
:103C3000C60ED71EF0E05F010A2E02C0AA0CBB1C04
:103C40000A94E2F7B886AF82F601B080EF81F8857A
:103C5000EB255F01F601A082109709F452C02730CE
:103C6000310509F44EC0F801E40DF51DAA24A39412
:103C7000EA1011C0E40FF51FE491CE2ED12C5601AD
:103C8000098002C0B594A7940A94E2F7ED81FE8101
:103C9000D080AD2835C0CD80DE80C618D708E40FAF
:103CA000F51FE11018C0E491C60CD71CAE2EB12C44
:103CB000098002C0B594A7940A94E2F7F501E09553
:103CC000F095F887EF83F601A080B12CEF81F8859D
:103CD000AE22BF2214C0E491C60CD71CAE2EB12C6C
:103CE000F501098002C0F595E7950A94E2F7F88797
:103CF000EF83F601B080EF81F885EB255F01F601D7
:103D0000A0820F5F1F4FED81FE813196FE83ED8310
:103D1000FFEF8F1A9F0A42CF2F5F3F4F420C531C79
:103D200060587F4F20CF109709F09DCFEACF28969B
:103D30000FB6F894DEBF0FBECDBFDF91CF911F91BC
:103D40000F91FF90EF90DF90CF90BF90AF909F903A
:103D50008F907F906F905F904F903F902F9008953D
:103D6000CF93DF9377FF06C0460F47FD51C060E059
:103D700070E006C047FD4CC0603471050CF048C0CF
:103D80008038910508F044C09B01240F311D47FD88
:103D90003A952134310514F040E4461B362F377034
:103DA0002FEF032E01C0220F0A94EAF7430F631B83
:103DB000710977FF02C0695F7F4F33E075956795A2
:103DC0003A95E1F77695762F662777956795680F90
:103DD000791FFB01ED50FD4F88E090E06FEF70E040
:103DE0001416B4F4483064F4DC01A41BB10947FD97
:103DF000B395EB0102C0D595C795AA95E2F72C23A0
:103E00003081232B20834850E058FF4F2FEFE8CF1D
:103E1000DF91CF9108950F931F93CF93DF9320915C
:103E2000D702222329F1162FEC018091D202882398
:103E300081F08091FD068617D8F000E08091DE02C7
:103E4000081728F4802F0E94BA130F5FF7CF109243
:103E5000D2021093FD06D093D602C093D502D09320
:103E6000D402C093D3020E94E31381E08093D20274
:103E7000DF91CF911F910F910895CF93DF931F9200
:103E8000CDB7DEB799830E94231C9981892F0F90AB
:103E9000DF91CF910C94231C1F93CF93DF9300D01D
:103EA000CDB7DEB7182F862F79839A830E94231C03
:103EB0007981872F0E94231C812F0E94231C9A81C5
:103EC000892F0F900F90DF91CF911F910C94231C9D
:103ED0000F93CF93DF9397FF06C0480F80E090E0E9
:103EE00077FD03C009C077FF03C0260F60E070E0D4
:103EF000803891050CF064C027FD62C06034710504
:103F00000CF05EC0FC01E40FF11DE138F10514F086
:103F100040E8481BFB01E20FF11D27FDFA95E13453
:103F2000F10514F020E4261B562F57703FEF052EA5
:103F300001C0330F0A94EAF7250F651B710977FF5B
:103F400002C0695F7F4F53E0759567955A95E1F719
:103F50007695762F662777956795680F791F6D5050
:103F60007D4FA8E0B0E0CFEFD0E012164CF528303E
:103F700064F4CD01821B910927FD9395FE0102C0D7
:103F8000F595E7958A95E2F73E23002319F0FB01AA
:103F9000842F0AC03095FB01842F882361F0908123
:103FA000932391938150F9CF882329F09081932B0B
:103FB00091938150F9CF285060587F4F3FEFD5CF74
:103FC000DF91CF910F9108958F929F92AF92BF9200
:103FD0000F931F93CF93DF93CDB7DEB7A1970FB6A3
:103FE000F894DEBF0FBECDBF19A2423008F44AE0FC
:103FF0008E010F5D1F4F842E912CA12CB12CA50199
:1040000094010E94632CE62FB901CA0101501109E5
:10401000EA3014F4E05D01C0E95CD801EC93232B95
:10402000242B252B61F7B8018FED92E00E949D1A99
:10403000A1960FB6F894DEBF0FBECDBFDF91CF9132
:104040001F910F91BF90AF909F908F900895EF9226
:10405000FF920F931F93CF93DF93F999FECFC091F7
:10406000FE06D091FF067E012FEFE21AF20AF092CF
:10407000FF06E092FE06CE010E941B2C082F10E0E6
:10408000F999FECF2296D093FF06C093FE06C70192
:104090000E941B2C9801382BC901DF91CF911F91F1
:1040A0000F91FF90EF900895FC018091D102811152
:1040B00003C08FEF9FEF08959FB7F89482E080933D
:1040C000E9002091F20030E01216130614F421E00A
:1040D00030E02115310559F0289884E68093D0020C
:1040E0008091F10080838091F200882319F09FBFB6
:1040F000C90108958BE68093E800F9CF8091040709
:1041000081110DC082E08093000784E08093010755
:10411000109203071092020781E08093040780E069
:1041200097E008952F923F924F925F926F927F9205
:104130008F929F92AF92BF92CF92DF92EF92FF92B7
:104140000F931F93CF93DF93CDB7DEB768970FB66A
:10415000F894DEBF0FBECDBF80917F07882309F49E
:1041600006C20E94371D80917E07813009F4D2C0BB
:1041700060F0823009F0F9C180E8E82E8DE0F82E79
:1041800008E010E09DEFD92EC9C1EE24E39404E1CC
:1041900024E545E95FE060E070E083E090E00E94A4
:1041A000461D20E545EA5EE063E170E08DE290E0C7
:1041B0000E94461D08E228E24DED5DE068E170E0F6
:1041C00084E090E00E94461D80917C0790917D07DD
:1041D0009E012F5F3F4F7901892B09F443C002E60E
:1041E00010E01093F4060093F3061092F606109276
:1041F000F50668ED7DE08FED92E00E94791A10934C
:10420000F4060093F30686E090E09093F606809320
:10421000F50662ED7DE08FED92E00E94791A8091C3
:104220007D078F9380917C078F9385E491E09F9326
:104230008F93FF92EF920E94B2281093F40600939E
:10424000F3068EE090E09093F6068093F506B701B2
:104250008FED92E00E949D1A0F900F900F900F909B
:104260000F900F90EAECAE2EEDE0BE2EF8E2CF2ECE
:10427000D12C00E010E0F50185909490B401C701C5
:104280000E94092C80917B07082E000C990B0817BF
:10429000190719F080E490E002C08CE390E090935D
:1042A000F4068093F306D092F606C092F506B701A5
:1042B0008FED92E00E949D1A33EC83163DE0930649
:1042C00069F480917A07811103C06CEB7DE002C034
:1042D00060EC7DE08FED92E00E94791A0F5F1F4F36
:1042E00042E0A40EB11C56E0C50ED11C04301105ED
:1042F00009F0C1CF60917B0786E06802B00111240C
:10430000685D7F4F01E025E045E084E390E00E9496
:10431000681F2BC186E190E09093F4068093F3062A
:1043200084E090E09093F6068093F5066DEA7DE0D8
:104330008FED92E00E94791AE3E7F3E09FE79E0F8A
:104340008081806181939E13FBCF56E6252E57E036
:10435000352E812C912C5401839474E0E72EF12C9E
:10436000240135013EE0C32ED12C00E010E0940181
:1043700021503109C801820F931F099719F486E073
:1043800090E002C080E090E0A701481B590B5093D9
:10439000F4064093F306D092F606C092F5066BEA57
:1043A0007DE08FED92E02F8B388F0E94791A4AE0E2
:1043B000C301B2010E94E41F68EA7DE08FED92E044
:1043C0000E94791AF801EE0FFF1FE20DF31D6081C4
:1043D000718180E090E04AE00E94E41F0F5F1F4F70
:1043E00056E0C50ED11C8FEF481A580A680A780AA1
:1043F0002F89388D0530110509F0BCCF9CE3E90EFB
:10440000F11C2AE0220E311C35E0830E911CA11C08
:10441000B11C4CE7E416F10409F0A2CFE3E7F5E0A4
:104420009FE79E0F8081806181939E13FBCF00E107
:1044300010E01093F4060093F30680E390E090936D
:10444000F6068093F5066CE97DE08FED92E00E9420
:10445000791A609164077091650780E090E04AE006
:104460000E94E41F1093F4060093F30686E390E0A5
:104470009093F6068093F50660E97DE08FED92E07B
:104480000E94791A609160077091610780916207BC
:104490009091630720E13EE040E050E00E94632CF1
:1044A000CA01B9014AE00E94E41F6091600770915F
:1044B000610780916207909163072CE3C22ED12C93
:1044C000E12CF12CA70196010E94632CCA01B901CD
:1044D000A70196010E94632C9F938F937F936F9304
:1044E00089E491E09F938F938E010F5F1F4F1F937D
:1044F0000F930E94B228B8018FED92E00E949D1A9E
:104500000FB6F894DEBF0FBECDBF2FC042E0E40E61
:10451000F11C0A5F1F4F0833110539F1F70165914E
:1045200074916115710591F3CE0101960E94092CD9
:1045300066E170E0CE0101960E94102C282F3D2DDF
:104540003203C0011124805C9F4F9093F406809346
:10455000F3061093F6060093F506BE016F5F7F4FDA
:104560008FED92E00E949D1AD1CF10927F0780912B
:104570007E07811128C080915F078695869563E04C
:1045800070E0681B710977FF02C060E070E0633083
:10459000710509F461E05AE0659FB00111246E597C
:1045A000724F4AE050E087E895E00E94002CE090CE
:1045B0005E0708E027E04BE55DE06AE170E086E138
:1045C00090E00E94461D68960FB6F894DEBF0FBEBD
:1045D000CDBFDF91CF911F910F91FF90EF90DF90B2
:1045E000CF90BF90AF909F908F907F906F905F9093
:1045F0004F903F902F9008953FB7F8948091860791
:1046000090918707A0918807B091890726B5A89B4C
:1046100005C02F3F19F00196A11DB11D3FBFBA2F54
:10462000A92F982F8827820F911DA11DB11DBC01B4
:10463000CD0142E0660F771F881F991F4A95D1F779
:1046400008951F920F920FB60F9211242F933F934C
:104650008F939F93AF93BF938091C1029091C202B9
:10466000A091C302B091C4023091850723E0230FCB
:104670002D3720F40196A11DB11D05C026E8230F9A
:104680000296A11DB11D209385078093C1029093CE
:10469000C202A093C302B093C40280918607909196
:1046A0008707A0918807B09189070196A11DB11DC8
:1046B0008093860790938707A0938807B093890714
:1046C000BF91AF919F918F913F912F910F900FBE0E
:1046D0000F901F90189581E080938407E1E8F0E047
:1046E0008081887F816080838BE395E3909389004C
:1046F0008093880087E190E0A0E0B0E0809380079D
:1047000090938107A0938207B0938307EFE6F0E0D0
:10471000808182608083089581E080938407E1E84E
:10472000F0E08081887F8160808384E097E49093CB
:1047300089008093880088E090E0A0E0B0E080935A
:10474000800790938107A0938207B0938307EFE6D9
:10475000F0E08081826080830895CF93DF931F9281
:10476000CDB7DEB7789484B5826084BD84B58160AE
:1047700084BD85B5826085BD85B5816085BD80912C
:104780006E00816080936E001092810080918100A4
:10479000826080938100809181008160809381009C
:1047A0008091800081608093800080919100826080
:1047B000809391008091910081608093910080911D
:1047C00090008160809390008091C100846080930C
:1047D000C1008091C10082608093C1008091C100BE
:1047E00081608093C1008091C30081608093C30089
:1047F0008091C00082608093C0008091C20081607F
:104800008093C20080917A00846080937A008091C6
:104810007A00826080937A0080917A008160809330
:104820007A0080917A00806880937A001092D10299
:104830001092BA021092CF028091D70081608093CB
:10484000D70080EA8093D80089B5806189BD89B599
:10485000826089BD09B400FEFDCF61E070E080E0B8
:1048600090E00E94E91B8091D8008F7C806180934A
:10487000D8008091E000807F8093E0008091E1008B
:104880008E7E8093E1008DE08093E200559A209A1D
:10489000EEEFFFE7859194918B3F9C4D19F481E0F9
:1048A0008093B9021FB7F8948091C502811127C087
:1048B000EEECFCE08491E1EAFCE09491E82FF0E07A
:1048C000EE0FFF1FEE59F34FA591B491EC91E92340
:1048D00021F461E081E10E94B21A61E081E10E946D
:1048E000151B8CB580618CBD8CB580648CBD61E07E
:1048F0008FE00E94151B61E080E10E94151B8091F2
:10490000C5028F5F8093C5021FBF0DE71CE0F80151
:1049100084910E5F1F4F31966491882319F00E9495
:10492000151BF5CF61E086E00E94B21A61E070E0ED
:1049300080E090E00E94E91B60E086E00E94B21AED
:104940006AE070E080E090E00E94E91B61E086E0B0
:104950000E94B21AE9ECFCE0E491F0E0EE0FFF1FD8
:10496000E155F34F859194919093CB028093CA02C5
:10497000ECE9FCE0E491E093C902E1ECFCE0E491B5
:10498000F0E0EE0FFF1FE155F34F85919491909366
:10499000C8028093C702E4E9FCE0E491E093C60218
:1049A0008CB58C7F8CBD8DB581608DBDE091CA02C8
:1049B000F091CB0290818091C902982B9083A091B5
:1049C000C702B091C8022C919091C6029095922393
:1049D0009C939081809589238083E0E7FCE02CE024
:1049E000ED37F20749F084918EBD00000DB407FE4B
:1049F000FDCF8EB53196F3CFE091C702F091C8029A
:104A000090818091C602892B8083E091CA02F09147
:104A1000CB0290818091C902809589238083809107
:104A20006400816080936400809164008260809360
:104A300064008091640080688093640080916400C9
:104A4000806480936400809165008160809365003C
:104A50000E94B21287FF1AC080E094E01EBC0000E2
:104A60000DB407FEFDCF2EB50197C1F760E070E0F1
:104A70008AE00E94511B60E070E08BE00E94511BB5
:104A800060E070E089E00E94511BFFCF85E00E944A
:104A9000BF1C8DE00E94BF1C1092D20282E090E009
:104AA0000E941B2C81110E94AE148CE38093E502BE
:104AB00080E18093E80288E78093C00216E080E0FE
:104AC000E82E80E0F82E01E02FB7F8948091C10223
:104AD0009091C202A091C302B091C4022FBF209155
:104AE000F102222391F02091E902382F321B3093FA
:104AF000F2022091E6023091E7022F5F3F4F3093A0
:104B0000E7022093E6021092F1024091ED025091EB
:104B1000EE026091EF027091F00284179507A607EC
:104B2000B7077CF4481B423008F47AC083B7817F12
:104B300083BF83B7816083BF889583B78E7F83BF30
:104B40006FC02091E802AC01BD01420F511D611DF3
:104B5000711D4093ED025093EE026093EF0270934B
:104B6000F0028093E9029093EA02A093EB02B093E3
:104B7000EC020093F1028091FC068093FB060E94F8
:104B8000B2128093FC068091CC029091CD02189FC6
:104B9000F001199FF00D1124E55EFE4F0280F381B4
:104BA000E02D09952091CC023091CD02129FF001A9
:104BB000139FF00D1124E55EFE4F0480F581E02D7A
:104BC000898309959091F3029EBDE4EFF2E089811B
:104BD00091910DB407FEFDCF9EBD96E0E33FF9072E
:104BE000B9F70DB407FEFDCF8823D1F08091CC0238
:104BF0009091CD02019719F081E090E002C082E02F
:104C000090E09093CD028093CC02189FF001199F01
:104C1000F00D1124E55EFE4F0190F081E02D099525
:104C2000E114F10409F450CF0E9400004DCFEEE0F2
:104C3000F7E01382128288EE93E0A0E0B0E0848374
:104C40009583A683B78381E391E0918380838FEF7F
:104C50009FEF95878487EFEDF2E0138212828CE359
:104C6000868380E181871086178216861786108AD0
:104C7000118A128A1092F4061092F3061092F60628
:104C80001092F50681E08093F70621E431E031834C
:104C900020838093F9061092FA0680E190E09093C9
:104CA000FF068093FE06089597FB072E16F40094E6
:104CB00007D077FD09D00E946E2607FC05D03EF490
:104CC000909581959F4F0895709561957F4F0895B8
:104CD000EE0FFF1F0590F491E02D0994AA1BBB1B5A
:104CE00051E107C0AA1FBB1FA617B70710F0A61BEC
:104CF000B70B881F991F5A95A9F780959095BC010D
:104D0000CD0108955058BB27AA270E949A260C94DB
:104D1000A9270E94702738F00E94772720F039F4E5
:104D20009F3F19F426F40C946D270EF4E095E7FBF1
:104D30000C946727E92F0E94CE2758F3BA17620711
:104D400073078407950720F079F4A6F50C94F027F3
:104D50000EF4E0950B2EBA2FA02D0B01B901900196
:104D60000C01CA01A0011124FF27591B99F0593FDA
:104D700050F4503E68F11A16F040A22F232F342F22
:104D80004427585FF3CF469537952795A795F04070
:104D90005395C9F77EF41F16BA0B620B730B840B85
:104DA000BAF09150A1F0FF0FBB1F661F771F881F3D
:104DB000C2F70EC0BA0F621F731F841F48F4879595
:104DC00077956795B795F7959E3F08F0B0CF939587
:104DD000880F08F09927EE0F9795879508950E9400
:104DE0008027E3950C94BA270E94FB266894B111A2
:104DF0000C94F12708950E94D62788F09F5798F0C9
:104E0000B92F9927B751B0F0E1F0660F771F881FCF
:104E1000991F1AF0BA95C9F714C0B13091F00E94E9
:104E2000F027B1E008950C94F027672F782F88279A
:104E3000B85F39F0B93FCCF3869577956795B39510
:104E4000D9F73EF490958095709561957F4F8F4F7F
:104E50009F4F0895E89409C097FB3EF49095809584
:104E6000709561957F4F8F4F9F4F9923A9F0F92F30
:104E700096E9BB279395F695879577956795B795AE
:104E8000F111F8CFFAF4BB0F11F460FF1BC06F5F94
:104E90007F4F8F4F9F4F16C0882311F096E911C0A6
:104EA000772321F09EE8872F762F05C0662371F0C7
:104EB00096E8862F70E060E02AF09A95660F771FDB
:104EC000881FDAF7880F9695879597F9089597F9CF
:104ED0009F6780E870E060E008959FEF80EC0895A0
:104EE00000240A94161617061806090608950024C9
:104EF0000A94121613061406050608950C946D27DD
:104F00000E94D627D8F3E894E0E0BB279F57F0F043
:104F10002AED3FE049EC06C0EE0FBB0F661F771F7E
:104F2000881F28F0B23A62077307840728F0B25A44
:104F3000620B730B840BE3959A9572F7803830F40B
:104F40009A95BB0F661F771F881FD2F790480C9465
:104F50006628092E0394000C11F4882352F0BB0F2D
:104F600040F4BF2B11F460FF04C06F5F7F4F8F4F81
:104F70009F4F0895EF93E0FF07C0A2EA2AED3FE0BC
:104F800049EC5FEB0E949A260E94A9270F90039498
:104F900001FC9058E8EEF0E00C94722857FD905810
:104FA000440F551F59F05F3F71F04795880F97FBED
:104FB000991F61F09F3F79F08795089512161306A7
:104FC0001406551FF2CF4695F1DF08C016161706D6
:104FD0001806991FF1CF869571056105089408950B
:104FE000E894BB2766277727CB0197F908950E949D
:104FF0000A280C94A9270E94702738F00E9477276E
:1050000020F0952311F00C9467270C946D27112440
:105010000C94F1270E94CE2770F3959FC1F3950F52
:1050200050E0551F629FF001729FBB27F00DB11D2C
:10503000639FAA27F00DB11DAA1F649F6627B00DBC
:10504000A11D661F829F2227B00DA11D621F739FA5
:10505000B00DA11D621F839FA00D611D221F749FB3
:105060003327A00D611D231F849F600D211D822FFA
:10507000762F6A2F11249F5750409AF0F1F0882321
:105080004AF0EE0FFF1FBB1F661F771F881F91504E
:105090005040A9F79E3F510580F00C9467270C946F
:1050A000F1275F3FE4F3983ED4F3869577956795B3
:1050B000B795F795E7959F5FC1F7FE2B880F911D78
:1050C0009695879597F908959F3F31F0915020F478
:1050D000879577956795B795880F911D96958795D4
:1050E00097F908959F938F937F936F93FF93EF9317
:1050F0009B01AC010E94F727EF91FF910E94862847
:105100002F913F914F915F910C94F727DF93CF93AD
:105110001F930F93FF92EF92DF927B018C016894B3
:1051200006C0DA2EEF010E940A28FE01E894A5913C
:105130002591359145915591A6F3EF010E949A264C
:10514000FE019701A801DA9469F7DF90EF90FF90D4
:105150000F911F91CF91DF91089581E090E0F89435
:105160000C94CB2CAEE0B0E0E8EBF8E20C94A22C6F
:105170000D891E8986E08C831A8309838FEF9FE750
:105180009E838D83AE01475E5F4F6F89788DCE0120
:1051900001960E94D5282F813885F801E20FF31F70
:1051A00010822E96E4E00C94BE2CACE0B0E0EBED67
:1051B000F8E20C94942C7C016B018A01FC011782AB
:1051C0001682838181FFBDC1CE0101964C01F7019A
:1051D0009381F60193FD859193FF81916F0188235F
:1051E00009F4ABC1853239F493FD859193FF819128
:1051F0006F01853229F4B70190E00E94B22AE7CF0F
:10520000512C312C20E02032A0F48B3269F030F4A4
:10521000803259F0833269F420612CC08D3239F02C
:10522000803339F4216026C02260246023C02860C6
:1052300021C027FD27C030ED380F3A3078F426FF23
:1052400006C0FAE05F9E300D1124532E13C08AE091
:10525000389E300D1124332E20620CC08E3221F482
:1052600026FD6BC1206406C08C3611F4206802C094
:10527000883641F4F60193FD859193FF81916F018A
:105280008111C1CF982F9F7D9554933028F40C5FE6
:105290001F4FFFE3F9830DC0833631F0833771F080
:1052A000833509F05BC022C0F801808189830E5FDD
:1052B0001F4F44244394512C540115C03801F2E08F
:1052C0006F0E711CF801A080B18026FF03C0652D10
:1052D00070E002C06FEF7FEFC5012C870E94102C99
:1052E0002C0183012C852F77222E17C03801F2E084
:1052F0006F0E711CF801A080B18026FF03C0652DE0
:1053000070E002C06FEF7FEFC5012C870E94A72AD3
:105310002C012C852068222E830123FC1BC0832DA9
:1053200090E048165906B0F4B70180E290E00E9480
:10533000B22A3A94F4CFF50127FC859127FE81919A
:105340005F01B70190E00E94B22A31103A94F1E077
:105350004F1A51084114510471F7E5C0843611F019
:10536000893639F5F80127FF07C060817181828194
:1053700093810C5F1F4F08C060817181072E000C64
:10538000880B990B0E5F1F4F2F76722E97FF09C067
:1053900090958095709561957F4F8F4F9F4F2068B6
:1053A000722E2AE030E0A4010E94EA2AA82EA81852
:1053B00044C0853729F42F7EB22E2AE030E025C084
:1053C000F22FF97FBF2E8F36C1F018F4883579F0AF
:1053D000B4C0803719F0883721F0AFC02F2F20617B
:1053E000B22EB4FE0DC08B2D8460B82E09C024FFF0
:1053F0000AC09F2F9660B92E06C028E030E005C095
:1054000020E130E002C020E132E0F801B7FE07C041
:1054100060817181828193810C5F1F4F06C0608122
:10542000718180E090E00E5F1F4FA4010E94EA2A84
:10543000A82EA818FB2DFF777F2E76FE0BC0372DE8
:105440003E7FA51450F474FE0AC072FC08C0372DCC
:105450003E7E05C0BA2C372D03C0BA2C01C0B52C36
:1054600034FF0DC0FE01EA0DF11D8081803311F47F
:10547000397E09C032FF06C0B394B39404C0832FB1
:10548000867809F0B39433FD13C030FF06C05A2C60
:10549000B31418F4530C5B18B32CB31468F4B701AD
:1054A00080E290E03C870E94B22AB3943C85F5CF1D
:1054B000B31410F43B1801C0312C34FF12C0B701F3
:1054C00080E390E03C870E94B22A3C8532FF17C0FF
:1054D00031FD03C088E790E002C088E590E0B701A5
:1054E0000CC0832F867859F031FF02C08BE201C0D7
:1054F00080E237FD8DE2B70190E00E94B22AA51448
:1055000038F4B70180E390E00E94B22A5A94F7CFB2
:10551000AA94F401EA0DF11D8081B70190E00E9488
:10552000B22AA110F5CF332009F451CEB70180E2A1
:1055300090E00E94B22A3A94F6CFF70186819781D3
:1055400002C08FEF9FEF2C96E2E10C94B02CFC018F
:105550000590615070400110D8F7809590958E0F9E
:105560009F1F08950F931F93CF93DF93FB01238118
:1055700021FD03C08FEF9FEF28C022FF16C0468198
:105580005781248135814217530744F4A081B181AA
:105590009D012F5F3F4F318320838C93268137817C
:1055A0002F5F3F4F3783268310C0EB01092F182F41
:1055B0000084F185E02D0995892BE1F68E819F818C
:1055C00001969F838E83812F902FDF91CF911F9122
:1055D0000F910895FA01AA27283051F1203181F165
:1055E000E8946F936E7F6E5F7F4F8F4F9F4FAF4FEB
:1055F000B1E03ED0B4E03CD0670F781F891F9A1FFE
:10560000A11D680F791F8A1F911DA11D6A0F711DB1
:10561000811D911DA11D20D009F468943F912AE0BD
:10562000269F11243019305D3193DEF6CF010895A5
:10563000462F4770405D4193B3E00FD0C9F7F6CFD6
:10564000462F4F70405D4A3318F0495D31FD40529E
:10565000419302D0A9F7EACFB4E0A6959795879534
:1056600077956795BA95C9F7009761057105089513
:105670009B01AC010A2E06945795479537952795BF
:10568000BA95C9F7620F731F841F951FA01D089557
:105690008F929F92AF92BF92CF92DF92EF92FF9242
:1056A000CF93DF93EC01688179818A819B816115B9
:1056B00071058105910521F464E279ED8BE597E0B0
:1056C0002DE133EF41E050E00E94312C49015A01B5
:1056D0009B01AC01A7EAB1E40E94502C6B017C0154
:1056E000ACEEB4EFA50194010E945E2CDC01CB016D
:1056F0008C0D9D1DAE1DBF1DB7FF03C00197A109F5
:10570000B04888839983AA83BB839F77DF91CF9129
:10571000FF90EF90DF90CF90BF90AF909F908F90D1
:1057200008950E94482B08958CE091E00E94482B38
:105730000895A0E0B0E080930C0190930D01A09338
:105740000E01B0930F0108958F929F92AF92BF9276
:10575000CF92DF92EF92FF92CF93DF93EC016881BB
:1057600079818A819B81611571058105910521F4FB
:1057700064E279ED8BE597E02DE133EF41E050E015
:105780000E94312C49015A019B01AC01A7EAB1E406
:105790000E94502C6B017C01ACEEB4EFA50194018A
:1057A0000E945E2CDC01CB018C0D9D1DAE1DBF1D2A
:1057B000B7FF03C00197A109B04888839983AA83E2
:1057C000BB83BC01CD019F77DF91CF91FF90EF901C
:1057D000DF90CF90BF90AF909F908F9008950E94E0
:1057E000A42B089580E191E00E94A42B089560937A
:1057F0001001709311018093120190931301089589
:10580000FB01DC0102C005900D9241505040D8F7D9
:105810000895FB01DC0105900D920020E1F7089549
:10582000FC016150704001900110D8F7809590956F
:105830008E0F9F1F0895F999FECF92BD81BDF89AF2
:10584000992780B50895262FF999FECF1FBA92BDEA
:1058500081BD20BD0FB6F894FA9AF99A0FBE019651
:105860000895052E97FB1EF400940E94482C57FDC6
:1058700007D00E94632C07FC03D04EF40C94482CF4
:1058800050954095309521953F4F4F4F5F4F08956C
:1058900090958095709561957F4F8F4F9F4F08959C
:1058A0000E94852CA59F900DB49F900DA49F800D04
:1058B000911D11240895B7FF0C94502C0E94502C78
:1058C000821B930B0895A1E21A2EAA1BBB1BFD019C
:1058D0000DC0AA1FBB1FEE1FFF1FA217B307E407CF
:1058E000F50720F0A21BB30BE40BF50B661F771F27
:1058F000881F991F1A9469F7609570958095909507
:105900009B01AC01BD01CF010895A29FB001B39FDF
:10591000C001A39F700D811D1124911DB29F700DB8
:10592000811D1124911D08952F923F924F925F92F5
:105930006F927F928F929F92AF92BF92CF92DF929F
:10594000EF92FF920F931F93CF93DF93CDB7DEB704
:10595000CA1BDB0B0FB6F894DEBF0FBECDBF099498
:105960002A88398848885F846E847D848C849B84EF
:10597000AA84B984C884DF80EE80FD800C811B81FD
:10598000AA81B981CE0FD11D0FB6F894DEBF0FBE2C
:0A599000CDBFED010895F894FFCF9C
:10599A00FFFFFFFF00E1000000000000010000001F
:1059AA000100000000C180810000007408340CCCA2
:1059BA000B9B15BC149220550FAF0F7A0C000000F8
:1059CA00004F16331C70167817541765160000001E
:1059DA0000AC0829172535640027253032642200D7
:00000001FF