:100000000C94FE0D0C94260E0C94260E0C94260EC9
:100010000C94260E0C94260E0C94260E0C94260E90
:100020000C94260E0C94260E0C942B110C949D11FE
:100030000C94260E0C94260E0C94260E0C94260E70
:100040000C94260E0C94260E0C94260E0C94260E60
:100050000C94260E0C94260E0C94260E0C94B41AB6
:100060000C94260E0C94260E0C94260E0C94260E40
:100070000C94260E0C94260E0C94260E0C94260E30
:100080000C94260E0C94260E0C94260E0C94260E20
:100090000C94260E0C94260E0C94260E0C94260E10
:1000A0000C94260E0C94260E0C94260EE30FF20FE1
:1000B000F70F0910171028102F10F0F89C8E878367
:1000C000878E9CF8F00000FEFF0303030303070E76
:1000D000FCF80000FEFF0303030303070EFCF80017
:1000E00000FFFF00000000000000FFFF0000FEFF17
:1000F0008383838383C7EE7C380000F8FC0E0703FC
:100100000303070EFCF800003F7FE0C08080C0E0E2
:100110007F3FFFFF01010101010101FFFF0000FF1F
:10012000FF0C0C0C0C1C3E77E3C100007FFFC0C02D
:10013000C0C0C0E0703F1F00001F3F70E0C0C0C0E3
:10014000E0703F1F00007FFFC1C1C1C1C1E3773E26
:100150001C00001F3F70E0C0C0C0E0703F1F0000E7
:1001600000000001FFFF01000000D5F08D14A1C8C0
:1001700081CFD9F1AF2000080B0002020201000973
:100180000400000102020000052400100105240102
:10019000010104240206052406000107058103105D
:1001A000004009040100020A0000000705020240A5
:1001B0000000070583024000000403090412010047
:1001C00002EF020140412336800001010203014198
:1001D000726475696E6F204C4C43004172647562A5
:1001E0006F79005068617261700046696C6D6F7460
:1001F00065004E6F656C204162657263726F6D625F
:1002000069650056616D7069726963730050686159
:1002100072617000E3014C6F63616C6973617469B2
:100220006F6E00F201EA0154657374696E67000332
:10023000020D024772617068696373000D025072AB
:100240006F6772616D6D696E6700080800080C7E4B
:100250007E0C08000010307E7E30100000183C7EBE
:1002600018181800001818187E3C18003E023C02AE
:100270000133022F02022702230202160214020196
:100280003030244CFFFDFCFEFDFCFEFDFCFEFDFCC1
:10029000FEFDFCFE7D7C3E3D3C3E3D3C3E3D7C7E8D
:1002A000FDFCFEFDFCFEFDFCFEFDFCFEFDFCFEFF7C
:1002B000244C4992FFFFFFFFFFFFFFFF7F1F8FE7E7
:1002C000F3F97C7C7E7EFFFFFFFFFFFFFFFF7E7E5A
:1002D0007C7CF9F3E78F1F7FFFFFFFFFFFFFFFFF2E
:1002E00049929224FFFFFFFFFFFFFF0100FEFFFF87
:1002F0000100000000000001FFFFFFFF01000000FF
:1003000000000001FFFFFE0001FFFFFFFFFFFFFFF6
:1003100092242449FFFFFFFFFFFFFFFEF8E1C79F84
:100320003E7CF8F8F8F8FCFEFFFFFFFFFEFCF8F853
:10033000F8F87C3E9FC7E1F8FEFFFFFFFFFFFFFFDD
:1003400024494992FFFFFFFFFFFFFFFFFFFFFFFF71
:10035000FFFEFC00017F7F03037F7F03037F7F019C
:1003600000FCFEFFFFFFFFFFFFFFFFFFFFFFFFFFA0
:1003700049923224FF7F3FBF7F3FBF7F3FBF7F3F18
:10038000BF7F3FBF7E3EBE7E3EBE7E3EBE7E3EBE49
:100390007F3FBF7F3FBF7F3FBF7F3FBF7F3FBFFFED
:1003A0003224437265646974730008087EFFFFFF9E
:1003B000FFFFFF7E7EFFFFBB81BFFF7E7EFFBB9DF9
:1003C000ADB3FF7E7EFFDBBDB5B5CB7E7EFFCFD765
:1003D000DB83DF7E7EFFD1B5B5CDFF7E7EFFC3AD73
:1003E000ADDBFF7E7EFFFD9DE5F9FF7E7EFFCBB599
:1003F000B5CBFF7E7EFFF3ADADC3FF7E7E818181F5
:100400008181817E7EFFE7C3C3E7FF7E005A347A95
:100410007E3C5A00003C425A5A423C0000046C3078
:1004200038306000FFF3138F8F13F3FF00146E91C9
:1004300065827C001010F8FEFEFFFFFFFFFFFFFF4C
:10044000FFFFFFFEFEF81F7F7FFFFFFFFFFFFFFFA5
:10045000FFFFFF7F7F1FF8FEFEFFFF9F8F0303FF5D
:10046000FFFFFFFEFEF81F7F7FFFCFCFCFC0C0CFC3
:10047000CFCFFF7F7F1FF8FEFEFFCFC7E3F3F3630D
:10048000070FFFFEFEF81F7F7FFFCFC7C3C1C8CC99
:10049000CECFFF7F7F1FF8FEFECFC7E3737373736A
:1004A00063078FFEFEF81F7F7FF3E3C7CECECECE6D
:1004B000C6E0F17F7F1FF8FEFE7F3F1F8FC7E3037B
:1004C00003FFFFFEFEF81F7F78F8F8F9F9F9F9C08D
:1004D000C0F9F9797F1FF8FEFE030333333333335A
:1004E0003373F3FEFEF81F7F7FE7C7CFCFCFCFCFA9
:1004F000C6E0F07F7F1FF8FEFE0F07637373737310
:1005000063C7CFFEFEF81F7F7FF0E0C4CECECECE15
:10051000C4E0F17F7F1FF8FEFEF3F3F3F3F3F33350
:100520001303C3FEFEF81F7F7FFFFFFFFFC3C0F072
:10053000FCFFFF7F7F1FF8FEFE8F0723737373732B
:1005400023078FFEFEF81F7F7FF1E0C4CECECECE14
:10055000C4E0F17F7F1FF8FEFEFF0F0763F3F36334
:10056000070FFFFEFEF81F7F7FFFF3E6CCCCCCCC5D
:10057000E0F0FF7F7F1FF806020101010101010188
:100580000101010206F81F60408080808080808029
:1005900080808040601FF8FEFEFF3F1F0F0F0F0F8F
:1005A0001F3FFFFEFEF81F7F7FFFFCF8F0F0F0F02A
:1005B000F8FCFF7F7F1F00008088E03090DCFCF0BB
:1005C000F0E08880000000000111070F0F3F3F0F8F
:1005D0000F071101000000E0F83C0CCE66262666ED
:1005E000CE0C3CF8E00000071F3C30736664646684
:1005F00073303C1F0700000C1A1EFAFC00008080BC
:100600008080000000000000000003686E0F0E0EE6
:100610000E0E0F6E680000000000FCCC4C3C3C4C01
:10062000CCFC000000000000000003FF54AE56ACFC
:10063000FF030000000000000814EA1A1A0105C1B7
:10064000023C9020C0000000000E11107187607104
:100650008264110F0000596F752077696E00596F21
:1006600075206C6F7365004E6F002020003E2000E7
:1006700059657300506C617920616761696E3F0054
:100680001F40FF00FE055606E51515161615161631
:100690001516161515161615161615E60625D64640
:1006A00056FF00FF005500FF0000000000000000A2
:1006B00000000000000000000000FF008A75515596
:1006C000FF00FF0055007F808080808080808080D8
:1006D0008080808080808080807F00A25D9455FF34
:1006E00000FFF8F16AE8EAE86A682AC832C82A68AE
:1006F000EAE8EA68EAE8EAE8EAE8EAE9EAE9CF30BB
:10070000D7F5F2F53ADCDE3FDF3EFFFFFF3EDF3E8E
:10071000DCDA35F2F5D7370FCFFFFEFFFF6B943FE2
:10072000F7FFF7FFBAAA296DEEEFFFEFEE692BAAEC
:10073000BEF7FFF73F940863F7DFFFFFFE01FDEA16
:10074000D3AFD9D6D6B9B738DF3FDF3837998696D9
:100750002993C2E9F9FCCEA7B7CFFFFF00FFDFAFB7
:10076000DFFFFFFFC3BD6618E518663C81C3FFFFCE
:10077000BFFBF5FBFFDFFFFFFFFF00FF225D550220
:10078000F71017171717171017121515121710173C
:10079000171717F007DAD525FA00F9245A5200FF87
:1007A0000000000000000000000000000000000049
:1007B0000000FF001F1A150F00F9245A5200FF8095
:1007C0008080808080808080808080808080808029
:1007D00080FF0000FEFFFF00F9245A5224FA008E29
:1007E000CCF4DCFC7C7C7CBCFCBC3C3C343CBCFCE9
:1007F000BC7C747FFFFF00F9245A5224F8008FCF8D
:10080000FFFFF5EAD48C8889898989898989898853
:100810008484C2E0FF00F9241A122478008FC9FEF4
:10082000FBFFBF7FFFFBFF7FBFFFFFFFFFFBFFFF64
:10083000DFEFDFFF00FC122D29127C008F8FEFBF4E
:10084000FFFFFEFFFEFFAE53A363454F4D494949ED
:10085000494D4F00FC12ED6992FC00C7E7FFFFFF16
:10086000FBE7FFEFFFFFFFFEFCFCFCFCFCFCFCFCDD
:10087000FCFCFF00DAB56A05F2151211121512150B
:100880001211121512151215121112F502B5DAD93C
:10089000DAFF00FBF76F00FF00000000000000001F
:1008A00000000000000000000000FF00F7FBFBFB61
:1008B000FF00FFFFED00FF808080808080808080CF
:1008C000808080808080808080FF00FFD7EFFFFFE6
:1008D00000FFFF5ABCFEFEFEFEFE5ABCFEFEFEFE00
:1008E000FE5ABCFEFEFEFEFE5ABCFFFFFFFF1FE8E5
:1008F000D777B777D7EFCF3FFFFBFFFFF5FBFFFFC2
:10090000FBFFFFF5FB7F7F7B7F7FF5FBFFFE05FB9A
:10091000FBFAF303A95FF8837FFF7F3F9FEFEFF7B9
:10092000F3FBE0DAD7D7D7D7D7DAE0FBFF00FFFF3A
:10093000FFFFFEF0C5930F6079FEFFFFFFFFFFFF93
:10094000FFFFFFFFFFFFFFFFFFFFFFFF00FFFFFFB6
:10095000FFFFFFFFEFE3E4E6E6E6E0C0C0C0C1C191
:10096000C1C1C1C1C1C1C1C1C1C1FF007901FD0582
:10097000A51404140415051505150515041404140F
:100980000515055505FD012AC6FF00FA00FF00AA5E
:100990000000000000000000000000000000000057
:1009A00000005500FF00F4F5FF00FF00FF00AA0063
:1009B0008000800080008000800080008000800037
:1009C000805500FF00FFFFFF00FFF8F3CAFADAFAD4
:1009D000CAF2DAFAFAFAFAFAFAFAFAFAF2CAFADA27
:1009E000FACAF3D8FFFFFF00FFFFFFFFFFFFFFFF83
:1009F000FFFFFFFDF3FFF7FFF3FDF7FFFFFFFFFF33
:100A0000FFFFFFFFFFFF00FFFFFEF9FFFBFFF9FE07
:100A1000FBFFBF7FFFFFFF7FBFFFFEF9FFFBFFF97B
:100A2000FEFBFFFFFF00FFFFEF9FFFBFFF9FEFBF3A
:100A3000FFFFFEFFFEFFFEFFFEEF9FFFBFFF9FEFEA
:100A4000BFFFFFFF00FFFFFFFFFFFFFFFFFFFFFFF5
:100A5000FBE7FFEFFFE7FBEFFFFFFFFFFFFFFFFFFE
:100A6000FFFFFF00FFFFF70BFD13171717171715F1
:100A70001515151515151717171713FD0BF7FFFF8C
:100A8000FFFF00FF07FF00FF000000000000000064
:100A900000000000000000000000FF00FF07FFFF53
:100AA000FF00FFFEFF00FF808080808080808080CC
:100AB000808080808080808080FF00FFFCFFFFFFBF
:100AC00000FF7FBEBDBBBCBEBEBEBEBEBABABABA18
:100AD000BABABABEBEBEBEBCBBBDBEBF7FFFFF00C2
:100AE00000FF0100F818F000F018F000F018F00016
:100AF000F818F00008683800780001FF00FF00E0F7
:100B00009FB0A0A3A3A1A0A1A3A1A0A1232120A342
:100B1000A3A1A0A0A3A0A0A3A0B09FE0FF00FFFFFF
:100B2000FBFFB95EEFF7FBFDFDF1F7F0B6F0F7F76D
:100B3000F707FFFFBFFF9FEFBFFFFFFF00FFDFFFD4
:100B4000CFF7DFFEFDFBF7F7F1FD01F101FDFDFD44
:100B5000DCFFCFF7DFFFFFFFFFFF1F40FAFDFAFAD0
:100B6000FDFDFDFAFAFDFAFAFDFAFAFDFDFAFAFDCD
:100B7000FAFAFDFAFAFDFAFAFE00FFFFDFAFDFFF37
:100B8000FFFFFFFF7FFFFFFF7F7F3FDF2FDF3F7F05
:100B9000FFFFFF7FFFFFFFFF00FFFF7FFFFFCD375E
:100BA000D7F5F2F53ADCDE3FDF3EFFFFFF3EDF3EEA
:100BB000DCDA35F2F5D73700CFFFFFFFF76B943F54
:100BC000F7FFF7FFBAAA296DEEEFFFEFEE692BAA48
:100BD000BEF7FFF73F9408E7FFFFDFAFDEFDFDEA5A
:100BE000D3AFD9D6D6B9B738DF3FDF383799869635
:100BF0002993C2E9F900FFFFFFFF7F3FBF7FFFFF9F
:100C0000F7FFFFFFC3BD6618E518663C81C3FFFF11
:100C1000FFFFFFFF00FFFFFFFFFEFDBD5EBFFFFF09
:100C2000FFFFFFE15EB30CF30CB31E40E1FFFFEFEB
:100C3000D7EFFF00FFFFFFEFD7EFFFFFFFBFFFFF83
:100C4000FFFF70AFD906F906D98F2070FBF5FBBF07
:100C5000FFFF00FFED12FF00DBEBDDDBBBDB00FF86
:100C600002FDED12FF00DBEBDDDBBB00FF027D6D63
:100C700012FF001A150F008696F5F6F6F5E0EFD094
:100C80009F1A150F008696F5F6F600F9245A52249D
:100C9000F800A747C78B9F9B939393939B9F8B478A
:100CA00047270FFFBFFDFCFDFF00F9245A5224F82F
:100CB00000FEFDE8F8F8F8F8F8F8D8E8D8F8F8F801
:100CC000FCFEFFFFBFFFFFFF00F9245A5224F8008B
:100CD000FFFFFFAF53A363454F4D494949494D4F6E
:100CE0004523231307FFFF00F9245A5224F800FF7D
:100CF0007FFFFFFFFEFCFCFCFCFCBC7CFCFCFC7CE6
:100D0000BCFCFEFFFFFF00F9241A122478008B9F21
:100D10009B939393939B9F8B4747260FFEFFFEFF6A
:100D20007EFFFFFFFF00FC122D2912FC00F8F8F8EF
:100D3000D8F8F8F8F8F8F8F8F8ECFEEFFFE7FBEF72
:100D4000FFFFFFFF00FC12ED6992FC00DAB56A6557
:100D50006A65B2D9DAB5B2B5DAD9DAB56A656A6563
:100D6000B2D9DAB5B2B5DAD9DA00FFFBF76FEFEF37
:100D7000EFF7FBFB77F7F7FBFBFBF76FEFEFEFF717
:100D8000FBFB77F7F7FBFBFB00FFFFFFEDFE7FD7D9
:100D9000EFFF7FEDFEFFD7EFFF7FEDFEFFD7EFFF09
:100DA000FFEDFEFFD7EFFF00FFFFFFFFC3F8FB9B48
:100DB000E1FEC3D5D5F9FFC1FE87F8CFA7BBCBE7CE
:100DC000BFE7F9FFFFFF00FFFFFFFB7F7F757B7F22
:100DD000FFFBFFFFF7FBFFFFFBFFFFF5FB3FCFEF45
:100DE000D777B777D7E81FFBE0DAD7D7D7D7D7DAE7
:100DF000E0FBF3F7EFEF9F3F7FFF7F83F85FA903EF
:100E0000F3FAFBFB05FEFFFFFFFFFFFFFFFFFFFF06
:100E1000FFFFFFFFFFFFFFFE79600F93C5F0FEFFAE
:100E2000FFFFFF00FFC1C1C1C1C1C1C1C1C1C1C17B
:100E3000C1C0C0C0E0E6E6E6E4E3EFFFFFFFFFFF6E
:100E4000FFFF00FF2AC6C240991B7B299341ED2A70
:100E5000C6C240991B7B299341ED2AC6C240991B0B
:100E60007B00FFF4F5B279FCF67A767975747475C7
:100E700072797C767A7679757474F572B9FCF6FAC3
:100E800000FFFFFFFFFEFFFF807FFF878787877FD1
:100E90007F7F87878787FFFF00FFFEFFFEFFFF0042
:100EA000FFFFFFF7CFFFDFFF00BFBFBF0080B0B085
:100EB000B08080BFBFBFBF00FFCFF7DFFFFF00FFE5
:100EC000FFFFFFFFFFFFFF807FFFFF00FFAA55AA84
:100ED00055AA55AA55FF00FFFFFFFFFFFF00FFFFC8
:100EE000FFFEF93FCB8F6F00FFFFFF00FFD5AAD5B4
:100EF0006A353AD5DFE0EFD93EFBFFFF00FF7F1FE9
:100F00000F09162F5F8FB0465669C021E6EAE295B9
:100F100079F9FCFCFC631D21BCFFFF00FFFFFFFE15
:100F2000FCFCFCFCFCF8F8E0C0C08384938F9F9C21
:100F300091858AC4C1E2F0F9FFFF00FF0F0F0F0790
:100F40000707070F0F1F5FBF7FF981010303070723
:100F50000F1F5FBF7FFFFFFFFF00FF001824241853
:100F60000080C0C0E0F0787D7C7D7AF8F0E0800001
:100F70000000000106051BF7C83F3EDECFCE9438C7
:100F800038787879727777737B3B3A3A9D810100A4
:100F90000000000088C4F709FE02028201FBC3B70B
:100FA000C6F6F6EEEEEEEEEEEEEECEAF1701787E82
:100FB000FEFEFFFFFFFF00FFF018475077577757FF
:100FC00077570004F0F0D40000BEBAA6A6A2DE80D7
:100FD000007FF7F7F700FFF8FEFEFEFEFEFEFEFEC6
:100FE000FEE0C0D2C2D3C04083E7E7E7E7E7E7E02F
:100FF000E0FFFFFF00FF1FDFDF07FBBDFD99E9F901
:1010000006F7F703FBFDFEFFFEEF9FFFBFFF9FEF1D
:10101000BFFFFF00FF000101000000000000000012
:101020000701808080808181818181C3C3C3C7F72C
:10103000FFFF00FF50656E6775696E004361637462
:10104000757300547572746C65004C616E64005366
:1010500065610053746174730043726564697473ED
:10106000005468656D657300506C6179001C1CFF4D
:101070007FBFBFAF97ABD7E7F7FBFBF1FEF9FEF100
:10108000FBF7E7D7AB97AFBBB57BFFBF5EA1FEBF5A
:10109000FFBFF9D656496E717FFF7F714E5956F6E4
:1010A000B9FFBFFEA15EBFFFF3ECE9579F7FCFB54D
:1010B000B5C9BBC7FFFFFFC7BBC935B54F9F57E9D0
:1010C000ECF3FF0F0D0A0D0F0E0D0E0E0E0D0D0998
:1010D000060906090D0E0E0E0D0E0F0F0F0F0FFF56
:1010E0005FA747C78B9F9B939393939B9F8BC7C788
:1010F000A78FFFFFEFF7EFFFFFFFFFFFFFFEBDD85A
:10110000B8F8F8F8D6A95131222726242424242619
:10111000272211110983FFFFAF53A363454F4D49A8
:101120004949494D4F4522221206FEFEFEFEFEEEC3
:10113000FFFFFF0F0F0F0E0C0C0C0C0C0C0C0C0C0B
:101140000C0C0C0C0E0F0F0F0F0D0E0D0F0F0FFFD1
:10115000877BF5DDADDDF57BF30FFFFFFFFFFFFFC5
:10116000FFFFFFFFFF3FBFDFDFDFDFFFFFFFFEFE11
:10117000FEFC802A57FEE01F7F9FCFE7FBFBFDFCB4
:10118000FEF8F6F5F5F5F5DFBFBFDFDFBFBFDFDC4B
:10119000F1E4C3189EBFBF3F3F7F7F7F7F7F7F7F8C
:1011A0007F7F7F0F0F0A0D0F0F0A0D0F0F0B08091E
:1011B000090909080E0C0C0C0C0C0C0C0C0C0CE5A1
:1011C000EB68E7E801FDFC1D1C1D1DFCFDFC1D1D61
:1011D0001C1DFCFD01EA017C7D00EDFF7EBF7EFF52
:1011E00000FFFFFEFE0202C1C1C10202FEFEFFFFC0
:1011F00000FFB8DBBBF8FFFFFFEFF7EFFF00FEFEDD
:10120000FE00FEAA56AA56AA56AA56FE00FFFFFBEB
:10121000FDFBFF0F0B0D0B0F0F0E010F0F0C030E3D
:10122000050A050A050A050F000F0D0E0D0F0FBF69
:101230005F1F0F070703030181F97FBF5F1F0F0FB8
:10124000070707070F0F0F1F3F7FFF0000000080F9
:10125000E0F0F87A7D7C7D78F0E0C0C08000182452
:101260002418000000000100000001819D3A3A3B73
:101270007B73777772797878383894CECFDE3EBC3E
:10128000FAF2E20E0E0801070F0E0E0E0E0E0E0EF3
:101290000E06060607030B01020202010101000807
:1012A0000800080C7E7E0C08000010307E7E301096
:1012B0000000183C7E18181800001818187E3C18FA
:1012C000004F104A1043103C1034105468656D658F
:1012D000730008087EFFFFFFFFFFFF7E7EFFFFBB5E
:1012E00081BFFF7E7EFFBB9DADB3FF7E7EFFDBBD7A
:1012F000B5B5CB7E7EFFCFD7DB83DF7E7EFFD1B55A
:10130000B5CDFF7E7EFFC3ADADDBFF7E7EFFFD9DD5
:10131000E5F9FF7E7EFFCBB5B5CBFF7E7EFFF3AD5B
:10132000ADC3FF7E7E8181818181817E7EFFE7C3A7
:10133000C3E7FF7E005A347A7E3C5A00003C425A92
:101340005A423C0000046C3038306000FFF3138FC9
:101350008F13F3FF00146E9165827C000268100504
:10136000611003591004531080190000DEDEDEDE28
:10137000DE9E1E1E9EDEDEDEDEDE1EDEDEDEDEDE4D
:10138000DEDEDEDE1EDEDEDEDEDE1E1E1E1EDEDE3D
:10139000DEDE1EDEDEDEDEDEDEDEDEDE1EDEDEDEED
:1013A000DEDEDEDEDEDEDE1EDEDEDEDE1E1E1E1E1D
:1013B0001E1EDEDEDEDE1EDEDEDEDEDEDEDEDEDE8D
:1013C0001EDEDEDEDEDEDEDEDEDE1EDEDEDEDEDEBD
:1013D000DEDE9E1E1EDEDEDEDEDEDEDEDEDE1EDEAD
:1013E000DEDEDEDEDEDE9E1E00000000FFFFFFFF11
:1013F0000FFFFFFFFF0FFFFFFFFF000101FFFFFFD8
:10140000FFFF010100FFFFFFFF1F3F7EFCF8FFFF12
:10141000FFFF00FFFFFFFF393939393900BFBFBF78
:101420003F3939F9FBFBFB00FFFFFFFFC0FFFFFF68
:10143000FFC0FFFFFFFF00FFFFFFFF3939393939D8
:1014400000FFFFFFFF393939393900FFFFFFFF7116
:10145000717F3F1F00FFFFFFFF393939393900FF26
:10146000FFFFFF39F9FFFFCF00000000F7F7F7F7A4
:10147000F0F7F7F7F7F0F7F7F7F7F0F7F7F7F7F711
:10148000F7F7F7F7F0F7F7F7F7F0F0F0F0F1F7F715
:10149000F7F7F0F7F7F7F7F7F7F7F7F7F0F7F7F7EA
:1014A000F7F7F7F7F7F7F7F0F7F7F7F7F7F3F1F1E3
:1014B000F3F7F7F7F7F7F0F7F7F7F7F7F7F7F7F7C7
:1014C000F0F7F7F7F7F7F7F7F7F7F0F7F7F7F7F0C1
:1014D000F0F0F0F0F0F7F7F7F7F7F7F7F7F7F0F7C6
:1014E000F7F7F7F0F7F7F7F700000000000000004B
:1014F00000000000000000000000000000000000EC
:1015000000000000000000000000000000000000DB
:1015100000000000000000000000000000000000CB
:1015200000000000000000000000000000000000BB
:1015300000000000000000000000000000000000AB
:10154000000000000000000000000000000000009B
:10155000000000000000000000000000000000008B
:101560000000000000000000000000000000003E3D
:101570005B4F5B3E3E6B4F6B3E1C3E7C3E1C183C03
:101580007E3C181C577D571C1C5E7F5E1C00183C5F
:101590001800FFE7C3E7FF0018241800FFE7DBE7A8
:1015A000FF30483A060E2629792926407F0505078F
:1015B000407F05253F5A3CE73C5A7F3E1C1C0808EB
:1015C0001C1C3E7F14227F22145F5F005F5F0609B0
:1015D0007F017F006689956A606060606094A2FF09
:1015E000A29408047E040810207E201008082A1CFB
:1015F00008081C2A08081E101010100C1E0C1E0CC7
:1016000030383E3830060E3E0E0600000000000066
:10161000005F00000007000700147F147F14242AD5
:101620007F2A1223130864623649562050000807A7
:101630000300001C2241000041221C002A1C7F1CC8
:101640002A08083E080800807030000808080808CA
:10165000000060600020100804023E5149453E0031
:10166000427F400072494949462141494D3318148F
:10167000127F1027454545393C4A494931412111DE
:1016800009073649494936464949291E00001400D0
:1016900000004034000000081422411414141414F3
:1016A000004122140802015909063E415D594E7C51
:1016B0001211127C7F494949363E414141227F4106
:1016C00041413E7F494949417F090909013E414164
:1016D00051737F0808087F00417F41002040413F4F
:1016E000017F081422417F404040407F021C027F5E
:1016F0007F0408107F3E4141413E7F090909063EB3
:101700004151215E7F091929462649494932030181
:101710007F01033F4040403F1F2040201F3F403893
:10172000403F631408146303047804036159494D6E
:1017300043007F4141410204081020004141417FA4
:10174000040201020440404040400003070800201A
:10175000545478407F28444438384444442838441A
:1017600044287F385454541800087E090218A4A451
:101770009C787F0804047800447D40002040403D70
:10178000007F1028440000417F40007C04780478EA
:101790007C080404783844444438FC18242418187D
:1017A000242418FC7C0804040848545454240404D9
:1017B0003F44243C4040207C1C2040201C3C4030C6
:1017C000403C44281028444C9090907C4464544CF5
:1017D0004400083641000000770000004136080050
:1017E00002010204023C2623263C1EA1A161123AFA
:1017F0004040207A38545455592155557941215447
:10180000547841215554784020545579400C1E524B
:1018100072123955555559395454545939555454EF
:10182000580000457C410002457D420001457C4056
:10183000F0292429F0F0282528F07C545545002073
:1018400054547C547C0A097F493249494932324810
:10185000484832324A4848303A4141217A3A424077
:101860002078009DA0A07D39444444393D4040404B
:101870003D3C24FF2424487E4943662B2FFC2F2B1C
:10188000FF0929F620C0887E0903205454794100BD
:1018900000447D413048484A32384040227A007A3C
:1018A0000A0A727D0D19317D2629292F282629291A
:1018B000292630484D40203808080808080808083C
:1018C000382F10C8ACBA2F102834FA00007B000063
:1018D00008142A142222142A14089500220095AA1A
:1018E000005500AAAA55AA55AA000000FF00101032
:1018F00010FF00141414FF001010FF00FF1010F070
:1019000010F0141414FC001414F700FF0000FF0082
:10191000FF1414F404FC141417101F10101F101FD0
:101920001414141F00101010F0000000001F1010FD
:1019300010101F10101010F010000000FF101010F9
:10194000101010101010FF10000000FF140000FF16
:1019500000FF00001F10170000FC04F414141710FF
:10196000171414F404F40000FF00F71414141414F2
:101970001414F700F7141414171410101F101F1468
:101980001414F4141010F010F000001F101F0000C9
:10199000001F14000000FC140000F010F01010FFF5
:1019A00010FF141414FF141010101F00000000F09A
:1019B00010FFFFFFFFFFF0F0F0F0F0FFFFFF00006F
:1019C000000000FFFF0F0F0F0F0F38444438447C16
:1019D0002A2A3E147E02020606027E027E02635519
:1019E0004941633844443C04407E201E2006027E68
:1019F000020299A5E7A5991C2A492A1C4C7201727A
:101A00004C304A4D4D303048784830BC625A463DE3
:101A10003E494949007E0101017E2A2A2A2A2A4498
:101A2000445F444440514A444040444A51400000CD
:101A3000FF0103E080FF000008086B6B08361236D8
:101A40002436060F090F06000018180000001010B9
:101A5000003040FF0101001F01011E00191D171277
:101A6000003C3C3C3C000000000001020408102047
:101A700040804E6F002020003E2000596573004ECC
:101A80006F2073617665206461746120666F756E86
:101A9000642E0A437265617465206E657720646107
:101AA00074613F003030244CFFFDFCFEFDFCFEFD68
:101AB000FCFEFDFCFEFDFCFE7D7C3E3D3C3E3D3CD7
:101AC0003E3D7C7EFDFCFEFDFCFEFDFCFEFDFCFEC5
:101AD000FDFCFEFF244C4992FFFFFFFFFFFFFFFFCD
:101AE0007F1F8FE7F3F97C7C7E7EFFFFFFFFFFFF08
:101AF000FFFF7E7E7C7CF9F3E78F1F7FFFFFFFFFF8
:101B0000FFFFFFFF49929224FFFFFFFFFFFFFF014E
:101B100000FEFFFF0100000000000001FFFFFFFFCB
:101B20000100000000000001FFFFFE0001FFFFFFB9
:101B3000FFFFFFFF92242449FFFFFFFFFFFFFFFE8F
:101B4000F8E1C79F3E7CF8F8F8F8FCFEFFFFFFFFC6
:101B5000FEFCF8F8F8F87C3E9FC7E1F8FEFFFFFFB7
:101B6000FFFFFFFF24494992FFFFFFFFFFFFFFFF39
:101B7000FFFFFFFFFFFEFC00017F7F03037F7F036A
:101B8000037F7F0100FCFEFFFFFFFFFFFFFFFFFF62
:101B9000FFFFFFFF49923224FF7F3FBF7F3FBF7FA0
:101BA0003FBF7F3FBF7F3FBF7E3EBE7E3EBE7E3E8D
:101BB000BE7E3EBE7F3FBF7F3FBF7F3FBF7F3FBFF9
:101BC0007F3FBFFF32244E6F002020003E2000598F
:101BD00065730044656C6574653F0044656C6574AD
:101BE0006564004C6F73736573003A200057696E2B
:101BF0007300537461747300C3263D2711241FBE04
:101C0000CFEFDAE0DEBFCDBF11E0A0E0B1E0E4EB62
:101C1000F3E502C005900D92A03EB107D9F726E08A
:101C2000A0EEB1E001C01D92A03BB207E1F71DE0BC
:101C3000CDEFDDE004C02197FE010E94C229CC3F18
:101C4000D107C9F70E9498230C94CD290C94000069
:101C5000FC018091ED01811103C08FEF9FEF08958A
:101C60009FB7F89482E08093E9002091F20030E081
:101C70001216130614F421E030E02115310559F055
:101C8000289884E68093EC018091F1008083809114
:101C9000F200882319F09FBFC90108958BE6809355
:101CA000E800F9CF2FB7F89483E08093E900909192
:101CB000E800892F807295FF04C09091F20080E4C3
:101CC000891B2FBF089580914F0681110DC082E0BE
:101CD00080934B0684E080934C0610924E0610923F
:101CE0004D0681E080934F068BE496E00895CF93F4
:101CF000DF931F92CDB7DEB76983DC01ED91FC91D4
:101D00000280F381E02D41E050E0BE016F5F7F4F24
:101D100009950F90DF91CF91089583E08093E900BA
:101D20008091F200882319F08AE38093E8000895F7
:101D30000E94520E90E00895CF93DF931F92CDB78B
:101D4000DEB7FC018485958597FD05C02FEF3FEF39
:101D5000358724870BC0CE0101960E94280E01977B
:101D600019F4898190E002C08FEF9FEF0F90DF910F
:101D7000CF9108950F931F93CF93DF931F92CDB709
:101D8000DEB78C01FC018485958597FF0EC0CE01DE
:101D900001960E94280E019719F4298130E002C0B3
:101DA0002FEF3FEFF80135872487F801848595856B
:101DB0000F90DF91CF911F910F910895FC018485C1
:101DC000958597FD0BC09FB7F89482E08093E9005A
:101DD0008091F2009FBF90E0019608959FB7F8941C
:101DE00082E08093E9008091F2009FBF90E0089527
:101DF0008F929F92AF92BF92CF92DF92EF92FF921B
:101E00000F931F93CF93DF935C016B017A01809155
:101E10000B01882309F45BC08091ED01882309F44C
:101E200056C08091EB0180FF05C08091E000826088
:101E30008093E000E70110E00AEF83E0882E9AE348
:101E4000992E2097D9F10E94520E81110AC001509B
:101E500009F43DC061E070E080E090E00E947A1AF1
:101E6000F0CF282F30E0C217D3070CF48C2F4FB7D8
:101E7000F8948092E9009091E80095FF1DC0282F0A
:101E800030E0C21BD30BF601982F915020F08191C6
:101E90008093F100FACFC20ED31E112319F0909255
:101EA000E80009C08091E80085FD06C09092E80036
:101EB00011E0209709F010E04FBFC3CF1111C3CF3D
:101EC0005D9884E680934A061E141F0444F081E066
:101ED00090E0F5019383828380E090E001C0C70128
:101EE000DF91CF911F910F91FF90EF90DF90CF90F6
:101EF000BF90AF909F908F900895DF92EF92FF92E6
:101F00000F931F93CF93DF93D82E8A017B01E40EAA
:101F1000F51EEB01CE15DF0571F0D7FE03C0FE0103
:101F2000849101C088810E945D2321968111F2CFA6
:101F30008FEF9FEF01C0C801DF91CF911F910F91EB
:101F4000FF90EF90DF9008950F931F93CF93DF934F
:101F50001F92CDB7DEB782E0898342E450E067E7A5
:101F600071E080E80E947D0F0E94630EDC011296F2
:101F70000D911C9113970115110569F0D801ED9190
:101F8000FC910280F381E02DBE016F5F7F4FC8019D
:101F9000099597FF07C089810F90DF91CF911F911D
:101FA0000F910895F80100851185E5CFDC01EC91D2
:101FB0008E2F90E08730910508F05DC0FC01EA5A51
:101FC000FF4F0C94C229E2E1F6E085E0DF011D92AB
:101FD0008A95E9F782E891E09093130680931206C0
:101FE00082E033C01092140682E791E033C0E2E150
:101FF000F6E088E3DF011D928A95E9F782E391E03C
:10200000909313068093120681E080934906CF01D6
:102010000895E2E1F6E086E0DF011D928A95E9F796
:1020200082E691E09093130680931206F0CFE2E1EE
:10203000F6E085E0DF011D928A95E9F782E291E002
:10204000909313068093120681E080931606DFCFEB
:1020500082E591E0909313068093120609C082E412
:1020600091E0909313068093120681E0809314060A
:1020700082E196E0089580E090E00895E4EFF1E0D9
:10208000A0E0B8E000800EBC8111012C1197A0FDEA
:10209000FDCF0192B9F70DB408959C01240F311DB5
:1020A0001216130674F5803891055CF5FC0197FF54
:1020B00002C0E0E0F0E02138310514F020E830E023
:1020C0002E1BAB014770552781E001C0880F4A9550
:1020D000EAF777FF02C0695F7F4F93E075956795D8
:1020E0009A95E1F77695762F662777956795E60FAF
:1020F000F71FEC50FE4F215020F09081982B9193C8
:10210000FACF0895BF92CF92DF92EF92FF920F9392
:102110001F93CF93DF936C01EB017A01B22E102F46
:102120004034510528F4422FB701CE010E944D10D2
:10213000B701610F711D615071096034710520F4A0
:102140004B2DCE010E944D1001E0212FA701BE01B1
:10215000C6010E94C81DCB0DD11DBE016150710981
:10216000212FA701C6010E94C81DDF91CF911F91A9
:102170000F91FF90EF90DF90CF90BF900895CF9296
:10218000DF92EF92FF920F931F93CF93DF9300D0D4
:10219000CDB7DEB70DB71EB746E050E066E072E09F
:1021A0008EEE91E00E94FD2884E092E00E94F728E4
:1021B0007C0186E0E816F10448F466E070E084E013
:1021C00092E00E942B2996E0E92EF12C8091AC063A
:1021D0009091AD06009711F480EB96E09E012F5F81
:1021E0003F4F281B390B3595279537FD1FC02450CD
:1021F0003109E216F306D0F48DB79EB78E199F0908
:102200000FB6F8949EBF0FBE8DBF01966C01A7015B
:1022100066E072E00E94D928B701C6010E94BA2088
:10222000AB01BC0180E092E00E941F290FB6F89438
:102230001EBF0FBE0DBF0FB6F8941EBF0FBE0DBF61
:102240000F900F90DF91CF911F910F91FF90EF9022
:10225000DF90CF9008951F920F920FB60F92112426
:102260008F939F938091E1009091E100937F9093F1
:10227000E10083FF0FC01092E90091E09093EB0022
:102280001092EC0092E39093ED001092ED0198E033
:102290009093F00082FF20C093E09093E90090912A
:1022A000F200992319F09AE39093E80090914A067E
:1022B000992339F090914A06915090934A069923B8
:1022C00089F19091EC01992339F09091EC019150B2
:1022D0009093EC01992341F184FF10C08091E200BA
:1022E0008E7E81608093E2008091E1008F7E8093FA
:1022F000E1008091EB018E7E806111C080FF16C0ED
:102300008091E2008E7E80618093E2008091E10006
:102310008E7E8093E1008091EB018E7E81608093C0
:10232000EB0104C05D9ACDCF289AD6CF9F918F91B3
:102330000F900FBE0F901F9018951F920F920FB61F
:102340000F921124CF92DF92EF92FF920F931F937F
:102350002F933F934F935F936F937F938F939F93AD
:10236000AF93BF93EF93FF93CF93DF93CDB7DEB7D8
:102370006C97DEBFCDBF1092E9008091E80083FF2B
:10238000EDC168E0CE0145960E948B2382EF8093D9
:10239000E8008D8987FF05C09091E80090FFFCCF91
:1023A00003C09EEF9093E800982F907609F0C6C086
:1023B0009E892F89188D91110CC0803829F4809145
:1023C000EA018093F10002C01092F1001092F10036
:1023D00048C1422F50E0512B913051F4811141C13D
:1023E0004130510509F03DC18091EA018D7F0BC05C
:1023F000933061F4811135C14130510509F031C18B
:102400008091EA0182608093EA012BC1953041F40A
:102410008091E80080FFFCCF20682093E30021C179
:10242000963009F05FC0EB8CFC8C1092E9001092A2
:10243000E8011092E701123091F51092E601109236
:10244000E5010E94A40F99E0BE016F5F7F4FDB01A1
:10245000E92F1D92EA95E9F799831A8391E09E830B
:1024600090EA98879AEF99872091E7013091E801E7
:10247000275F3F4F3C832B838D831092E90010929E
:10248000E8011092E701F092E601E092E50149E0EF
:1024900050E080E00E947D0F0E94A40FE2C0F09205
:1024A000E601E092E5010E94630EDC011296ED90D8
:1024B000FC901397E114F10409F4C0C0D701ED9129
:1024C000FC910480F581E02DBE016B5E7F4FC7015A
:1024D0000995009719F00CF0C4C0C7C0F701E0845B
:1024E000F184E8CF973009F4C0C0983021F481E03E
:1024F0008093F100B6C0993009F0B3C0837009F041
:10250000B4C0E8E1F1E081E021E036E39081992375
:1025100061F08093E9002093EB0091919093EC009F
:102520003093ED008F5F873089F78EE78093EA0064
:102530001092EA008F898093ED0193C08B8D9C8D62
:102540001092E9001092E8011092E7019093E601E1
:102550008093E501898D811156C08E899D89913ABC
:1025600059F4813209F081C047E050E064E071E045
:1025700080E00E947D0F75C0913209F076C08332F1
:1025800089F4888D90E0982F88272F89822BA0E0EE
:10259000B0E08093000190930101A0930201B093F9
:1025A00003015FC0803269F48091E80082FFFCCFB4
:1025B00067E084E091E00E948B238BEF8093E8003A
:1025C00006C0823209F04DC08F8980930B01809143
:1025D000E901882319F0EEEFFAE002C0E0E0F8E04C
:1025E0008091040190910501A0910601B09107012D
:1025F000803B9440A105B10509F07BC080910B019F
:1026000080FF93C076C00E94630EDC0112960D918C
:102610001C9113970115110541F1D801ED91FC9121
:102620000190F081E02DBE016B5E7F4FC8010995DE
:10263000811117C0F80100851185ECCF113009F424
:102640004EC0133091F48F89882309F445C082303D
:1026500081F440E867E08BED91E00E9486268823B4
:1026600021F08EEF8093E80079C081E28093EB0047
:1026700075C0813029F440E86BE08FEC91E0EDCF3C
:10268000833099F70E94630EDC011296ED90FC9066
:1026900013978E010F5F1F4F6801E114F10479F069
:1026A000D701ED91FC910680F781E02DB801C701BB
:1026B0000995080F111DF701E084F184EECFD801D0
:1026C0001C92F60101900020E9F73197BF016C19C7
:1026D0007D0940E0C601C1CF69EB71E002C06DEB3E
:1026E00071E06115710509F2FB01449150E080E849
:1026F00040CF0FB6F894A8958091600088618093D0
:102700006000109260000FBEA895EE3F2AE0F2072D
:1027100039F08091FE0A9091FF0A91838083A1CFC6
:102720001092FF0A1092FE0A9CCFEE3F8AE0F80753
:1027300031F0808191819093FF0A8093FE0A87E7B0
:1027400097E7918380839BE088E10FB6F894A89582
:10275000809360000FBE9093600083CF6C960FB69D
:10276000F894DEBF0FBECDBFDF91CF91FF91EF9107
:10277000BF91AF919F918F917F916F915F914F9199
:102780003F912F911F910F91FF90EF90DF90CF908D
:102790000F900FBE0F901F901895FB012081FC0138
:1027A000228F21E0238F08950296089502960895BE
:1027B000089508956F927F928F929F92AF92BF92E9
:1027C000CF92DF92EF92FF920F931F93CF93DF93FD
:1027D0006C01DB01ED91FC910480F581E02DCB01D2
:1027E0000995EC012091EE014AE55BE060E070E0C4
:1027F00080E090E00E94FE1A2091EE0140E856E051
:1028000060E070E081E690E00E94FE1A4601E12C53
:10281000F12C370181E2680E711CAA24A394B12C1B
:1028200000E010E0F401E00FF11F228125FF08C055
:1028300024FF04C02091EE01245F07C02F7005C063
:1028400026FD02C02AE001C02BE04AEA53E0B501B0
:10285000C3010E94FE1A095F1F4FB9E0AB0EB11C05
:1028600001331105F9F6E9E0EE0EF11CFFEF8F1AC6
:102870009F0A2FE3E216F10461F65E01A4E0AA0EBE
:10288000B11CF60145A969E0469F402D112450E096
:1028900084A9869F602D1124605E70E00AE02AE022
:1028A000C5010E948210D601D5969C91D597D496E9
:1028B0008C91F601B7E09B9FE00DF11D1124E80F0C
:1028C000F11D228125FF08C024FF04C02091EE01E4
:1028D000245F07C02F7005C026FD02C02AE001C09A
:1028E0002BE044E354E066E070E089E690E00E946B
:1028F000FE1AF60183A9823021F1833009F43FC02A
:10290000813009F08DC0E12C01E123E347E150E083
:1029100066E270E0C5010E94F61D8BE290E0988BA4
:102920008F878CE190E09A8B898B66E576E0CE010B
:102930000E94561A0FE021E348E150E067E270E0A0
:102940006CC0E12C01E129E347E150E063E270E073
:10295000C5010E94F61D88E290E0988B8F878CE17C
:1029600090E09A8B898B6EE576E0CE010E94561A34
:102970000FE027E348E150E064E270E04EC0E12C54
:1029800001E22BE44FE050E06AE170E0C5010E94F3
:10299000F61D0FE110E0188B0F8784E190E09A8B11
:1029A000898B64E776E0CE010E94561A188B0F8758
:1029B0008CE190E09A8B898BD601D7968C918823F5
:1029C00019F06AE676E002C06DE676E0CE010E947C
:1029D000561A60E776E0CE010E94561A8FE190E029
:1029E000988B8F8784E290E09A8B898BF60187A978
:1029F000813019F06AE676E002C06DE676E0CE013D
:102A00000E94561A67E676E0CE010E94561A0FE140
:102A100029E440E150E06BE170E0C5010E948210C2
:102A2000DF91CF911F910F91FF90EF90DF90CF90AA
:102A3000BF90AF909F908F907F906F900895AF92CE
:102A4000BF92CF92DF92EF92FF920F931F93CF939B
:102A5000DF931F92CDB7DEB78C016B01DB01ED91E7
:102A6000FC910480F581E02DCB0109957C015C018E
:102A7000B4E0AB0EB11C64E0C5010E94101D8823B8
:102A800069F0D601ED91FC910084F185E02D81E0A3
:102A90008983BE016F5F7F4FC601099560E8C5015C
:102AA0000E94101D882321F081E0F801838310C06B
:102AB000D7011A968C911A9787FF0AC019968C91A4
:102AC00087FD06C0F8018381813011F4F80113827B
:102AD00060E1C5010E94101D882329F082E0D80121
:102AE00013968C930FC0F701828584FF0BC08185FC
:102AF00084FD08C0D80113968C91823019F4D80156
:102B000013961C92F8018381882351F12FB7F89412
:102B10008091E0019091E101A091E201B091E30187
:102B20002FBF4481558160E070E0481759076A075C
:102B30007B07B0F42381213029F42281222351F034
:102B4000215007C0223031F4F8012281203710F4DF
:102B50002F5F22834996D80115969C938E931497E4
:102B60000F90DF91CF911F910F91FF90EF90DF9029
:102B7000CF90BF90AF900895CF93DF93EC01DB012E
:102B8000ED91FC910480F581E02DCB01099504962F
:102B90000E94201EFE013296CE01C3961192E817C4
:102BA000F907E1F781E08EAB1BAADF91CF91089581
:102BB0000C94D3270C94D3270C94D3270C94D327AD
:102BC0000C94D3270C94D3270C94D3270C94D3279D
:102BD0004F925F926F927F928F929F92AF92BF922D
:102BE000CF92DF92EF92FF920F931F93CF93DF93D9
:102BF00000D000D01F92CDB7DEB77C01DB01ED9194
:102C0000FC910480F581E02DCB0109958C01F70141
:102C1000C280D12C8BE290E0D80150969C938E9389
:102C20001F9784E090E08C199D0952969C938E9397
:102C3000519762EA73E0C8010E94561A60E170E0A1
:102C40006C197D0920E040E852E088E290E00E94A3
:102C5000FE1A84E490E03C016C187D088CE6882E16
:102C600082E0982E94E0592E24E0C22ED12C3AE036
:102C7000A32EB12C80E468167104B4F545E050E051
:102C8000B401CE0101960E94C728F801D08AC786F8
:102C9000728A618A69817A81C8010E94561AC301C9
:102CA0000896412C2D81AC01485F5F4F3A014216D6
:102CB000A8F4F801B08AA786928B818B9B818C81C6
:102CC000E92FF82FE40DF11DE40DF11D65917491CC
:102CD000C8010E94561A4394C301E4CF5A9455E0A8
:102CE000850E911C5110C6CFD70112968C91882366
:102CF00049F020E04AE452E060E070E088E790E0CC
:102D00000E94FE1AD70112968C91803748F421E078
:102D10004AE452E068E370E088E790E00E94FE1A1F
:102D20000F900F900F900F900F90DF91CF911F9108
:102D30000F91FF90EF90DF90CF90BF90AF909F905A
:102D40008F907F906F905F904F9008950F931F9397
:102D5000CF93DF938C01EB01249660E8CE010E94B3
:102D6000101D882331F0F8018081882311F08150F3
:102D7000808360E1CE010E94101D882331F0F801AC
:102D80008081811102C081E0808368E0CE010E94D1
:102D9000101D882331F0F8018081811107C081E086
:102DA00006C064E0CE010E94101D811182E0DF9117
:102DB000CF911F910F9108953F924F925F926F9222
:102DC0007F928F929F92AF92BF92CF92DF92EF92BB
:102DD000FF920F931F93CF93DF9300D01F92CDB735
:102DE000DEB78C017B01DB01ED91FC910480F58164
:102DF000E02DCB0109959C01F80183A9813009F4EC
:102E000059C138F0823009F455C1833009F432C118
:102E10007AC17901F4E0EF0EF11C60E8C7010E946D
:102E2000101D882349F0D801D5968C91D597882319
:102E300019F08150D5968C9360E1C7010E94101D56
:102E4000882331F0F80185A9863010F48F5F85ABB7
:102E500060E2C7010E94101D882349F0D801D49672
:102E60008C91D497882319F08150D4968C9360E488
:102E7000C7010E94101D882331F0F80184A9863013
:102E800010F48F5F84ABD801D5968C91D597D496EA
:102E9000CC90D12CB7E08B9FC00CD11C112468E0E2
:102EA000C7010E94101D882309F4CCC0F80186A92F
:102EB0005801AC0CBD1CD501882309F499C01296A9
:102EC0008C911297806112968C934801B2E08B0E20
:102ED000911CE6E07E2EF7E06F2E0E94B928562E58
:102EE0000E94B928862F662D0E94A229292F852DA0
:102EF0000E94A229E92FF0E047E0249FE00DF11D98
:102F00001124E00FF11F828184FDE7CF806182836D
:102F10007A947110E2CFD50112968C9112978F7E20
:102F200012968C93940190E0992331F066246A9470
:102F3000690E963011F405C0612C33243394390E98
:102F400004C065E0662E76E0372EF90180E0882324
:102F500031F055245A94580E863011F405C0512C86
:102F600044244394480E04C045E0542E56E0452EB8
:102F7000762D60E03716E8F0752CA72FB0E0BB8304
:102F8000AA834714A0F0791302C0781671F0D80113
:102F900047E0749EA00DB11D11244A815B81A40FEE
:102FA000B51F1296AC91A4FD6F5F7394EACF7F5F5B
:102FB000E1CF6F704081407F642B60838F5F3796D5
:102FC000873029F69F5F2F5F3F4F973009F0ACCFD6
:102FD000F50182818F7049F4D801D5964C91D5972F
:102FE000D4966C91C4010E945122F80116AA2AC0FD
:102FF00012968C91129786FD25C0982F906212969A
:103000009C9384FF17C082E0F80183ABC80102964D
:103010000E9446238091F2019091F30101969093D2
:10302000F3018093F20180910C01882359F00E94F2
:10303000BF1008C08F7031F445A964A9C801029679
:103040000E94512264E0C7010E94101D882339F0BC
:10305000F801EC0DFD1D928180E48927828398019F
:1030600047E080E090E0F901E80FF91F52815073CA
:1030700061F549C0B901C801C7960E94A616813002
:1030800059F0823009F03FC0D701ED91FC910084E6
:10309000F185E02D81E007C0D701ED91FC9100841E
:1030A000F185E02D82E08983BE016F5F7F4FC7010C
:1030B000099529C068E0C90104960E94101D882363
:1030C00011F183E0F80183AB1EC0079681339105AF
:1030D00051F641502F5F3F4F4111C3CF81E0F801BE
:1030E00083ABC80102960E9446238091F001909123
:1030F000F10101969093F1018093F00180910C0110
:1031000081110E94BF100F900F900F90DF91CF910F
:103110001F910F91FF90EF90DF90CF90BF90AF90F5
:103120009F908F907F906F905F904F903F90089509
:1031300008950895089508950895089508950895A7
:10314000CF92DF92EF92FF920F931F93CF93DF9373
:103150006C017A018B01C0E0D0E0CE15DF0589F06B
:10316000D8016D918D01D601ED91FC910190F08116
:10317000E02DC6010995892B11F47E0102C021962C
:10318000ECCFC701DF91CF911F910F91FF90EF908E
:10319000DF90CF9008953FB7F8948091A806909162
:1031A000A906A091AA06B091AB0626B5A89B05C0BA
:1031B0002F3F19F00196A11DB11D3FBFBA2FA92FB6
:1031C000982F8827820F911DA11DB11DBC01CD0133
:1031D00042E0660F771F881F991F4A95D1F708951F
:1031E000EAE6FAE190E1969FD001A0781124A80FB9
:1031F0006770E60FF11D9491AC50BE4F442319F057
:103200008C91982B03C090958C9198239C93089552
:103210002F923F924F925F926F927F928F929F92E6
:10322000AF92BF92CF92DF92EF92FF920F931F93D4
:10323000CF93DF93CDB7DEB727970FB6F894DEBFF5
:103240000FBECDBFFC016A3069F42589818992895E
:1032500038E0239F800D911D1124928B818B108A61
:103260001786A6C06D3009F4A3C09F838E8335886E
:103270002489298333893A8361887288E784F088B6
:1032800080E8E816F104C4F0AE81BF8155962C9118
:103290005597422F50E01F968D919C915097B6E024
:1032A0002B9F800D911D1124EE81FF81908B8787CC
:1032B0002689211167C07CC0F0E46F16710424F7E1
:1032C000C70125E0329E800D911D112418161906A4
:1032D000DCF6432C512CC30138E0339E800D911D48
:1032E00011241816190684F685E0689F80011124C0
:1032F00006591A4E20E0F8012490253009F4212CBB
:10330000430158E020FC02C0398101C03A813111EB
:103310000BC0F9818A81F81307C026945150840CA0
:10332000951C5111EFCF25C067018C2D8E19831587
:10333000A0F754018A2D88198315B8F490E8C916AE
:10334000D10478F4A0E4AA16B10458F4432FB501CF
:10335000C6012C833B835D830E94F0185D813B8115
:103360002C81BFEFAB1ABB0AE5CFEFEFCE1ADE0A16
:10337000DCCF2F5FE40CF51C0F5F1F4F263009F0E8
:10338000BACF82CF6AEF64039001659F300D11249C
:1033900020583F4F281739075CF4AE81BF81ED916B
:1033A000FC9111970190F081E02D6AE0CD01099523
:1033B00081E090E027960FB6F894DEBF0FBECDBF38
:1033C000DF91CF911F910F91FF90EF90DF90CF9001
:1033D000BF90AF909F908F907F906F905F904F9035
:1033E0003F902F9008950895089580E090E008950B
:1033F0000E94C8294F925F926F927F92EF92FF9244
:103400000F931F93CF93DF93CDB7DEB7A1970FB67E
:10341000F894DEBF0FBECDBF7C01FA01CB0119A22B
:10342000223008F42AE08E010F5D1F4F422E512CEE
:10343000612C712CBF01A30192010E947129F90135
:10344000CA01015011096A3014F4605D01C0695C61
:10345000D8016C93232B242B252B61F70115110523
:1034600091F0F80101900020E9F73197AF01401B7E
:10347000510BD701ED91FC910280F381E02DB80151
:10348000C701099502C080E090E0A1960FB6F894BC
:10349000DEBF0FBECDBFDF91CF911F910F91FF9087
:1034A000EF907F906F905F904F900895EF92FF9212
:1034B0000F931F93CF93DF938C017B01C0E0D0E08B
:1034C000F701EC0FFD1F6491662361F0D801ED91C7
:1034D000FC910190F081E02DC8010995892B11F034
:1034E0002196EECFCE01DF91CF911F910F91FF90EA
:1034F000EF9008958F929F92AF92BF92CF92DF92FA
:10350000EF92FF926B017C010E94CB184B015C0192
:10351000C114D104E104F104F1F00E94CB18DC01E4
:10352000CB0188199909AA09BB09883E9340A105D6
:10353000B10570F321E0C21AD108E108F10888EE64
:10354000880E83E0981EA11CB11CC114D104E104B3
:10355000F10419F7DDCFFF90EF90DF90CF90BF908F
:10356000AF909F908F9008951F920F920FB60F9279
:1035700011242F933F938F939F93AF93BF93809189
:10358000E0019091E101A091E201B091E30130915D
:10359000A70623E0230F2D3720F40196A11DB11DAE
:1035A00005C026E8230F0296A11DB11D2093A70692
:1035B0008093E0019093E101A093E201B093E301D5
:1035C0008091A8069091A906A091AA06B091AB0699
:1035D0000196A11DB11D8093A8069093A906A09302
:1035E000AA06B093AB06BF91AF919F918F913F9187
:1035F0002F910F900FBE0F901F9018954F925F92D2
:103600007F928F929F92AF92BF92CF92DF92EF9272
:10361000FF920F931F93CF93DF9300D000D0CDB7CD
:10362000DEB7DC014115510509F4DEC0FA01D49082
:10363000319694914E5F5F4F4D2C512C2223E9F02F
:10364000E92FE695E695E695EE2EF12CE1E0F0E027
:10365000892F877011F4E0E0F0E0EE0DFF1D4E9E23
:1036600070014F9EF00C5E9EF00C11242E9DF00117
:103670002F9DF00D11244E0F5F1F5D01A40CB51C92
:103680001A141B040CF0B0C0A038B1050CF0ACC08B
:103690009B01290F311D121613060CF0A5C06034D2
:1036A00071050CF0A1C04115510509F49DC0F62F1C
:1036B000F770EF2E9B0177FF02C0295F3F4F83E039
:1036C000359527958A95E1F7F22F77FF04C0EE2014
:1036D00011F0FFEFF20FB7FF05C0662777276A1BCF
:1036E0007B0B02C060E070E000E8A016B10424F09B
:1036F00080E8F82EFA1A01C0FD2CF61A2F2F0F2E93
:10370000000C330BFF3F1CF4C22EC09401C0C12C2F
:10371000E1E0892F877009F4E0E0969596959695FB
:103720009E0F290F311D2930310514F098E09F1BA1
:103730008C2D8F0F9D01182F00E81003200D311DD7
:103740001124260F371FCD9C600D711D1124640FAD
:10375000751F41E050E00E2C02C0440F551F0A9423
:10376000E2F7EFEFE49FD001E59FB00D1124A095A3
:10377000B095BC83AB837C809F0F8917A9F1F901B9
:10378000EC50FE4F6F01A12CB12CAF1438F5FB01AA
:10379000EA0DFB1DE491E49F4001E59F900C11248C
:1037A0009A82898287FD07C0F6011081E12FEA2302
:1037B0008E2AF6018082EE2051F0873044F4F60123
:1037C000E058FF4F908097208A8098289082FFEFE2
:1037D000AF1ABF0A0FEFC01AD00AD7CF8F5F640DA0
:1037E000751D20583F4FC9CF0F900F900F900F902D
:1037F000DF91CF911F910F91FF90EF90DF90CF90CD
:10380000BF90AF909F908F907F905F904F90089562
:103810008F929F92AF92BF92CF92DF92EF92FF92E0
:103820000F931F93CF935C01DB01ED91FC9104801A
:10383000F581E02DCB0109956C0120E048E653E1CC
:1038400060E070E080E090E00E94FE1A8DE5E82ED6
:1038500083E1F82E0DE110E0C0E09BE2892E912C6F
:10386000F601908A8786128B018BF701659174911E
:10387000C6010E94561AD50112968C918C130AC06B
:103880002091EE01245F42ED52E1B80181E290E027
:103890000E94FE1ACF5F075F1F4FB3E0EB0EF11CD3
:1038A000C430F1F6CF911F910F91FF90EF90DF9010
:1038B000CF90BF90AF909F908F9008950F931F93DC
:1038C000CF93DF93DB01ED91FC910480F581E02D36
:1038D000CB010995EC018EE290E0988B8F8782E016
:1038E00090E09A8B898B6BEC72E1CE010E94561AA4
:1038F000E091EE01F0E0EE0FFF1FEF53FD4E05915A
:103900001491C8010E94D02896E0989F802D112420
:10391000982F969520E430E0291B31093327388B06
:103920002F8786E390E09A8B898BB801CE010E94A5
:10393000561A8091EE018823A1F022E04FE952E16E
:103940006CE170E088E290E00E94FE1A2091EE01A6
:1039500021504DE650E162E170E08AE090E00E9483
:10396000FE1A8091EE018430A0F423E04FE952E189
:103970006CE170E080E590E00E94FE1A2091EE017B
:103980002F5F4DE650E162E170E08AE590E00E9431
:10399000FE1A2091EE014DE650E162E170E082E313
:1039A00090E00E94FE1A249600E220E240E150E0FE
:1039B00060E370E0CE010E94821020E240E150E01E
:1039C00068E070E0CE010E94821020E240E150E009
:1039D00068E570E0CE010E94821040E86EE070E081
:1039E00080E090E00E944D1040E861E370E080E0EC
:1039F00090E0DF91CF911F910F910C944D102D9A73
:103A00000895BC0180E090E00C947A1A8FB1809503
:103A1000807F669B88601C9B846008950C94E928D5
:103A2000FC019681962321F48581682381E009F4C5
:103A300080E00895CF92DF92EF92FF920F931F9351
:103A4000CF93DF931F92CDB7DEB77C018B01DB01F3
:103A5000ED91FC910480F581E02DCB010995049650
:103A60006C0160E80E94101D882331F0F7019281FB
:103A7000992311F09150928360E1C6010E94101DBC
:103A8000882349F0D70112969C911297933018F42D
:103A90009F5F12969C9368E0C6010E94101D8823C8
:103AA000C1F0D7011296EC91F0E0CF01880F991F79
:103AB000E80FF91FE45AFC4EE491E983D801ED9137
:103AC000FC910084F185E02DBE016F5F7F4FC8013E
:103AD00009950F90DF91CF911F910F91FF90EF907B
:103AE000DF90CF900895EF92FF920F931F93CF93A3
:103AF000DF931F92CDB7DEB77B01DB01ED91FC9127
:103B00000480F581E02DCB0109958C010C5F1F4FDE
:103B100068E0C8010E94101D811106C064E0C80160
:103B20000E94101D882391F080910C0181110E9448
:103B3000BF10D701ED91FC910084F185E02D81E06B
:103B40008983BE016F5F7F4FC701099560E2C8019D
:103B50000E94101D882339F08091EE01882319F00E
:103B600081508093EE0160E4C8010E94101D8823FB
:103B700039F08091EE01843018F48F5F8093EE016C
:103B80000F90DF91CF911F910F91FF90EF900895CB
:103B9000CF92DF92EF92FF920F93CF93DF936B015F
:103BA0007A01E20EF11CEA0157FF10C0C0E0D0E03C
:103BB0000DC0C217D30794F480E8C816D10428F4C6
:103BC000402FBE01C6010E94F0182196970181E4A2
:103BD000E816F10474F320E430E0EBCFDF91CF91ED
:103BE0000F91FF90EF90DF90CF9008958F929F926A
:103BF000AF92BF92CF92DF92EF920F931F93CF932A
:103C0000DF935C014A01102FEB016B01C20ED11C46
:103C1000CC15DD054CF40E2D212FA401BE01C501EC
:103C20000E94C81D2196F4CFDF91CF911F910F9173
:103C3000EF90DF90CF90BF90AF909F908F900895BE
:103C40000F931F93CF93DF93809164008E7F8093B7
:103C5000640080917A00806480937A0080917A0079
:103C600086FDFCCFC0917800D09179000E94CB18DE
:103C70008E0120E030E0980111270027600F711FAE
:103C8000821F931F611571058105910511F00E9436
:103C9000BE2880916400816080936400DF91CF91A1
:103CA0001F910F910895AF92BF92CF92DF92EF9242
:103CB0000F93CF93DF935C01DB01ED91FC910480C6
:103CC000F581E02DCB010995EC016FE77AE10E94C7
:103CD000561A6E01B4E0CB0ED11CE12C09E126E2AC
:103CE00043E150E06DE270E0C6010E94F61D82E300
:103CF00090E0988B8F8788E190E09A8B898BF50113
:103D00008281882319F065E77AE102C068E77AE1E9
:103D1000CE010E94561A6BE77AE1CE010E94561A34
:103D200082E390E0988B8F8780E290E09A8B898B7A
:103D3000D50112968C91813019F065E77AE102C0C5
:103D400068E77AE1CE010E94561A62E77AE1CE0175
:103D50000E94561A07E124E244E150E06EE270E06E
:103D6000C6010E948210DF91CF910F91EF90DF90FA
:103D7000CF90BF90AF900895AF92BF92CF92DF9255
:103D8000EF920F931F93CF93DF936C01DB01ED91C3
:103D9000FC910480F581E02DCB010995EC0181E3D4
:103DA00090E0988B8F8704E010E01A8B098B62EF0C
:103DB0007BE1CE010E94561A188B0F878CE090E0B1
:103DC0009A8B898B6DEE7BE1CE010E94561A6AEECA
:103DD0007BE1CE010E94561A188B0F8784E190E098
:103DE0009A8B898B4091F0015091F10160E070E075
:103DF0002AE0CE010E94FA19188B0F878CE190E01F
:103E00009A8B898B63EE7BE1CE010E94561A6AEE93
:103E10007BE1CE010E94561A188B0F8784E290E056
:103E20009A8B898B4091F2015091F30160E070E030
:103E30002AE0CE010E94FA19F6018281882359F006
:103E4000188B0F8784E390E09A8B898B6BED7BE175
:103E5000CE010E94561AD60113968C91882309F43C
:103E600055C05E01B4E0AB0EB11CE12C01E223E3CE
:103E70004FE050E066E270E0C5010E94F61D0BE2E3
:103E800010E0188B0F8784E190E09A8B898B63EDAB
:103E90007BE1CE010E94561A188B0F878CE190E0CF
:103EA0009A8B898BF6018481882319F069EC7BE178
:103EB00002C06CEC7BE1CE010E94561A6FEC7BE1F4
:103EC000CE010E94561A8BE290E0988B8F8784E295
:103ED00090E09A8B898BD60114968C91813019F0E1
:103EE00069EC7BE102C06CEC7BE1CE010E94561ACA
:103EF00066EC7BE1CE010E94561A0FE121E340E11E
:103F000050E067E270E0C5010E948210DF91CF911E
:103F10001F910F91EF90DF90CF90BF90AF900895D9
:103F2000CF92DF92EF92FF920F931F93CF93DF9385
:103F300000D0CDB7DEB78C016B01DB01ED91FC91B8
:103F40000480F581E02DCB010995BC01F801838146
:103F5000882301F1C80104960E94A6168130A1F4BD
:103F6000D80112969C91911111C01092F1011092FA
:103F7000F0011092F3011092F2018A830E94BF10A7
:103F80008A81F801828302C0882341F1D801139607
:103F90001C9224C07B01B4E0EB0EF11C68E0C70169
:103FA0000E94101D882339F080910C01882319F09C
:103FB00081E0F801838364E0C7010E94101D88231B
:103FC00069F0D601ED91FC910084F185E02D81E04E
:103FD0008983BE016F5F7F4FC60109950F900F90D7
:103FE000DF91CF911F910F91FF90EF90DF90CF90D5
:103FF0000895CF92DF92EF920F93CF93DF936C01EE
:10400000DB01ED91FC910480F581E02DCB01099558
:10401000EC0120E044EA5AE168E070E088E290E0D8
:104020000E94FE1A2496EE24E394F601038124E113
:1040300047E150E066E370E0CE010E94F61DD60134
:1040400013960C9143E250E0401B510924E166E3D2
:1040500070E0CE010E94F61DDF91CF910F91EF909D
:10406000DF90CF900895AF92BF92CF92DF92EF9200
:10407000FF920F931F93CF93DF931F92CDB7DEB7BD
:104080008C017B01DB01ED91FC910480F581E02D39
:10409000CB0109956C015C01B4E0AB0EB11C68E08A
:1040A000C5010E94101D811141C064E0C5010E943C
:1040B000101D81113BC0D80114962C91F601878107
:1040C0009085222379F06CE370E00E94AE29892B61
:1040D000D1F52150F8012483211135C0928181E06E
:1040E000892722C080FD2FC0D80112969C9112977B
:1040F00013968C911397992371F0882311F08150B6
:104100000EC00E94B928862F66E00E94A2299E5FF9
:10411000F801948318C0873028F48F5FD801139674
:104120008C9311C081E0F80182830DC0D701ED911D
:10413000FC910084F185E02D86E08983BE016F5FEC
:104140007F4FC70109950F90DF91CF911F910F917C
:10415000FF90EF90DF90CF90BF90AF900895DB017C
:10416000ED91FC910480F581E02DCB010995049639
:104170000C94201E8F929F92AF92BF92CF92DF92AB
:10418000EF92FF92CF93DF93FB016B01E12CF12CB7
:1041900020E030E02E173F0708F04BC0A22FB32FCE
:1041A0002C5F3F4F40E050E0BA01762F652F542F2F
:1041B0004427AE17BF0768F4EC01CA0FDB1F8880E5
:1041C000082C000C9908AA08BB08482959296A2913
:1041D0007B291196A217B30741F74C0D5D1D6E1D8B
:1041E0007F1D6A017B01ADE0CC0CDD1CEE1CFF1CC9
:1041F000AA95D1F74C255D256E257F256A017B01A7
:10420000B1E1F694E794D794C794BA95D1F74C25C9
:104210005D256E257F256A017B01C5E0CC0CDD1C88
:10422000EE1CFF1CCA95D1F7C426D526E626F72634
:10423000B1CFC701B601DF91CF91FF90EF90DF9032
:10424000CF90BF90AF909F908F900895EF92FF9284
:104250000F931F93CF93DF93CDB7DEB72D970FB694
:10426000F894DEBF0FBECDBF7C018B01DB01ED9169
:10427000FC910480F581E02DCB010995BC01C701BB
:1042800002960E94A616282F882309F443C0813085
:1042900081F51092EE011092EF011092F10110924F
:1042A000F0011092F3011092F20186E0EEEEF1E0DF
:1042B000DE01179601900D928A95E1F786E090E075
:1042C0009E838D8366E070E0CE0107962D870E9465
:1042D000BA2069837A838B839C834CE050E060E052
:1042E00072E0CE0101960E94FD282D8520930C01DD
:1042F00004C0823011F410920C01D801ED91FC91B0
:104300000084F185E02D81E08983BE016F5F7F4FDE
:10431000C80109952D960FB6F894DEBF0FBECDBF2C
:10432000DF91CF911F910F91FF90EF9008958F92A1
:104330009F92AF92BF92CF92DF92EF92FF920F9334
:104340001F93CF93DF93CDB7DEB72D970FB6F894B9
:10435000DEBF0FBECDBF6B01EDB6FEB684E092E0CE
:104360000E94F7285C018E010F5F1F4F8091AC0601
:104370009091AD06009711F480EB96E09801281B10
:10438000390B3595279537FD28C028503109A216DD
:10439000B30618F58DB79EB78A199B090FB6F89426
:1043A0009EBF0FBE8DBFADB7BEB711964D01A50123
:1043B00066E072E0CD010E94D928B501C4010E94D7
:1043C000BA204B015C0180E092E00E94F12821E0DC
:1043D000681579058A059B0509F020E00FB6F89469
:1043E000FEBE0FBEEDBE222309F443C084E092E07E
:1043F0000E94F7288630910510F086E090E026E0D4
:10440000B22E4E01B7E08B0E911CF4012B2D1192B0
:104410002A95E9F7AC0166E072E0C4010E94D92850
:10442000F401D8018B2D01900D928A95E1F7F801E6
:10443000D4018B2D01900D928A95E1F7F401AEEE37
:10444000B1E001900D92BA94E1F78091EE018530D0
:1044500018F084E08093EE01D601ED91FC91008488
:10446000F185E02D81E08D87BE01635F7F4FC6013E
:1044700009950FB6F894FEBE0FBEEDBE2D960FB691
:10448000F894DEBF0FBECDBFDF91CF911F910F918A
:10449000FF90EF90DF90CF90BF90AF909F908F9064
:1044A00008956F927F928F929F92AF92BF92CF9218
:1044B000DF92EF92FF920F931F93CF93DF93CDB7CD
:1044C000DEB7E1970FB6F894DEBF0FBECDBF8C010B
:1044D000DE01119681E3FD0111928A95E9F7FD0154
:1044E000CE01C196108211823296E817F907D1F7F2
:1044F000E62FF0E087E0489FE00DF11D1124E00F6A
:10450000F11F8081982F906290838F7061F489A948
:10451000883148F4FD01E80FF11DE80FF11D6083BB
:1045200041838F5F89AB87E0882EA9A8AA2009F470
:1045300098C0BB24BA94BA0CB9AA3D016B0C711C8B
:104540006B0C711CF30180817181282F30E0F7E042
:104550007F9F7001112481110CC0A9014F5F5F4F33
:10456000FA01EE0DFF1DE00FF11F908195FD2EC0A9
:104570001CC0A901415051096A01CE0CDF1CC00EBC
:10458000D11EF601908195FD0DC0F92FF0629F2E8E
:10459000F60190829F7031F4F7E1FB1518F0F301FA
:1045A0004083A9AA863090F4D8CF692F60626083D7
:1045B0009F7061F499A9983148F4FD01E90FF11D4C
:1045C000E90FF11D408371839F5F99AB472F50E046
:1045D000772321F17A0191E0E91AF1088E9CF0012C
:1045E0008F9CF00D1124E20FF31FE00FF11F90815B
:1045F00095FD11C0692F606260839F7061F499A975
:10460000983148F4FD01E90FF11DE90FF11D808398
:10461000E1829F5F99AB763008F087CF4F5F5F4FA5
:10462000849EF001859EF00D11242E0F3F1FF8018E
:10463000E20FF31F908195FD78CF292F2062208310
:104640009F7009F072CF99A9983108F06ECFFD01E3
:10465000E90FF11DE90FF11D808341839F5F99AB45
:1046600064CFE1960FB6F894DEBF0FBECDBFDF91E9
:10467000CF911F910F91FF90EF90DF90CF90BF905F
:10468000AF909F908F907F906F900895AC0187E0DE
:1046900020E030E0FA01E20FF31F908194FF02C0A6
:1046A00090629083295F3F4F2133310599F7815004
:1046B0004F5F5F4F8111ECCF08954091E70150911A
:1046C000E8012091E5013091E60142175307B4F467
:1046D0009091E8009570E1F39091E80092FD19C087
:1046E0008093F1008091E7019091E80101968F732A
:1046F0009927892B19F48EEF8093E8008091E701C8
:104700009091E80101969093E8018093E70181E0A0
:10471000089580E00895615030F02091F100FC018F
:1047200020830196F8CF289884E68093EC010895C1
:10473000789484B5826084BD84B5816084BD85B57C
:10474000826085BD85B5816085BD80916E00816088
:1047500080936E001092810080918100826080932E
:104760008100809181008160809381008091800030
:10477000816080938000809191008260809391009D
:104780008091910081608093910080919000816080
:10479000809390008091C10084608093C1008091DB
:1047A000C10082608093C1008091C10081608093CC
:1047B000C1008091C30081608093C3008091C000DC
:1047C00082608093C0008091C20081608093C200AB
:1047D00080917A00846080937A0080917A00826070
:1047E00080937A0080917A00816080937A00809132
:1047F0007A00806880937A001092ED011092EA01AD
:104800001092EB018091D70081608093D70080EAFD
:104810008093D80089B5806189BD89B5826089BDE2
:1048200009B400FEFDCF61E070E080E090E00E94FE
:104830007A1A8091D8008F7C80618093D800809113
:10484000E000807F8093E0008091E1008E7E809385
:10485000E1008DE08093E200559A209AEEEFFFE7A9
:10486000859194918B3F9C4D19F481E08093E901EF
:1048700010920D068DE096E00E94D60F90931106DF
:104880008093100680910D0680930E0681EC809334
:104890007C0085B1806F85B984B1877E84B984B18D
:1048A000876E84B95E9A5F988AB1806D8AB9769A6C
:1048B0006E9881B3806F81BB899880B38D7080BB07
:1048C00080E58CBD81E08DBD85E090E00E94011DFA
:1048D0005F9A85E090E00E94011D5E985C98EAE690
:1048E000F1E08DE08E0F94919EBD00000DB407FEA7
:1048F000FDCF31968E13F7CF5C9A81E880936400E8
:104900008091650081608093650080E00E943E1088
:104910000E94061D87FF24C05C9885EA8EBD0000BA
:104920000DB407FEFDCF5C9A2E982F982D9880919C
:10493000640080628093640081E083BF889513BE29
:10494000FCCF2D980E94061D8478843871F00E9457
:10495000061D8471843131F188EC90E00E94011DC4
:104960000E94061D82FDEDCF3AC00E94FF1C88EC1C
:1049700090E00E94011D2F9882E090E00E94E928BB
:104980008F3F29F06FEF82E090E00E94312984EFA1
:1049900091E00E94011D2F9A0E94061D84788438A0
:1049A000D9F3D5CF0E94FF1C88EC90E00E94011D36
:1049B0002E9882E090E00E94E928882329F060E0A8
:1049C00082E090E00E94312984EF91E00E94011D75
:1049D0002E9A0E94061D84718431D9F3BDCF0E94A6
:1049E000FF1C82E090E00E94E928882331F03E9A83
:1049F0003F9A81E08093E40104C01092E4013E9864
:104A00003F9881E090E00E940E1D82FB992490F86F
:104A100081FF8CC091102E98C0EFDFEF08E010E00E
:104A20000E94061D86FF04C02E9A2F9A2D9A7EC0E2
:104A3000992029F0C430D10511F42E9A2F9881E0E5
:104A40000E943E109E01D7FF04C0222733272C1B53
:104A50003D0B27703327CE01D7FD079653E0959580
:104A600087955A95E1F7D7FF05C00197A801421B2A
:104A7000530B9A017C01F694FE2CEE24F794E794F4
:104A800060E070E03801621A730AD701A058BF4F86
:104A90005D018F3FBFEF9B0744F40196685A7F4F3B
:104AA0007501603B710589F721C0D701A857BD4F3B
:104AB00040E050E08F3FEFEF9E0709F40CC1FA0190
:104AC000E60FF71FE654FF4FE4916D01CA18DB08AB
:104AD000CE0CDF1CF0E02F01022E01C0440C0A9422
:104AE000EAF7F601808048284082F5C080E00E9405
:104AF0003E108FE090E00E94011D2196C931D10542
:104B000009F08ECF992011F02F9A2D9880E991E02D
:104B10000E94011D0E94FF1CE091FA05F091FB0527
:104B20000190F081E02D8AEF95E0099582E390E015
:104B30000E94011D0E94061D8111F8CF8AEF95E0A9
:104B40000E94201E8091100690911106DC01ED91CB
:104B5000FC910480F581E02D64EF75E00995FF2458
:104B6000F394E12CC4EFD1E000E010E0DD24D39415
:104B70008FB7F8944091E0015091E1016091E2011A
:104B80007091E3018FBF80910206B42FB81B8B2F69
:104B900090910306992329F0B0930406109203061E
:104BA00093C090910106B91740F48F5F891708F000
:104BB0008BC0F3BE889513BE87C0D0920306409386
:104BC00002068091FD059091FE0501969093FE05E9
:104BD0008093FD058091FF05809300060E94061DCD
:104BE0008093FF058091100690911106009749F07F
:104BF000DC01ED91FC910084F185E02D64EF75E01E
:104C000009958E2DFE0181118FEF002481938193F0
:104C1000819381930394D1F71092080610920706AE
:104C200010920606109205068091100690911106CA
:104C3000009749F0DC01ED91FC910284F385E02DB1
:104C400064EF75E0099580E00E943E1080910F06A8
:104C50008823D1F18091100690911106DC01ED912D
:104C6000FC910680F781E02D64EF75E00995909145
:104C70000D0680910E069817B9F08091100690915C
:104C80001106DC01ED91FC910190F081E02D099578
:104C90008EE096E00E94D60F909311068093100646
:104CA00080910E0680930D0610920F0680911006DB
:104CB00090911106DC01ED91FC910480F581E02DCD
:104CC00064EF75E00995C2CF0115110509F450CFC5
:104CD0000E9400004DCF2115310581F0FA01E60F49
:104CE000F71FE654FF4FE491F0E0062C02C0F59563
:104CF000E7950A94E2F7DC90ED29EC934F5F5F4F64
:104D000011964835510509F0D5CEC7CECF92DF9226
:104D1000EF92FF920F931F93CF93DF931F92CDB724
:104D2000DEB7182F062FE42E862F880F8E5F99830B
:104D30000E945D2383E00E945D23F12EC12E9981A4
:104D4000D92E8C2D8F19801798F4F601E7FE02C03A
:104D5000849101C080810E945D23182F80E00E9411
:104D60005D238123FFEFCF1ADF0A8111EACF01C053
:104D700081E00F90DF91CF911F910F91FF90EF9005
:104D8000DF90CF900895E7E5F6E01382128288EE77
:104D900093E0A0E0B0E084839583A683B78382EAA2
:104DA00091E0918380838FEF9FEF95878487E4EF75
:104DB000F5E088EC91E0918380831582148213865C
:104DC000148680E1858712861186178684EB91E030
:104DD0009383828382EC91E097838683128A118A7F
:104DE000148A138A81E0858B168A878B108E08952A
:104DF0000F931F93CF93DF938C0181E090E00E948B
:104E00000E1D80FF32C08AE090E00E940E1D9FEFD1
:104E1000980F9E3F50F522E330E0D80150963C9326
:104E20002E931F9728E330E052963C932E93519790
:104E3000CBE0D0E0D801ED91FC910190F081E02D24
:104E4000682FC8010995CE010E940E1D2196C1311F
:104E5000D10581F780E00E943E1088EE93E0DF915B
:104E6000CF911F910F910C94011DDF91CF911F9154
:104E70000F91089504970C94F8260895CF93DF932B
:104E80008230910510F482E090E0E091AE06F0915E
:104E9000AF0620E030E0C0E0D0E0309711F1408173
:104EA000518148175907C0F04817590761F48281AA
:104EB0009381209719F09B838A832BC09093AF0630
:104EC0008093AE0626C02115310519F0421753070D
:104ED00018F49A01BE01DF01EF010280F381E02D99
:104EE000DCCF2115310509F1281B390B24303105A0
:104EF00090F412968D919C9113976115710521F094
:104F0000FB019383828304C09093AF068093AE0627
:104F1000FD01329644C0FD01E20FF31F819391938E
:104F2000225031092D933C933AC02091AC06309128
:104F3000AD06232B41F420910F01309110013093E5
:104F4000AD062093AC0620910D0130910E01211584
:104F5000310541F42DB73EB7409111015091120136
:104F6000241B350BE091AC06F091AD06E217F30778
:104F7000A0F42E1B3F0B2817390778F0AC014E5FC9
:104F80005F4F2417350748F04E0F5F1F5093AD0653
:104F90004093AC068193919302C0E0E0F0E0CF0132
:104FA000DF91CF9108950F931F93CF93DF930097D5
:104FB00009F48CC0FC013297138212820091AE0674
:104FC0001091AF060115110581F420813181820F06
:104FD000931F2091AC063091AD062817390779F55B
:104FE000F093AD06E093AC0671C0D80140E050E00C
:104FF000AE17BF0750F412962D913C911397AD0157
:105000002115310509F1D901F3CF9D01DA0133836F
:10501000228360817181860F971F8217930769F43D
:10502000EC0128813981260F371F2E5F3F4F3183D6
:1050300020838A819B8193838283452B29F4F0937B
:10504000AF06E093AE0642C01396FC93EE93129720
:10505000ED01499159919E01240F351FE217F30785
:1050600071F480819181840F951F029611969C9313
:105070008E938281938113969C938E931297E0E096
:10508000F0E0D80112968D919C911397009719F03A
:10509000F8018C01F6CF8D919C9198012E5F3F4FC6
:1050A000820F931F2091AC063091AD062817390767
:1050B00069F4309729F41092AF061092AE0602C040
:1050C000138212821093AD060093AC06DF91CF914C
:1050D0001F910F9108958F929F92AF92BF92CF929E
:1050E000DF92EF92FF92CF93DF93EC016881798199
:1050F0008A819B81611571058105910521F464E226
:1051000079ED8BE597E02DE133EF41E050E00E942F
:105110003F2949015A019B01AC01A7EAB1E40E9471
:105120005E296B017C01ACEEB4EFA50194010E94F5
:105130006C29DC01CB018C0D9D1DAE1DBF1DB7FF81
:1051400003C00197A109B04888839983AA83BB83D0
:10515000BC01CD019F77DF91CF91FF90EF90DF9061
:10516000CF90BF90AF909F908F9008950E946B2832
:10517000089583E191E00E946B28089560931301E4
:105180007093140180931501909316010895FB010B
:10519000DC0102C005900D9241505040D8F70895AF
:1051A000FC0105900020E9F7809590958E0F9F1FD8
:1051B0000895DC01CB01FC01F999FECF06C0F2BDD8
:1051C000E1BDF89A319600B40D9241505040B8F7C5
:1051D0000895F999FECF92BD81BDF89A992780B5BF
:1051E0000895A6E1B0E044E050E00C94DB28A8E18B
:1051F000B0E042E050E00C94DB28DC01A40FB51FC6
:105200004150504048F0CB01840F951F2E910E94D1
:105210000E2941505040D0F70895262FF999FECF1E
:1052200092BD81BDF89A019700B4021639F01FBAF9
:1052300020BD0FB6F894FA9AF99A0FBE0895039616
:10524000272F0E940E290E940D29252F0E940E292A
:10525000242F0C940E290196272F0E940E290C94BE
:105260000D29262FF999FECF1FBA92BD81BD20BD11
:105270000FB6F894FA9AF99A0FBE01960895052E82
:1052800097FB1EF400940E94562957FD07D00E94F8
:10529000712907FC03D04EF40C9456295095409583
:1052A000309521953F4F4F4F5F4F089590958095D2
:1052B000709561957F4F8F4F9F4F08950E9493295E
:1052C000A59F900DB49F900DA49F800D911D11245A
:1052D0000895B7FF0C945E290E945E29821B930BF0
:1052E0000895A1E21A2EAA1BBB1BFD010DC0AA1F27
:1052F000BB1FEE1FFF1FA217B307E407F50720F03F
:10530000A21BB30BE40BF50B661F771F881F991FB9
:105310001A9469F760957095809590959B01AC0102
:10532000BD01CF010895A29FB001B39FC001A39F0B
:10533000700D811D1124911DB29F700D811D1124CE
:10534000911D0895991B79E004C0991F961708F0E4
:10535000961B881F7A95C9F780950895AA1BBB1BD9
:1053600051E107C0AA1FBB1FA617B70710F0A61B65
:10537000B70B881F991F5A95A9F780959095BC0186
:10538000CD010895EE0FFF1F0590F491E02D0994D3
:1053900081E090E0F8940C94CD291DE0CDEFDDE0A4
:1053A00004C0FE010E94C2292196CE3FD107C9F751
:0453B000F894FFCF9F
:1053B400FFFFFFFF00E1000000000000010000B05B
:1053C4000680000100000000C18081000000000090
:1053D40000009A18DE15D913D813901FBC1E0000C4
:1053E40000009B18E015BC15D813DC16DA13000076
:1053F40000009818DA159721D8132621531E0000AF
:1054040000009918DC15D913D813731D5E1C000015
:1054140000009F18D815D913D8131F15E8150000DC
:1054240000009C18E215D913D8131A1D081C00009B
:1054340000009D18E415AF20D8133320F91F000095
:10544400000000000000D913D813F819F81900005F
:105454000000770EF80E980E8D0EDE0E9C0EBA0E1E
:10546400000000000819A018F519F419F826FCFF2B
:1054740000003A27000000009E18E615D613D41346
:10548400CD130000000000000000F819F819F81905
:00000001FF